{
	"chaintalk.sol": {
		"ChainTalk": {
			"abi": [
				{
					"inputs": [],
					"stateMutability": "nonpayable",
					"type": "constructor"
				},
				{
					"inputs": [
						{
							"internalType": "address",
							"name": "owner",
							"type": "address"
						}
					],
					"name": "OwnableInvalidOwner",
					"type": "error"
				},
				{
					"inputs": [
						{
							"internalType": "address",
							"name": "account",
							"type": "address"
						}
					],
					"name": "OwnableUnauthorizedAccount",
					"type": "error"
				},
				{
					"anonymous": false,
					"inputs": [
						{
							"indexed": true,
							"internalType": "uint256",
							"name": "messageId",
							"type": "uint256"
						},
						{
							"indexed": false,
							"internalType": "string",
							"name": "newContent",
							"type": "string"
						}
					],
					"name": "EditApproved",
					"type": "event"
				},
				{
					"anonymous": false,
					"inputs": [
						{
							"indexed": true,
							"internalType": "uint256",
							"name": "messageId",
							"type": "uint256"
						},
						{
							"indexed": true,
							"internalType": "address",
							"name": "requester",
							"type": "address"
						},
						{
							"indexed": false,
							"internalType": "string",
							"name": "newContent",
							"type": "string"
						}
					],
					"name": "EditRequested",
					"type": "event"
				},
				{
					"anonymous": false,
					"inputs": [
						{
							"indexed": true,
							"internalType": "uint256",
							"name": "messageId",
							"type": "uint256"
						}
					],
					"name": "MessageDeleted",
					"type": "event"
				},
				{
					"anonymous": false,
					"inputs": [
						{
							"indexed": true,
							"internalType": "uint256",
							"name": "messageId",
							"type": "uint256"
						},
						{
							"indexed": true,
							"internalType": "address",
							"name": "author",
							"type": "address"
						},
						{
							"indexed": false,
							"internalType": "string",
							"name": "content",
							"type": "string"
						}
					],
					"name": "MessagePosted",
					"type": "event"
				},
				{
					"anonymous": false,
					"inputs": [
						{
							"indexed": true,
							"internalType": "address",
							"name": "previousOwner",
							"type": "address"
						},
						{
							"indexed": true,
							"internalType": "address",
							"name": "newOwner",
							"type": "address"
						}
					],
					"name": "OwnershipTransferred",
					"type": "event"
				},
				{
					"inputs": [
						{
							"internalType": "uint256",
							"name": "_editRequestId",
							"type": "uint256"
						}
					],
					"name": "approveMessageEdit",
					"outputs": [],
					"stateMutability": "nonpayable",
					"type": "function"
				},
				{
					"inputs": [
						{
							"internalType": "uint256",
							"name": "_messageId",
							"type": "uint256"
						}
					],
					"name": "deleteMessage",
					"outputs": [],
					"stateMutability": "nonpayable",
					"type": "function"
				},
				{
					"inputs": [],
					"name": "editRequestCount",
					"outputs": [
						{
							"internalType": "uint256",
							"name": "",
							"type": "uint256"
						}
					],
					"stateMutability": "view",
					"type": "function"
				},
				{
					"inputs": [
						{
							"internalType": "uint256",
							"name": "",
							"type": "uint256"
						}
					],
					"name": "editRequests",
					"outputs": [
						{
							"internalType": "uint256",
							"name": "messageId",
							"type": "uint256"
						},
						{
							"internalType": "address",
							"name": "requester",
							"type": "address"
						},
						{
							"internalType": "string",
							"name": "newContent",
							"type": "string"
						},
						{
							"internalType": "bool",
							"name": "isApproved",
							"type": "bool"
						}
					],
					"stateMutability": "view",
					"type": "function"
				},
				{
					"inputs": [],
					"name": "getAllMessages",
					"outputs": [
						{
							"components": [
								{
									"internalType": "uint256",
									"name": "id",
									"type": "uint256"
								},
								{
									"internalType": "address",
									"name": "author",
									"type": "address"
								},
								{
									"internalType": "string",
									"name": "content",
									"type": "string"
								},
								{
									"internalType": "uint256",
									"name": "timestamp",
									"type": "uint256"
								},
								{
									"internalType": "bool",
									"name": "isDeleted",
									"type": "bool"
								}
							],
							"internalType": "struct ChainTalk.Message[]",
							"name": "",
							"type": "tuple[]"
						}
					],
					"stateMutability": "view",
					"type": "function"
				},
				{
					"inputs": [
						{
							"internalType": "uint256",
							"name": "_messageId",
							"type": "uint256"
						}
					],
					"name": "getMessage",
					"outputs": [
						{
							"components": [
								{
									"internalType": "uint256",
									"name": "id",
									"type": "uint256"
								},
								{
									"internalType": "address",
									"name": "author",
									"type": "address"
								},
								{
									"internalType": "string",
									"name": "content",
									"type": "string"
								},
								{
									"internalType": "uint256",
									"name": "timestamp",
									"type": "uint256"
								},
								{
									"internalType": "bool",
									"name": "isDeleted",
									"type": "bool"
								}
							],
							"internalType": "struct ChainTalk.Message",
							"name": "",
							"type": "tuple"
						}
					],
					"stateMutability": "view",
					"type": "function"
				},
				{
					"inputs": [],
					"name": "getPendingEditRequests",
					"outputs": [
						{
							"components": [
								{
									"internalType": "uint256",
									"name": "messageId",
									"type": "uint256"
								},
								{
									"internalType": "address",
									"name": "requester",
									"type": "address"
								},
								{
									"internalType": "string",
									"name": "newContent",
									"type": "string"
								},
								{
									"internalType": "bool",
									"name": "isApproved",
									"type": "bool"
								}
							],
							"internalType": "struct ChainTalk.EditRequest[]",
							"name": "",
							"type": "tuple[]"
						}
					],
					"stateMutability": "view",
					"type": "function"
				},
				{
					"inputs": [],
					"name": "messageCount",
					"outputs": [
						{
							"internalType": "uint256",
							"name": "",
							"type": "uint256"
						}
					],
					"stateMutability": "view",
					"type": "function"
				},
				{
					"inputs": [
						{
							"internalType": "uint256",
							"name": "",
							"type": "uint256"
						}
					],
					"name": "messages",
					"outputs": [
						{
							"internalType": "uint256",
							"name": "id",
							"type": "uint256"
						},
						{
							"internalType": "address",
							"name": "author",
							"type": "address"
						},
						{
							"internalType": "string",
							"name": "content",
							"type": "string"
						},
						{
							"internalType": "uint256",
							"name": "timestamp",
							"type": "uint256"
						},
						{
							"internalType": "bool",
							"name": "isDeleted",
							"type": "bool"
						}
					],
					"stateMutability": "view",
					"type": "function"
				},
				{
					"inputs": [],
					"name": "owner",
					"outputs": [
						{
							"internalType": "address",
							"name": "",
							"type": "address"
						}
					],
					"stateMutability": "view",
					"type": "function"
				},
				{
					"inputs": [
						{
							"internalType": "string",
							"name": "_content",
							"type": "string"
						}
					],
					"name": "postMessage",
					"outputs": [
						{
							"internalType": "uint256",
							"name": "",
							"type": "uint256"
						}
					],
					"stateMutability": "nonpayable",
					"type": "function"
				},
				{
					"inputs": [],
					"name": "renounceOwnership",
					"outputs": [],
					"stateMutability": "nonpayable",
					"type": "function"
				},
				{
					"inputs": [
						{
							"internalType": "uint256",
							"name": "_messageId",
							"type": "uint256"
						},
						{
							"internalType": "string",
							"name": "_newContent",
							"type": "string"
						}
					],
					"name": "requestMessageEdit",
					"outputs": [],
					"stateMutability": "nonpayable",
					"type": "function"
				},
				{
					"inputs": [
						{
							"internalType": "address",
							"name": "newOwner",
							"type": "address"
						}
					],
					"name": "transferOwnership",
					"outputs": [],
					"stateMutability": "nonpayable",
					"type": "function"
				}
			],
			"devdoc": {
				"errors": {
					"OwnableInvalidOwner(address)": [
						{
							"details": "The owner is not a valid owner account. (eg. `address(0)`)"
						}
					],
					"OwnableUnauthorizedAccount(address)": [
						{
							"details": "The caller account is not authorized to perform an operation."
						}
					]
				},
				"kind": "dev",
				"methods": {
					"owner()": {
						"details": "Returns the address of the current owner."
					},
					"renounceOwnership()": {
						"details": "Leaves the contract without owner. It will not be possible to call `onlyOwner` functions. Can only be called by the current owner. NOTE: Renouncing ownership will leave the contract without an owner, thereby disabling any functionality that is only available to the owner."
					},
					"transferOwnership(address)": {
						"details": "Transfers ownership of the contract to a new account (`newOwner`). Can only be called by the current owner."
					}
				},
				"version": 1
			},
			"evm": {
				"assembly": "    /* \"chaintalk.sol\":179:4551  contract ChainTalk is Ownable, ReentrancyGuard {... */\n  mstore(0x40, 0x80)\n    /* \"chaintalk.sol\":1026:1062  constructor() Ownable(msg.sender) {} */\n  callvalue\n  dup1\n  iszero\n  tag_1\n  jumpi\n  revert(0x00, 0x00)\ntag_1:\n  pop\n    /* \"chaintalk.sol\":1048:1058  msg.sender */\n  caller\n    /* \"@openzeppelin/contracts/access/Ownable.sol\":1297:1298  0 */\n  0x00\n    /* \"@openzeppelin/contracts/access/Ownable.sol\":1273:1299  initialOwner == address(0) */\n  0xffffffffffffffffffffffffffffffffffffffff\n  and\n    /* \"@openzeppelin/contracts/access/Ownable.sol\":1273:1285  initialOwner */\n  dup2\n    /* \"@openzeppelin/contracts/access/Ownable.sol\":1273:1299  initialOwner == address(0) */\n  0xffffffffffffffffffffffffffffffffffffffff\n  and\n  sub\n    /* \"@openzeppelin/contracts/access/Ownable.sol\":1269:1364  if (initialOwner == address(0)) {... */\n  tag_6\n  jumpi\n    /* \"@openzeppelin/contracts/access/Ownable.sol\":1350:1351  0 */\n  0x00\n    /* \"@openzeppelin/contracts/access/Ownable.sol\":1322:1353  OwnableInvalidOwner(address(0)) */\n  mload(0x40)\n  0x1e4fbdf700000000000000000000000000000000000000000000000000000000\n  dup2\n  mstore\n  0x04\n  add\n  tag_7\n  swap2\n  swap1\n  tag_8\n  jump\t// in\ntag_7:\n  mload(0x40)\n  dup1\n  swap2\n  sub\n  swap1\n  revert\n    /* \"@openzeppelin/contracts/access/Ownable.sol\":1269:1364  if (initialOwner == address(0)) {... */\ntag_6:\n    /* \"@openzeppelin/contracts/access/Ownable.sol\":1373:1405  _transferOwnership(initialOwner) */\n  tag_9\n    /* \"@openzeppelin/contracts/access/Ownable.sol\":1392:1404  initialOwner */\n  dup2\n    /* \"@openzeppelin/contracts/access/Ownable.sol\":1373:1391  _transferOwnership */\n  shl(0x20, tag_10)\n    /* \"@openzeppelin/contracts/access/Ownable.sol\":1373:1405  _transferOwnership(initialOwner) */\n  0x20\n  shr\n  jump\t// in\ntag_9:\n    /* \"@openzeppelin/contracts/access/Ownable.sol\":1225:1412  constructor(address initialOwner) {... */\n  pop\n    /* \"@openzeppelin/contracts/security/ReentrancyGuard.sol\":1716:1717  1 */\n  0x01\n    /* \"@openzeppelin/contracts/security/ReentrancyGuard.sol\":1821:1828  _status */\n  dup1\n    /* \"@openzeppelin/contracts/security/ReentrancyGuard.sol\":1821:1843  _status = _NOT_ENTERED */\n  dup2\n  swap1\n  sstore\n  pop\n    /* \"chaintalk.sol\":179:4551  contract ChainTalk is Ownable, ReentrancyGuard {... */\n  jump(tag_13)\n    /* \"@openzeppelin/contracts/access/Ownable.sol\":2912:3099  function _transferOwnership(address newOwner) internal virtual {... */\ntag_10:\n    /* \"@openzeppelin/contracts/access/Ownable.sol\":2985:3001  address oldOwner */\n  0x00\n    /* \"@openzeppelin/contracts/access/Ownable.sol\":3004:3010  _owner */\n  0x00\n  0x00\n  swap1\n  sload\n  swap1\n  0x0100\n  exp\n  swap1\n  div\n  0xffffffffffffffffffffffffffffffffffffffff\n  and\n    /* \"@openzeppelin/contracts/access/Ownable.sol\":2985:3010  address oldOwner = _owner */\n  swap1\n  pop\n    /* \"@openzeppelin/contracts/access/Ownable.sol\":3029:3037  newOwner */\n  dup2\n    /* \"@openzeppelin/contracts/access/Ownable.sol\":3020:3026  _owner */\n  0x00\n  0x00\n    /* \"@openzeppelin/contracts/access/Ownable.sol\":3020:3037  _owner = newOwner */\n  0x0100\n  exp\n  dup2\n  sload\n  dup2\n  0xffffffffffffffffffffffffffffffffffffffff\n  mul\n  not\n  and\n  swap1\n  dup4\n  0xffffffffffffffffffffffffffffffffffffffff\n  and\n  mul\n  or\n  swap1\n  sstore\n  pop\n    /* \"@openzeppelin/contracts/access/Ownable.sol\":3083:3091  newOwner */\n  dup2\n    /* \"@openzeppelin/contracts/access/Ownable.sol\":3052:3092  OwnershipTransferred(oldOwner, newOwner) */\n  0xffffffffffffffffffffffffffffffffffffffff\n  and\n    /* \"@openzeppelin/contracts/access/Ownable.sol\":3073:3081  oldOwner */\n  dup2\n    /* \"@openzeppelin/contracts/access/Ownable.sol\":3052:3092  OwnershipTransferred(oldOwner, newOwner) */\n  0xffffffffffffffffffffffffffffffffffffffff\n  and\n  0x8be0079c531659141344cd1fd0a4f28419497f9722a3daafe3b4186f6b6457e0\n  mload(0x40)\n  mload(0x40)\n  dup1\n  swap2\n  sub\n  swap1\n  log3\n    /* \"@openzeppelin/contracts/access/Ownable.sol\":2975:3099  {... */\n  pop\n    /* \"@openzeppelin/contracts/access/Ownable.sol\":2912:3099  function _transferOwnership(address newOwner) internal virtual {... */\n  pop\n  jump\t// out\n    /* \"#utility.yul\":7:133   */\ntag_15:\n    /* \"#utility.yul\":44:51   */\n  0x00\n    /* \"#utility.yul\":84:126   */\n  0xffffffffffffffffffffffffffffffffffffffff\n    /* \"#utility.yul\":77:82   */\n  dup3\n    /* \"#utility.yul\":73:127   */\n  and\n    /* \"#utility.yul\":62:127   */\n  swap1\n  pop\n    /* \"#utility.yul\":7:133   */\n  swap2\n  swap1\n  pop\n  jump\t// out\n    /* \"#utility.yul\":139:235   */\ntag_16:\n    /* \"#utility.yul\":176:183   */\n  0x00\n    /* \"#utility.yul\":205:229   */\n  tag_21\n    /* \"#utility.yul\":223:228   */\n  dup3\n    /* \"#utility.yul\":205:229   */\n  tag_15\n  jump\t// in\ntag_21:\n    /* \"#utility.yul\":194:229   */\n  swap1\n  pop\n    /* \"#utility.yul\":139:235   */\n  swap2\n  swap1\n  pop\n  jump\t// out\n    /* \"#utility.yul\":241:359   */\ntag_17:\n    /* \"#utility.yul\":328:352   */\n  tag_23\n    /* \"#utility.yul\":346:351   */\n  dup2\n    /* \"#utility.yul\":328:352   */\n  tag_16\n  jump\t// in\ntag_23:\n    /* \"#utility.yul\":323:326   */\n  dup3\n    /* \"#utility.yul\":316:353   */\n  mstore\n    /* \"#utility.yul\":241:359   */\n  pop\n  pop\n  jump\t// out\n    /* \"#utility.yul\":365:587   */\ntag_8:\n    /* \"#utility.yul\":458:462   */\n  0x00\n    /* \"#utility.yul\":496:498   */\n  0x20\n    /* \"#utility.yul\":485:494   */\n  dup3\n    /* \"#utility.yul\":481:499   */\n  add\n    /* \"#utility.yul\":473:499   */\n  swap1\n  pop\n    /* \"#utility.yul\":509:580   */\n  tag_25\n    /* \"#utility.yul\":577:578   */\n  0x00\n    /* \"#utility.yul\":566:575   */\n  dup4\n    /* \"#utility.yul\":562:579   */\n  add\n    /* \"#utility.yul\":553:559   */\n  dup5\n    /* \"#utility.yul\":509:580   */\n  tag_17\n  jump\t// in\ntag_25:\n    /* \"#utility.yul\":365:587   */\n  swap3\n  swap2\n  pop\n  pop\n  jump\t// out\n    /* \"chaintalk.sol\":179:4551  contract ChainTalk is Ownable, ReentrancyGuard {... */\ntag_13:\n  dataSize(sub_0)\n  dup1\n  dataOffset(sub_0)\n  0x00\n  codecopy\n  0x00\n  return\nstop\n\nsub_0: assembly {\n        /* \"chaintalk.sol\":179:4551  contract ChainTalk is Ownable, ReentrancyGuard {... */\n      mstore(0x40, 0x80)\n      callvalue\n      dup1\n      iszero\n      tag_1\n      jumpi\n      revert(0x00, 0x00)\n    tag_1:\n      pop\n      jumpi(tag_2, lt(calldatasize, 0x04))\n      shr(0xe0, calldataload(0x00))\n      dup1\n      0x77175fac\n      gt\n      tag_17\n      jumpi\n      dup1\n      0x8da5cb5b\n      gt\n      tag_18\n      jumpi\n      dup1\n      0x8da5cb5b\n      eq\n      tag_13\n      jumpi\n      dup1\n      0xa8c69fd8\n      eq\n      tag_14\n      jumpi\n      dup1\n      0xb888690a\n      eq\n      tag_15\n      jumpi\n      dup1\n      0xf2fde38b\n      eq\n      tag_16\n      jumpi\n      jump(tag_2)\n    tag_18:\n      dup1\n      0x77175fac\n      eq\n      tag_10\n      jumpi\n      dup1\n      0x83c3cca7\n      eq\n      tag_11\n      jumpi\n      dup1\n      0x86f79edb\n      eq\n      tag_12\n      jumpi\n      jump(tag_2)\n    tag_17:\n      dup1\n      0x44a56dd9\n      gt\n      tag_19\n      jumpi\n      dup1\n      0x44a56dd9\n      eq\n      tag_6\n      jumpi\n      dup1\n      0x53f5e380\n      eq\n      tag_7\n      jumpi\n      dup1\n      0x6630f88f\n      eq\n      tag_8\n      jumpi\n      dup1\n      0x715018a6\n      eq\n      tag_9\n      jumpi\n      jump(tag_2)\n    tag_19:\n      dup1\n      0x0d80fefd\n      eq\n      tag_3\n      jumpi\n      dup1\n      0x3bdae52f\n      eq\n      tag_4\n      jumpi\n      dup1\n      0x3dbcc8d1\n      eq\n      tag_5\n      jumpi\n    tag_2:\n      revert(0x00, 0x00)\n        /* \"chaintalk.sol\":529:572  mapping(uint256 => Message) public messages */\n    tag_3:\n      tag_20\n      0x04\n      dup1\n      calldatasize\n      sub\n      dup2\n      add\n      swap1\n      tag_21\n      swap2\n      swap1\n      tag_22\n      jump\t// in\n    tag_21:\n      tag_23\n      jump\t// in\n    tag_20:\n      mload(0x40)\n      tag_24\n      swap6\n      swap5\n      swap4\n      swap3\n      swap2\n      swap1\n      tag_25\n      jump\t// in\n    tag_24:\n      mload(0x40)\n      dup1\n      swap2\n      sub\n      swap1\n      return\n        /* \"chaintalk.sol\":671:702  uint256 public editRequestCount */\n    tag_4:\n      tag_26\n      tag_27\n      jump\t// in\n    tag_26:\n      mload(0x40)\n      tag_28\n      swap2\n      swap1\n      tag_29\n      jump\t// in\n    tag_28:\n      mload(0x40)\n      dup1\n      swap2\n      sub\n      swap1\n      return\n        /* \"chaintalk.sol\":637:664  uint256 public messageCount */\n    tag_5:\n      tag_30\n      tag_31\n      jump\t// in\n    tag_30:\n      mload(0x40)\n      tag_32\n      swap2\n      swap1\n      tag_29\n      jump\t// in\n    tag_32:\n      mload(0x40)\n      dup1\n      swap2\n      sub\n      swap1\n      return\n        /* \"chaintalk.sol\":3696:4220  function getPendingEditRequests() public view returns (EditRequest[] memory) {... */\n    tag_6:\n      tag_33\n      tag_34\n      jump\t// in\n    tag_33:\n      mload(0x40)\n      tag_35\n      swap2\n      swap1\n      tag_36\n      jump\t// in\n    tag_35:\n      mload(0x40)\n      dup1\n      swap2\n      sub\n      swap1\n      return\n        /* \"chaintalk.sol\":1878:2361  function getAllMessages() public view returns (Message[] memory) {... */\n    tag_7:\n      tag_37\n      tag_38\n      jump\t// in\n    tag_37:\n      mload(0x40)\n      tag_39\n      swap2\n      swap1\n      tag_40\n      jump\t// in\n    tag_39:\n      mload(0x40)\n      dup1\n      swap2\n      sub\n      swap1\n      return\n        /* \"chaintalk.sol\":1070:1578  function postMessage(string memory _content) public nonReentrant returns (uint256) {... */\n    tag_8:\n      tag_41\n      0x04\n      dup1\n      calldatasize\n      sub\n      dup2\n      add\n      swap1\n      tag_42\n      swap2\n      swap1\n      tag_43\n      jump\t// in\n    tag_42:\n      tag_44\n      jump\t// in\n    tag_41:\n      mload(0x40)\n      tag_45\n      swap2\n      swap1\n      tag_29\n      jump\t// in\n    tag_45:\n      mload(0x40)\n      dup1\n      swap2\n      sub\n      swap1\n      return\n        /* \"@openzeppelin/contracts/access/Ownable.sol\":2293:2394  function renounceOwnership() public virtual onlyOwner {... */\n    tag_9:\n      tag_46\n      tag_47\n      jump\t// in\n    tag_46:\n      stop\n        /* \"chaintalk.sol\":579:630  mapping(uint256 => EditRequest) public editRequests */\n    tag_10:\n      tag_48\n      0x04\n      dup1\n      calldatasize\n      sub\n      dup2\n      add\n      swap1\n      tag_49\n      swap2\n      swap1\n      tag_22\n      jump\t// in\n    tag_49:\n      tag_50\n      jump\t// in\n    tag_48:\n      mload(0x40)\n      tag_51\n      swap5\n      swap4\n      swap3\n      swap2\n      swap1\n      tag_52\n      jump\t// in\n    tag_51:\n      mload(0x40)\n      dup1\n      swap2\n      sub\n      swap1\n      return\n        /* \"chaintalk.sol\":3127:3690  function approveMessageEdit(uint256 _editRequestId) public onlyOwner {... */\n    tag_11:\n      tag_53\n      0x04\n      dup1\n      calldatasize\n      sub\n      dup2\n      add\n      swap1\n      tag_54\n      swap2\n      swap1\n      tag_22\n      jump\t// in\n    tag_54:\n      tag_55\n      jump\t// in\n    tag_53:\n      stop\n        /* \"chaintalk.sol\":1584:1872  function getMessage(uint256 _messageId) public view returns (Message memory) {... */\n    tag_12:\n      tag_56\n      0x04\n      dup1\n      calldatasize\n      sub\n      dup2\n      add\n      swap1\n      tag_57\n      swap2\n      swap1\n      tag_22\n      jump\t// in\n    tag_57:\n      tag_58\n      jump\t// in\n    tag_56:\n      mload(0x40)\n      tag_59\n      swap2\n      swap1\n      tag_60\n      jump\t// in\n    tag_59:\n      mload(0x40)\n      dup1\n      swap2\n      sub\n      swap1\n      return\n        /* \"@openzeppelin/contracts/access/Ownable.sol\":1638:1723  function owner() public view virtual returns (address) {... */\n    tag_13:\n      tag_61\n      tag_62\n      jump\t// in\n    tag_61:\n      mload(0x40)\n      tag_63\n      swap2\n      swap1\n      tag_64\n      jump\t// in\n    tag_63:\n      mload(0x40)\n      dup1\n      swap2\n      sub\n      swap1\n      return\n        /* \"chaintalk.sol\":2367:3121  function requestMessageEdit(uint256 _messageId, string memory _newContent) public nonReentrant {... */\n    tag_14:\n      tag_65\n      0x04\n      dup1\n      calldatasize\n      sub\n      dup2\n      add\n      swap1\n      tag_66\n      swap2\n      swap1\n      tag_67\n      jump\t// in\n    tag_66:\n      tag_68\n      jump\t// in\n    tag_65:\n      stop\n        /* \"chaintalk.sol\":4226:4548  function deleteMessage(uint256 _messageId) public onlyOwner {... */\n    tag_15:\n      tag_69\n      0x04\n      dup1\n      calldatasize\n      sub\n      dup2\n      add\n      swap1\n      tag_70\n      swap2\n      swap1\n      tag_22\n      jump\t// in\n    tag_70:\n      tag_71\n      jump\t// in\n    tag_69:\n      stop\n        /* \"@openzeppelin/contracts/access/Ownable.sol\":2543:2758  function transferOwnership(address newOwner) public virtual onlyOwner {... */\n    tag_16:\n      tag_72\n      0x04\n      dup1\n      calldatasize\n      sub\n      dup2\n      add\n      swap1\n      tag_73\n      swap2\n      swap1\n      tag_74\n      jump\t// in\n    tag_73:\n      tag_75\n      jump\t// in\n    tag_72:\n      stop\n        /* \"chaintalk.sol\":529:572  mapping(uint256 => Message) public messages */\n    tag_23:\n      mstore(0x20, 0x02)\n      dup1\n      0x00\n      mstore\n      keccak256(0x00, 0x40)\n      0x00\n      swap2\n      pop\n      swap1\n      pop\n      dup1\n      0x00\n      add\n      sload\n      swap1\n      dup1\n      0x01\n      add\n      0x00\n      swap1\n      sload\n      swap1\n      0x0100\n      exp\n      swap1\n      div\n      0xffffffffffffffffffffffffffffffffffffffff\n      and\n      swap1\n      dup1\n      0x02\n      add\n      dup1\n      sload\n      tag_76\n      swap1\n      tag_77\n      jump\t// in\n    tag_76:\n      dup1\n      0x1f\n      add\n      0x20\n      dup1\n      swap2\n      div\n      mul\n      0x20\n      add\n      mload(0x40)\n      swap1\n      dup2\n      add\n      0x40\n      mstore\n      dup1\n      swap3\n      swap2\n      swap1\n      dup2\n      dup2\n      mstore\n      0x20\n      add\n      dup3\n      dup1\n      sload\n      tag_78\n      swap1\n      tag_77\n      jump\t// in\n    tag_78:\n      dup1\n      iszero\n      tag_79\n      jumpi\n      dup1\n      0x1f\n      lt\n      tag_80\n      jumpi\n      0x0100\n      dup1\n      dup4\n      sload\n      div\n      mul\n      dup4\n      mstore\n      swap2\n      0x20\n      add\n      swap2\n      jump(tag_79)\n    tag_80:\n      dup3\n      add\n      swap2\n      swap1\n      0x00\n      mstore\n      keccak256(0x00, 0x20)\n      swap1\n    tag_81:\n      dup2\n      sload\n      dup2\n      mstore\n      swap1\n      0x01\n      add\n      swap1\n      0x20\n      add\n      dup1\n      dup4\n      gt\n      tag_81\n      jumpi\n      dup3\n      swap1\n      sub\n      0x1f\n      and\n      dup3\n      add\n      swap2\n    tag_79:\n      pop\n      pop\n      pop\n      pop\n      pop\n      swap1\n      dup1\n      0x03\n      add\n      sload\n      swap1\n      dup1\n      0x04\n      add\n      0x00\n      swap1\n      sload\n      swap1\n      0x0100\n      exp\n      swap1\n      div\n      0xff\n      and\n      swap1\n      pop\n      dup6\n      jump\t// out\n        /* \"chaintalk.sol\":671:702  uint256 public editRequestCount */\n    tag_27:\n      sload(0x05)\n      dup2\n      jump\t// out\n        /* \"chaintalk.sol\":637:664  uint256 public messageCount */\n    tag_31:\n      sload(0x04)\n      dup2\n      jump\t// out\n        /* \"chaintalk.sol\":3696:4220  function getPendingEditRequests() public view returns (EditRequest[] memory) {... */\n    tag_34:\n        /* \"chaintalk.sol\":3751:3771  EditRequest[] memory */\n      0x60\n        /* \"chaintalk.sol\":3784:3820  EditRequest[] memory pendingRequests */\n      0x00\n        /* \"chaintalk.sol\":3841:3857  editRequestCount */\n      sload(0x05)\n        /* \"chaintalk.sol\":3823:3858  new EditRequest[](editRequestCount) */\n      0xffffffffffffffff\n      dup2\n      gt\n      iszero\n      tag_83\n      jumpi\n      tag_84\n      tag_85\n      jump\t// in\n    tag_84:\n    tag_83:\n      mload(0x40)\n      swap1\n      dup1\n      dup3\n      mstore\n      dup1\n      0x20\n      mul\n      0x20\n      add\n      dup3\n      add\n      0x40\n      mstore\n      dup1\n      iszero\n      tag_86\n      jumpi\n      dup2\n      0x20\n      add\n    tag_87:\n      tag_88\n      tag_89\n      jump\t// in\n    tag_88:\n      dup2\n      mstore\n      0x20\n      add\n      swap1\n      0x01\n      swap1\n      sub\n      swap1\n      dup2\n      tag_87\n      jumpi\n      swap1\n      pop\n    tag_86:\n      pop\n        /* \"chaintalk.sol\":3784:3858  EditRequest[] memory pendingRequests = new EditRequest[](editRequestCount) */\n      swap1\n      pop\n        /* \"chaintalk.sol\":3869:3882  uint256 count */\n      0x00\n        /* \"chaintalk.sol\":3885:3886  0 */\n      0x00\n        /* \"chaintalk.sol\":3869:3886  uint256 count = 0 */\n      swap1\n      pop\n        /* \"chaintalk.sol\":3902:3911  uint256 i */\n      0x00\n        /* \"chaintalk.sol\":3914:3915  1 */\n      0x01\n        /* \"chaintalk.sol\":3902:3915  uint256 i = 1 */\n      swap1\n      pop\n        /* \"chaintalk.sol\":3897:4105  for (uint256 i = 1; i <= editRequestCount; i++) {... */\n    tag_90:\n        /* \"chaintalk.sol\":3922:3938  editRequestCount */\n      sload(0x05)\n        /* \"chaintalk.sol\":3917:3918  i */\n      dup2\n        /* \"chaintalk.sol\":3917:3938  i <= editRequestCount */\n      gt\n        /* \"chaintalk.sol\":3897:4105  for (uint256 i = 1; i <= editRequestCount; i++) {... */\n      tag_91\n      jumpi\n        /* \"chaintalk.sol\":3965:3977  editRequests */\n      0x03\n        /* \"chaintalk.sol\":3965:3980  editRequests[i] */\n      0x00\n        /* \"chaintalk.sol\":3978:3979  i */\n      dup3\n        /* \"chaintalk.sol\":3965:3980  editRequests[i] */\n      dup2\n      mstore\n      0x20\n      add\n      swap1\n      dup2\n      mstore\n      0x20\n      add\n      0x00\n      keccak256\n        /* \"chaintalk.sol\":3965:3991  editRequests[i].isApproved */\n      0x03\n      add\n      0x00\n      swap1\n      sload\n      swap1\n      0x0100\n      exp\n      swap1\n      div\n      0xff\n      and\n        /* \"chaintalk.sol\":3960:4094  if (!editRequests[i].isApproved) {... */\n      tag_93\n      jumpi\n        /* \"chaintalk.sol\":4037:4049  editRequests */\n      0x03\n        /* \"chaintalk.sol\":4037:4052  editRequests[i] */\n      0x00\n        /* \"chaintalk.sol\":4050:4051  i */\n      dup3\n        /* \"chaintalk.sol\":4037:4052  editRequests[i] */\n      dup2\n      mstore\n      0x20\n      add\n      swap1\n      dup2\n      mstore\n      0x20\n      add\n      0x00\n      keccak256\n        /* \"chaintalk.sol\":4012:4052  pendingRequests[count] = editRequests[i] */\n      mload(0x40)\n      dup1\n      0x80\n      add\n      0x40\n      mstore\n      swap1\n      dup2\n      0x00\n      dup3\n      add\n      sload\n      dup2\n      mstore\n      0x20\n      add\n      0x01\n      dup3\n      add\n      0x00\n      swap1\n      sload\n      swap1\n      0x0100\n      exp\n      swap1\n      div\n      0xffffffffffffffffffffffffffffffffffffffff\n      and\n      0xffffffffffffffffffffffffffffffffffffffff\n      and\n      0xffffffffffffffffffffffffffffffffffffffff\n      and\n      dup2\n      mstore\n      0x20\n      add\n      0x02\n      dup3\n      add\n      dup1\n      sload\n      tag_94\n      swap1\n      tag_77\n      jump\t// in\n    tag_94:\n      dup1\n      0x1f\n      add\n      0x20\n      dup1\n      swap2\n      div\n      mul\n      0x20\n      add\n      mload(0x40)\n      swap1\n      dup2\n      add\n      0x40\n      mstore\n      dup1\n      swap3\n      swap2\n      swap1\n      dup2\n      dup2\n      mstore\n      0x20\n      add\n      dup3\n      dup1\n      sload\n      tag_95\n      swap1\n      tag_77\n      jump\t// in\n    tag_95:\n      dup1\n      iszero\n      tag_96\n      jumpi\n      dup1\n      0x1f\n      lt\n      tag_97\n      jumpi\n      0x0100\n      dup1\n      dup4\n      sload\n      div\n      mul\n      dup4\n      mstore\n      swap2\n      0x20\n      add\n      swap2\n      jump(tag_96)\n    tag_97:\n      dup3\n      add\n      swap2\n      swap1\n      0x00\n      mstore\n      keccak256(0x00, 0x20)\n      swap1\n    tag_98:\n      dup2\n      sload\n      dup2\n      mstore\n      swap1\n      0x01\n      add\n      swap1\n      0x20\n      add\n      dup1\n      dup4\n      gt\n      tag_98\n      jumpi\n      dup3\n      swap1\n      sub\n      0x1f\n      and\n      dup3\n      add\n      swap2\n    tag_96:\n      pop\n      pop\n      pop\n      pop\n      pop\n      dup2\n      mstore\n      0x20\n      add\n      0x03\n      dup3\n      add\n      0x00\n      swap1\n      sload\n      swap1\n      0x0100\n      exp\n      swap1\n      div\n      0xff\n      and\n      iszero\n      iszero\n      iszero\n      iszero\n      dup2\n      mstore\n      pop\n      pop\n        /* \"chaintalk.sol\":4012:4027  pendingRequests */\n      dup4\n        /* \"chaintalk.sol\":4028:4033  count */\n      dup4\n        /* \"chaintalk.sol\":4012:4034  pendingRequests[count] */\n      dup2\n      mload\n      dup2\n      lt\n      tag_99\n      jumpi\n      tag_100\n      tag_101\n      jump\t// in\n    tag_100:\n    tag_99:\n      0x20\n      mul\n      0x20\n      add\n      add\n        /* \"chaintalk.sol\":4012:4052  pendingRequests[count] = editRequests[i] */\n      dup2\n      swap1\n      mstore\n      pop\n        /* \"chaintalk.sol\":4071:4078  count++ */\n      dup2\n      dup1\n      tag_102\n      swap1\n      tag_103\n      jump\t// in\n    tag_102:\n      swap3\n      pop\n      pop\n        /* \"chaintalk.sol\":3960:4094  if (!editRequests[i].isApproved) {... */\n    tag_93:\n        /* \"chaintalk.sol\":3940:3943  i++ */\n      dup1\n      dup1\n      tag_104\n      swap1\n      tag_103\n      jump\t// in\n    tag_104:\n      swap2\n      pop\n      pop\n        /* \"chaintalk.sol\":3897:4105  for (uint256 i = 1; i <= editRequestCount; i++) {... */\n      jump(tag_90)\n    tag_91:\n      pop\n        /* \"chaintalk.sol\":4163:4168  count */\n      dup1\n        /* \"chaintalk.sol\":4146:4161  pendingRequests */\n      dup3\n        /* \"chaintalk.sol\":4139:4169  mstore(pendingRequests, count) */\n      mstore\n        /* \"chaintalk.sol\":4197:4212  pendingRequests */\n      dup2\n        /* \"chaintalk.sol\":4190:4212  return pendingRequests */\n      swap3\n      pop\n      pop\n      pop\n        /* \"chaintalk.sol\":3696:4220  function getPendingEditRequests() public view returns (EditRequest[] memory) {... */\n      swap1\n      jump\t// out\n        /* \"chaintalk.sol\":1878:2361  function getAllMessages() public view returns (Message[] memory) {... */\n    tag_38:\n        /* \"chaintalk.sol\":1925:1941  Message[] memory */\n      0x60\n        /* \"chaintalk.sol\":1954:1985  Message[] memory activeMessages */\n      0x00\n        /* \"chaintalk.sol\":2002:2014  messageCount */\n      sload(0x04)\n        /* \"chaintalk.sol\":1988:2015  new Message[](messageCount) */\n      0xffffffffffffffff\n      dup2\n      gt\n      iszero\n      tag_106\n      jumpi\n      tag_107\n      tag_85\n      jump\t// in\n    tag_107:\n    tag_106:\n      mload(0x40)\n      swap1\n      dup1\n      dup3\n      mstore\n      dup1\n      0x20\n      mul\n      0x20\n      add\n      dup3\n      add\n      0x40\n      mstore\n      dup1\n      iszero\n      tag_108\n      jumpi\n      dup2\n      0x20\n      add\n    tag_109:\n      tag_110\n      tag_111\n      jump\t// in\n    tag_110:\n      dup2\n      mstore\n      0x20\n      add\n      swap1\n      0x01\n      swap1\n      sub\n      swap1\n      dup2\n      tag_109\n      jumpi\n      swap1\n      pop\n    tag_108:\n      pop\n        /* \"chaintalk.sol\":1954:2015  Message[] memory activeMessages = new Message[](messageCount) */\n      swap1\n      pop\n        /* \"chaintalk.sol\":2026:2039  uint256 count */\n      0x00\n        /* \"chaintalk.sol\":2042:2043  0 */\n      0x00\n        /* \"chaintalk.sol\":2026:2043  uint256 count = 0 */\n      swap1\n      pop\n        /* \"chaintalk.sol\":2059:2068  uint256 i */\n      0x00\n        /* \"chaintalk.sol\":2071:2072  1 */\n      0x01\n        /* \"chaintalk.sol\":2059:2072  uint256 i = 1 */\n      swap1\n      pop\n        /* \"chaintalk.sol\":2054:2248  for (uint256 i = 1; i <= messageCount; i++) {... */\n    tag_112:\n        /* \"chaintalk.sol\":2079:2091  messageCount */\n      sload(0x04)\n        /* \"chaintalk.sol\":2074:2075  i */\n      dup2\n        /* \"chaintalk.sol\":2074:2091  i <= messageCount */\n      gt\n        /* \"chaintalk.sol\":2054:2248  for (uint256 i = 1; i <= messageCount; i++) {... */\n      tag_113\n      jumpi\n        /* \"chaintalk.sol\":2118:2126  messages */\n      0x02\n        /* \"chaintalk.sol\":2118:2129  messages[i] */\n      0x00\n        /* \"chaintalk.sol\":2127:2128  i */\n      dup3\n        /* \"chaintalk.sol\":2118:2129  messages[i] */\n      dup2\n      mstore\n      0x20\n      add\n      swap1\n      dup2\n      mstore\n      0x20\n      add\n      0x00\n      keccak256\n        /* \"chaintalk.sol\":2118:2139  messages[i].isDeleted */\n      0x04\n      add\n      0x00\n      swap1\n      sload\n      swap1\n      0x0100\n      exp\n      swap1\n      div\n      0xff\n      and\n        /* \"chaintalk.sol\":2113:2237  if (!messages[i].isDeleted) {... */\n      tag_115\n      jumpi\n        /* \"chaintalk.sol\":2184:2192  messages */\n      0x02\n        /* \"chaintalk.sol\":2184:2195  messages[i] */\n      0x00\n        /* \"chaintalk.sol\":2193:2194  i */\n      dup3\n        /* \"chaintalk.sol\":2184:2195  messages[i] */\n      dup2\n      mstore\n      0x20\n      add\n      swap1\n      dup2\n      mstore\n      0x20\n      add\n      0x00\n      keccak256\n        /* \"chaintalk.sol\":2160:2195  activeMessages[count] = messages[i] */\n      mload(0x40)\n      dup1\n      0xa0\n      add\n      0x40\n      mstore\n      swap1\n      dup2\n      0x00\n      dup3\n      add\n      sload\n      dup2\n      mstore\n      0x20\n      add\n      0x01\n      dup3\n      add\n      0x00\n      swap1\n      sload\n      swap1\n      0x0100\n      exp\n      swap1\n      div\n      0xffffffffffffffffffffffffffffffffffffffff\n      and\n      0xffffffffffffffffffffffffffffffffffffffff\n      and\n      0xffffffffffffffffffffffffffffffffffffffff\n      and\n      dup2\n      mstore\n      0x20\n      add\n      0x02\n      dup3\n      add\n      dup1\n      sload\n      tag_116\n      swap1\n      tag_77\n      jump\t// in\n    tag_116:\n      dup1\n      0x1f\n      add\n      0x20\n      dup1\n      swap2\n      div\n      mul\n      0x20\n      add\n      mload(0x40)\n      swap1\n      dup2\n      add\n      0x40\n      mstore\n      dup1\n      swap3\n      swap2\n      swap1\n      dup2\n      dup2\n      mstore\n      0x20\n      add\n      dup3\n      dup1\n      sload\n      tag_117\n      swap1\n      tag_77\n      jump\t// in\n    tag_117:\n      dup1\n      iszero\n      tag_118\n      jumpi\n      dup1\n      0x1f\n      lt\n      tag_119\n      jumpi\n      0x0100\n      dup1\n      dup4\n      sload\n      div\n      mul\n      dup4\n      mstore\n      swap2\n      0x20\n      add\n      swap2\n      jump(tag_118)\n    tag_119:\n      dup3\n      add\n      swap2\n      swap1\n      0x00\n      mstore\n      keccak256(0x00, 0x20)\n      swap1\n    tag_120:\n      dup2\n      sload\n      dup2\n      mstore\n      swap1\n      0x01\n      add\n      swap1\n      0x20\n      add\n      dup1\n      dup4\n      gt\n      tag_120\n      jumpi\n      dup3\n      swap1\n      sub\n      0x1f\n      and\n      dup3\n      add\n      swap2\n    tag_118:\n      pop\n      pop\n      pop\n      pop\n      pop\n      dup2\n      mstore\n      0x20\n      add\n      0x03\n      dup3\n      add\n      sload\n      dup2\n      mstore\n      0x20\n      add\n      0x04\n      dup3\n      add\n      0x00\n      swap1\n      sload\n      swap1\n      0x0100\n      exp\n      swap1\n      div\n      0xff\n      and\n      iszero\n      iszero\n      iszero\n      iszero\n      dup2\n      mstore\n      pop\n      pop\n        /* \"chaintalk.sol\":2160:2174  activeMessages */\n      dup4\n        /* \"chaintalk.sol\":2175:2180  count */\n      dup4\n        /* \"chaintalk.sol\":2160:2181  activeMessages[count] */\n      dup2\n      mload\n      dup2\n      lt\n      tag_121\n      jumpi\n      tag_122\n      tag_101\n      jump\t// in\n    tag_122:\n    tag_121:\n      0x20\n      mul\n      0x20\n      add\n      add\n        /* \"chaintalk.sol\":2160:2195  activeMessages[count] = messages[i] */\n      dup2\n      swap1\n      mstore\n      pop\n        /* \"chaintalk.sol\":2214:2221  count++ */\n      dup2\n      dup1\n      tag_123\n      swap1\n      tag_103\n      jump\t// in\n    tag_123:\n      swap3\n      pop\n      pop\n        /* \"chaintalk.sol\":2113:2237  if (!messages[i].isDeleted) {... */\n    tag_115:\n        /* \"chaintalk.sol\":2093:2096  i++ */\n      dup1\n      dup1\n      tag_124\n      swap1\n      tag_103\n      jump\t// in\n    tag_124:\n      swap2\n      pop\n      pop\n        /* \"chaintalk.sol\":2054:2248  for (uint256 i = 1; i <= messageCount; i++) {... */\n      jump(tag_112)\n    tag_113:\n      pop\n        /* \"chaintalk.sol\":2305:2310  count */\n      dup1\n        /* \"chaintalk.sol\":2289:2303  activeMessages */\n      dup3\n        /* \"chaintalk.sol\":2282:2311  mstore(activeMessages, count) */\n      mstore\n        /* \"chaintalk.sol\":2339:2353  activeMessages */\n      dup2\n        /* \"chaintalk.sol\":2332:2353  return activeMessages */\n      swap3\n      pop\n      pop\n      pop\n        /* \"chaintalk.sol\":1878:2361  function getAllMessages() public view returns (Message[] memory) {... */\n      swap1\n      jump\t// out\n        /* \"chaintalk.sol\":1070:1578  function postMessage(string memory _content) public nonReentrant returns (uint256) {... */\n    tag_44:\n        /* \"chaintalk.sol\":1144:1151  uint256 */\n      0x00\n        /* \"@openzeppelin/contracts/security/ReentrancyGuard.sol\":2261:2282  _nonReentrantBefore() */\n      tag_126\n        /* \"@openzeppelin/contracts/security/ReentrancyGuard.sol\":2261:2280  _nonReentrantBefore */\n      tag_127\n        /* \"@openzeppelin/contracts/security/ReentrancyGuard.sol\":2261:2282  _nonReentrantBefore() */\n      jump\t// in\n    tag_126:\n        /* \"chaintalk.sol\":1197:1198  0 */\n      0x00\n        /* \"chaintalk.sol\":1178:1186  _content */\n      dup3\n        /* \"chaintalk.sol\":1172:1194  bytes(_content).length */\n      mload\n        /* \"chaintalk.sol\":1172:1198  bytes(_content).length > 0 */\n      gt\n        /* \"chaintalk.sol\":1164:1226  require(bytes(_content).length > 0, \"Message cannot be empty\") */\n      tag_129\n      jumpi\n      mload(0x40)\n      0x08c379a000000000000000000000000000000000000000000000000000000000\n      dup2\n      mstore\n      0x04\n      add\n      tag_130\n      swap1\n      tag_131\n      jump\t// in\n    tag_130:\n      mload(0x40)\n      dup1\n      swap2\n      sub\n      swap1\n      revert\n    tag_129:\n        /* \"chaintalk.sol\":1237:1249  messageCount */\n      0x04\n      0x00\n        /* \"chaintalk.sol\":1237:1251  messageCount++ */\n      dup2\n      sload\n      dup1\n      swap3\n      swap2\n      swap1\n      tag_132\n      swap1\n      tag_103\n      jump\t// in\n    tag_132:\n      swap2\n      swap1\n      pop\n      sstore\n      pop\n        /* \"chaintalk.sol\":1287:1475  Message({... */\n      mload(0x40)\n      dup1\n      0xa0\n      add\n      0x40\n      mstore\n      dup1\n        /* \"chaintalk.sol\":1314:1326  messageCount */\n      sload(0x04)\n        /* \"chaintalk.sol\":1287:1475  Message({... */\n      dup2\n      mstore\n      0x20\n      add\n        /* \"chaintalk.sol\":1349:1359  msg.sender */\n      caller\n        /* \"chaintalk.sol\":1287:1475  Message({... */\n      0xffffffffffffffffffffffffffffffffffffffff\n      and\n      dup2\n      mstore\n      0x20\n      add\n        /* \"chaintalk.sol\":1383:1391  _content */\n      dup4\n        /* \"chaintalk.sol\":1287:1475  Message({... */\n      dup2\n      mstore\n      0x20\n      add\n        /* \"chaintalk.sol\":1417:1432  block.timestamp */\n      timestamp\n        /* \"chaintalk.sol\":1287:1475  Message({... */\n      dup2\n      mstore\n      0x20\n      add\n        /* \"chaintalk.sol\":1458:1463  false */\n      0x00\n        /* \"chaintalk.sol\":1287:1475  Message({... */\n      iszero\n      iszero\n      dup2\n      mstore\n      pop\n        /* \"chaintalk.sol\":1262:1270  messages */\n      0x02\n        /* \"chaintalk.sol\":1262:1284  messages[messageCount] */\n      0x00\n        /* \"chaintalk.sol\":1271:1283  messageCount */\n      sload(0x04)\n        /* \"chaintalk.sol\":1262:1284  messages[messageCount] */\n      dup2\n      mstore\n      0x20\n      add\n      swap1\n      dup2\n      mstore\n      0x20\n      add\n      0x00\n      keccak256\n        /* \"chaintalk.sol\":1262:1475  messages[messageCount] = Message({... */\n      0x00\n      dup3\n      add\n      mload\n      dup2\n      0x00\n      add\n      sstore\n      0x20\n      dup3\n      add\n      mload\n      dup2\n      0x01\n      add\n      exp(0x0100, 0x00)\n      dup2\n      sload\n      dup2\n      0xffffffffffffffffffffffffffffffffffffffff\n      mul\n      not\n      and\n      swap1\n      dup4\n      0xffffffffffffffffffffffffffffffffffffffff\n      and\n      mul\n      or\n      swap1\n      sstore\n      pop\n      0x40\n      dup3\n      add\n      mload\n      dup2\n      0x02\n      add\n      swap1\n      dup2\n      tag_133\n      swap2\n      swap1\n      tag_134\n      jump\t// in\n    tag_133:\n      pop\n      0x60\n      dup3\n      add\n      mload\n      dup2\n      0x03\n      add\n      sstore\n      0x80\n      dup3\n      add\n      mload\n      dup2\n      0x04\n      add\n      exp(0x0100, 0x00)\n      dup2\n      sload\n      dup2\n      0xff\n      mul\n      not\n      and\n      swap1\n      dup4\n      iszero\n      iszero\n      mul\n      or\n      swap1\n      sstore\n      pop\n      swap1\n      pop\n      pop\n        /* \"chaintalk.sol\":1519:1529  msg.sender */\n      caller\n        /* \"chaintalk.sol\":1491:1540  MessagePosted(messageCount, msg.sender, _content) */\n      0xffffffffffffffffffffffffffffffffffffffff\n      and\n        /* \"chaintalk.sol\":1505:1517  messageCount */\n      sload(0x04)\n        /* \"chaintalk.sol\":1491:1540  MessagePosted(messageCount, msg.sender, _content) */\n      0x16effde6b8c5f78279aca5974057ff6b6fd8c9ab5e96994c7f1b62cbfcbbd78b\n        /* \"chaintalk.sol\":1531:1539  _content */\n      dup5\n        /* \"chaintalk.sol\":1491:1540  MessagePosted(messageCount, msg.sender, _content) */\n      mload(0x40)\n      tag_135\n      swap2\n      swap1\n      tag_136\n      jump\t// in\n    tag_135:\n      mload(0x40)\n      dup1\n      swap2\n      sub\n      swap1\n      log3\n        /* \"chaintalk.sol\":1558:1570  messageCount */\n      sload(0x04)\n        /* \"chaintalk.sol\":1551:1570  return messageCount */\n      swap1\n      pop\n        /* \"@openzeppelin/contracts/security/ReentrancyGuard.sol\":2303:2323  _nonReentrantAfter() */\n      tag_137\n        /* \"@openzeppelin/contracts/security/ReentrancyGuard.sol\":2303:2321  _nonReentrantAfter */\n      tag_138\n        /* \"@openzeppelin/contracts/security/ReentrancyGuard.sol\":2303:2323  _nonReentrantAfter() */\n      jump\t// in\n    tag_137:\n        /* \"chaintalk.sol\":1070:1578  function postMessage(string memory _content) public nonReentrant returns (uint256) {... */\n      swap2\n      swap1\n      pop\n      jump\t// out\n        /* \"@openzeppelin/contracts/access/Ownable.sol\":2293:2394  function renounceOwnership() public virtual onlyOwner {... */\n    tag_47:\n        /* \"@openzeppelin/contracts/access/Ownable.sol\":1531:1544  _checkOwner() */\n      tag_140\n        /* \"@openzeppelin/contracts/access/Ownable.sol\":1531:1542  _checkOwner */\n      tag_141\n        /* \"@openzeppelin/contracts/access/Ownable.sol\":1531:1544  _checkOwner() */\n      jump\t// in\n    tag_140:\n        /* \"@openzeppelin/contracts/access/Ownable.sol\":2357:2387  _transferOwnership(address(0)) */\n      tag_143\n        /* \"@openzeppelin/contracts/access/Ownable.sol\":2384:2385  0 */\n      0x00\n        /* \"@openzeppelin/contracts/access/Ownable.sol\":2357:2375  _transferOwnership */\n      tag_144\n        /* \"@openzeppelin/contracts/access/Ownable.sol\":2357:2387  _transferOwnership(address(0)) */\n      jump\t// in\n    tag_143:\n        /* \"@openzeppelin/contracts/access/Ownable.sol\":2293:2394  function renounceOwnership() public virtual onlyOwner {... */\n      jump\t// out\n        /* \"chaintalk.sol\":579:630  mapping(uint256 => EditRequest) public editRequests */\n    tag_50:\n      mstore(0x20, 0x03)\n      dup1\n      0x00\n      mstore\n      keccak256(0x00, 0x40)\n      0x00\n      swap2\n      pop\n      swap1\n      pop\n      dup1\n      0x00\n      add\n      sload\n      swap1\n      dup1\n      0x01\n      add\n      0x00\n      swap1\n      sload\n      swap1\n      0x0100\n      exp\n      swap1\n      div\n      0xffffffffffffffffffffffffffffffffffffffff\n      and\n      swap1\n      dup1\n      0x02\n      add\n      dup1\n      sload\n      tag_145\n      swap1\n      tag_77\n      jump\t// in\n    tag_145:\n      dup1\n      0x1f\n      add\n      0x20\n      dup1\n      swap2\n      div\n      mul\n      0x20\n      add\n      mload(0x40)\n      swap1\n      dup2\n      add\n      0x40\n      mstore\n      dup1\n      swap3\n      swap2\n      swap1\n      dup2\n      dup2\n      mstore\n      0x20\n      add\n      dup3\n      dup1\n      sload\n      tag_146\n      swap1\n      tag_77\n      jump\t// in\n    tag_146:\n      dup1\n      iszero\n      tag_147\n      jumpi\n      dup1\n      0x1f\n      lt\n      tag_148\n      jumpi\n      0x0100\n      dup1\n      dup4\n      sload\n      div\n      mul\n      dup4\n      mstore\n      swap2\n      0x20\n      add\n      swap2\n      jump(tag_147)\n    tag_148:\n      dup3\n      add\n      swap2\n      swap1\n      0x00\n      mstore\n      keccak256(0x00, 0x20)\n      swap1\n    tag_149:\n      dup2\n      sload\n      dup2\n      mstore\n      swap1\n      0x01\n      add\n      swap1\n      0x20\n      add\n      dup1\n      dup4\n      gt\n      tag_149\n      jumpi\n      dup3\n      swap1\n      sub\n      0x1f\n      and\n      dup3\n      add\n      swap2\n    tag_147:\n      pop\n      pop\n      pop\n      pop\n      pop\n      swap1\n      dup1\n      0x03\n      add\n      0x00\n      swap1\n      sload\n      swap1\n      0x0100\n      exp\n      swap1\n      div\n      0xff\n      and\n      swap1\n      pop\n      dup5\n      jump\t// out\n        /* \"chaintalk.sol\":3127:3690  function approveMessageEdit(uint256 _editRequestId) public onlyOwner {... */\n    tag_55:\n        /* \"@openzeppelin/contracts/access/Ownable.sol\":1531:1544  _checkOwner() */\n      tag_151\n        /* \"@openzeppelin/contracts/access/Ownable.sol\":1531:1542  _checkOwner */\n      tag_141\n        /* \"@openzeppelin/contracts/access/Ownable.sol\":1531:1544  _checkOwner() */\n      jump\t// in\n    tag_151:\n        /* \"chaintalk.sol\":3232:3233  0 */\n      0x00\n        /* \"chaintalk.sol\":3215:3229  _editRequestId */\n      dup2\n        /* \"chaintalk.sol\":3215:3233  _editRequestId > 0 */\n      gt\n        /* \"chaintalk.sol\":3215:3271  _editRequestId > 0 && _editRequestId <= editRequestCount */\n      dup1\n      iszero\n      tag_153\n      jumpi\n      pop\n        /* \"chaintalk.sol\":3255:3271  editRequestCount */\n      sload(0x05)\n        /* \"chaintalk.sol\":3237:3251  _editRequestId */\n      dup2\n        /* \"chaintalk.sol\":3237:3271  _editRequestId <= editRequestCount */\n      gt\n      iszero\n        /* \"chaintalk.sol\":3215:3271  _editRequestId > 0 && _editRequestId <= editRequestCount */\n    tag_153:\n        /* \"chaintalk.sol\":3207:3299  require(_editRequestId > 0 && _editRequestId <= editRequestCount, \"Invalid edit request ID\") */\n      tag_154\n      jumpi\n      mload(0x40)\n      0x08c379a000000000000000000000000000000000000000000000000000000000\n      dup2\n      mstore\n      0x04\n      add\n      tag_155\n      swap1\n      tag_156\n      jump\t// in\n    tag_155:\n      mload(0x40)\n      dup1\n      swap2\n      sub\n      swap1\n      revert\n    tag_154:\n        /* \"chaintalk.sol\":3310:3341  EditRequest storage editRequest */\n      0x00\n        /* \"chaintalk.sol\":3344:3356  editRequests */\n      0x03\n        /* \"chaintalk.sol\":3344:3372  editRequests[_editRequestId] */\n      0x00\n        /* \"chaintalk.sol\":3357:3371  _editRequestId */\n      dup4\n        /* \"chaintalk.sol\":3344:3372  editRequests[_editRequestId] */\n      dup2\n      mstore\n      0x20\n      add\n      swap1\n      dup2\n      mstore\n      0x20\n      add\n      0x00\n      keccak256\n        /* \"chaintalk.sol\":3310:3372  EditRequest storage editRequest = editRequests[_editRequestId] */\n      swap1\n      pop\n        /* \"chaintalk.sol\":3392:3403  editRequest */\n      dup1\n        /* \"chaintalk.sol\":3392:3414  editRequest.isApproved */\n      0x03\n      add\n      0x00\n      swap1\n      sload\n      swap1\n      0x0100\n      exp\n      swap1\n      div\n      0xff\n      and\n        /* \"chaintalk.sol\":3391:3414  !editRequest.isApproved */\n      iszero\n        /* \"chaintalk.sol\":3383:3448  require(!editRequest.isApproved, \"Edit request already approved\") */\n      tag_157\n      jumpi\n      mload(0x40)\n      0x08c379a000000000000000000000000000000000000000000000000000000000\n      dup2\n      mstore\n      0x04\n      add\n      tag_158\n      swap1\n      tag_159\n      jump\t// in\n    tag_158:\n      mload(0x40)\n      dup1\n      swap2\n      sub\n      swap1\n      revert\n    tag_157:\n        /* \"chaintalk.sol\":3459:3482  Message storage message */\n      0x00\n        /* \"chaintalk.sol\":3485:3493  messages */\n      0x02\n        /* \"chaintalk.sol\":3485:3516  messages[editRequest.messageId] */\n      0x00\n        /* \"chaintalk.sol\":3494:3505  editRequest */\n      dup4\n        /* \"chaintalk.sol\":3494:3515  editRequest.messageId */\n      0x00\n      add\n      sload\n        /* \"chaintalk.sol\":3485:3516  messages[editRequest.messageId] */\n      dup2\n      mstore\n      0x20\n      add\n      swap1\n      dup2\n      mstore\n      0x20\n      add\n      0x00\n      keccak256\n        /* \"chaintalk.sol\":3459:3516  Message storage message = messages[editRequest.messageId] */\n      swap1\n      pop\n        /* \"chaintalk.sol\":3545:3556  editRequest */\n      dup2\n        /* \"chaintalk.sol\":3545:3567  editRequest.newContent */\n      0x02\n      add\n        /* \"chaintalk.sol\":3527:3534  message */\n      dup2\n        /* \"chaintalk.sol\":3527:3542  message.content */\n      0x02\n      add\n        /* \"chaintalk.sol\":3527:3567  message.content = editRequest.newContent */\n      swap1\n      dup2\n      tag_160\n      swap2\n      swap1\n      tag_161\n      jump\t// in\n    tag_160:\n      pop\n        /* \"chaintalk.sol\":3603:3607  true */\n      0x01\n        /* \"chaintalk.sol\":3578:3589  editRequest */\n      dup3\n        /* \"chaintalk.sol\":3578:3600  editRequest.isApproved */\n      0x03\n      add\n      0x00\n        /* \"chaintalk.sol\":3578:3607  editRequest.isApproved = true */\n      0x0100\n      exp\n      dup2\n      sload\n      dup2\n      0xff\n      mul\n      not\n      and\n      swap1\n      dup4\n      iszero\n      iszero\n      mul\n      or\n      swap1\n      sstore\n      pop\n        /* \"chaintalk.sol\":3636:3647  editRequest */\n      dup2\n        /* \"chaintalk.sol\":3636:3657  editRequest.messageId */\n      0x00\n      add\n      sload\n        /* \"chaintalk.sol\":3623:3682  EditApproved(editRequest.messageId, editRequest.newContent) */\n      0xc044182a0ac1fcdfa543f1c6ff27940f1a5b4221b8232e11b492d48953bc9c43\n        /* \"chaintalk.sol\":3659:3670  editRequest */\n      dup4\n        /* \"chaintalk.sol\":3659:3681  editRequest.newContent */\n      0x02\n      add\n        /* \"chaintalk.sol\":3623:3682  EditApproved(editRequest.messageId, editRequest.newContent) */\n      mload(0x40)\n      tag_162\n      swap2\n      swap1\n      tag_163\n      jump\t// in\n    tag_162:\n      mload(0x40)\n      dup1\n      swap2\n      sub\n      swap1\n      log2\n        /* \"chaintalk.sol\":3196:3690  {... */\n      pop\n      pop\n        /* \"chaintalk.sol\":3127:3690  function approveMessageEdit(uint256 _editRequestId) public onlyOwner {... */\n      pop\n      jump\t// out\n        /* \"chaintalk.sol\":1584:1872  function getMessage(uint256 _messageId) public view returns (Message memory) {... */\n    tag_58:\n        /* \"chaintalk.sol\":1645:1659  Message memory */\n      tag_164\n      tag_111\n      jump\t// in\n    tag_164:\n        /* \"chaintalk.sol\":1693:1694  0 */\n      0x00\n        /* \"chaintalk.sol\":1680:1690  _messageId */\n      dup3\n        /* \"chaintalk.sol\":1680:1694  _messageId > 0 */\n      gt\n        /* \"chaintalk.sol\":1680:1724  _messageId > 0 && _messageId <= messageCount */\n      dup1\n      iszero\n      tag_166\n      jumpi\n      pop\n        /* \"chaintalk.sol\":1712:1724  messageCount */\n      sload(0x04)\n        /* \"chaintalk.sol\":1698:1708  _messageId */\n      dup3\n        /* \"chaintalk.sol\":1698:1724  _messageId <= messageCount */\n      gt\n      iszero\n        /* \"chaintalk.sol\":1680:1724  _messageId > 0 && _messageId <= messageCount */\n    tag_166:\n        /* \"chaintalk.sol\":1672:1747  require(_messageId > 0 && _messageId <= messageCount, \"Invalid message ID\") */\n      tag_167\n      jumpi\n      mload(0x40)\n      0x08c379a000000000000000000000000000000000000000000000000000000000\n      dup2\n      mstore\n      0x04\n      add\n      tag_168\n      swap1\n      tag_169\n      jump\t// in\n    tag_168:\n      mload(0x40)\n      dup1\n      swap2\n      sub\n      swap1\n      revert\n    tag_167:\n        /* \"chaintalk.sol\":1767:1775  messages */\n      0x02\n        /* \"chaintalk.sol\":1767:1787  messages[_messageId] */\n      0x00\n        /* \"chaintalk.sol\":1776:1786  _messageId */\n      dup4\n        /* \"chaintalk.sol\":1767:1787  messages[_messageId] */\n      dup2\n      mstore\n      0x20\n      add\n      swap1\n      dup2\n      mstore\n      0x20\n      add\n      0x00\n      keccak256\n        /* \"chaintalk.sol\":1767:1797  messages[_messageId].isDeleted */\n      0x04\n      add\n      0x00\n      swap1\n      sload\n      swap1\n      0x0100\n      exp\n      swap1\n      div\n      0xff\n      and\n        /* \"chaintalk.sol\":1766:1797  !messages[_messageId].isDeleted */\n      iszero\n        /* \"chaintalk.sol\":1758:1826  require(!messages[_messageId].isDeleted, \"Message has been deleted\") */\n      tag_170\n      jumpi\n      mload(0x40)\n      0x08c379a000000000000000000000000000000000000000000000000000000000\n      dup2\n      mstore\n      0x04\n      add\n      tag_171\n      swap1\n      tag_172\n      jump\t// in\n    tag_171:\n      mload(0x40)\n      dup1\n      swap2\n      sub\n      swap1\n      revert\n    tag_170:\n        /* \"chaintalk.sol\":1844:1852  messages */\n      0x02\n        /* \"chaintalk.sol\":1844:1864  messages[_messageId] */\n      0x00\n        /* \"chaintalk.sol\":1853:1863  _messageId */\n      dup4\n        /* \"chaintalk.sol\":1844:1864  messages[_messageId] */\n      dup2\n      mstore\n      0x20\n      add\n      swap1\n      dup2\n      mstore\n      0x20\n      add\n      0x00\n      keccak256\n        /* \"chaintalk.sol\":1837:1864  return messages[_messageId] */\n      mload(0x40)\n      dup1\n      0xa0\n      add\n      0x40\n      mstore\n      swap1\n      dup2\n      0x00\n      dup3\n      add\n      sload\n      dup2\n      mstore\n      0x20\n      add\n      0x01\n      dup3\n      add\n      0x00\n      swap1\n      sload\n      swap1\n      0x0100\n      exp\n      swap1\n      div\n      0xffffffffffffffffffffffffffffffffffffffff\n      and\n      0xffffffffffffffffffffffffffffffffffffffff\n      and\n      0xffffffffffffffffffffffffffffffffffffffff\n      and\n      dup2\n      mstore\n      0x20\n      add\n      0x02\n      dup3\n      add\n      dup1\n      sload\n      tag_173\n      swap1\n      tag_77\n      jump\t// in\n    tag_173:\n      dup1\n      0x1f\n      add\n      0x20\n      dup1\n      swap2\n      div\n      mul\n      0x20\n      add\n      mload(0x40)\n      swap1\n      dup2\n      add\n      0x40\n      mstore\n      dup1\n      swap3\n      swap2\n      swap1\n      dup2\n      dup2\n      mstore\n      0x20\n      add\n      dup3\n      dup1\n      sload\n      tag_174\n      swap1\n      tag_77\n      jump\t// in\n    tag_174:\n      dup1\n      iszero\n      tag_175\n      jumpi\n      dup1\n      0x1f\n      lt\n      tag_176\n      jumpi\n      0x0100\n      dup1\n      dup4\n      sload\n      div\n      mul\n      dup4\n      mstore\n      swap2\n      0x20\n      add\n      swap2\n      jump(tag_175)\n    tag_176:\n      dup3\n      add\n      swap2\n      swap1\n      0x00\n      mstore\n      keccak256(0x00, 0x20)\n      swap1\n    tag_177:\n      dup2\n      sload\n      dup2\n      mstore\n      swap1\n      0x01\n      add\n      swap1\n      0x20\n      add\n      dup1\n      dup4\n      gt\n      tag_177\n      jumpi\n      dup3\n      swap1\n      sub\n      0x1f\n      and\n      dup3\n      add\n      swap2\n    tag_175:\n      pop\n      pop\n      pop\n      pop\n      pop\n      dup2\n      mstore\n      0x20\n      add\n      0x03\n      dup3\n      add\n      sload\n      dup2\n      mstore\n      0x20\n      add\n      0x04\n      dup3\n      add\n      0x00\n      swap1\n      sload\n      swap1\n      0x0100\n      exp\n      swap1\n      div\n      0xff\n      and\n      iszero\n      iszero\n      iszero\n      iszero\n      dup2\n      mstore\n      pop\n      pop\n      swap1\n      pop\n        /* \"chaintalk.sol\":1584:1872  function getMessage(uint256 _messageId) public view returns (Message memory) {... */\n      swap2\n      swap1\n      pop\n      jump\t// out\n        /* \"@openzeppelin/contracts/access/Ownable.sol\":1638:1723  function owner() public view virtual returns (address) {... */\n    tag_62:\n        /* \"@openzeppelin/contracts/access/Ownable.sol\":1684:1691  address */\n      0x00\n        /* \"@openzeppelin/contracts/access/Ownable.sol\":1710:1716  _owner */\n      0x00\n      0x00\n      swap1\n      sload\n      swap1\n      0x0100\n      exp\n      swap1\n      div\n      0xffffffffffffffffffffffffffffffffffffffff\n      and\n        /* \"@openzeppelin/contracts/access/Ownable.sol\":1703:1716  return _owner */\n      swap1\n      pop\n        /* \"@openzeppelin/contracts/access/Ownable.sol\":1638:1723  function owner() public view virtual returns (address) {... */\n      swap1\n      jump\t// out\n        /* \"chaintalk.sol\":2367:3121  function requestMessageEdit(uint256 _messageId, string memory _newContent) public nonReentrant {... */\n    tag_68:\n        /* \"@openzeppelin/contracts/security/ReentrancyGuard.sol\":2261:2282  _nonReentrantBefore() */\n      tag_180\n        /* \"@openzeppelin/contracts/security/ReentrancyGuard.sol\":2261:2280  _nonReentrantBefore */\n      tag_127\n        /* \"@openzeppelin/contracts/security/ReentrancyGuard.sol\":2261:2282  _nonReentrantBefore() */\n      jump\t// in\n    tag_180:\n        /* \"chaintalk.sol\":2494:2495  0 */\n      0x00\n        /* \"chaintalk.sol\":2481:2491  _messageId */\n      dup3\n        /* \"chaintalk.sol\":2481:2495  _messageId > 0 */\n      gt\n        /* \"chaintalk.sol\":2481:2525  _messageId > 0 && _messageId <= messageCount */\n      dup1\n      iszero\n      tag_182\n      jumpi\n      pop\n        /* \"chaintalk.sol\":2513:2525  messageCount */\n      sload(0x04)\n        /* \"chaintalk.sol\":2499:2509  _messageId */\n      dup3\n        /* \"chaintalk.sol\":2499:2525  _messageId <= messageCount */\n      gt\n      iszero\n        /* \"chaintalk.sol\":2481:2525  _messageId > 0 && _messageId <= messageCount */\n    tag_182:\n        /* \"chaintalk.sol\":2473:2548  require(_messageId > 0 && _messageId <= messageCount, \"Invalid message ID\") */\n      tag_183\n      jumpi\n      mload(0x40)\n      0x08c379a000000000000000000000000000000000000000000000000000000000\n      dup2\n      mstore\n      0x04\n      add\n      tag_184\n      swap1\n      tag_169\n      jump\t// in\n    tag_184:\n      mload(0x40)\n      dup1\n      swap2\n      sub\n      swap1\n      revert\n    tag_183:\n        /* \"chaintalk.sol\":2568:2576  messages */\n      0x02\n        /* \"chaintalk.sol\":2568:2588  messages[_messageId] */\n      0x00\n        /* \"chaintalk.sol\":2577:2587  _messageId */\n      dup4\n        /* \"chaintalk.sol\":2568:2588  messages[_messageId] */\n      dup2\n      mstore\n      0x20\n      add\n      swap1\n      dup2\n      mstore\n      0x20\n      add\n      0x00\n      keccak256\n        /* \"chaintalk.sol\":2568:2598  messages[_messageId].isDeleted */\n      0x04\n      add\n      0x00\n      swap1\n      sload\n      swap1\n      0x0100\n      exp\n      swap1\n      div\n      0xff\n      and\n        /* \"chaintalk.sol\":2567:2598  !messages[_messageId].isDeleted */\n      iszero\n        /* \"chaintalk.sol\":2559:2627  require(!messages[_messageId].isDeleted, \"Message has been deleted\") */\n      tag_185\n      jumpi\n      mload(0x40)\n      0x08c379a000000000000000000000000000000000000000000000000000000000\n      dup2\n      mstore\n      0x04\n      add\n      tag_186\n      swap1\n      tag_172\n      jump\t// in\n    tag_186:\n      mload(0x40)\n      dup1\n      swap2\n      sub\n      swap1\n      revert\n    tag_185:\n        /* \"chaintalk.sol\":2677:2687  msg.sender */\n      caller\n        /* \"chaintalk.sol\":2646:2687  messages[_messageId].author == msg.sender */\n      0xffffffffffffffffffffffffffffffffffffffff\n      and\n        /* \"chaintalk.sol\":2646:2654  messages */\n      0x02\n        /* \"chaintalk.sol\":2646:2666  messages[_messageId] */\n      0x00\n        /* \"chaintalk.sol\":2655:2665  _messageId */\n      dup5\n        /* \"chaintalk.sol\":2646:2666  messages[_messageId] */\n      dup2\n      mstore\n      0x20\n      add\n      swap1\n      dup2\n      mstore\n      0x20\n      add\n      0x00\n      keccak256\n        /* \"chaintalk.sol\":2646:2673  messages[_messageId].author */\n      0x01\n      add\n      0x00\n      swap1\n      sload\n      swap1\n      0x0100\n      exp\n      swap1\n      div\n      0xffffffffffffffffffffffffffffffffffffffff\n      and\n        /* \"chaintalk.sol\":2646:2687  messages[_messageId].author == msg.sender */\n      0xffffffffffffffffffffffffffffffffffffffff\n      and\n      eq\n        /* \"chaintalk.sol\":2638:2728  require(messages[_messageId].author == msg.sender, \"Only message author can request edit\") */\n      tag_187\n      jumpi\n      mload(0x40)\n      0x08c379a000000000000000000000000000000000000000000000000000000000\n      dup2\n      mstore\n      0x04\n      add\n      tag_188\n      swap1\n      tag_189\n      jump\t// in\n    tag_188:\n      mload(0x40)\n      dup1\n      swap2\n      sub\n      swap1\n      revert\n    tag_187:\n        /* \"chaintalk.sol\":2775:2776  0 */\n      0x00\n        /* \"chaintalk.sol\":2753:2764  _newContent */\n      dup2\n        /* \"chaintalk.sol\":2747:2772  bytes(_newContent).length */\n      mload\n        /* \"chaintalk.sol\":2747:2776  bytes(_newContent).length > 0 */\n      gt\n        /* \"chaintalk.sol\":2739:2808  require(bytes(_newContent).length > 0, \"New content cannot be empty\") */\n      tag_190\n      jumpi\n      mload(0x40)\n      0x08c379a000000000000000000000000000000000000000000000000000000000\n      dup2\n      mstore\n      0x04\n      add\n      tag_191\n      swap1\n      tag_192\n      jump\t// in\n    tag_191:\n      mload(0x40)\n      dup1\n      swap2\n      sub\n      swap1\n      revert\n    tag_190:\n        /* \"chaintalk.sol\":2819:2835  editRequestCount */\n      0x05\n      0x00\n        /* \"chaintalk.sol\":2819:2837  editRequestCount++ */\n      dup2\n      sload\n      dup1\n      swap3\n      swap2\n      swap1\n      tag_193\n      swap1\n      tag_103\n      jump\t// in\n    tag_193:\n      swap2\n      swap1\n      pop\n      sstore\n      pop\n        /* \"chaintalk.sol\":2881:3047  EditRequest({... */\n      mload(0x40)\n      dup1\n      0x80\n      add\n      0x40\n      mstore\n      dup1\n        /* \"chaintalk.sol\":2919:2929  _messageId */\n      dup4\n        /* \"chaintalk.sol\":2881:3047  EditRequest({... */\n      dup2\n      mstore\n      0x20\n      add\n        /* \"chaintalk.sol\":2955:2965  msg.sender */\n      caller\n        /* \"chaintalk.sol\":2881:3047  EditRequest({... */\n      0xffffffffffffffffffffffffffffffffffffffff\n      and\n      dup2\n      mstore\n      0x20\n      add\n        /* \"chaintalk.sol\":2992:3003  _newContent */\n      dup3\n        /* \"chaintalk.sol\":2881:3047  EditRequest({... */\n      dup2\n      mstore\n      0x20\n      add\n        /* \"chaintalk.sol\":3030:3035  false */\n      0x00\n        /* \"chaintalk.sol\":2881:3047  EditRequest({... */\n      iszero\n      iszero\n      dup2\n      mstore\n      pop\n        /* \"chaintalk.sol\":2848:2860  editRequests */\n      0x03\n        /* \"chaintalk.sol\":2848:2878  editRequests[editRequestCount] */\n      0x00\n        /* \"chaintalk.sol\":2861:2877  editRequestCount */\n      sload(0x05)\n        /* \"chaintalk.sol\":2848:2878  editRequests[editRequestCount] */\n      dup2\n      mstore\n      0x20\n      add\n      swap1\n      dup2\n      mstore\n      0x20\n      add\n      0x00\n      keccak256\n        /* \"chaintalk.sol\":2848:3047  editRequests[editRequestCount] = EditRequest({... */\n      0x00\n      dup3\n      add\n      mload\n      dup2\n      0x00\n      add\n      sstore\n      0x20\n      dup3\n      add\n      mload\n      dup2\n      0x01\n      add\n      exp(0x0100, 0x00)\n      dup2\n      sload\n      dup2\n      0xffffffffffffffffffffffffffffffffffffffff\n      mul\n      not\n      and\n      swap1\n      dup4\n      0xffffffffffffffffffffffffffffffffffffffff\n      and\n      mul\n      or\n      swap1\n      sstore\n      pop\n      0x40\n      dup3\n      add\n      mload\n      dup2\n      0x02\n      add\n      swap1\n      dup2\n      tag_194\n      swap2\n      swap1\n      tag_134\n      jump\t// in\n    tag_194:\n      pop\n      0x60\n      dup3\n      add\n      mload\n      dup2\n      0x03\n      add\n      exp(0x0100, 0x00)\n      dup2\n      sload\n      dup2\n      0xff\n      mul\n      not\n      and\n      swap1\n      dup4\n      iszero\n      iszero\n      mul\n      or\n      swap1\n      sstore\n      pop\n      swap1\n      pop\n      pop\n        /* \"chaintalk.sol\":3089:3099  msg.sender */\n      caller\n        /* \"chaintalk.sol\":3063:3113  EditRequested(_messageId, msg.sender, _newContent) */\n      0xffffffffffffffffffffffffffffffffffffffff\n      and\n        /* \"chaintalk.sol\":3077:3087  _messageId */\n      dup3\n        /* \"chaintalk.sol\":3063:3113  EditRequested(_messageId, msg.sender, _newContent) */\n      0x65a5dfdcca99d0a97bd4a95e21c4af5e64327ba9493215cccbfd0b87ca2ba362\n        /* \"chaintalk.sol\":3101:3112  _newContent */\n      dup4\n        /* \"chaintalk.sol\":3063:3113  EditRequested(_messageId, msg.sender, _newContent) */\n      mload(0x40)\n      tag_195\n      swap2\n      swap1\n      tag_136\n      jump\t// in\n    tag_195:\n      mload(0x40)\n      dup1\n      swap2\n      sub\n      swap1\n      log3\n        /* \"@openzeppelin/contracts/security/ReentrancyGuard.sol\":2303:2323  _nonReentrantAfter() */\n      tag_196\n        /* \"@openzeppelin/contracts/security/ReentrancyGuard.sol\":2303:2321  _nonReentrantAfter */\n      tag_138\n        /* \"@openzeppelin/contracts/security/ReentrancyGuard.sol\":2303:2323  _nonReentrantAfter() */\n      jump\t// in\n    tag_196:\n        /* \"chaintalk.sol\":2367:3121  function requestMessageEdit(uint256 _messageId, string memory _newContent) public nonReentrant {... */\n      pop\n      pop\n      jump\t// out\n        /* \"chaintalk.sol\":4226:4548  function deleteMessage(uint256 _messageId) public onlyOwner {... */\n    tag_71:\n        /* \"@openzeppelin/contracts/access/Ownable.sol\":1531:1544  _checkOwner() */\n      tag_198\n        /* \"@openzeppelin/contracts/access/Ownable.sol\":1531:1542  _checkOwner */\n      tag_141\n        /* \"@openzeppelin/contracts/access/Ownable.sol\":1531:1544  _checkOwner() */\n      jump\t// in\n    tag_198:\n        /* \"chaintalk.sol\":4318:4319  0 */\n      0x00\n        /* \"chaintalk.sol\":4305:4315  _messageId */\n      dup2\n        /* \"chaintalk.sol\":4305:4319  _messageId > 0 */\n      gt\n        /* \"chaintalk.sol\":4305:4349  _messageId > 0 && _messageId <= messageCount */\n      dup1\n      iszero\n      tag_200\n      jumpi\n      pop\n        /* \"chaintalk.sol\":4337:4349  messageCount */\n      sload(0x04)\n        /* \"chaintalk.sol\":4323:4333  _messageId */\n      dup2\n        /* \"chaintalk.sol\":4323:4349  _messageId <= messageCount */\n      gt\n      iszero\n        /* \"chaintalk.sol\":4305:4349  _messageId > 0 && _messageId <= messageCount */\n    tag_200:\n        /* \"chaintalk.sol\":4297:4372  require(_messageId > 0 && _messageId <= messageCount, \"Invalid message ID\") */\n      tag_201\n      jumpi\n      mload(0x40)\n      0x08c379a000000000000000000000000000000000000000000000000000000000\n      dup2\n      mstore\n      0x04\n      add\n      tag_202\n      swap1\n      tag_169\n      jump\t// in\n    tag_202:\n      mload(0x40)\n      dup1\n      swap2\n      sub\n      swap1\n      revert\n    tag_201:\n        /* \"chaintalk.sol\":4392:4400  messages */\n      0x02\n        /* \"chaintalk.sol\":4392:4412  messages[_messageId] */\n      0x00\n        /* \"chaintalk.sol\":4401:4411  _messageId */\n      dup3\n        /* \"chaintalk.sol\":4392:4412  messages[_messageId] */\n      dup2\n      mstore\n      0x20\n      add\n      swap1\n      dup2\n      mstore\n      0x20\n      add\n      0x00\n      keccak256\n        /* \"chaintalk.sol\":4392:4422  messages[_messageId].isDeleted */\n      0x04\n      add\n      0x00\n      swap1\n      sload\n      swap1\n      0x0100\n      exp\n      swap1\n      div\n      0xff\n      and\n        /* \"chaintalk.sol\":4391:4422  !messages[_messageId].isDeleted */\n      iszero\n        /* \"chaintalk.sol\":4383:4450  require(!messages[_messageId].isDeleted, \"Message already deleted\") */\n      tag_203\n      jumpi\n      mload(0x40)\n      0x08c379a000000000000000000000000000000000000000000000000000000000\n      dup2\n      mstore\n      0x04\n      add\n      tag_204\n      swap1\n      tag_205\n      jump\t// in\n    tag_204:\n      mload(0x40)\n      dup1\n      swap2\n      sub\n      swap1\n      revert\n    tag_203:\n        /* \"chaintalk.sol\":4494:4498  true */\n      0x01\n        /* \"chaintalk.sol\":4461:4469  messages */\n      0x02\n        /* \"chaintalk.sol\":4461:4481  messages[_messageId] */\n      0x00\n        /* \"chaintalk.sol\":4470:4480  _messageId */\n      dup4\n        /* \"chaintalk.sol\":4461:4481  messages[_messageId] */\n      dup2\n      mstore\n      0x20\n      add\n      swap1\n      dup2\n      mstore\n      0x20\n      add\n      0x00\n      keccak256\n        /* \"chaintalk.sol\":4461:4491  messages[_messageId].isDeleted */\n      0x04\n      add\n      0x00\n        /* \"chaintalk.sol\":4461:4498  messages[_messageId].isDeleted = true */\n      0x0100\n      exp\n      dup2\n      sload\n      dup2\n      0xff\n      mul\n      not\n      and\n      swap1\n      dup4\n      iszero\n      iszero\n      mul\n      or\n      swap1\n      sstore\n      pop\n        /* \"chaintalk.sol\":4529:4539  _messageId */\n      dup1\n        /* \"chaintalk.sol\":4514:4540  MessageDeleted(_messageId) */\n      0x6279be045e4d4d5a0eba7b1f0e578322b6dd7c01e92f0991700a02180904654b\n      mload(0x40)\n      mload(0x40)\n      dup1\n      swap2\n      sub\n      swap1\n      log2\n        /* \"chaintalk.sol\":4226:4548  function deleteMessage(uint256 _messageId) public onlyOwner {... */\n      pop\n      jump\t// out\n        /* \"@openzeppelin/contracts/access/Ownable.sol\":2543:2758  function transferOwnership(address newOwner) public virtual onlyOwner {... */\n    tag_75:\n        /* \"@openzeppelin/contracts/access/Ownable.sol\":1531:1544  _checkOwner() */\n      tag_207\n        /* \"@openzeppelin/contracts/access/Ownable.sol\":1531:1542  _checkOwner */\n      tag_141\n        /* \"@openzeppelin/contracts/access/Ownable.sol\":1531:1544  _checkOwner() */\n      jump\t// in\n    tag_207:\n        /* \"@openzeppelin/contracts/access/Ownable.sol\":2647:2648  0 */\n      0x00\n        /* \"@openzeppelin/contracts/access/Ownable.sol\":2627:2649  newOwner == address(0) */\n      0xffffffffffffffffffffffffffffffffffffffff\n      and\n        /* \"@openzeppelin/contracts/access/Ownable.sol\":2627:2635  newOwner */\n      dup2\n        /* \"@openzeppelin/contracts/access/Ownable.sol\":2627:2649  newOwner == address(0) */\n      0xffffffffffffffffffffffffffffffffffffffff\n      and\n      sub\n        /* \"@openzeppelin/contracts/access/Ownable.sol\":2623:2714  if (newOwner == address(0)) {... */\n      tag_209\n      jumpi\n        /* \"@openzeppelin/contracts/access/Ownable.sol\":2700:2701  0 */\n      0x00\n        /* \"@openzeppelin/contracts/access/Ownable.sol\":2672:2703  OwnableInvalidOwner(address(0)) */\n      mload(0x40)\n      0x1e4fbdf700000000000000000000000000000000000000000000000000000000\n      dup2\n      mstore\n      0x04\n      add\n      tag_210\n      swap2\n      swap1\n      tag_64\n      jump\t// in\n    tag_210:\n      mload(0x40)\n      dup1\n      swap2\n      sub\n      swap1\n      revert\n        /* \"@openzeppelin/contracts/access/Ownable.sol\":2623:2714  if (newOwner == address(0)) {... */\n    tag_209:\n        /* \"@openzeppelin/contracts/access/Ownable.sol\":2723:2751  _transferOwnership(newOwner) */\n      tag_211\n        /* \"@openzeppelin/contracts/access/Ownable.sol\":2742:2750  newOwner */\n      dup2\n        /* \"@openzeppelin/contracts/access/Ownable.sol\":2723:2741  _transferOwnership */\n      tag_144\n        /* \"@openzeppelin/contracts/access/Ownable.sol\":2723:2751  _transferOwnership(newOwner) */\n      jump\t// in\n    tag_211:\n        /* \"@openzeppelin/contracts/access/Ownable.sol\":2543:2758  function transferOwnership(address newOwner) public virtual onlyOwner {... */\n      pop\n      jump\t// out\n        /* \"@openzeppelin/contracts/security/ReentrancyGuard.sol\":2336:2623  function _nonReentrantBefore() private {... */\n    tag_127:\n        /* \"@openzeppelin/contracts/security/ReentrancyGuard.sol\":1759:1760  2 */\n      0x02\n        /* \"@openzeppelin/contracts/security/ReentrancyGuard.sol\":2468:2475  _status */\n      sload(0x01)\n        /* \"@openzeppelin/contracts/security/ReentrancyGuard.sol\":2468:2487  _status != _ENTERED */\n      sub\n        /* \"@openzeppelin/contracts/security/ReentrancyGuard.sol\":2460:2523  require(_status != _ENTERED, \"ReentrancyGuard: reentrant call\") */\n      tag_213\n      jumpi\n      mload(0x40)\n      0x08c379a000000000000000000000000000000000000000000000000000000000\n      dup2\n      mstore\n      0x04\n      add\n      tag_214\n      swap1\n      tag_215\n      jump\t// in\n    tag_214:\n      mload(0x40)\n      dup1\n      swap2\n      sub\n      swap1\n      revert\n    tag_213:\n        /* \"@openzeppelin/contracts/security/ReentrancyGuard.sol\":1759:1760  2 */\n      0x02\n        /* \"@openzeppelin/contracts/security/ReentrancyGuard.sol\":2598:2605  _status */\n      0x01\n        /* \"@openzeppelin/contracts/security/ReentrancyGuard.sol\":2598:2616  _status = _ENTERED */\n      dup2\n      swap1\n      sstore\n      pop\n        /* \"@openzeppelin/contracts/security/ReentrancyGuard.sol\":2336:2623  function _nonReentrantBefore() private {... */\n      jump\t// out\n        /* \"@openzeppelin/contracts/security/ReentrancyGuard.sol\":2629:2838  function _nonReentrantAfter() private {... */\n    tag_138:\n        /* \"@openzeppelin/contracts/security/ReentrancyGuard.sol\":1716:1717  1 */\n      0x01\n        /* \"@openzeppelin/contracts/security/ReentrancyGuard.sol\":2809:2816  _status */\n      dup1\n        /* \"@openzeppelin/contracts/security/ReentrancyGuard.sol\":2809:2831  _status = _NOT_ENTERED */\n      dup2\n      swap1\n      sstore\n      pop\n        /* \"@openzeppelin/contracts/security/ReentrancyGuard.sol\":2629:2838  function _nonReentrantAfter() private {... */\n      jump\t// out\n        /* \"@openzeppelin/contracts/access/Ownable.sol\":1796:1958  function _checkOwner() internal view virtual {... */\n    tag_141:\n        /* \"@openzeppelin/contracts/access/Ownable.sol\":1866:1878  _msgSender() */\n      tag_218\n        /* \"@openzeppelin/contracts/access/Ownable.sol\":1866:1876  _msgSender */\n      tag_219\n        /* \"@openzeppelin/contracts/access/Ownable.sol\":1866:1878  _msgSender() */\n      jump\t// in\n    tag_218:\n        /* \"@openzeppelin/contracts/access/Ownable.sol\":1855:1878  owner() != _msgSender() */\n      0xffffffffffffffffffffffffffffffffffffffff\n      and\n        /* \"@openzeppelin/contracts/access/Ownable.sol\":1855:1862  owner() */\n      tag_220\n        /* \"@openzeppelin/contracts/access/Ownable.sol\":1855:1860  owner */\n      tag_62\n        /* \"@openzeppelin/contracts/access/Ownable.sol\":1855:1862  owner() */\n      jump\t// in\n    tag_220:\n        /* \"@openzeppelin/contracts/access/Ownable.sol\":1855:1878  owner() != _msgSender() */\n      0xffffffffffffffffffffffffffffffffffffffff\n      and\n      eq\n        /* \"@openzeppelin/contracts/access/Ownable.sol\":1851:1952  if (owner() != _msgSender()) {... */\n      tag_221\n      jumpi\n        /* \"@openzeppelin/contracts/access/Ownable.sol\":1928:1940  _msgSender() */\n      tag_222\n        /* \"@openzeppelin/contracts/access/Ownable.sol\":1928:1938  _msgSender */\n      tag_219\n        /* \"@openzeppelin/contracts/access/Ownable.sol\":1928:1940  _msgSender() */\n      jump\t// in\n    tag_222:\n        /* \"@openzeppelin/contracts/access/Ownable.sol\":1901:1941  OwnableUnauthorizedAccount(_msgSender()) */\n      mload(0x40)\n      0x118cdaa700000000000000000000000000000000000000000000000000000000\n      dup2\n      mstore\n      0x04\n      add\n      tag_223\n      swap2\n      swap1\n      tag_64\n      jump\t// in\n    tag_223:\n      mload(0x40)\n      dup1\n      swap2\n      sub\n      swap1\n      revert\n        /* \"@openzeppelin/contracts/access/Ownable.sol\":1851:1952  if (owner() != _msgSender()) {... */\n    tag_221:\n        /* \"@openzeppelin/contracts/access/Ownable.sol\":1796:1958  function _checkOwner() internal view virtual {... */\n      jump\t// out\n        /* \"@openzeppelin/contracts/access/Ownable.sol\":2912:3099  function _transferOwnership(address newOwner) internal virtual {... */\n    tag_144:\n        /* \"@openzeppelin/contracts/access/Ownable.sol\":2985:3001  address oldOwner */\n      0x00\n        /* \"@openzeppelin/contracts/access/Ownable.sol\":3004:3010  _owner */\n      0x00\n      0x00\n      swap1\n      sload\n      swap1\n      0x0100\n      exp\n      swap1\n      div\n      0xffffffffffffffffffffffffffffffffffffffff\n      and\n        /* \"@openzeppelin/contracts/access/Ownable.sol\":2985:3010  address oldOwner = _owner */\n      swap1\n      pop\n        /* \"@openzeppelin/contracts/access/Ownable.sol\":3029:3037  newOwner */\n      dup2\n        /* \"@openzeppelin/contracts/access/Ownable.sol\":3020:3026  _owner */\n      0x00\n      0x00\n        /* \"@openzeppelin/contracts/access/Ownable.sol\":3020:3037  _owner = newOwner */\n      0x0100\n      exp\n      dup2\n      sload\n      dup2\n      0xffffffffffffffffffffffffffffffffffffffff\n      mul\n      not\n      and\n      swap1\n      dup4\n      0xffffffffffffffffffffffffffffffffffffffff\n      and\n      mul\n      or\n      swap1\n      sstore\n      pop\n        /* \"@openzeppelin/contracts/access/Ownable.sol\":3083:3091  newOwner */\n      dup2\n        /* \"@openzeppelin/contracts/access/Ownable.sol\":3052:3092  OwnershipTransferred(oldOwner, newOwner) */\n      0xffffffffffffffffffffffffffffffffffffffff\n      and\n        /* \"@openzeppelin/contracts/access/Ownable.sol\":3073:3081  oldOwner */\n      dup2\n        /* \"@openzeppelin/contracts/access/Ownable.sol\":3052:3092  OwnershipTransferred(oldOwner, newOwner) */\n      0xffffffffffffffffffffffffffffffffffffffff\n      and\n      0x8be0079c531659141344cd1fd0a4f28419497f9722a3daafe3b4186f6b6457e0\n      mload(0x40)\n      mload(0x40)\n      dup1\n      swap2\n      sub\n      swap1\n      log3\n        /* \"@openzeppelin/contracts/access/Ownable.sol\":2975:3099  {... */\n      pop\n        /* \"@openzeppelin/contracts/access/Ownable.sol\":2912:3099  function _transferOwnership(address newOwner) internal virtual {... */\n      pop\n      jump\t// out\n        /* \"@openzeppelin/contracts/utils/Context.sol\":656:752  function _msgSender() internal view virtual returns (address) {... */\n    tag_219:\n        /* \"@openzeppelin/contracts/utils/Context.sol\":709:716  address */\n      0x00\n        /* \"@openzeppelin/contracts/utils/Context.sol\":735:745  msg.sender */\n      caller\n        /* \"@openzeppelin/contracts/utils/Context.sol\":728:745  return msg.sender */\n      swap1\n      pop\n        /* \"@openzeppelin/contracts/utils/Context.sol\":656:752  function _msgSender() internal view virtual returns (address) {... */\n      swap1\n      jump\t// out\n    tag_89:\n      mload(0x40)\n      dup1\n      0x80\n      add\n      0x40\n      mstore\n      dup1\n      0x00\n      dup2\n      mstore\n      0x20\n      add\n      and(0xffffffffffffffffffffffffffffffffffffffff, 0x00)\n      dup2\n      mstore\n      0x20\n      add\n      0x60\n      dup2\n      mstore\n      0x20\n      add\n      iszero(iszero(0x00))\n      dup2\n      mstore\n      pop\n      swap1\n      jump\t// out\n    tag_111:\n      mload(0x40)\n      dup1\n      0xa0\n      add\n      0x40\n      mstore\n      dup1\n      0x00\n      dup2\n      mstore\n      0x20\n      add\n      and(0xffffffffffffffffffffffffffffffffffffffff, 0x00)\n      dup2\n      mstore\n      0x20\n      add\n      0x60\n      dup2\n      mstore\n      0x20\n      add\n      0x00\n      dup2\n      mstore\n      0x20\n      add\n      iszero(iszero(0x00))\n      dup2\n      mstore\n      pop\n      swap1\n      jump\t// out\n        /* \"#utility.yul\":7:82   */\n    tag_226:\n        /* \"#utility.yul\":40:46   */\n      0x00\n        /* \"#utility.yul\":73:75   */\n      0x40\n        /* \"#utility.yul\":67:76   */\n      mload\n        /* \"#utility.yul\":57:76   */\n      swap1\n      pop\n        /* \"#utility.yul\":7:82   */\n      swap1\n      jump\t// out\n        /* \"#utility.yul\":88:205   */\n    tag_227:\n        /* \"#utility.yul\":197:198   */\n      0x00\n        /* \"#utility.yul\":194:195   */\n      0x00\n        /* \"#utility.yul\":187:199   */\n      revert\n        /* \"#utility.yul\":211:328   */\n    tag_228:\n        /* \"#utility.yul\":320:321   */\n      0x00\n        /* \"#utility.yul\":317:318   */\n      0x00\n        /* \"#utility.yul\":310:322   */\n      revert\n        /* \"#utility.yul\":334:411   */\n    tag_229:\n        /* \"#utility.yul\":371:378   */\n      0x00\n        /* \"#utility.yul\":400:405   */\n      dup2\n        /* \"#utility.yul\":389:405   */\n      swap1\n      pop\n        /* \"#utility.yul\":334:411   */\n      swap2\n      swap1\n      pop\n      jump\t// out\n        /* \"#utility.yul\":417:539   */\n    tag_230:\n        /* \"#utility.yul\":490:514   */\n      tag_317\n        /* \"#utility.yul\":508:513   */\n      dup2\n        /* \"#utility.yul\":490:514   */\n      tag_229\n      jump\t// in\n    tag_317:\n        /* \"#utility.yul\":483:488   */\n      dup2\n        /* \"#utility.yul\":480:515   */\n      eq\n        /* \"#utility.yul\":470:533   */\n      tag_318\n      jumpi\n        /* \"#utility.yul\":529:530   */\n      0x00\n        /* \"#utility.yul\":526:527   */\n      0x00\n        /* \"#utility.yul\":519:531   */\n      revert\n        /* \"#utility.yul\":470:533   */\n    tag_318:\n        /* \"#utility.yul\":417:539   */\n      pop\n      jump\t// out\n        /* \"#utility.yul\":545:684   */\n    tag_231:\n        /* \"#utility.yul\":591:596   */\n      0x00\n        /* \"#utility.yul\":629:635   */\n      dup2\n        /* \"#utility.yul\":616:636   */\n      calldataload\n        /* \"#utility.yul\":607:636   */\n      swap1\n      pop\n        /* \"#utility.yul\":645:678   */\n      tag_320\n        /* \"#utility.yul\":672:677   */\n      dup2\n        /* \"#utility.yul\":645:678   */\n      tag_230\n      jump\t// in\n    tag_320:\n        /* \"#utility.yul\":545:684   */\n      swap3\n      swap2\n      pop\n      pop\n      jump\t// out\n        /* \"#utility.yul\":690:1019   */\n    tag_22:\n        /* \"#utility.yul\":749:755   */\n      0x00\n        /* \"#utility.yul\":798:800   */\n      0x20\n        /* \"#utility.yul\":786:795   */\n      dup3\n        /* \"#utility.yul\":777:784   */\n      dup5\n        /* \"#utility.yul\":773:796   */\n      sub\n        /* \"#utility.yul\":769:801   */\n      slt\n        /* \"#utility.yul\":766:885   */\n      iszero\n      tag_322\n      jumpi\n        /* \"#utility.yul\":804:883   */\n      tag_323\n      tag_227\n      jump\t// in\n    tag_323:\n        /* \"#utility.yul\":766:885   */\n    tag_322:\n        /* \"#utility.yul\":924:925   */\n      0x00\n        /* \"#utility.yul\":949:1002   */\n      tag_324\n        /* \"#utility.yul\":994:1001   */\n      dup5\n        /* \"#utility.yul\":985:991   */\n      dup3\n        /* \"#utility.yul\":974:983   */\n      dup6\n        /* \"#utility.yul\":970:992   */\n      add\n        /* \"#utility.yul\":949:1002   */\n      tag_231\n      jump\t// in\n    tag_324:\n        /* \"#utility.yul\":939:1002   */\n      swap2\n      pop\n        /* \"#utility.yul\":895:1012   */\n      pop\n        /* \"#utility.yul\":690:1019   */\n      swap3\n      swap2\n      pop\n      pop\n      jump\t// out\n        /* \"#utility.yul\":1025:1143   */\n    tag_232:\n        /* \"#utility.yul\":1112:1136   */\n      tag_326\n        /* \"#utility.yul\":1130:1135   */\n      dup2\n        /* \"#utility.yul\":1112:1136   */\n      tag_229\n      jump\t// in\n    tag_326:\n        /* \"#utility.yul\":1107:1110   */\n      dup3\n        /* \"#utility.yul\":1100:1137   */\n      mstore\n        /* \"#utility.yul\":1025:1143   */\n      pop\n      pop\n      jump\t// out\n        /* \"#utility.yul\":1149:1275   */\n    tag_233:\n        /* \"#utility.yul\":1186:1193   */\n      0x00\n        /* \"#utility.yul\":1226:1268   */\n      0xffffffffffffffffffffffffffffffffffffffff\n        /* \"#utility.yul\":1219:1224   */\n      dup3\n        /* \"#utility.yul\":1215:1269   */\n      and\n        /* \"#utility.yul\":1204:1269   */\n      swap1\n      pop\n        /* \"#utility.yul\":1149:1275   */\n      swap2\n      swap1\n      pop\n      jump\t// out\n        /* \"#utility.yul\":1281:1377   */\n    tag_234:\n        /* \"#utility.yul\":1318:1325   */\n      0x00\n        /* \"#utility.yul\":1347:1371   */\n      tag_329\n        /* \"#utility.yul\":1365:1370   */\n      dup3\n        /* \"#utility.yul\":1347:1371   */\n      tag_233\n      jump\t// in\n    tag_329:\n        /* \"#utility.yul\":1336:1371   */\n      swap1\n      pop\n        /* \"#utility.yul\":1281:1377   */\n      swap2\n      swap1\n      pop\n      jump\t// out\n        /* \"#utility.yul\":1383:1501   */\n    tag_235:\n        /* \"#utility.yul\":1470:1494   */\n      tag_331\n        /* \"#utility.yul\":1488:1493   */\n      dup2\n        /* \"#utility.yul\":1470:1494   */\n      tag_234\n      jump\t// in\n    tag_331:\n        /* \"#utility.yul\":1465:1468   */\n      dup3\n        /* \"#utility.yul\":1458:1495   */\n      mstore\n        /* \"#utility.yul\":1383:1501   */\n      pop\n      pop\n      jump\t// out\n        /* \"#utility.yul\":1507:1606   */\n    tag_236:\n        /* \"#utility.yul\":1559:1565   */\n      0x00\n        /* \"#utility.yul\":1593:1598   */\n      dup2\n        /* \"#utility.yul\":1587:1599   */\n      mload\n        /* \"#utility.yul\":1577:1599   */\n      swap1\n      pop\n        /* \"#utility.yul\":1507:1606   */\n      swap2\n      swap1\n      pop\n      jump\t// out\n        /* \"#utility.yul\":1612:1781   */\n    tag_237:\n        /* \"#utility.yul\":1696:1707   */\n      0x00\n        /* \"#utility.yul\":1730:1736   */\n      dup3\n        /* \"#utility.yul\":1725:1728   */\n      dup3\n        /* \"#utility.yul\":1718:1737   */\n      mstore\n        /* \"#utility.yul\":1770:1774   */\n      0x20\n        /* \"#utility.yul\":1765:1768   */\n      dup3\n        /* \"#utility.yul\":1761:1775   */\n      add\n        /* \"#utility.yul\":1746:1775   */\n      swap1\n      pop\n        /* \"#utility.yul\":1612:1781   */\n      swap3\n      swap2\n      pop\n      pop\n      jump\t// out\n        /* \"#utility.yul\":1787:1926   */\n    tag_238:\n        /* \"#utility.yul\":1876:1882   */\n      dup3\n        /* \"#utility.yul\":1871:1874   */\n      dup2\n        /* \"#utility.yul\":1866:1869   */\n      dup4\n        /* \"#utility.yul\":1860:1883   */\n      mcopy\n        /* \"#utility.yul\":1917:1918   */\n      0x00\n        /* \"#utility.yul\":1908:1914   */\n      dup4\n        /* \"#utility.yul\":1903:1906   */\n      dup4\n        /* \"#utility.yul\":1899:1915   */\n      add\n        /* \"#utility.yul\":1892:1919   */\n      mstore\n        /* \"#utility.yul\":1787:1926   */\n      pop\n      pop\n      pop\n      jump\t// out\n        /* \"#utility.yul\":1932:2034   */\n    tag_239:\n        /* \"#utility.yul\":1973:1979   */\n      0x00\n        /* \"#utility.yul\":2024:2026   */\n      0x1f\n        /* \"#utility.yul\":2020:2027   */\n      not\n        /* \"#utility.yul\":2015:2017   */\n      0x1f\n        /* \"#utility.yul\":2008:2013   */\n      dup4\n        /* \"#utility.yul\":2004:2018   */\n      add\n        /* \"#utility.yul\":2000:2028   */\n      and\n        /* \"#utility.yul\":1990:2028   */\n      swap1\n      pop\n        /* \"#utility.yul\":1932:2034   */\n      swap2\n      swap1\n      pop\n      jump\t// out\n        /* \"#utility.yul\":2040:2417   */\n    tag_240:\n        /* \"#utility.yul\":2128:2131   */\n      0x00\n        /* \"#utility.yul\":2156:2195   */\n      tag_337\n        /* \"#utility.yul\":2189:2194   */\n      dup3\n        /* \"#utility.yul\":2156:2195   */\n      tag_236\n      jump\t// in\n    tag_337:\n        /* \"#utility.yul\":2211:2282   */\n      tag_338\n        /* \"#utility.yul\":2275:2281   */\n      dup2\n        /* \"#utility.yul\":2270:2273   */\n      dup6\n        /* \"#utility.yul\":2211:2282   */\n      tag_237\n      jump\t// in\n    tag_338:\n        /* \"#utility.yul\":2204:2282   */\n      swap4\n      pop\n        /* \"#utility.yul\":2291:2356   */\n      tag_339\n        /* \"#utility.yul\":2349:2355   */\n      dup2\n        /* \"#utility.yul\":2344:2347   */\n      dup6\n        /* \"#utility.yul\":2337:2341   */\n      0x20\n        /* \"#utility.yul\":2330:2335   */\n      dup7\n        /* \"#utility.yul\":2326:2342   */\n      add\n        /* \"#utility.yul\":2291:2356   */\n      tag_238\n      jump\t// in\n    tag_339:\n        /* \"#utility.yul\":2381:2410   */\n      tag_340\n        /* \"#utility.yul\":2403:2409   */\n      dup2\n        /* \"#utility.yul\":2381:2410   */\n      tag_239\n      jump\t// in\n    tag_340:\n        /* \"#utility.yul\":2376:2379   */\n      dup5\n        /* \"#utility.yul\":2372:2411   */\n      add\n        /* \"#utility.yul\":2365:2411   */\n      swap2\n      pop\n        /* \"#utility.yul\":2132:2417   */\n      pop\n        /* \"#utility.yul\":2040:2417   */\n      swap3\n      swap2\n      pop\n      pop\n      jump\t// out\n        /* \"#utility.yul\":2423:2513   */\n    tag_241:\n        /* \"#utility.yul\":2457:2464   */\n      0x00\n        /* \"#utility.yul\":2500:2505   */\n      dup2\n        /* \"#utility.yul\":2493:2506   */\n      iszero\n        /* \"#utility.yul\":2486:2507   */\n      iszero\n        /* \"#utility.yul\":2475:2507   */\n      swap1\n      pop\n        /* \"#utility.yul\":2423:2513   */\n      swap2\n      swap1\n      pop\n      jump\t// out\n        /* \"#utility.yul\":2519:2628   */\n    tag_242:\n        /* \"#utility.yul\":2600:2621   */\n      tag_343\n        /* \"#utility.yul\":2615:2620   */\n      dup2\n        /* \"#utility.yul\":2600:2621   */\n      tag_241\n      jump\t// in\n    tag_343:\n        /* \"#utility.yul\":2595:2598   */\n      dup3\n        /* \"#utility.yul\":2588:2622   */\n      mstore\n        /* \"#utility.yul\":2519:2628   */\n      pop\n      pop\n      jump\t// out\n        /* \"#utility.yul\":2634:3377   */\n    tag_25:\n        /* \"#utility.yul\":2853:2857   */\n      0x00\n        /* \"#utility.yul\":2891:2894   */\n      0xa0\n        /* \"#utility.yul\":2880:2889   */\n      dup3\n        /* \"#utility.yul\":2876:2895   */\n      add\n        /* \"#utility.yul\":2868:2895   */\n      swap1\n      pop\n        /* \"#utility.yul\":2905:2976   */\n      tag_345\n        /* \"#utility.yul\":2973:2974   */\n      0x00\n        /* \"#utility.yul\":2962:2971   */\n      dup4\n        /* \"#utility.yul\":2958:2975   */\n      add\n        /* \"#utility.yul\":2949:2955   */\n      dup9\n        /* \"#utility.yul\":2905:2976   */\n      tag_232\n      jump\t// in\n    tag_345:\n        /* \"#utility.yul\":2986:3058   */\n      tag_346\n        /* \"#utility.yul\":3054:3056   */\n      0x20\n        /* \"#utility.yul\":3043:3052   */\n      dup4\n        /* \"#utility.yul\":3039:3057   */\n      add\n        /* \"#utility.yul\":3030:3036   */\n      dup8\n        /* \"#utility.yul\":2986:3058   */\n      tag_235\n      jump\t// in\n    tag_346:\n        /* \"#utility.yul\":3105:3114   */\n      dup2\n        /* \"#utility.yul\":3099:3103   */\n      dup2\n        /* \"#utility.yul\":3095:3115   */\n      sub\n        /* \"#utility.yul\":3090:3092   */\n      0x40\n        /* \"#utility.yul\":3079:3088   */\n      dup4\n        /* \"#utility.yul\":3075:3093   */\n      add\n        /* \"#utility.yul\":3068:3116   */\n      mstore\n        /* \"#utility.yul\":3133:3211   */\n      tag_347\n        /* \"#utility.yul\":3206:3210   */\n      dup2\n        /* \"#utility.yul\":3197:3203   */\n      dup7\n        /* \"#utility.yul\":3133:3211   */\n      tag_240\n      jump\t// in\n    tag_347:\n        /* \"#utility.yul\":3125:3211   */\n      swap1\n      pop\n        /* \"#utility.yul\":3221:3293   */\n      tag_348\n        /* \"#utility.yul\":3289:3291   */\n      0x60\n        /* \"#utility.yul\":3278:3287   */\n      dup4\n        /* \"#utility.yul\":3274:3292   */\n      add\n        /* \"#utility.yul\":3265:3271   */\n      dup6\n        /* \"#utility.yul\":3221:3293   */\n      tag_232\n      jump\t// in\n    tag_348:\n        /* \"#utility.yul\":3303:3370   */\n      tag_349\n        /* \"#utility.yul\":3365:3368   */\n      0x80\n        /* \"#utility.yul\":3354:3363   */\n      dup4\n        /* \"#utility.yul\":3350:3369   */\n      add\n        /* \"#utility.yul\":3341:3347   */\n      dup5\n        /* \"#utility.yul\":3303:3370   */\n      tag_242\n      jump\t// in\n    tag_349:\n        /* \"#utility.yul\":2634:3377   */\n      swap7\n      swap6\n      pop\n      pop\n      pop\n      pop\n      pop\n      pop\n      jump\t// out\n        /* \"#utility.yul\":3383:3605   */\n    tag_29:\n        /* \"#utility.yul\":3476:3480   */\n      0x00\n        /* \"#utility.yul\":3514:3516   */\n      0x20\n        /* \"#utility.yul\":3503:3512   */\n      dup3\n        /* \"#utility.yul\":3499:3517   */\n      add\n        /* \"#utility.yul\":3491:3517   */\n      swap1\n      pop\n        /* \"#utility.yul\":3527:3598   */\n      tag_351\n        /* \"#utility.yul\":3595:3596   */\n      0x00\n        /* \"#utility.yul\":3584:3593   */\n      dup4\n        /* \"#utility.yul\":3580:3597   */\n      add\n        /* \"#utility.yul\":3571:3577   */\n      dup5\n        /* \"#utility.yul\":3527:3598   */\n      tag_232\n      jump\t// in\n    tag_351:\n        /* \"#utility.yul\":3383:3605   */\n      swap3\n      swap2\n      pop\n      pop\n      jump\t// out\n        /* \"#utility.yul\":3611:3753   */\n    tag_243:\n        /* \"#utility.yul\":3706:3712   */\n      0x00\n        /* \"#utility.yul\":3740:3745   */\n      dup2\n        /* \"#utility.yul\":3734:3746   */\n      mload\n        /* \"#utility.yul\":3724:3746   */\n      swap1\n      pop\n        /* \"#utility.yul\":3611:3753   */\n      swap2\n      swap1\n      pop\n      jump\t// out\n        /* \"#utility.yul\":3759:3971   */\n    tag_244:\n        /* \"#utility.yul\":3886:3897   */\n      0x00\n        /* \"#utility.yul\":3920:3926   */\n      dup3\n        /* \"#utility.yul\":3915:3918   */\n      dup3\n        /* \"#utility.yul\":3908:3927   */\n      mstore\n        /* \"#utility.yul\":3960:3964   */\n      0x20\n        /* \"#utility.yul\":3955:3958   */\n      dup3\n        /* \"#utility.yul\":3951:3965   */\n      add\n        /* \"#utility.yul\":3936:3965   */\n      swap1\n      pop\n        /* \"#utility.yul\":3759:3971   */\n      swap3\n      swap2\n      pop\n      pop\n      jump\t// out\n        /* \"#utility.yul\":3977:4137   */\n    tag_245:\n        /* \"#utility.yul\":4072:4076   */\n      0x00\n        /* \"#utility.yul\":4095:4098   */\n      dup2\n        /* \"#utility.yul\":4087:4098   */\n      swap1\n      pop\n        /* \"#utility.yul\":4125:4129   */\n      0x20\n        /* \"#utility.yul\":4120:4123   */\n      dup3\n        /* \"#utility.yul\":4116:4130   */\n      add\n        /* \"#utility.yul\":4108:4130   */\n      swap1\n      pop\n        /* \"#utility.yul\":3977:4137   */\n      swap2\n      swap1\n      pop\n      jump\t// out\n        /* \"#utility.yul\":4143:4251   */\n    tag_246:\n        /* \"#utility.yul\":4220:4244   */\n      tag_356\n        /* \"#utility.yul\":4238:4243   */\n      dup2\n        /* \"#utility.yul\":4220:4244   */\n      tag_229\n      jump\t// in\n    tag_356:\n        /* \"#utility.yul\":4215:4218   */\n      dup3\n        /* \"#utility.yul\":4208:4245   */\n      mstore\n        /* \"#utility.yul\":4143:4251   */\n      pop\n      pop\n      jump\t// out\n        /* \"#utility.yul\":4257:4365   */\n    tag_247:\n        /* \"#utility.yul\":4334:4358   */\n      tag_358\n        /* \"#utility.yul\":4352:4357   */\n      dup2\n        /* \"#utility.yul\":4334:4358   */\n      tag_234\n      jump\t// in\n    tag_358:\n        /* \"#utility.yul\":4329:4332   */\n      dup3\n        /* \"#utility.yul\":4322:4359   */\n      mstore\n        /* \"#utility.yul\":4257:4365   */\n      pop\n      pop\n      jump\t// out\n        /* \"#utility.yul\":4371:4530   */\n    tag_248:\n        /* \"#utility.yul\":4445:4456   */\n      0x00\n        /* \"#utility.yul\":4479:4485   */\n      dup3\n        /* \"#utility.yul\":4474:4477   */\n      dup3\n        /* \"#utility.yul\":4467:4486   */\n      mstore\n        /* \"#utility.yul\":4519:4523   */\n      0x20\n        /* \"#utility.yul\":4514:4517   */\n      dup3\n        /* \"#utility.yul\":4510:4524   */\n      add\n        /* \"#utility.yul\":4495:4524   */\n      swap1\n      pop\n        /* \"#utility.yul\":4371:4530   */\n      swap3\n      swap2\n      pop\n      pop\n      jump\t// out\n        /* \"#utility.yul\":4536:4893   */\n    tag_249:\n        /* \"#utility.yul\":4614:4617   */\n      0x00\n        /* \"#utility.yul\":4642:4681   */\n      tag_361\n        /* \"#utility.yul\":4675:4680   */\n      dup3\n        /* \"#utility.yul\":4642:4681   */\n      tag_236\n      jump\t// in\n    tag_361:\n        /* \"#utility.yul\":4697:4758   */\n      tag_362\n        /* \"#utility.yul\":4751:4757   */\n      dup2\n        /* \"#utility.yul\":4746:4749   */\n      dup6\n        /* \"#utility.yul\":4697:4758   */\n      tag_248\n      jump\t// in\n    tag_362:\n        /* \"#utility.yul\":4690:4758   */\n      swap4\n      pop\n        /* \"#utility.yul\":4767:4832   */\n      tag_363\n        /* \"#utility.yul\":4825:4831   */\n      dup2\n        /* \"#utility.yul\":4820:4823   */\n      dup6\n        /* \"#utility.yul\":4813:4817   */\n      0x20\n        /* \"#utility.yul\":4806:4811   */\n      dup7\n        /* \"#utility.yul\":4802:4818   */\n      add\n        /* \"#utility.yul\":4767:4832   */\n      tag_238\n      jump\t// in\n    tag_363:\n        /* \"#utility.yul\":4857:4886   */\n      tag_364\n        /* \"#utility.yul\":4879:4885   */\n      dup2\n        /* \"#utility.yul\":4857:4886   */\n      tag_239\n      jump\t// in\n    tag_364:\n        /* \"#utility.yul\":4852:4855   */\n      dup5\n        /* \"#utility.yul\":4848:4887   */\n      add\n        /* \"#utility.yul\":4841:4887   */\n      swap2\n      pop\n        /* \"#utility.yul\":4618:4893   */\n      pop\n        /* \"#utility.yul\":4536:4893   */\n      swap3\n      swap2\n      pop\n      pop\n      jump\t// out\n        /* \"#utility.yul\":4899:4998   */\n    tag_250:\n        /* \"#utility.yul\":4970:4991   */\n      tag_366\n        /* \"#utility.yul\":4985:4990   */\n      dup2\n        /* \"#utility.yul\":4970:4991   */\n      tag_241\n      jump\t// in\n    tag_366:\n        /* \"#utility.yul\":4965:4968   */\n      dup3\n        /* \"#utility.yul\":4958:4992   */\n      mstore\n        /* \"#utility.yul\":4899:4998   */\n      pop\n      pop\n      jump\t// out\n        /* \"#utility.yul\":5072:6038   */\n    tag_251:\n        /* \"#utility.yul\":5187:5190   */\n      0x00\n        /* \"#utility.yul\":5223:5227   */\n      0x80\n        /* \"#utility.yul\":5218:5221   */\n      dup4\n        /* \"#utility.yul\":5214:5228   */\n      add\n        /* \"#utility.yul\":5315:5319   */\n      0x00\n        /* \"#utility.yul\":5308:5313   */\n      dup4\n        /* \"#utility.yul\":5304:5320   */\n      add\n        /* \"#utility.yul\":5298:5321   */\n      mload\n        /* \"#utility.yul\":5334:5397   */\n      tag_368\n        /* \"#utility.yul\":5391:5395   */\n      0x00\n        /* \"#utility.yul\":5386:5389   */\n      dup7\n        /* \"#utility.yul\":5382:5396   */\n      add\n        /* \"#utility.yul\":5368:5380   */\n      dup3\n        /* \"#utility.yul\":5334:5397   */\n      tag_246\n      jump\t// in\n    tag_368:\n        /* \"#utility.yul\":5238:5407   */\n      pop\n        /* \"#utility.yul\":5494:5498   */\n      0x20\n        /* \"#utility.yul\":5487:5492   */\n      dup4\n        /* \"#utility.yul\":5483:5499   */\n      add\n        /* \"#utility.yul\":5477:5500   */\n      mload\n        /* \"#utility.yul\":5513:5576   */\n      tag_369\n        /* \"#utility.yul\":5570:5574   */\n      0x20\n        /* \"#utility.yul\":5565:5568   */\n      dup7\n        /* \"#utility.yul\":5561:5575   */\n      add\n        /* \"#utility.yul\":5547:5559   */\n      dup3\n        /* \"#utility.yul\":5513:5576   */\n      tag_247\n      jump\t// in\n    tag_369:\n        /* \"#utility.yul\":5417:5586   */\n      pop\n        /* \"#utility.yul\":5674:5678   */\n      0x40\n        /* \"#utility.yul\":5667:5672   */\n      dup4\n        /* \"#utility.yul\":5663:5679   */\n      add\n        /* \"#utility.yul\":5657:5680   */\n      mload\n        /* \"#utility.yul\":5727:5730   */\n      dup5\n        /* \"#utility.yul\":5721:5725   */\n      dup3\n        /* \"#utility.yul\":5717:5731   */\n      sub\n        /* \"#utility.yul\":5710:5714   */\n      0x40\n        /* \"#utility.yul\":5705:5708   */\n      dup7\n        /* \"#utility.yul\":5701:5715   */\n      add\n        /* \"#utility.yul\":5694:5732   */\n      mstore\n        /* \"#utility.yul\":5753:5826   */\n      tag_370\n        /* \"#utility.yul\":5821:5825   */\n      dup3\n        /* \"#utility.yul\":5807:5819   */\n      dup3\n        /* \"#utility.yul\":5753:5826   */\n      tag_249\n      jump\t// in\n    tag_370:\n        /* \"#utility.yul\":5745:5826   */\n      swap2\n      pop\n        /* \"#utility.yul\":5596:5837   */\n      pop\n        /* \"#utility.yul\":5925:5929   */\n      0x60\n        /* \"#utility.yul\":5918:5923   */\n      dup4\n        /* \"#utility.yul\":5914:5930   */\n      add\n        /* \"#utility.yul\":5908:5931   */\n      mload\n        /* \"#utility.yul\":5944:6001   */\n      tag_371\n        /* \"#utility.yul\":5995:5999   */\n      0x60\n        /* \"#utility.yul\":5990:5993   */\n      dup7\n        /* \"#utility.yul\":5986:6000   */\n      add\n        /* \"#utility.yul\":5972:5984   */\n      dup3\n        /* \"#utility.yul\":5944:6001   */\n      tag_250\n      jump\t// in\n    tag_371:\n        /* \"#utility.yul\":5847:6011   */\n      pop\n        /* \"#utility.yul\":6028:6032   */\n      dup1\n        /* \"#utility.yul\":6021:6032   */\n      swap2\n      pop\n        /* \"#utility.yul\":5192:6038   */\n      pop\n        /* \"#utility.yul\":5072:6038   */\n      swap3\n      swap2\n      pop\n      pop\n      jump\t// out\n        /* \"#utility.yul\":6044:6312   */\n    tag_252:\n        /* \"#utility.yul\":6169:6179   */\n      0x00\n        /* \"#utility.yul\":6204:6306   */\n      tag_373\n        /* \"#utility.yul\":6302:6305   */\n      dup4\n        /* \"#utility.yul\":6294:6300   */\n      dup4\n        /* \"#utility.yul\":6204:6306   */\n      tag_251\n      jump\t// in\n    tag_373:\n        /* \"#utility.yul\":6190:6306   */\n      swap1\n      pop\n        /* \"#utility.yul\":6044:6312   */\n      swap3\n      swap2\n      pop\n      pop\n      jump\t// out\n        /* \"#utility.yul\":6318:6459   */\n    tag_253:\n        /* \"#utility.yul\":6416:6420   */\n      0x00\n        /* \"#utility.yul\":6448:6452   */\n      0x20\n        /* \"#utility.yul\":6443:6446   */\n      dup3\n        /* \"#utility.yul\":6439:6453   */\n      add\n        /* \"#utility.yul\":6431:6453   */\n      swap1\n      pop\n        /* \"#utility.yul\":6318:6459   */\n      swap2\n      swap1\n      pop\n      jump\t// out\n        /* \"#utility.yul\":6537:7672   */\n    tag_254:\n        /* \"#utility.yul\":6712:6715   */\n      0x00\n        /* \"#utility.yul\":6741:6823   */\n      tag_376\n        /* \"#utility.yul\":6817:6822   */\n      dup3\n        /* \"#utility.yul\":6741:6823   */\n      tag_243\n      jump\t// in\n    tag_376:\n        /* \"#utility.yul\":6839:6953   */\n      tag_377\n        /* \"#utility.yul\":6946:6952   */\n      dup2\n        /* \"#utility.yul\":6941:6944   */\n      dup6\n        /* \"#utility.yul\":6839:6953   */\n      tag_244\n      jump\t// in\n    tag_377:\n        /* \"#utility.yul\":6832:6953   */\n      swap4\n      pop\n        /* \"#utility.yul\":6979:6982   */\n      dup4\n        /* \"#utility.yul\":7024:7028   */\n      0x20\n        /* \"#utility.yul\":7016:7022   */\n      dup3\n        /* \"#utility.yul\":7012:7029   */\n      mul\n        /* \"#utility.yul\":7007:7010   */\n      dup6\n        /* \"#utility.yul\":7003:7030   */\n      add\n        /* \"#utility.yul\":7054:7138   */\n      tag_378\n        /* \"#utility.yul\":7132:7137   */\n      dup6\n        /* \"#utility.yul\":7054:7138   */\n      tag_245\n      jump\t// in\n    tag_378:\n        /* \"#utility.yul\":7161:7168   */\n      dup1\n        /* \"#utility.yul\":7192:7193   */\n      0x00\n        /* \"#utility.yul\":7177:7627   */\n    tag_379:\n        /* \"#utility.yul\":7202:7208   */\n      dup6\n        /* \"#utility.yul\":7199:7200   */\n      dup2\n        /* \"#utility.yul\":7196:7209   */\n      lt\n        /* \"#utility.yul\":7177:7627   */\n      iszero\n      tag_381\n      jumpi\n        /* \"#utility.yul\":7273:7282   */\n      dup5\n        /* \"#utility.yul\":7267:7271   */\n      dup5\n        /* \"#utility.yul\":7263:7283   */\n      sub\n        /* \"#utility.yul\":7258:7261   */\n      dup10\n        /* \"#utility.yul\":7251:7284   */\n      mstore\n        /* \"#utility.yul\":7324:7330   */\n      dup2\n        /* \"#utility.yul\":7318:7331   */\n      mload\n        /* \"#utility.yul\":7352:7472   */\n      tag_382\n        /* \"#utility.yul\":7467:7471   */\n      dup6\n        /* \"#utility.yul\":7452:7465   */\n      dup3\n        /* \"#utility.yul\":7352:7472   */\n      tag_252\n      jump\t// in\n    tag_382:\n        /* \"#utility.yul\":7344:7472   */\n      swap5\n      pop\n        /* \"#utility.yul\":7495:7583   */\n      tag_383\n        /* \"#utility.yul\":7576:7582   */\n      dup4\n        /* \"#utility.yul\":7495:7583   */\n      tag_253\n      jump\t// in\n    tag_383:\n        /* \"#utility.yul\":7485:7583   */\n      swap3\n      pop\n        /* \"#utility.yul\":7612:7616   */\n      0x20\n        /* \"#utility.yul\":7607:7610   */\n      dup11\n        /* \"#utility.yul\":7603:7617   */\n      add\n        /* \"#utility.yul\":7596:7617   */\n      swap10\n      pop\n        /* \"#utility.yul\":7237:7627   */\n      pop\n        /* \"#utility.yul\":7224:7225   */\n      0x01\n        /* \"#utility.yul\":7221:7222   */\n      dup2\n        /* \"#utility.yul\":7217:7226   */\n      add\n        /* \"#utility.yul\":7212:7226   */\n      swap1\n      pop\n        /* \"#utility.yul\":7177:7627   */\n      jump(tag_379)\n    tag_381:\n        /* \"#utility.yul\":7181:7195   */\n      pop\n        /* \"#utility.yul\":7643:7647   */\n      dup3\n        /* \"#utility.yul\":7636:7647   */\n      swap8\n      pop\n        /* \"#utility.yul\":7663:7666   */\n      dup8\n        /* \"#utility.yul\":7656:7666   */\n      swap6\n      pop\n        /* \"#utility.yul\":6717:7672   */\n      pop\n      pop\n      pop\n      pop\n      pop\n        /* \"#utility.yul\":6537:7672   */\n      swap3\n      swap2\n      pop\n      pop\n      jump\t// out\n        /* \"#utility.yul\":7678:8163   */\n    tag_36:\n        /* \"#utility.yul\":7877:7881   */\n      0x00\n        /* \"#utility.yul\":7915:7917   */\n      0x20\n        /* \"#utility.yul\":7904:7913   */\n      dup3\n        /* \"#utility.yul\":7900:7918   */\n      add\n        /* \"#utility.yul\":7892:7918   */\n      swap1\n      pop\n        /* \"#utility.yul\":7964:7973   */\n      dup2\n        /* \"#utility.yul\":7958:7962   */\n      dup2\n        /* \"#utility.yul\":7954:7974   */\n      sub\n        /* \"#utility.yul\":7950:7951   */\n      0x00\n        /* \"#utility.yul\":7939:7948   */\n      dup4\n        /* \"#utility.yul\":7935:7952   */\n      add\n        /* \"#utility.yul\":7928:7975   */\n      mstore\n        /* \"#utility.yul\":7992:8156   */\n      tag_385\n        /* \"#utility.yul\":8151:8155   */\n      dup2\n        /* \"#utility.yul\":8142:8148   */\n      dup5\n        /* \"#utility.yul\":7992:8156   */\n      tag_254\n      jump\t// in\n    tag_385:\n        /* \"#utility.yul\":7984:8156   */\n      swap1\n      pop\n        /* \"#utility.yul\":7678:8163   */\n      swap3\n      swap2\n      pop\n      pop\n      jump\t// out\n        /* \"#utility.yul\":8169:8307   */\n    tag_255:\n        /* \"#utility.yul\":8260:8266   */\n      0x00\n        /* \"#utility.yul\":8294:8299   */\n      dup2\n        /* \"#utility.yul\":8288:8300   */\n      mload\n        /* \"#utility.yul\":8278:8300   */\n      swap1\n      pop\n        /* \"#utility.yul\":8169:8307   */\n      swap2\n      swap1\n      pop\n      jump\t// out\n        /* \"#utility.yul\":8313:8521   */\n    tag_256:\n        /* \"#utility.yul\":8436:8447   */\n      0x00\n        /* \"#utility.yul\":8470:8476   */\n      dup3\n        /* \"#utility.yul\":8465:8468   */\n      dup3\n        /* \"#utility.yul\":8458:8477   */\n      mstore\n        /* \"#utility.yul\":8510:8514   */\n      0x20\n        /* \"#utility.yul\":8505:8508   */\n      dup3\n        /* \"#utility.yul\":8501:8515   */\n      add\n        /* \"#utility.yul\":8486:8515   */\n      swap1\n      pop\n        /* \"#utility.yul\":8313:8521   */\n      swap3\n      swap2\n      pop\n      pop\n      jump\t// out\n        /* \"#utility.yul\":8527:8683   */\n    tag_257:\n        /* \"#utility.yul\":8618:8622   */\n      0x00\n        /* \"#utility.yul\":8641:8644   */\n      dup2\n        /* \"#utility.yul\":8633:8644   */\n      swap1\n      pop\n        /* \"#utility.yul\":8671:8675   */\n      0x20\n        /* \"#utility.yul\":8666:8669   */\n      dup3\n        /* \"#utility.yul\":8662:8676   */\n      add\n        /* \"#utility.yul\":8654:8676   */\n      swap1\n      pop\n        /* \"#utility.yul\":8527:8683   */\n      swap2\n      swap1\n      pop\n      jump\t// out\n        /* \"#utility.yul\":8749:9872   */\n    tag_258:\n        /* \"#utility.yul\":8856:8859   */\n      0x00\n        /* \"#utility.yul\":8892:8896   */\n      0xa0\n        /* \"#utility.yul\":8887:8890   */\n      dup4\n        /* \"#utility.yul\":8883:8897   */\n      add\n        /* \"#utility.yul\":8977:8981   */\n      0x00\n        /* \"#utility.yul\":8970:8975   */\n      dup4\n        /* \"#utility.yul\":8966:8982   */\n      add\n        /* \"#utility.yul\":8960:8983   */\n      mload\n        /* \"#utility.yul\":8996:9059   */\n      tag_390\n        /* \"#utility.yul\":9053:9057   */\n      0x00\n        /* \"#utility.yul\":9048:9051   */\n      dup7\n        /* \"#utility.yul\":9044:9058   */\n      add\n        /* \"#utility.yul\":9030:9042   */\n      dup3\n        /* \"#utility.yul\":8996:9059   */\n      tag_246\n      jump\t// in\n    tag_390:\n        /* \"#utility.yul\":8907:9069   */\n      pop\n        /* \"#utility.yul\":9153:9157   */\n      0x20\n        /* \"#utility.yul\":9146:9151   */\n      dup4\n        /* \"#utility.yul\":9142:9158   */\n      add\n        /* \"#utility.yul\":9136:9159   */\n      mload\n        /* \"#utility.yul\":9172:9235   */\n      tag_391\n        /* \"#utility.yul\":9229:9233   */\n      0x20\n        /* \"#utility.yul\":9224:9227   */\n      dup7\n        /* \"#utility.yul\":9220:9234   */\n      add\n        /* \"#utility.yul\":9206:9218   */\n      dup3\n        /* \"#utility.yul\":9172:9235   */\n      tag_247\n      jump\t// in\n    tag_391:\n        /* \"#utility.yul\":9079:9245   */\n      pop\n        /* \"#utility.yul\":9330:9334   */\n      0x40\n        /* \"#utility.yul\":9323:9328   */\n      dup4\n        /* \"#utility.yul\":9319:9335   */\n      add\n        /* \"#utility.yul\":9313:9336   */\n      mload\n        /* \"#utility.yul\":9383:9386   */\n      dup5\n        /* \"#utility.yul\":9377:9381   */\n      dup3\n        /* \"#utility.yul\":9373:9387   */\n      sub\n        /* \"#utility.yul\":9366:9370   */\n      0x40\n        /* \"#utility.yul\":9361:9364   */\n      dup7\n        /* \"#utility.yul\":9357:9371   */\n      add\n        /* \"#utility.yul\":9350:9388   */\n      mstore\n        /* \"#utility.yul\":9409:9482   */\n      tag_392\n        /* \"#utility.yul\":9477:9481   */\n      dup3\n        /* \"#utility.yul\":9463:9475   */\n      dup3\n        /* \"#utility.yul\":9409:9482   */\n      tag_249\n      jump\t// in\n    tag_392:\n        /* \"#utility.yul\":9401:9482   */\n      swap2\n      pop\n        /* \"#utility.yul\":9255:9493   */\n      pop\n        /* \"#utility.yul\":9580:9584   */\n      0x60\n        /* \"#utility.yul\":9573:9578   */\n      dup4\n        /* \"#utility.yul\":9569:9585   */\n      add\n        /* \"#utility.yul\":9563:9586   */\n      mload\n        /* \"#utility.yul\":9599:9662   */\n      tag_393\n        /* \"#utility.yul\":9656:9660   */\n      0x60\n        /* \"#utility.yul\":9651:9654   */\n      dup7\n        /* \"#utility.yul\":9647:9661   */\n      add\n        /* \"#utility.yul\":9633:9645   */\n      dup3\n        /* \"#utility.yul\":9599:9662   */\n      tag_246\n      jump\t// in\n    tag_393:\n        /* \"#utility.yul\":9503:9672   */\n      pop\n        /* \"#utility.yul\":9759:9763   */\n      0x80\n        /* \"#utility.yul\":9752:9757   */\n      dup4\n        /* \"#utility.yul\":9748:9764   */\n      add\n        /* \"#utility.yul\":9742:9765   */\n      mload\n        /* \"#utility.yul\":9778:9835   */\n      tag_394\n        /* \"#utility.yul\":9829:9833   */\n      0x80\n        /* \"#utility.yul\":9824:9827   */\n      dup7\n        /* \"#utility.yul\":9820:9834   */\n      add\n        /* \"#utility.yul\":9806:9818   */\n      dup3\n        /* \"#utility.yul\":9778:9835   */\n      tag_250\n      jump\t// in\n    tag_394:\n        /* \"#utility.yul\":9682:9845   */\n      pop\n        /* \"#utility.yul\":9862:9866   */\n      dup1\n        /* \"#utility.yul\":9855:9866   */\n      swap2\n      pop\n        /* \"#utility.yul\":8861:9872   */\n      pop\n        /* \"#utility.yul\":8749:9872   */\n      swap3\n      swap2\n      pop\n      pop\n      jump\t// out\n        /* \"#utility.yul\":9878:10130   */\n    tag_259:\n        /* \"#utility.yul\":9995:10005   */\n      0x00\n        /* \"#utility.yul\":10030:10124   */\n      tag_396\n        /* \"#utility.yul\":10120:10123   */\n      dup4\n        /* \"#utility.yul\":10112:10118   */\n      dup4\n        /* \"#utility.yul\":10030:10124   */\n      tag_258\n      jump\t// in\n    tag_396:\n        /* \"#utility.yul\":10016:10124   */\n      swap1\n      pop\n        /* \"#utility.yul\":9878:10130   */\n      swap3\n      swap2\n      pop\n      pop\n      jump\t// out\n        /* \"#utility.yul\":10136:10273   */\n    tag_260:\n        /* \"#utility.yul\":10230:10234   */\n      0x00\n        /* \"#utility.yul\":10262:10266   */\n      0x20\n        /* \"#utility.yul\":10257:10260   */\n      dup3\n        /* \"#utility.yul\":10253:10267   */\n      add\n        /* \"#utility.yul\":10245:10267   */\n      swap1\n      pop\n        /* \"#utility.yul\":10136:10273   */\n      swap2\n      swap1\n      pop\n      jump\t// out\n        /* \"#utility.yul\":10343:11446   */\n    tag_261:\n        /* \"#utility.yul\":10510:10513   */\n      0x00\n        /* \"#utility.yul\":10539:10617   */\n      tag_399\n        /* \"#utility.yul\":10611:10616   */\n      dup3\n        /* \"#utility.yul\":10539:10617   */\n      tag_255\n      jump\t// in\n    tag_399:\n        /* \"#utility.yul\":10633:10743   */\n      tag_400\n        /* \"#utility.yul\":10736:10742   */\n      dup2\n        /* \"#utility.yul\":10731:10734   */\n      dup6\n        /* \"#utility.yul\":10633:10743   */\n      tag_256\n      jump\t// in\n    tag_400:\n        /* \"#utility.yul\":10626:10743   */\n      swap4\n      pop\n        /* \"#utility.yul\":10769:10772   */\n      dup4\n        /* \"#utility.yul\":10814:10818   */\n      0x20\n        /* \"#utility.yul\":10806:10812   */\n      dup3\n        /* \"#utility.yul\":10802:10819   */\n      mul\n        /* \"#utility.yul\":10797:10800   */\n      dup6\n        /* \"#utility.yul\":10793:10820   */\n      add\n        /* \"#utility.yul\":10844:10924   */\n      tag_401\n        /* \"#utility.yul\":10918:10923   */\n      dup6\n        /* \"#utility.yul\":10844:10924   */\n      tag_257\n      jump\t// in\n    tag_401:\n        /* \"#utility.yul\":10947:10954   */\n      dup1\n        /* \"#utility.yul\":10978:10979   */\n      0x00\n        /* \"#utility.yul\":10963:11401   */\n    tag_402:\n        /* \"#utility.yul\":10988:10994   */\n      dup6\n        /* \"#utility.yul\":10985:10986   */\n      dup2\n        /* \"#utility.yul\":10982:10995   */\n      lt\n        /* \"#utility.yul\":10963:11401   */\n      iszero\n      tag_404\n      jumpi\n        /* \"#utility.yul\":11059:11068   */\n      dup5\n        /* \"#utility.yul\":11053:11057   */\n      dup5\n        /* \"#utility.yul\":11049:11069   */\n      sub\n        /* \"#utility.yul\":11044:11047   */\n      dup10\n        /* \"#utility.yul\":11037:11070   */\n      mstore\n        /* \"#utility.yul\":11110:11116   */\n      dup2\n        /* \"#utility.yul\":11104:11117   */\n      mload\n        /* \"#utility.yul\":11138:11250   */\n      tag_405\n        /* \"#utility.yul\":11245:11249   */\n      dup6\n        /* \"#utility.yul\":11230:11243   */\n      dup3\n        /* \"#utility.yul\":11138:11250   */\n      tag_259\n      jump\t// in\n    tag_405:\n        /* \"#utility.yul\":11130:11250   */\n      swap5\n      pop\n        /* \"#utility.yul\":11273:11357   */\n      tag_406\n        /* \"#utility.yul\":11350:11356   */\n      dup4\n        /* \"#utility.yul\":11273:11357   */\n      tag_260\n      jump\t// in\n    tag_406:\n        /* \"#utility.yul\":11263:11357   */\n      swap3\n      pop\n        /* \"#utility.yul\":11386:11390   */\n      0x20\n        /* \"#utility.yul\":11381:11384   */\n      dup11\n        /* \"#utility.yul\":11377:11391   */\n      add\n        /* \"#utility.yul\":11370:11391   */\n      swap10\n      pop\n        /* \"#utility.yul\":11023:11401   */\n      pop\n        /* \"#utility.yul\":11010:11011   */\n      0x01\n        /* \"#utility.yul\":11007:11008   */\n      dup2\n        /* \"#utility.yul\":11003:11012   */\n      add\n        /* \"#utility.yul\":10998:11012   */\n      swap1\n      pop\n        /* \"#utility.yul\":10963:11401   */\n      jump(tag_402)\n    tag_404:\n        /* \"#utility.yul\":10967:10981   */\n      pop\n        /* \"#utility.yul\":11417:11421   */\n      dup3\n        /* \"#utility.yul\":11410:11421   */\n      swap8\n      pop\n        /* \"#utility.yul\":11437:11440   */\n      dup8\n        /* \"#utility.yul\":11430:11440   */\n      swap6\n      pop\n        /* \"#utility.yul\":10515:11446   */\n      pop\n      pop\n      pop\n      pop\n      pop\n        /* \"#utility.yul\":10343:11446   */\n      swap3\n      swap2\n      pop\n      pop\n      jump\t// out\n        /* \"#utility.yul\":11452:11921   */\n    tag_40:\n        /* \"#utility.yul\":11643:11647   */\n      0x00\n        /* \"#utility.yul\":11681:11683   */\n      0x20\n        /* \"#utility.yul\":11670:11679   */\n      dup3\n        /* \"#utility.yul\":11666:11684   */\n      add\n        /* \"#utility.yul\":11658:11684   */\n      swap1\n      pop\n        /* \"#utility.yul\":11730:11739   */\n      dup2\n        /* \"#utility.yul\":11724:11728   */\n      dup2\n        /* \"#utility.yul\":11720:11740   */\n      sub\n        /* \"#utility.yul\":11716:11717   */\n      0x00\n        /* \"#utility.yul\":11705:11714   */\n      dup4\n        /* \"#utility.yul\":11701:11718   */\n      add\n        /* \"#utility.yul\":11694:11741   */\n      mstore\n        /* \"#utility.yul\":11758:11914   */\n      tag_408\n        /* \"#utility.yul\":11909:11913   */\n      dup2\n        /* \"#utility.yul\":11900:11906   */\n      dup5\n        /* \"#utility.yul\":11758:11914   */\n      tag_261\n      jump\t// in\n    tag_408:\n        /* \"#utility.yul\":11750:11914   */\n      swap1\n      pop\n        /* \"#utility.yul\":11452:11921   */\n      swap3\n      swap2\n      pop\n      pop\n      jump\t// out\n        /* \"#utility.yul\":11927:12044   */\n    tag_262:\n        /* \"#utility.yul\":12036:12037   */\n      0x00\n        /* \"#utility.yul\":12033:12034   */\n      0x00\n        /* \"#utility.yul\":12026:12038   */\n      revert\n        /* \"#utility.yul\":12050:12167   */\n    tag_263:\n        /* \"#utility.yul\":12159:12160   */\n      0x00\n        /* \"#utility.yul\":12156:12157   */\n      0x00\n        /* \"#utility.yul\":12149:12161   */\n      revert\n        /* \"#utility.yul\":12173:12353   */\n    tag_85:\n        /* \"#utility.yul\":12221:12298   */\n      0x4e487b7100000000000000000000000000000000000000000000000000000000\n        /* \"#utility.yul\":12218:12219   */\n      0x00\n        /* \"#utility.yul\":12211:12299   */\n      mstore\n        /* \"#utility.yul\":12318:12322   */\n      0x41\n        /* \"#utility.yul\":12315:12316   */\n      0x04\n        /* \"#utility.yul\":12308:12323   */\n      mstore\n        /* \"#utility.yul\":12342:12346   */\n      0x24\n        /* \"#utility.yul\":12339:12340   */\n      0x00\n        /* \"#utility.yul\":12332:12347   */\n      revert\n        /* \"#utility.yul\":12359:12640   */\n    tag_264:\n        /* \"#utility.yul\":12442:12469   */\n      tag_413\n        /* \"#utility.yul\":12464:12468   */\n      dup3\n        /* \"#utility.yul\":12442:12469   */\n      tag_239\n      jump\t// in\n    tag_413:\n        /* \"#utility.yul\":12434:12440   */\n      dup2\n        /* \"#utility.yul\":12430:12470   */\n      add\n        /* \"#utility.yul\":12572:12578   */\n      dup2\n        /* \"#utility.yul\":12560:12570   */\n      dup2\n        /* \"#utility.yul\":12557:12579   */\n      lt\n        /* \"#utility.yul\":12536:12554   */\n      0xffffffffffffffff\n        /* \"#utility.yul\":12524:12534   */\n      dup3\n        /* \"#utility.yul\":12521:12555   */\n      gt\n        /* \"#utility.yul\":12518:12580   */\n      or\n        /* \"#utility.yul\":12515:12603   */\n      iszero\n      tag_414\n      jumpi\n        /* \"#utility.yul\":12583:12601   */\n      tag_415\n      tag_85\n      jump\t// in\n    tag_415:\n        /* \"#utility.yul\":12515:12603   */\n    tag_414:\n        /* \"#utility.yul\":12623:12633   */\n      dup1\n        /* \"#utility.yul\":12619:12621   */\n      0x40\n        /* \"#utility.yul\":12612:12634   */\n      mstore\n        /* \"#utility.yul\":12402:12640   */\n      pop\n        /* \"#utility.yul\":12359:12640   */\n      pop\n      pop\n      jump\t// out\n        /* \"#utility.yul\":12646:12775   */\n    tag_265:\n        /* \"#utility.yul\":12680:12686   */\n      0x00\n        /* \"#utility.yul\":12707:12727   */\n      tag_417\n      tag_226\n      jump\t// in\n    tag_417:\n        /* \"#utility.yul\":12697:12727   */\n      swap1\n      pop\n        /* \"#utility.yul\":12736:12769   */\n      tag_418\n        /* \"#utility.yul\":12764:12768   */\n      dup3\n        /* \"#utility.yul\":12756:12762   */\n      dup3\n        /* \"#utility.yul\":12736:12769   */\n      tag_264\n      jump\t// in\n    tag_418:\n        /* \"#utility.yul\":12646:12775   */\n      swap2\n      swap1\n      pop\n      jump\t// out\n        /* \"#utility.yul\":12781:13089   */\n    tag_266:\n        /* \"#utility.yul\":12843:12847   */\n      0x00\n        /* \"#utility.yul\":12933:12951   */\n      0xffffffffffffffff\n        /* \"#utility.yul\":12925:12931   */\n      dup3\n        /* \"#utility.yul\":12922:12952   */\n      gt\n        /* \"#utility.yul\":12919:12975   */\n      iszero\n      tag_420\n      jumpi\n        /* \"#utility.yul\":12955:12973   */\n      tag_421\n      tag_85\n      jump\t// in\n    tag_421:\n        /* \"#utility.yul\":12919:12975   */\n    tag_420:\n        /* \"#utility.yul\":12993:13022   */\n      tag_422\n        /* \"#utility.yul\":13015:13021   */\n      dup3\n        /* \"#utility.yul\":12993:13022   */\n      tag_239\n      jump\t// in\n    tag_422:\n        /* \"#utility.yul\":12985:13022   */\n      swap1\n      pop\n        /* \"#utility.yul\":13077:13081   */\n      0x20\n        /* \"#utility.yul\":13071:13075   */\n      dup2\n        /* \"#utility.yul\":13067:13082   */\n      add\n        /* \"#utility.yul\":13059:13082   */\n      swap1\n      pop\n        /* \"#utility.yul\":12781:13089   */\n      swap2\n      swap1\n      pop\n      jump\t// out\n        /* \"#utility.yul\":13095:13243   */\n    tag_267:\n        /* \"#utility.yul\":13193:13199   */\n      dup3\n        /* \"#utility.yul\":13188:13191   */\n      dup2\n        /* \"#utility.yul\":13183:13186   */\n      dup4\n        /* \"#utility.yul\":13170:13200   */\n      calldatacopy\n        /* \"#utility.yul\":13234:13235   */\n      0x00\n        /* \"#utility.yul\":13225:13231   */\n      dup4\n        /* \"#utility.yul\":13220:13223   */\n      dup4\n        /* \"#utility.yul\":13216:13232   */\n      add\n        /* \"#utility.yul\":13209:13236   */\n      mstore\n        /* \"#utility.yul\":13095:13243   */\n      pop\n      pop\n      pop\n      jump\t// out\n        /* \"#utility.yul\":13249:13674   */\n    tag_268:\n        /* \"#utility.yul\":13327:13332   */\n      0x00\n        /* \"#utility.yul\":13352:13418   */\n      tag_425\n        /* \"#utility.yul\":13368:13417   */\n      tag_426\n        /* \"#utility.yul\":13410:13416   */\n      dup5\n        /* \"#utility.yul\":13368:13417   */\n      tag_266\n      jump\t// in\n    tag_426:\n        /* \"#utility.yul\":13352:13418   */\n      tag_265\n      jump\t// in\n    tag_425:\n        /* \"#utility.yul\":13343:13418   */\n      swap1\n      pop\n        /* \"#utility.yul\":13441:13447   */\n      dup3\n        /* \"#utility.yul\":13434:13439   */\n      dup2\n        /* \"#utility.yul\":13427:13448   */\n      mstore\n        /* \"#utility.yul\":13479:13483   */\n      0x20\n        /* \"#utility.yul\":13472:13477   */\n      dup2\n        /* \"#utility.yul\":13468:13484   */\n      add\n        /* \"#utility.yul\":13517:13520   */\n      dup5\n        /* \"#utility.yul\":13508:13514   */\n      dup5\n        /* \"#utility.yul\":13503:13506   */\n      dup5\n        /* \"#utility.yul\":13499:13515   */\n      add\n        /* \"#utility.yul\":13496:13521   */\n      gt\n        /* \"#utility.yul\":13493:13605   */\n      iszero\n      tag_427\n      jumpi\n        /* \"#utility.yul\":13524:13603   */\n      tag_428\n      tag_263\n      jump\t// in\n    tag_428:\n        /* \"#utility.yul\":13493:13605   */\n    tag_427:\n        /* \"#utility.yul\":13614:13668   */\n      tag_429\n        /* \"#utility.yul\":13661:13667   */\n      dup5\n        /* \"#utility.yul\":13656:13659   */\n      dup3\n        /* \"#utility.yul\":13651:13654   */\n      dup6\n        /* \"#utility.yul\":13614:13668   */\n      tag_267\n      jump\t// in\n    tag_429:\n        /* \"#utility.yul\":13333:13674   */\n      pop\n        /* \"#utility.yul\":13249:13674   */\n      swap4\n      swap3\n      pop\n      pop\n      pop\n      jump\t// out\n        /* \"#utility.yul\":13694:14034   */\n    tag_269:\n        /* \"#utility.yul\":13750:13755   */\n      0x00\n        /* \"#utility.yul\":13799:13802   */\n      dup3\n        /* \"#utility.yul\":13792:13796   */\n      0x1f\n        /* \"#utility.yul\":13784:13790   */\n      dup4\n        /* \"#utility.yul\":13780:13797   */\n      add\n        /* \"#utility.yul\":13776:13803   */\n      slt\n        /* \"#utility.yul\":13766:13888   */\n      tag_431\n      jumpi\n        /* \"#utility.yul\":13807:13886   */\n      tag_432\n      tag_262\n      jump\t// in\n    tag_432:\n        /* \"#utility.yul\":13766:13888   */\n    tag_431:\n        /* \"#utility.yul\":13924:13930   */\n      dup2\n        /* \"#utility.yul\":13911:13931   */\n      calldataload\n        /* \"#utility.yul\":13949:14028   */\n      tag_433\n        /* \"#utility.yul\":14024:14027   */\n      dup5\n        /* \"#utility.yul\":14016:14022   */\n      dup3\n        /* \"#utility.yul\":14009:14013   */\n      0x20\n        /* \"#utility.yul\":14001:14007   */\n      dup7\n        /* \"#utility.yul\":13997:14014   */\n      add\n        /* \"#utility.yul\":13949:14028   */\n      tag_268\n      jump\t// in\n    tag_433:\n        /* \"#utility.yul\":13940:14028   */\n      swap2\n      pop\n        /* \"#utility.yul\":13756:14034   */\n      pop\n        /* \"#utility.yul\":13694:14034   */\n      swap3\n      swap2\n      pop\n      pop\n      jump\t// out\n        /* \"#utility.yul\":14040:14549   */\n    tag_43:\n        /* \"#utility.yul\":14109:14115   */\n      0x00\n        /* \"#utility.yul\":14158:14160   */\n      0x20\n        /* \"#utility.yul\":14146:14155   */\n      dup3\n        /* \"#utility.yul\":14137:14144   */\n      dup5\n        /* \"#utility.yul\":14133:14156   */\n      sub\n        /* \"#utility.yul\":14129:14161   */\n      slt\n        /* \"#utility.yul\":14126:14245   */\n      iszero\n      tag_435\n      jumpi\n        /* \"#utility.yul\":14164:14243   */\n      tag_436\n      tag_227\n      jump\t// in\n    tag_436:\n        /* \"#utility.yul\":14126:14245   */\n    tag_435:\n        /* \"#utility.yul\":14312:14313   */\n      0x00\n        /* \"#utility.yul\":14301:14310   */\n      dup3\n        /* \"#utility.yul\":14297:14314   */\n      add\n        /* \"#utility.yul\":14284:14315   */\n      calldataload\n        /* \"#utility.yul\":14342:14360   */\n      0xffffffffffffffff\n        /* \"#utility.yul\":14334:14340   */\n      dup2\n        /* \"#utility.yul\":14331:14361   */\n      gt\n        /* \"#utility.yul\":14328:14445   */\n      iszero\n      tag_437\n      jumpi\n        /* \"#utility.yul\":14364:14443   */\n      tag_438\n      tag_228\n      jump\t// in\n    tag_438:\n        /* \"#utility.yul\":14328:14445   */\n    tag_437:\n        /* \"#utility.yul\":14469:14532   */\n      tag_439\n        /* \"#utility.yul\":14524:14531   */\n      dup5\n        /* \"#utility.yul\":14515:14521   */\n      dup3\n        /* \"#utility.yul\":14504:14513   */\n      dup6\n        /* \"#utility.yul\":14500:14522   */\n      add\n        /* \"#utility.yul\":14469:14532   */\n      tag_269\n      jump\t// in\n    tag_439:\n        /* \"#utility.yul\":14459:14532   */\n      swap2\n      pop\n        /* \"#utility.yul\":14255:14542   */\n      pop\n        /* \"#utility.yul\":14040:14549   */\n      swap3\n      swap2\n      pop\n      pop\n      jump\t// out\n        /* \"#utility.yul\":14555:15187   */\n    tag_52:\n        /* \"#utility.yul\":14746:14750   */\n      0x00\n        /* \"#utility.yul\":14784:14787   */\n      0x80\n        /* \"#utility.yul\":14773:14782   */\n      dup3\n        /* \"#utility.yul\":14769:14788   */\n      add\n        /* \"#utility.yul\":14761:14788   */\n      swap1\n      pop\n        /* \"#utility.yul\":14798:14869   */\n      tag_441\n        /* \"#utility.yul\":14866:14867   */\n      0x00\n        /* \"#utility.yul\":14855:14864   */\n      dup4\n        /* \"#utility.yul\":14851:14868   */\n      add\n        /* \"#utility.yul\":14842:14848   */\n      dup8\n        /* \"#utility.yul\":14798:14869   */\n      tag_232\n      jump\t// in\n    tag_441:\n        /* \"#utility.yul\":14879:14951   */\n      tag_442\n        /* \"#utility.yul\":14947:14949   */\n      0x20\n        /* \"#utility.yul\":14936:14945   */\n      dup4\n        /* \"#utility.yul\":14932:14950   */\n      add\n        /* \"#utility.yul\":14923:14929   */\n      dup7\n        /* \"#utility.yul\":14879:14951   */\n      tag_235\n      jump\t// in\n    tag_442:\n        /* \"#utility.yul\":14998:15007   */\n      dup2\n        /* \"#utility.yul\":14992:14996   */\n      dup2\n        /* \"#utility.yul\":14988:15008   */\n      sub\n        /* \"#utility.yul\":14983:14985   */\n      0x40\n        /* \"#utility.yul\":14972:14981   */\n      dup4\n        /* \"#utility.yul\":14968:14986   */\n      add\n        /* \"#utility.yul\":14961:15009   */\n      mstore\n        /* \"#utility.yul\":15026:15104   */\n      tag_443\n        /* \"#utility.yul\":15099:15103   */\n      dup2\n        /* \"#utility.yul\":15090:15096   */\n      dup6\n        /* \"#utility.yul\":15026:15104   */\n      tag_240\n      jump\t// in\n    tag_443:\n        /* \"#utility.yul\":15018:15104   */\n      swap1\n      pop\n        /* \"#utility.yul\":15114:15180   */\n      tag_444\n        /* \"#utility.yul\":15176:15178   */\n      0x60\n        /* \"#utility.yul\":15165:15174   */\n      dup4\n        /* \"#utility.yul\":15161:15179   */\n      add\n        /* \"#utility.yul\":15152:15158   */\n      dup5\n        /* \"#utility.yul\":15114:15180   */\n      tag_242\n      jump\t// in\n    tag_444:\n        /* \"#utility.yul\":14555:15187   */\n      swap6\n      swap5\n      pop\n      pop\n      pop\n      pop\n      pop\n      jump\t// out\n        /* \"#utility.yul\":15253:16386   */\n    tag_270:\n        /* \"#utility.yul\":15370:15373   */\n      0x00\n        /* \"#utility.yul\":15406:15410   */\n      0xa0\n        /* \"#utility.yul\":15401:15404   */\n      dup4\n        /* \"#utility.yul\":15397:15411   */\n      add\n        /* \"#utility.yul\":15491:15495   */\n      0x00\n        /* \"#utility.yul\":15484:15489   */\n      dup4\n        /* \"#utility.yul\":15480:15496   */\n      add\n        /* \"#utility.yul\":15474:15497   */\n      mload\n        /* \"#utility.yul\":15510:15573   */\n      tag_446\n        /* \"#utility.yul\":15567:15571   */\n      0x00\n        /* \"#utility.yul\":15562:15565   */\n      dup7\n        /* \"#utility.yul\":15558:15572   */\n      add\n        /* \"#utility.yul\":15544:15556   */\n      dup3\n        /* \"#utility.yul\":15510:15573   */\n      tag_246\n      jump\t// in\n    tag_446:\n        /* \"#utility.yul\":15421:15583   */\n      pop\n        /* \"#utility.yul\":15667:15671   */\n      0x20\n        /* \"#utility.yul\":15660:15665   */\n      dup4\n        /* \"#utility.yul\":15656:15672   */\n      add\n        /* \"#utility.yul\":15650:15673   */\n      mload\n        /* \"#utility.yul\":15686:15749   */\n      tag_447\n        /* \"#utility.yul\":15743:15747   */\n      0x20\n        /* \"#utility.yul\":15738:15741   */\n      dup7\n        /* \"#utility.yul\":15734:15748   */\n      add\n        /* \"#utility.yul\":15720:15732   */\n      dup3\n        /* \"#utility.yul\":15686:15749   */\n      tag_247\n      jump\t// in\n    tag_447:\n        /* \"#utility.yul\":15593:15759   */\n      pop\n        /* \"#utility.yul\":15844:15848   */\n      0x40\n        /* \"#utility.yul\":15837:15842   */\n      dup4\n        /* \"#utility.yul\":15833:15849   */\n      add\n        /* \"#utility.yul\":15827:15850   */\n      mload\n        /* \"#utility.yul\":15897:15900   */\n      dup5\n        /* \"#utility.yul\":15891:15895   */\n      dup3\n        /* \"#utility.yul\":15887:15901   */\n      sub\n        /* \"#utility.yul\":15880:15884   */\n      0x40\n        /* \"#utility.yul\":15875:15878   */\n      dup7\n        /* \"#utility.yul\":15871:15885   */\n      add\n        /* \"#utility.yul\":15864:15902   */\n      mstore\n        /* \"#utility.yul\":15923:15996   */\n      tag_448\n        /* \"#utility.yul\":15991:15995   */\n      dup3\n        /* \"#utility.yul\":15977:15989   */\n      dup3\n        /* \"#utility.yul\":15923:15996   */\n      tag_249\n      jump\t// in\n    tag_448:\n        /* \"#utility.yul\":15915:15996   */\n      swap2\n      pop\n        /* \"#utility.yul\":15769:16007   */\n      pop\n        /* \"#utility.yul\":16094:16098   */\n      0x60\n        /* \"#utility.yul\":16087:16092   */\n      dup4\n        /* \"#utility.yul\":16083:16099   */\n      add\n        /* \"#utility.yul\":16077:16100   */\n      mload\n        /* \"#utility.yul\":16113:16176   */\n      tag_449\n        /* \"#utility.yul\":16170:16174   */\n      0x60\n        /* \"#utility.yul\":16165:16168   */\n      dup7\n        /* \"#utility.yul\":16161:16175   */\n      add\n        /* \"#utility.yul\":16147:16159   */\n      dup3\n        /* \"#utility.yul\":16113:16176   */\n      tag_246\n      jump\t// in\n    tag_449:\n        /* \"#utility.yul\":16017:16186   */\n      pop\n        /* \"#utility.yul\":16273:16277   */\n      0x80\n        /* \"#utility.yul\":16266:16271   */\n      dup4\n        /* \"#utility.yul\":16262:16278   */\n      add\n        /* \"#utility.yul\":16256:16279   */\n      mload\n        /* \"#utility.yul\":16292:16349   */\n      tag_450\n        /* \"#utility.yul\":16343:16347   */\n      0x80\n        /* \"#utility.yul\":16338:16341   */\n      dup7\n        /* \"#utility.yul\":16334:16348   */\n      add\n        /* \"#utility.yul\":16320:16332   */\n      dup3\n        /* \"#utility.yul\":16292:16349   */\n      tag_250\n      jump\t// in\n    tag_450:\n        /* \"#utility.yul\":16196:16359   */\n      pop\n        /* \"#utility.yul\":16376:16380   */\n      dup1\n        /* \"#utility.yul\":16369:16380   */\n      swap2\n      pop\n        /* \"#utility.yul\":15375:16386   */\n      pop\n        /* \"#utility.yul\":15253:16386   */\n      swap3\n      swap2\n      pop\n      pop\n      jump\t// out\n        /* \"#utility.yul\":16392:16761   */\n    tag_60:\n        /* \"#utility.yul\":16533:16537   */\n      0x00\n        /* \"#utility.yul\":16571:16573   */\n      0x20\n        /* \"#utility.yul\":16560:16569   */\n      dup3\n        /* \"#utility.yul\":16556:16574   */\n      add\n        /* \"#utility.yul\":16548:16574   */\n      swap1\n      pop\n        /* \"#utility.yul\":16620:16629   */\n      dup2\n        /* \"#utility.yul\":16614:16618   */\n      dup2\n        /* \"#utility.yul\":16610:16630   */\n      sub\n        /* \"#utility.yul\":16606:16607   */\n      0x00\n        /* \"#utility.yul\":16595:16604   */\n      dup4\n        /* \"#utility.yul\":16591:16608   */\n      add\n        /* \"#utility.yul\":16584:16631   */\n      mstore\n        /* \"#utility.yul\":16648:16754   */\n      tag_452\n        /* \"#utility.yul\":16749:16753   */\n      dup2\n        /* \"#utility.yul\":16740:16746   */\n      dup5\n        /* \"#utility.yul\":16648:16754   */\n      tag_270\n      jump\t// in\n    tag_452:\n        /* \"#utility.yul\":16640:16754   */\n      swap1\n      pop\n        /* \"#utility.yul\":16392:16761   */\n      swap3\n      swap2\n      pop\n      pop\n      jump\t// out\n        /* \"#utility.yul\":16767:16989   */\n    tag_64:\n        /* \"#utility.yul\":16860:16864   */\n      0x00\n        /* \"#utility.yul\":16898:16900   */\n      0x20\n        /* \"#utility.yul\":16887:16896   */\n      dup3\n        /* \"#utility.yul\":16883:16901   */\n      add\n        /* \"#utility.yul\":16875:16901   */\n      swap1\n      pop\n        /* \"#utility.yul\":16911:16982   */\n      tag_454\n        /* \"#utility.yul\":16979:16980   */\n      0x00\n        /* \"#utility.yul\":16968:16977   */\n      dup4\n        /* \"#utility.yul\":16964:16981   */\n      add\n        /* \"#utility.yul\":16955:16961   */\n      dup5\n        /* \"#utility.yul\":16911:16982   */\n      tag_235\n      jump\t// in\n    tag_454:\n        /* \"#utility.yul\":16767:16989   */\n      swap3\n      swap2\n      pop\n      pop\n      jump\t// out\n        /* \"#utility.yul\":16995:17649   */\n    tag_67:\n        /* \"#utility.yul\":17073:17079   */\n      0x00\n        /* \"#utility.yul\":17081:17087   */\n      0x00\n        /* \"#utility.yul\":17130:17132   */\n      0x40\n        /* \"#utility.yul\":17118:17127   */\n      dup4\n        /* \"#utility.yul\":17109:17116   */\n      dup6\n        /* \"#utility.yul\":17105:17128   */\n      sub\n        /* \"#utility.yul\":17101:17133   */\n      slt\n        /* \"#utility.yul\":17098:17217   */\n      iszero\n      tag_456\n      jumpi\n        /* \"#utility.yul\":17136:17215   */\n      tag_457\n      tag_227\n      jump\t// in\n    tag_457:\n        /* \"#utility.yul\":17098:17217   */\n    tag_456:\n        /* \"#utility.yul\":17256:17257   */\n      0x00\n        /* \"#utility.yul\":17281:17334   */\n      tag_458\n        /* \"#utility.yul\":17326:17333   */\n      dup6\n        /* \"#utility.yul\":17317:17323   */\n      dup3\n        /* \"#utility.yul\":17306:17315   */\n      dup7\n        /* \"#utility.yul\":17302:17324   */\n      add\n        /* \"#utility.yul\":17281:17334   */\n      tag_231\n      jump\t// in\n    tag_458:\n        /* \"#utility.yul\":17271:17334   */\n      swap3\n      pop\n        /* \"#utility.yul\":17227:17344   */\n      pop\n        /* \"#utility.yul\":17411:17413   */\n      0x20\n        /* \"#utility.yul\":17400:17409   */\n      dup4\n        /* \"#utility.yul\":17396:17414   */\n      add\n        /* \"#utility.yul\":17383:17415   */\n      calldataload\n        /* \"#utility.yul\":17442:17460   */\n      0xffffffffffffffff\n        /* \"#utility.yul\":17434:17440   */\n      dup2\n        /* \"#utility.yul\":17431:17461   */\n      gt\n        /* \"#utility.yul\":17428:17545   */\n      iszero\n      tag_459\n      jumpi\n        /* \"#utility.yul\":17464:17543   */\n      tag_460\n      tag_228\n      jump\t// in\n    tag_460:\n        /* \"#utility.yul\":17428:17545   */\n    tag_459:\n        /* \"#utility.yul\":17569:17632   */\n      tag_461\n        /* \"#utility.yul\":17624:17631   */\n      dup6\n        /* \"#utility.yul\":17615:17621   */\n      dup3\n        /* \"#utility.yul\":17604:17613   */\n      dup7\n        /* \"#utility.yul\":17600:17622   */\n      add\n        /* \"#utility.yul\":17569:17632   */\n      tag_269\n      jump\t// in\n    tag_461:\n        /* \"#utility.yul\":17559:17632   */\n      swap2\n      pop\n        /* \"#utility.yul\":17354:17642   */\n      pop\n        /* \"#utility.yul\":16995:17649   */\n      swap3\n      pop\n      swap3\n      swap1\n      pop\n      jump\t// out\n        /* \"#utility.yul\":17655:17777   */\n    tag_271:\n        /* \"#utility.yul\":17728:17752   */\n      tag_463\n        /* \"#utility.yul\":17746:17751   */\n      dup2\n        /* \"#utility.yul\":17728:17752   */\n      tag_234\n      jump\t// in\n    tag_463:\n        /* \"#utility.yul\":17721:17726   */\n      dup2\n        /* \"#utility.yul\":17718:17753   */\n      eq\n        /* \"#utility.yul\":17708:17771   */\n      tag_464\n      jumpi\n        /* \"#utility.yul\":17767:17768   */\n      0x00\n        /* \"#utility.yul\":17764:17765   */\n      0x00\n        /* \"#utility.yul\":17757:17769   */\n      revert\n        /* \"#utility.yul\":17708:17771   */\n    tag_464:\n        /* \"#utility.yul\":17655:17777   */\n      pop\n      jump\t// out\n        /* \"#utility.yul\":17783:17922   */\n    tag_272:\n        /* \"#utility.yul\":17829:17834   */\n      0x00\n        /* \"#utility.yul\":17867:17873   */\n      dup2\n        /* \"#utility.yul\":17854:17874   */\n      calldataload\n        /* \"#utility.yul\":17845:17874   */\n      swap1\n      pop\n        /* \"#utility.yul\":17883:17916   */\n      tag_466\n        /* \"#utility.yul\":17910:17915   */\n      dup2\n        /* \"#utility.yul\":17883:17916   */\n      tag_271\n      jump\t// in\n    tag_466:\n        /* \"#utility.yul\":17783:17922   */\n      swap3\n      swap2\n      pop\n      pop\n      jump\t// out\n        /* \"#utility.yul\":17928:18257   */\n    tag_74:\n        /* \"#utility.yul\":17987:17993   */\n      0x00\n        /* \"#utility.yul\":18036:18038   */\n      0x20\n        /* \"#utility.yul\":18024:18033   */\n      dup3\n        /* \"#utility.yul\":18015:18022   */\n      dup5\n        /* \"#utility.yul\":18011:18034   */\n      sub\n        /* \"#utility.yul\":18007:18039   */\n      slt\n        /* \"#utility.yul\":18004:18123   */\n      iszero\n      tag_468\n      jumpi\n        /* \"#utility.yul\":18042:18121   */\n      tag_469\n      tag_227\n      jump\t// in\n    tag_469:\n        /* \"#utility.yul\":18004:18123   */\n    tag_468:\n        /* \"#utility.yul\":18162:18163   */\n      0x00\n        /* \"#utility.yul\":18187:18240   */\n      tag_470\n        /* \"#utility.yul\":18232:18239   */\n      dup5\n        /* \"#utility.yul\":18223:18229   */\n      dup3\n        /* \"#utility.yul\":18212:18221   */\n      dup6\n        /* \"#utility.yul\":18208:18230   */\n      add\n        /* \"#utility.yul\":18187:18240   */\n      tag_272\n      jump\t// in\n    tag_470:\n        /* \"#utility.yul\":18177:18240   */\n      swap2\n      pop\n        /* \"#utility.yul\":18133:18250   */\n      pop\n        /* \"#utility.yul\":17928:18257   */\n      swap3\n      swap2\n      pop\n      pop\n      jump\t// out\n        /* \"#utility.yul\":18263:18443   */\n    tag_273:\n        /* \"#utility.yul\":18311:18388   */\n      0x4e487b7100000000000000000000000000000000000000000000000000000000\n        /* \"#utility.yul\":18308:18309   */\n      0x00\n        /* \"#utility.yul\":18301:18389   */\n      mstore\n        /* \"#utility.yul\":18408:18412   */\n      0x22\n        /* \"#utility.yul\":18405:18406   */\n      0x04\n        /* \"#utility.yul\":18398:18413   */\n      mstore\n        /* \"#utility.yul\":18432:18436   */\n      0x24\n        /* \"#utility.yul\":18429:18430   */\n      0x00\n        /* \"#utility.yul\":18422:18437   */\n      revert\n        /* \"#utility.yul\":18449:18769   */\n    tag_77:\n        /* \"#utility.yul\":18493:18499   */\n      0x00\n        /* \"#utility.yul\":18530:18531   */\n      0x02\n        /* \"#utility.yul\":18524:18528   */\n      dup3\n        /* \"#utility.yul\":18520:18532   */\n      div\n        /* \"#utility.yul\":18510:18532   */\n      swap1\n      pop\n        /* \"#utility.yul\":18577:18578   */\n      0x01\n        /* \"#utility.yul\":18571:18575   */\n      dup3\n        /* \"#utility.yul\":18567:18579   */\n      and\n        /* \"#utility.yul\":18598:18616   */\n      dup1\n        /* \"#utility.yul\":18588:18669   */\n      tag_473\n      jumpi\n        /* \"#utility.yul\":18654:18658   */\n      0x7f\n        /* \"#utility.yul\":18646:18652   */\n      dup3\n        /* \"#utility.yul\":18642:18659   */\n      and\n        /* \"#utility.yul\":18632:18659   */\n      swap2\n      pop\n        /* \"#utility.yul\":18588:18669   */\n    tag_473:\n        /* \"#utility.yul\":18716:18718   */\n      0x20\n        /* \"#utility.yul\":18708:18714   */\n      dup3\n        /* \"#utility.yul\":18705:18719   */\n      lt\n        /* \"#utility.yul\":18685:18703   */\n      dup2\n        /* \"#utility.yul\":18682:18720   */\n      sub\n        /* \"#utility.yul\":18679:18763   */\n      tag_474\n      jumpi\n        /* \"#utility.yul\":18735:18753   */\n      tag_475\n      tag_273\n      jump\t// in\n    tag_475:\n        /* \"#utility.yul\":18679:18763   */\n    tag_474:\n        /* \"#utility.yul\":18500:18769   */\n      pop\n        /* \"#utility.yul\":18449:18769   */\n      swap2\n      swap1\n      pop\n      jump\t// out\n        /* \"#utility.yul\":18775:18955   */\n    tag_101:\n        /* \"#utility.yul\":18823:18900   */\n      0x4e487b7100000000000000000000000000000000000000000000000000000000\n        /* \"#utility.yul\":18820:18821   */\n      0x00\n        /* \"#utility.yul\":18813:18901   */\n      mstore\n        /* \"#utility.yul\":18920:18924   */\n      0x32\n        /* \"#utility.yul\":18917:18918   */\n      0x04\n        /* \"#utility.yul\":18910:18925   */\n      mstore\n        /* \"#utility.yul\":18944:18948   */\n      0x24\n        /* \"#utility.yul\":18941:18942   */\n      0x00\n        /* \"#utility.yul\":18934:18949   */\n      revert\n        /* \"#utility.yul\":18961:19141   */\n    tag_274:\n        /* \"#utility.yul\":19009:19086   */\n      0x4e487b7100000000000000000000000000000000000000000000000000000000\n        /* \"#utility.yul\":19006:19007   */\n      0x00\n        /* \"#utility.yul\":18999:19087   */\n      mstore\n        /* \"#utility.yul\":19106:19110   */\n      0x11\n        /* \"#utility.yul\":19103:19104   */\n      0x04\n        /* \"#utility.yul\":19096:19111   */\n      mstore\n        /* \"#utility.yul\":19130:19134   */\n      0x24\n        /* \"#utility.yul\":19127:19128   */\n      0x00\n        /* \"#utility.yul\":19120:19135   */\n      revert\n        /* \"#utility.yul\":19147:19380   */\n    tag_103:\n        /* \"#utility.yul\":19186:19189   */\n      0x00\n        /* \"#utility.yul\":19209:19233   */\n      tag_479\n        /* \"#utility.yul\":19227:19232   */\n      dup3\n        /* \"#utility.yul\":19209:19233   */\n      tag_229\n      jump\t// in\n    tag_479:\n        /* \"#utility.yul\":19200:19233   */\n      swap2\n      pop\n        /* \"#utility.yul\":19255:19321   */\n      0xffffffffffffffffffffffffffffffffffffffffffffffffffffffffffffffff\n        /* \"#utility.yul\":19248:19253   */\n      dup3\n        /* \"#utility.yul\":19245:19322   */\n      sub\n        /* \"#utility.yul\":19242:19345   */\n      tag_480\n      jumpi\n        /* \"#utility.yul\":19325:19343   */\n      tag_481\n      tag_274\n      jump\t// in\n    tag_481:\n        /* \"#utility.yul\":19242:19345   */\n    tag_480:\n        /* \"#utility.yul\":19372:19373   */\n      0x01\n        /* \"#utility.yul\":19365:19370   */\n      dup3\n        /* \"#utility.yul\":19361:19374   */\n      add\n        /* \"#utility.yul\":19354:19374   */\n      swap1\n      pop\n        /* \"#utility.yul\":19147:19380   */\n      swap2\n      swap1\n      pop\n      jump\t// out\n        /* \"#utility.yul\":19386:19559   */\n    tag_275:\n        /* \"#utility.yul\":19526:19551   */\n      0x4d6573736167652063616e6e6f7420626520656d707479000000000000000000\n        /* \"#utility.yul\":19522:19523   */\n      0x00\n        /* \"#utility.yul\":19514:19520   */\n      dup3\n        /* \"#utility.yul\":19510:19524   */\n      add\n        /* \"#utility.yul\":19503:19552   */\n      mstore\n        /* \"#utility.yul\":19386:19559   */\n      pop\n      jump\t// out\n        /* \"#utility.yul\":19565:19931   */\n    tag_276:\n        /* \"#utility.yul\":19707:19710   */\n      0x00\n        /* \"#utility.yul\":19728:19795   */\n      tag_484\n        /* \"#utility.yul\":19792:19794   */\n      0x17\n        /* \"#utility.yul\":19787:19790   */\n      dup4\n        /* \"#utility.yul\":19728:19795   */\n      tag_237\n      jump\t// in\n    tag_484:\n        /* \"#utility.yul\":19721:19795   */\n      swap2\n      pop\n        /* \"#utility.yul\":19804:19897   */\n      tag_485\n        /* \"#utility.yul\":19893:19896   */\n      dup3\n        /* \"#utility.yul\":19804:19897   */\n      tag_275\n      jump\t// in\n    tag_485:\n        /* \"#utility.yul\":19922:19924   */\n      0x20\n        /* \"#utility.yul\":19917:19920   */\n      dup3\n        /* \"#utility.yul\":19913:19925   */\n      add\n        /* \"#utility.yul\":19906:19925   */\n      swap1\n      pop\n        /* \"#utility.yul\":19565:19931   */\n      swap2\n      swap1\n      pop\n      jump\t// out\n        /* \"#utility.yul\":19937:20356   */\n    tag_131:\n        /* \"#utility.yul\":20103:20107   */\n      0x00\n        /* \"#utility.yul\":20141:20143   */\n      0x20\n        /* \"#utility.yul\":20130:20139   */\n      dup3\n        /* \"#utility.yul\":20126:20144   */\n      add\n        /* \"#utility.yul\":20118:20144   */\n      swap1\n      pop\n        /* \"#utility.yul\":20190:20199   */\n      dup2\n        /* \"#utility.yul\":20184:20188   */\n      dup2\n        /* \"#utility.yul\":20180:20200   */\n      sub\n        /* \"#utility.yul\":20176:20177   */\n      0x00\n        /* \"#utility.yul\":20165:20174   */\n      dup4\n        /* \"#utility.yul\":20161:20178   */\n      add\n        /* \"#utility.yul\":20154:20201   */\n      mstore\n        /* \"#utility.yul\":20218:20349   */\n      tag_487\n        /* \"#utility.yul\":20344:20348   */\n      dup2\n        /* \"#utility.yul\":20218:20349   */\n      tag_276\n      jump\t// in\n    tag_487:\n        /* \"#utility.yul\":20210:20349   */\n      swap1\n      pop\n        /* \"#utility.yul\":19937:20356   */\n      swap2\n      swap1\n      pop\n      jump\t// out\n        /* \"#utility.yul\":20362:20503   */\n    tag_277:\n        /* \"#utility.yul\":20411:20415   */\n      0x00\n        /* \"#utility.yul\":20434:20437   */\n      dup2\n        /* \"#utility.yul\":20426:20437   */\n      swap1\n      pop\n        /* \"#utility.yul\":20457:20460   */\n      dup2\n        /* \"#utility.yul\":20454:20455   */\n      0x00\n        /* \"#utility.yul\":20447:20461   */\n      mstore\n        /* \"#utility.yul\":20491:20495   */\n      0x20\n        /* \"#utility.yul\":20488:20489   */\n      0x00\n        /* \"#utility.yul\":20478:20496   */\n      keccak256\n        /* \"#utility.yul\":20470:20496   */\n      swap1\n      pop\n        /* \"#utility.yul\":20362:20503   */\n      swap2\n      swap1\n      pop\n      jump\t// out\n        /* \"#utility.yul\":20509:20602   */\n    tag_278:\n        /* \"#utility.yul\":20546:20552   */\n      0x00\n        /* \"#utility.yul\":20593:20595   */\n      0x20\n        /* \"#utility.yul\":20588:20590   */\n      0x1f\n        /* \"#utility.yul\":20581:20586   */\n      dup4\n        /* \"#utility.yul\":20577:20591   */\n      add\n        /* \"#utility.yul\":20573:20596   */\n      div\n        /* \"#utility.yul\":20563:20596   */\n      swap1\n      pop\n        /* \"#utility.yul\":20509:20602   */\n      swap2\n      swap1\n      pop\n      jump\t// out\n        /* \"#utility.yul\":20608:20715   */\n    tag_279:\n        /* \"#utility.yul\":20652:20660   */\n      0x00\n        /* \"#utility.yul\":20702:20707   */\n      dup3\n        /* \"#utility.yul\":20696:20700   */\n      dup3\n        /* \"#utility.yul\":20692:20708   */\n      shl\n        /* \"#utility.yul\":20671:20708   */\n      swap1\n      pop\n        /* \"#utility.yul\":20608:20715   */\n      swap3\n      swap2\n      pop\n      pop\n      jump\t// out\n        /* \"#utility.yul\":20721:21114   */\n    tag_280:\n        /* \"#utility.yul\":20790:20796   */\n      0x00\n        /* \"#utility.yul\":20840:20841   */\n      0x08\n        /* \"#utility.yul\":20828:20838   */\n      dup4\n        /* \"#utility.yul\":20824:20842   */\n      mul\n        /* \"#utility.yul\":20863:20960   */\n      tag_492\n        /* \"#utility.yul\":20893:20959   */\n      0xffffffffffffffffffffffffffffffffffffffffffffffffffffffffffffffff\n        /* \"#utility.yul\":20882:20891   */\n      dup3\n        /* \"#utility.yul\":20863:20960   */\n      tag_279\n      jump\t// in\n    tag_492:\n        /* \"#utility.yul\":20981:21020   */\n      tag_493\n        /* \"#utility.yul\":21011:21019   */\n      dup7\n        /* \"#utility.yul\":21000:21009   */\n      dup4\n        /* \"#utility.yul\":20981:21020   */\n      tag_279\n      jump\t// in\n    tag_493:\n        /* \"#utility.yul\":20969:21020   */\n      swap6\n      pop\n        /* \"#utility.yul\":21053:21057   */\n      dup1\n        /* \"#utility.yul\":21049:21058   */\n      not\n        /* \"#utility.yul\":21042:21047   */\n      dup5\n        /* \"#utility.yul\":21038:21059   */\n      and\n        /* \"#utility.yul\":21029:21059   */\n      swap4\n      pop\n        /* \"#utility.yul\":21102:21106   */\n      dup1\n        /* \"#utility.yul\":21092:21100   */\n      dup7\n        /* \"#utility.yul\":21088:21107   */\n      and\n        /* \"#utility.yul\":21081:21086   */\n      dup5\n        /* \"#utility.yul\":21078:21108   */\n      or\n        /* \"#utility.yul\":21068:21108   */\n      swap3\n      pop\n        /* \"#utility.yul\":20797:21114   */\n      pop\n      pop\n        /* \"#utility.yul\":20721:21114   */\n      swap4\n      swap3\n      pop\n      pop\n      pop\n      jump\t// out\n        /* \"#utility.yul\":21120:21180   */\n    tag_281:\n        /* \"#utility.yul\":21148:21151   */\n      0x00\n        /* \"#utility.yul\":21169:21174   */\n      dup2\n        /* \"#utility.yul\":21162:21174   */\n      swap1\n      pop\n        /* \"#utility.yul\":21120:21180   */\n      swap2\n      swap1\n      pop\n      jump\t// out\n        /* \"#utility.yul\":21186:21328   */\n    tag_282:\n        /* \"#utility.yul\":21236:21245   */\n      0x00\n        /* \"#utility.yul\":21269:21322   */\n      tag_496\n        /* \"#utility.yul\":21287:21321   */\n      tag_497\n        /* \"#utility.yul\":21296:21320   */\n      tag_498\n        /* \"#utility.yul\":21314:21319   */\n      dup5\n        /* \"#utility.yul\":21296:21320   */\n      tag_229\n      jump\t// in\n    tag_498:\n        /* \"#utility.yul\":21287:21321   */\n      tag_281\n      jump\t// in\n    tag_497:\n        /* \"#utility.yul\":21269:21322   */\n      tag_229\n      jump\t// in\n    tag_496:\n        /* \"#utility.yul\":21256:21322   */\n      swap1\n      pop\n        /* \"#utility.yul\":21186:21328   */\n      swap2\n      swap1\n      pop\n      jump\t// out\n        /* \"#utility.yul\":21334:21409   */\n    tag_283:\n        /* \"#utility.yul\":21377:21380   */\n      0x00\n        /* \"#utility.yul\":21398:21403   */\n      dup2\n        /* \"#utility.yul\":21391:21403   */\n      swap1\n      pop\n        /* \"#utility.yul\":21334:21409   */\n      swap2\n      swap1\n      pop\n      jump\t// out\n        /* \"#utility.yul\":21415:21684   */\n    tag_284:\n        /* \"#utility.yul\":21525:21564   */\n      tag_501\n        /* \"#utility.yul\":21556:21563   */\n      dup4\n        /* \"#utility.yul\":21525:21564   */\n      tag_282\n      jump\t// in\n    tag_501:\n        /* \"#utility.yul\":21586:21677   */\n      tag_502\n        /* \"#utility.yul\":21635:21676   */\n      tag_503\n        /* \"#utility.yul\":21659:21675   */\n      dup3\n        /* \"#utility.yul\":21635:21676   */\n      tag_283\n      jump\t// in\n    tag_503:\n        /* \"#utility.yul\":21627:21633   */\n      dup5\n        /* \"#utility.yul\":21620:21624   */\n      dup5\n        /* \"#utility.yul\":21614:21625   */\n      sload\n        /* \"#utility.yul\":21586:21677   */\n      tag_280\n      jump\t// in\n    tag_502:\n        /* \"#utility.yul\":21580:21584   */\n      dup3\n        /* \"#utility.yul\":21573:21678   */\n      sstore\n        /* \"#utility.yul\":21491:21684   */\n      pop\n        /* \"#utility.yul\":21415:21684   */\n      pop\n      pop\n      pop\n      jump\t// out\n        /* \"#utility.yul\":21690:21763   */\n    tag_285:\n        /* \"#utility.yul\":21735:21738   */\n      0x00\n        /* \"#utility.yul\":21756:21757   */\n      0x00\n        /* \"#utility.yul\":21749:21757   */\n      swap1\n      pop\n        /* \"#utility.yul\":21690:21763   */\n      swap1\n      jump\t// out\n        /* \"#utility.yul\":21769:21958   */\n    tag_286:\n        /* \"#utility.yul\":21846:21878   */\n      tag_506\n      tag_285\n      jump\t// in\n    tag_506:\n        /* \"#utility.yul\":21887:21952   */\n      tag_507\n        /* \"#utility.yul\":21945:21951   */\n      dup2\n        /* \"#utility.yul\":21937:21943   */\n      dup5\n        /* \"#utility.yul\":21931:21935   */\n      dup5\n        /* \"#utility.yul\":21887:21952   */\n      tag_284\n      jump\t// in\n    tag_507:\n        /* \"#utility.yul\":21822:21958   */\n      pop\n        /* \"#utility.yul\":21769:21958   */\n      pop\n      pop\n      jump\t// out\n        /* \"#utility.yul\":21964:22150   */\n    tag_287:\n        /* \"#utility.yul\":22024:22144   */\n    tag_509:\n        /* \"#utility.yul\":22041:22044   */\n      dup2\n        /* \"#utility.yul\":22034:22039   */\n      dup2\n        /* \"#utility.yul\":22031:22045   */\n      lt\n        /* \"#utility.yul\":22024:22144   */\n      iszero\n      tag_511\n      jumpi\n        /* \"#utility.yul\":22095:22134   */\n      tag_512\n        /* \"#utility.yul\":22132:22133   */\n      0x00\n        /* \"#utility.yul\":22125:22130   */\n      dup3\n        /* \"#utility.yul\":22095:22134   */\n      tag_286\n      jump\t// in\n    tag_512:\n        /* \"#utility.yul\":22068:22069   */\n      0x01\n        /* \"#utility.yul\":22061:22066   */\n      dup2\n        /* \"#utility.yul\":22057:22070   */\n      add\n        /* \"#utility.yul\":22048:22070   */\n      swap1\n      pop\n        /* \"#utility.yul\":22024:22144   */\n      jump(tag_509)\n    tag_511:\n        /* \"#utility.yul\":21964:22150   */\n      pop\n      pop\n      jump\t// out\n        /* \"#utility.yul\":22156:22699   */\n    tag_288:\n        /* \"#utility.yul\":22257:22259   */\n      0x1f\n        /* \"#utility.yul\":22252:22255   */\n      dup3\n        /* \"#utility.yul\":22249:22260   */\n      gt\n        /* \"#utility.yul\":22246:22692   */\n      iszero\n      tag_514\n      jumpi\n        /* \"#utility.yul\":22291:22329   */\n      tag_515\n        /* \"#utility.yul\":22323:22328   */\n      dup2\n        /* \"#utility.yul\":22291:22329   */\n      tag_277\n      jump\t// in\n    tag_515:\n        /* \"#utility.yul\":22375:22404   */\n      tag_516\n        /* \"#utility.yul\":22393:22403   */\n      dup5\n        /* \"#utility.yul\":22375:22404   */\n      tag_278\n      jump\t// in\n    tag_516:\n        /* \"#utility.yul\":22365:22373   */\n      dup2\n        /* \"#utility.yul\":22361:22405   */\n      add\n        /* \"#utility.yul\":22558:22560   */\n      0x20\n        /* \"#utility.yul\":22546:22556   */\n      dup6\n        /* \"#utility.yul\":22543:22561   */\n      lt\n        /* \"#utility.yul\":22540:22589   */\n      iszero\n      tag_517\n      jumpi\n        /* \"#utility.yul\":22579:22587   */\n      dup2\n        /* \"#utility.yul\":22564:22587   */\n      swap1\n      pop\n        /* \"#utility.yul\":22540:22589   */\n    tag_517:\n        /* \"#utility.yul\":22602:22682   */\n      tag_518\n        /* \"#utility.yul\":22658:22680   */\n      tag_519\n        /* \"#utility.yul\":22676:22679   */\n      dup6\n        /* \"#utility.yul\":22658:22680   */\n      tag_278\n      jump\t// in\n    tag_519:\n        /* \"#utility.yul\":22648:22656   */\n      dup4\n        /* \"#utility.yul\":22644:22681   */\n      add\n        /* \"#utility.yul\":22631:22642   */\n      dup3\n        /* \"#utility.yul\":22602:22682   */\n      tag_287\n      jump\t// in\n    tag_518:\n        /* \"#utility.yul\":22261:22692   */\n      pop\n      pop\n        /* \"#utility.yul\":22246:22692   */\n    tag_514:\n        /* \"#utility.yul\":22156:22699   */\n      pop\n      pop\n      pop\n      jump\t// out\n        /* \"#utility.yul\":22705:22822   */\n    tag_289:\n        /* \"#utility.yul\":22759:22767   */\n      0x00\n        /* \"#utility.yul\":22809:22814   */\n      dup3\n        /* \"#utility.yul\":22803:22807   */\n      dup3\n        /* \"#utility.yul\":22799:22815   */\n      shr\n        /* \"#utility.yul\":22778:22815   */\n      swap1\n      pop\n        /* \"#utility.yul\":22705:22822   */\n      swap3\n      swap2\n      pop\n      pop\n      jump\t// out\n        /* \"#utility.yul\":22828:22997   */\n    tag_290:\n        /* \"#utility.yul\":22872:22878   */\n      0x00\n        /* \"#utility.yul\":22905:22956   */\n      tag_522\n        /* \"#utility.yul\":22953:22954   */\n      0x00\n        /* \"#utility.yul\":22949:22955   */\n      not\n        /* \"#utility.yul\":22941:22946   */\n      dup5\n        /* \"#utility.yul\":22938:22939   */\n      0x08\n        /* \"#utility.yul\":22934:22947   */\n      mul\n        /* \"#utility.yul\":22905:22956   */\n      tag_289\n      jump\t// in\n    tag_522:\n        /* \"#utility.yul\":22901:22957   */\n      not\n        /* \"#utility.yul\":22986:22990   */\n      dup1\n        /* \"#utility.yul\":22980:22984   */\n      dup4\n        /* \"#utility.yul\":22976:22991   */\n      and\n        /* \"#utility.yul\":22966:22991   */\n      swap2\n      pop\n        /* \"#utility.yul\":22879:22997   */\n      pop\n        /* \"#utility.yul\":22828:22997   */\n      swap3\n      swap2\n      pop\n      pop\n      jump\t// out\n        /* \"#utility.yul\":23002:23297   */\n    tag_291:\n        /* \"#utility.yul\":23078:23082   */\n      0x00\n        /* \"#utility.yul\":23224:23253   */\n      tag_524\n        /* \"#utility.yul\":23249:23252   */\n      dup4\n        /* \"#utility.yul\":23243:23247   */\n      dup4\n        /* \"#utility.yul\":23224:23253   */\n      tag_290\n      jump\t// in\n    tag_524:\n        /* \"#utility.yul\":23216:23253   */\n      swap2\n      pop\n        /* \"#utility.yul\":23286:23289   */\n      dup3\n        /* \"#utility.yul\":23283:23284   */\n      0x02\n        /* \"#utility.yul\":23279:23290   */\n      mul\n        /* \"#utility.yul\":23273:23277   */\n      dup3\n        /* \"#utility.yul\":23270:23291   */\n      or\n        /* \"#utility.yul\":23262:23291   */\n      swap1\n      pop\n        /* \"#utility.yul\":23002:23297   */\n      swap3\n      swap2\n      pop\n      pop\n      jump\t// out\n        /* \"#utility.yul\":23302:24697   */\n    tag_134:\n        /* \"#utility.yul\":23419:23456   */\n      tag_526\n        /* \"#utility.yul\":23452:23455   */\n      dup3\n        /* \"#utility.yul\":23419:23456   */\n      tag_236\n      jump\t// in\n    tag_526:\n        /* \"#utility.yul\":23521:23539   */\n      0xffffffffffffffff\n        /* \"#utility.yul\":23513:23519   */\n      dup2\n        /* \"#utility.yul\":23510:23540   */\n      gt\n        /* \"#utility.yul\":23507:23563   */\n      iszero\n      tag_527\n      jumpi\n        /* \"#utility.yul\":23543:23561   */\n      tag_528\n      tag_85\n      jump\t// in\n    tag_528:\n        /* \"#utility.yul\":23507:23563   */\n    tag_527:\n        /* \"#utility.yul\":23587:23625   */\n      tag_529\n        /* \"#utility.yul\":23619:23623   */\n      dup3\n        /* \"#utility.yul\":23613:23624   */\n      sload\n        /* \"#utility.yul\":23587:23625   */\n      tag_77\n      jump\t// in\n    tag_529:\n        /* \"#utility.yul\":23672:23739   */\n      tag_530\n        /* \"#utility.yul\":23732:23738   */\n      dup3\n        /* \"#utility.yul\":23724:23730   */\n      dup3\n        /* \"#utility.yul\":23718:23722   */\n      dup6\n        /* \"#utility.yul\":23672:23739   */\n      tag_288\n      jump\t// in\n    tag_530:\n        /* \"#utility.yul\":23766:23767   */\n      0x00\n        /* \"#utility.yul\":23790:23794   */\n      0x20\n        /* \"#utility.yul\":23777:23794   */\n      swap1\n      pop\n        /* \"#utility.yul\":23822:23824   */\n      0x1f\n        /* \"#utility.yul\":23814:23820   */\n      dup4\n        /* \"#utility.yul\":23811:23825   */\n      gt\n        /* \"#utility.yul\":23839:23840   */\n      0x01\n        /* \"#utility.yul\":23834:24452   */\n      dup2\n      eq\n      tag_532\n      jumpi\n        /* \"#utility.yul\":24496:24497   */\n      0x00\n        /* \"#utility.yul\":24513:24519   */\n      dup5\n        /* \"#utility.yul\":24510:24587   */\n      iszero\n      tag_533\n      jumpi\n        /* \"#utility.yul\":24562:24571   */\n      dup3\n        /* \"#utility.yul\":24557:24560   */\n      dup8\n        /* \"#utility.yul\":24553:24572   */\n      add\n        /* \"#utility.yul\":24547:24573   */\n      mload\n        /* \"#utility.yul\":24538:24573   */\n      swap1\n      pop\n        /* \"#utility.yul\":24510:24587   */\n    tag_533:\n        /* \"#utility.yul\":24613:24680   */\n      tag_534\n        /* \"#utility.yul\":24673:24679   */\n      dup6\n        /* \"#utility.yul\":24666:24671   */\n      dup3\n        /* \"#utility.yul\":24613:24680   */\n      tag_291\n      jump\t// in\n    tag_534:\n        /* \"#utility.yul\":24607:24611   */\n      dup7\n        /* \"#utility.yul\":24600:24681   */\n      sstore\n        /* \"#utility.yul\":24469:24691   */\n      pop\n        /* \"#utility.yul\":23804:24691   */\n      jump(tag_531)\n        /* \"#utility.yul\":23834:24452   */\n    tag_532:\n        /* \"#utility.yul\":23886:23890   */\n      0x1f\n        /* \"#utility.yul\":23882:23891   */\n      not\n        /* \"#utility.yul\":23874:23880   */\n      dup5\n        /* \"#utility.yul\":23870:23892   */\n      and\n        /* \"#utility.yul\":23920:23957   */\n      tag_535\n        /* \"#utility.yul\":23952:23956   */\n      dup7\n        /* \"#utility.yul\":23920:23957   */\n      tag_277\n      jump\t// in\n    tag_535:\n        /* \"#utility.yul\":23979:23980   */\n      0x00\n        /* \"#utility.yul\":23993:24201   */\n    tag_536:\n        /* \"#utility.yul\":24007:24014   */\n      dup3\n        /* \"#utility.yul\":24004:24005   */\n      dup2\n        /* \"#utility.yul\":24001:24015   */\n      lt\n        /* \"#utility.yul\":23993:24201   */\n      iszero\n      tag_538\n      jumpi\n        /* \"#utility.yul\":24086:24095   */\n      dup5\n        /* \"#utility.yul\":24081:24084   */\n      dup10\n        /* \"#utility.yul\":24077:24096   */\n      add\n        /* \"#utility.yul\":24071:24097   */\n      mload\n        /* \"#utility.yul\":24063:24069   */\n      dup3\n        /* \"#utility.yul\":24056:24098   */\n      sstore\n        /* \"#utility.yul\":24137:24138   */\n      0x01\n        /* \"#utility.yul\":24129:24135   */\n      dup3\n        /* \"#utility.yul\":24125:24139   */\n      add\n        /* \"#utility.yul\":24115:24139   */\n      swap2\n      pop\n        /* \"#utility.yul\":24184:24186   */\n      0x20\n        /* \"#utility.yul\":24173:24182   */\n      dup6\n        /* \"#utility.yul\":24169:24187   */\n      add\n        /* \"#utility.yul\":24156:24187   */\n      swap5\n      pop\n        /* \"#utility.yul\":24030:24034   */\n      0x20\n        /* \"#utility.yul\":24027:24028   */\n      dup2\n        /* \"#utility.yul\":24023:24035   */\n      add\n        /* \"#utility.yul\":24018:24035   */\n      swap1\n      pop\n        /* \"#utility.yul\":23993:24201   */\n      jump(tag_536)\n    tag_538:\n        /* \"#utility.yul\":24229:24235   */\n      dup7\n        /* \"#utility.yul\":24220:24227   */\n      dup4\n        /* \"#utility.yul\":24217:24236   */\n      lt\n        /* \"#utility.yul\":24214:24393   */\n      iszero\n      tag_539\n      jumpi\n        /* \"#utility.yul\":24287:24296   */\n      dup5\n        /* \"#utility.yul\":24282:24285   */\n      dup10\n        /* \"#utility.yul\":24278:24297   */\n      add\n        /* \"#utility.yul\":24272:24298   */\n      mload\n        /* \"#utility.yul\":24330:24378   */\n      tag_540\n        /* \"#utility.yul\":24372:24376   */\n      0x1f\n        /* \"#utility.yul\":24364:24370   */\n      dup10\n        /* \"#utility.yul\":24360:24377   */\n      and\n        /* \"#utility.yul\":24349:24358   */\n      dup3\n        /* \"#utility.yul\":24330:24378   */\n      tag_290\n      jump\t// in\n    tag_540:\n        /* \"#utility.yul\":24322:24328   */\n      dup4\n        /* \"#utility.yul\":24315:24379   */\n      sstore\n        /* \"#utility.yul\":24237:24393   */\n      pop\n        /* \"#utility.yul\":24214:24393   */\n    tag_539:\n        /* \"#utility.yul\":24439:24440   */\n      0x01\n        /* \"#utility.yul\":24435:24436   */\n      0x02\n        /* \"#utility.yul\":24427:24433   */\n      dup9\n        /* \"#utility.yul\":24423:24437   */\n      mul\n        /* \"#utility.yul\":24419:24441   */\n      add\n        /* \"#utility.yul\":24413:24417   */\n      dup9\n        /* \"#utility.yul\":24406:24442   */\n      sstore\n        /* \"#utility.yul\":23841:24452   */\n      pop\n      pop\n      pop\n        /* \"#utility.yul\":23804:24691   */\n    tag_531:\n      pop\n        /* \"#utility.yul\":23394:24697   */\n      pop\n      pop\n      pop\n        /* \"#utility.yul\":23302:24697   */\n      pop\n      pop\n      jump\t// out\n        /* \"#utility.yul\":24703:25016   */\n    tag_136:\n        /* \"#utility.yul\":24816:24820   */\n      0x00\n        /* \"#utility.yul\":24854:24856   */\n      0x20\n        /* \"#utility.yul\":24843:24852   */\n      dup3\n        /* \"#utility.yul\":24839:24857   */\n      add\n        /* \"#utility.yul\":24831:24857   */\n      swap1\n      pop\n        /* \"#utility.yul\":24903:24912   */\n      dup2\n        /* \"#utility.yul\":24897:24901   */\n      dup2\n        /* \"#utility.yul\":24893:24913   */\n      sub\n        /* \"#utility.yul\":24889:24890   */\n      0x00\n        /* \"#utility.yul\":24878:24887   */\n      dup4\n        /* \"#utility.yul\":24874:24891   */\n      add\n        /* \"#utility.yul\":24867:24914   */\n      mstore\n        /* \"#utility.yul\":24931:25009   */\n      tag_542\n        /* \"#utility.yul\":25004:25008   */\n      dup2\n        /* \"#utility.yul\":24995:25001   */\n      dup5\n        /* \"#utility.yul\":24931:25009   */\n      tag_240\n      jump\t// in\n    tag_542:\n        /* \"#utility.yul\":24923:25009   */\n      swap1\n      pop\n        /* \"#utility.yul\":24703:25016   */\n      swap3\n      swap2\n      pop\n      pop\n      jump\t// out\n        /* \"#utility.yul\":25022:25195   */\n    tag_292:\n        /* \"#utility.yul\":25162:25187   */\n      0x496e76616c696420656469742072657175657374204944000000000000000000\n        /* \"#utility.yul\":25158:25159   */\n      0x00\n        /* \"#utility.yul\":25150:25156   */\n      dup3\n        /* \"#utility.yul\":25146:25160   */\n      add\n        /* \"#utility.yul\":25139:25188   */\n      mstore\n        /* \"#utility.yul\":25022:25195   */\n      pop\n      jump\t// out\n        /* \"#utility.yul\":25201:25567   */\n    tag_293:\n        /* \"#utility.yul\":25343:25346   */\n      0x00\n        /* \"#utility.yul\":25364:25431   */\n      tag_545\n        /* \"#utility.yul\":25428:25430   */\n      0x17\n        /* \"#utility.yul\":25423:25426   */\n      dup4\n        /* \"#utility.yul\":25364:25431   */\n      tag_237\n      jump\t// in\n    tag_545:\n        /* \"#utility.yul\":25357:25431   */\n      swap2\n      pop\n        /* \"#utility.yul\":25440:25533   */\n      tag_546\n        /* \"#utility.yul\":25529:25532   */\n      dup3\n        /* \"#utility.yul\":25440:25533   */\n      tag_292\n      jump\t// in\n    tag_546:\n        /* \"#utility.yul\":25558:25560   */\n      0x20\n        /* \"#utility.yul\":25553:25556   */\n      dup3\n        /* \"#utility.yul\":25549:25561   */\n      add\n        /* \"#utility.yul\":25542:25561   */\n      swap1\n      pop\n        /* \"#utility.yul\":25201:25567   */\n      swap2\n      swap1\n      pop\n      jump\t// out\n        /* \"#utility.yul\":25573:25992   */\n    tag_156:\n        /* \"#utility.yul\":25739:25743   */\n      0x00\n        /* \"#utility.yul\":25777:25779   */\n      0x20\n        /* \"#utility.yul\":25766:25775   */\n      dup3\n        /* \"#utility.yul\":25762:25780   */\n      add\n        /* \"#utility.yul\":25754:25780   */\n      swap1\n      pop\n        /* \"#utility.yul\":25826:25835   */\n      dup2\n        /* \"#utility.yul\":25820:25824   */\n      dup2\n        /* \"#utility.yul\":25816:25836   */\n      sub\n        /* \"#utility.yul\":25812:25813   */\n      0x00\n        /* \"#utility.yul\":25801:25810   */\n      dup4\n        /* \"#utility.yul\":25797:25814   */\n      add\n        /* \"#utility.yul\":25790:25837   */\n      mstore\n        /* \"#utility.yul\":25854:25985   */\n      tag_548\n        /* \"#utility.yul\":25980:25984   */\n      dup2\n        /* \"#utility.yul\":25854:25985   */\n      tag_293\n      jump\t// in\n    tag_548:\n        /* \"#utility.yul\":25846:25985   */\n      swap1\n      pop\n        /* \"#utility.yul\":25573:25992   */\n      swap2\n      swap1\n      pop\n      jump\t// out\n        /* \"#utility.yul\":25998:26177   */\n    tag_294:\n        /* \"#utility.yul\":26138:26169   */\n      0x45646974207265717565737420616c726561647920617070726f766564000000\n        /* \"#utility.yul\":26134:26135   */\n      0x00\n        /* \"#utility.yul\":26126:26132   */\n      dup3\n        /* \"#utility.yul\":26122:26136   */\n      add\n        /* \"#utility.yul\":26115:26170   */\n      mstore\n        /* \"#utility.yul\":25998:26177   */\n      pop\n      jump\t// out\n        /* \"#utility.yul\":26183:26549   */\n    tag_295:\n        /* \"#utility.yul\":26325:26328   */\n      0x00\n        /* \"#utility.yul\":26346:26413   */\n      tag_551\n        /* \"#utility.yul\":26410:26412   */\n      0x1d\n        /* \"#utility.yul\":26405:26408   */\n      dup4\n        /* \"#utility.yul\":26346:26413   */\n      tag_237\n      jump\t// in\n    tag_551:\n        /* \"#utility.yul\":26339:26413   */\n      swap2\n      pop\n        /* \"#utility.yul\":26422:26515   */\n      tag_552\n        /* \"#utility.yul\":26511:26514   */\n      dup3\n        /* \"#utility.yul\":26422:26515   */\n      tag_294\n      jump\t// in\n    tag_552:\n        /* \"#utility.yul\":26540:26542   */\n      0x20\n        /* \"#utility.yul\":26535:26538   */\n      dup3\n        /* \"#utility.yul\":26531:26543   */\n      add\n        /* \"#utility.yul\":26524:26543   */\n      swap1\n      pop\n        /* \"#utility.yul\":26183:26549   */\n      swap2\n      swap1\n      pop\n      jump\t// out\n        /* \"#utility.yul\":26555:26974   */\n    tag_159:\n        /* \"#utility.yul\":26721:26725   */\n      0x00\n        /* \"#utility.yul\":26759:26761   */\n      0x20\n        /* \"#utility.yul\":26748:26757   */\n      dup3\n        /* \"#utility.yul\":26744:26762   */\n      add\n        /* \"#utility.yul\":26736:26762   */\n      swap1\n      pop\n        /* \"#utility.yul\":26808:26817   */\n      dup2\n        /* \"#utility.yul\":26802:26806   */\n      dup2\n        /* \"#utility.yul\":26798:26818   */\n      sub\n        /* \"#utility.yul\":26794:26795   */\n      0x00\n        /* \"#utility.yul\":26783:26792   */\n      dup4\n        /* \"#utility.yul\":26779:26796   */\n      add\n        /* \"#utility.yul\":26772:26819   */\n      mstore\n        /* \"#utility.yul\":26836:26967   */\n      tag_554\n        /* \"#utility.yul\":26962:26966   */\n      dup2\n        /* \"#utility.yul\":26836:26967   */\n      tag_295\n      jump\t// in\n    tag_554:\n        /* \"#utility.yul\":26828:26967   */\n      swap1\n      pop\n        /* \"#utility.yul\":26555:26974   */\n      swap2\n      swap1\n      pop\n      jump\t// out\n        /* \"#utility.yul\":26980:27133   */\n    tag_296:\n        /* \"#utility.yul\":27033:27039   */\n      0x00\n        /* \"#utility.yul\":27067:27072   */\n      dup2\n        /* \"#utility.yul\":27061:27073   */\n      sload\n        /* \"#utility.yul\":27051:27073   */\n      swap1\n      pop\n        /* \"#utility.yul\":27093:27126   */\n      tag_556\n        /* \"#utility.yul\":27119:27125   */\n      dup2\n        /* \"#utility.yul\":27093:27126   */\n      tag_77\n      jump\t// in\n    tag_556:\n        /* \"#utility.yul\":27083:27126   */\n      swap1\n      pop\n        /* \"#utility.yul\":26980:27133   */\n      swap2\n      swap1\n      pop\n      jump\t// out\n        /* \"#utility.yul\":27139:27284   */\n    tag_297:\n        /* \"#utility.yul\":27192:27196   */\n      0x00\n        /* \"#utility.yul\":27215:27218   */\n      dup2\n        /* \"#utility.yul\":27207:27218   */\n      swap1\n      pop\n        /* \"#utility.yul\":27238:27241   */\n      dup2\n        /* \"#utility.yul\":27235:27236   */\n      0x00\n        /* \"#utility.yul\":27228:27242   */\n      mstore\n        /* \"#utility.yul\":27272:27276   */\n      0x20\n        /* \"#utility.yul\":27269:27270   */\n      0x00\n        /* \"#utility.yul\":27259:27277   */\n      keccak256\n        /* \"#utility.yul\":27251:27277   */\n      swap1\n      pop\n        /* \"#utility.yul\":27139:27284   */\n      swap2\n      swap1\n      pop\n      jump\t// out\n        /* \"#utility.yul\":27290:28753   */\n    tag_161:\n        /* \"#utility.yul\":27405:27408   */\n      dup2\n        /* \"#utility.yul\":27399:27403   */\n      dup2\n        /* \"#utility.yul\":27396:27409   */\n      sub\n        /* \"#utility.yul\":27393:27419   */\n      tag_559\n      jumpi\n        /* \"#utility.yul\":27412:27417   */\n      pop\n      pop\n      jump(tag_558)\n        /* \"#utility.yul\":27393:27419   */\n    tag_559:\n        /* \"#utility.yul\":27443:27481   */\n      tag_560\n        /* \"#utility.yul\":27477:27480   */\n      dup3\n        /* \"#utility.yul\":27443:27481   */\n      tag_296\n      jump\t// in\n    tag_560:\n        /* \"#utility.yul\":27546:27564   */\n      0xffffffffffffffff\n        /* \"#utility.yul\":27538:27544   */\n      dup2\n        /* \"#utility.yul\":27535:27565   */\n      gt\n        /* \"#utility.yul\":27532:27588   */\n      iszero\n      tag_561\n      jumpi\n        /* \"#utility.yul\":27568:27586   */\n      tag_562\n      tag_85\n      jump\t// in\n    tag_562:\n        /* \"#utility.yul\":27532:27588   */\n    tag_561:\n        /* \"#utility.yul\":27612:27650   */\n      tag_563\n        /* \"#utility.yul\":27644:27648   */\n      dup3\n        /* \"#utility.yul\":27638:27649   */\n      sload\n        /* \"#utility.yul\":27612:27650   */\n      tag_77\n      jump\t// in\n    tag_563:\n        /* \"#utility.yul\":27697:27764   */\n      tag_564\n        /* \"#utility.yul\":27757:27763   */\n      dup3\n        /* \"#utility.yul\":27749:27755   */\n      dup3\n        /* \"#utility.yul\":27743:27747   */\n      dup6\n        /* \"#utility.yul\":27697:27764   */\n      tag_288\n      jump\t// in\n    tag_564:\n        /* \"#utility.yul\":27791:27792   */\n      0x00\n        /* \"#utility.yul\":27820:27822   */\n      0x1f\n        /* \"#utility.yul\":27812:27818   */\n      dup4\n        /* \"#utility.yul\":27809:27823   */\n      gt\n        /* \"#utility.yul\":27837:27838   */\n      0x01\n        /* \"#utility.yul\":27832:28508   */\n      dup2\n      eq\n      tag_566\n      jumpi\n        /* \"#utility.yul\":28552:28553   */\n      0x00\n        /* \"#utility.yul\":28569:28575   */\n      dup5\n        /* \"#utility.yul\":28566:28643   */\n      iszero\n      tag_567\n      jumpi\n        /* \"#utility.yul\":28618:28627   */\n      dup3\n        /* \"#utility.yul\":28613:28616   */\n      dup8\n        /* \"#utility.yul\":28609:28628   */\n      add\n        /* \"#utility.yul\":28603:28629   */\n      sload\n        /* \"#utility.yul\":28594:28629   */\n      swap1\n      pop\n        /* \"#utility.yul\":28566:28643   */\n    tag_567:\n        /* \"#utility.yul\":28669:28736   */\n      tag_568\n        /* \"#utility.yul\":28729:28735   */\n      dup6\n        /* \"#utility.yul\":28722:28727   */\n      dup3\n        /* \"#utility.yul\":28669:28736   */\n      tag_291\n      jump\t// in\n    tag_568:\n        /* \"#utility.yul\":28663:28667   */\n      dup7\n        /* \"#utility.yul\":28656:28737   */\n      sstore\n        /* \"#utility.yul\":28525:28747   */\n      pop\n        /* \"#utility.yul\":27802:28747   */\n      jump(tag_565)\n        /* \"#utility.yul\":27832:28508   */\n    tag_566:\n        /* \"#utility.yul\":27884:27888   */\n      0x1f\n        /* \"#utility.yul\":27880:27889   */\n      not\n        /* \"#utility.yul\":27872:27878   */\n      dup5\n        /* \"#utility.yul\":27868:27890   */\n      and\n        /* \"#utility.yul\":27910:27950   */\n      tag_569\n        /* \"#utility.yul\":27946:27949   */\n      dup8\n        /* \"#utility.yul\":27910:27950   */\n      tag_297\n      jump\t// in\n    tag_569:\n        /* \"#utility.yul\":27903:27950   */\n      swap7\n      pop\n        /* \"#utility.yul\":27977:28014   */\n      tag_570\n        /* \"#utility.yul\":28009:28013   */\n      dup7\n        /* \"#utility.yul\":27977:28014   */\n      tag_277\n      jump\t// in\n    tag_570:\n        /* \"#utility.yul\":28036:28037   */\n      0x00\n        /* \"#utility.yul\":28050:28257   */\n    tag_571:\n        /* \"#utility.yul\":28064:28071   */\n      dup3\n        /* \"#utility.yul\":28061:28062   */\n      dup2\n        /* \"#utility.yul\":28058:28072   */\n      lt\n        /* \"#utility.yul\":28050:28257   */\n      iszero\n      tag_573\n      jumpi\n        /* \"#utility.yul\":28143:28152   */\n      dup5\n        /* \"#utility.yul\":28138:28141   */\n      dup10\n        /* \"#utility.yul\":28134:28153   */\n      add\n        /* \"#utility.yul\":28128:28154   */\n      sload\n        /* \"#utility.yul\":28120:28126   */\n      dup3\n        /* \"#utility.yul\":28113:28155   */\n      sstore\n        /* \"#utility.yul\":28194:28195   */\n      0x01\n        /* \"#utility.yul\":28186:28192   */\n      dup3\n        /* \"#utility.yul\":28182:28196   */\n      add\n        /* \"#utility.yul\":28172:28196   */\n      swap2\n      pop\n        /* \"#utility.yul\":28241:28242   */\n      0x01\n        /* \"#utility.yul\":28230:28239   */\n      dup6\n        /* \"#utility.yul\":28226:28243   */\n      add\n        /* \"#utility.yul\":28213:28243   */\n      swap5\n      pop\n        /* \"#utility.yul\":28087:28091   */\n      0x20\n        /* \"#utility.yul\":28084:28085   */\n      dup2\n        /* \"#utility.yul\":28080:28092   */\n      add\n        /* \"#utility.yul\":28075:28092   */\n      swap1\n      pop\n        /* \"#utility.yul\":28050:28257   */\n      jump(tag_571)\n    tag_573:\n        /* \"#utility.yul\":28285:28291   */\n      dup7\n        /* \"#utility.yul\":28276:28283   */\n      dup4\n        /* \"#utility.yul\":28273:28292   */\n      lt\n        /* \"#utility.yul\":28270:28449   */\n      iszero\n      tag_574\n      jumpi\n        /* \"#utility.yul\":28343:28352   */\n      dup5\n        /* \"#utility.yul\":28338:28341   */\n      dup10\n        /* \"#utility.yul\":28334:28353   */\n      add\n        /* \"#utility.yul\":28328:28354   */\n      sload\n        /* \"#utility.yul\":28386:28434   */\n      tag_575\n        /* \"#utility.yul\":28428:28432   */\n      0x1f\n        /* \"#utility.yul\":28420:28426   */\n      dup10\n        /* \"#utility.yul\":28416:28433   */\n      and\n        /* \"#utility.yul\":28405:28414   */\n      dup3\n        /* \"#utility.yul\":28386:28434   */\n      tag_290\n      jump\t// in\n    tag_575:\n        /* \"#utility.yul\":28378:28384   */\n      dup4\n        /* \"#utility.yul\":28371:28435   */\n      sstore\n        /* \"#utility.yul\":28293:28449   */\n      pop\n        /* \"#utility.yul\":28270:28449   */\n    tag_574:\n        /* \"#utility.yul\":28495:28496   */\n      0x01\n        /* \"#utility.yul\":28491:28492   */\n      0x02\n        /* \"#utility.yul\":28483:28489   */\n      dup9\n        /* \"#utility.yul\":28479:28493   */\n      mul\n        /* \"#utility.yul\":28475:28497   */\n      add\n        /* \"#utility.yul\":28469:28473   */\n      dup9\n        /* \"#utility.yul\":28462:28498   */\n      sstore\n        /* \"#utility.yul\":27839:28508   */\n      pop\n      pop\n      pop\n        /* \"#utility.yul\":27802:28747   */\n    tag_565:\n      pop\n        /* \"#utility.yul\":27383:28753   */\n      pop\n      pop\n      pop\n        /* \"#utility.yul\":27290:28753   */\n      pop\n      pop\n    tag_558:\n      jump\t// out\n        /* \"#utility.yul\":28783:29614   */\n    tag_298:\n        /* \"#utility.yul\":28868:28871   */\n      0x00\n        /* \"#utility.yul\":28905:28910   */\n      dup2\n        /* \"#utility.yul\":28899:28911   */\n      sload\n        /* \"#utility.yul\":28934:28970   */\n      tag_577\n        /* \"#utility.yul\":28960:28969   */\n      dup2\n        /* \"#utility.yul\":28934:28970   */\n      tag_77\n      jump\t// in\n    tag_577:\n        /* \"#utility.yul\":28986:29057   */\n      tag_578\n        /* \"#utility.yul\":29050:29056   */\n      dup2\n        /* \"#utility.yul\":29045:29048   */\n      dup7\n        /* \"#utility.yul\":28986:29057   */\n      tag_237\n      jump\t// in\n    tag_578:\n        /* \"#utility.yul\":28979:29057   */\n      swap5\n      pop\n        /* \"#utility.yul\":29088:29089   */\n      0x01\n        /* \"#utility.yul\":29077:29086   */\n      dup3\n        /* \"#utility.yul\":29073:29090   */\n      and\n        /* \"#utility.yul\":29104:29105   */\n      0x00\n        /* \"#utility.yul\":29099:29263   */\n      dup2\n      eq\n      tag_580\n      jumpi\n        /* \"#utility.yul\":29277:29278   */\n      0x01\n        /* \"#utility.yul\":29272:29608   */\n      dup2\n      eq\n      tag_581\n      jumpi\n        /* \"#utility.yul\":29066:29608   */\n      jump(tag_579)\n        /* \"#utility.yul\":29099:29263   */\n    tag_580:\n        /* \"#utility.yul\":29183:29187   */\n      0xff\n        /* \"#utility.yul\":29179:29188   */\n      not\n        /* \"#utility.yul\":29168:29177   */\n      dup4\n        /* \"#utility.yul\":29164:29189   */\n      and\n        /* \"#utility.yul\":29159:29162   */\n      dup7\n        /* \"#utility.yul\":29152:29190   */\n      mstore\n        /* \"#utility.yul\":29243:29249   */\n      dup2\n        /* \"#utility.yul\":29236:29250   */\n      iszero\n        /* \"#utility.yul\":29229:29251   */\n      iszero\n        /* \"#utility.yul\":29223:29227   */\n      0x20\n        /* \"#utility.yul\":29219:29252   */\n      mul\n        /* \"#utility.yul\":29214:29217   */\n      dup7\n        /* \"#utility.yul\":29210:29253   */\n      add\n        /* \"#utility.yul\":29203:29253   */\n      swap4\n      pop\n        /* \"#utility.yul\":29099:29263   */\n      jump(tag_579)\n        /* \"#utility.yul\":29272:29608   */\n    tag_581:\n        /* \"#utility.yul\":29339:29377   */\n      tag_582\n        /* \"#utility.yul\":29371:29376   */\n      dup6\n        /* \"#utility.yul\":29339:29377   */\n      tag_277\n      jump\t// in\n    tag_582:\n        /* \"#utility.yul\":29399:29400   */\n      0x00\n        /* \"#utility.yul\":29413:29567   */\n    tag_583:\n        /* \"#utility.yul\":29427:29433   */\n      dup4\n        /* \"#utility.yul\":29424:29425   */\n      dup2\n        /* \"#utility.yul\":29421:29434   */\n      lt\n        /* \"#utility.yul\":29413:29567   */\n      iszero\n      tag_585\n      jumpi\n        /* \"#utility.yul\":29501:29508   */\n      dup2\n        /* \"#utility.yul\":29495:29509   */\n      sload\n        /* \"#utility.yul\":29491:29492   */\n      dup2\n        /* \"#utility.yul\":29486:29489   */\n      dup10\n        /* \"#utility.yul\":29482:29493   */\n      add\n        /* \"#utility.yul\":29475:29510   */\n      mstore\n        /* \"#utility.yul\":29551:29552   */\n      0x01\n        /* \"#utility.yul\":29542:29549   */\n      dup3\n        /* \"#utility.yul\":29538:29553   */\n      add\n        /* \"#utility.yul\":29527:29553   */\n      swap2\n      pop\n        /* \"#utility.yul\":29449:29453   */\n      0x20\n        /* \"#utility.yul\":29446:29447   */\n      dup2\n        /* \"#utility.yul\":29442:29454   */\n      add\n        /* \"#utility.yul\":29437:29454   */\n      swap1\n      pop\n        /* \"#utility.yul\":29413:29567   */\n      jump(tag_583)\n    tag_585:\n        /* \"#utility.yul\":29596:29597   */\n      dup1\n        /* \"#utility.yul\":29591:29594   */\n      dup9\n        /* \"#utility.yul\":29587:29598   */\n      add\n        /* \"#utility.yul\":29580:29598   */\n      swap6\n      pop\n        /* \"#utility.yul\":29279:29608   */\n      pop\n      pop\n        /* \"#utility.yul\":29066:29608   */\n    tag_579:\n      pop\n        /* \"#utility.yul\":28872:29614   */\n      pop\n      pop\n        /* \"#utility.yul\":28783:29614   */\n      swap3\n      swap2\n      pop\n      pop\n      jump\t// out\n        /* \"#utility.yul\":29620:29927   */\n    tag_163:\n        /* \"#utility.yul\":29730:29734   */\n      0x00\n        /* \"#utility.yul\":29768:29770   */\n      0x20\n        /* \"#utility.yul\":29757:29766   */\n      dup3\n        /* \"#utility.yul\":29753:29771   */\n      add\n        /* \"#utility.yul\":29745:29771   */\n      swap1\n      pop\n        /* \"#utility.yul\":29817:29826   */\n      dup2\n        /* \"#utility.yul\":29811:29815   */\n      dup2\n        /* \"#utility.yul\":29807:29827   */\n      sub\n        /* \"#utility.yul\":29803:29804   */\n      0x00\n        /* \"#utility.yul\":29792:29801   */\n      dup4\n        /* \"#utility.yul\":29788:29805   */\n      add\n        /* \"#utility.yul\":29781:29828   */\n      mstore\n        /* \"#utility.yul\":29845:29920   */\n      tag_587\n        /* \"#utility.yul\":29915:29919   */\n      dup2\n        /* \"#utility.yul\":29906:29912   */\n      dup5\n        /* \"#utility.yul\":29845:29920   */\n      tag_298\n      jump\t// in\n    tag_587:\n        /* \"#utility.yul\":29837:29920   */\n      swap1\n      pop\n        /* \"#utility.yul\":29620:29927   */\n      swap3\n      swap2\n      pop\n      pop\n      jump\t// out\n        /* \"#utility.yul\":29933:30101   */\n    tag_299:\n        /* \"#utility.yul\":30073:30093   */\n      0x496e76616c6964206d6573736167652049440000000000000000000000000000\n        /* \"#utility.yul\":30069:30070   */\n      0x00\n        /* \"#utility.yul\":30061:30067   */\n      dup3\n        /* \"#utility.yul\":30057:30071   */\n      add\n        /* \"#utility.yul\":30050:30094   */\n      mstore\n        /* \"#utility.yul\":29933:30101   */\n      pop\n      jump\t// out\n        /* \"#utility.yul\":30107:30473   */\n    tag_300:\n        /* \"#utility.yul\":30249:30252   */\n      0x00\n        /* \"#utility.yul\":30270:30337   */\n      tag_590\n        /* \"#utility.yul\":30334:30336   */\n      0x12\n        /* \"#utility.yul\":30329:30332   */\n      dup4\n        /* \"#utility.yul\":30270:30337   */\n      tag_237\n      jump\t// in\n    tag_590:\n        /* \"#utility.yul\":30263:30337   */\n      swap2\n      pop\n        /* \"#utility.yul\":30346:30439   */\n      tag_591\n        /* \"#utility.yul\":30435:30438   */\n      dup3\n        /* \"#utility.yul\":30346:30439   */\n      tag_299\n      jump\t// in\n    tag_591:\n        /* \"#utility.yul\":30464:30466   */\n      0x20\n        /* \"#utility.yul\":30459:30462   */\n      dup3\n        /* \"#utility.yul\":30455:30467   */\n      add\n        /* \"#utility.yul\":30448:30467   */\n      swap1\n      pop\n        /* \"#utility.yul\":30107:30473   */\n      swap2\n      swap1\n      pop\n      jump\t// out\n        /* \"#utility.yul\":30479:30898   */\n    tag_169:\n        /* \"#utility.yul\":30645:30649   */\n      0x00\n        /* \"#utility.yul\":30683:30685   */\n      0x20\n        /* \"#utility.yul\":30672:30681   */\n      dup3\n        /* \"#utility.yul\":30668:30686   */\n      add\n        /* \"#utility.yul\":30660:30686   */\n      swap1\n      pop\n        /* \"#utility.yul\":30732:30741   */\n      dup2\n        /* \"#utility.yul\":30726:30730   */\n      dup2\n        /* \"#utility.yul\":30722:30742   */\n      sub\n        /* \"#utility.yul\":30718:30719   */\n      0x00\n        /* \"#utility.yul\":30707:30716   */\n      dup4\n        /* \"#utility.yul\":30703:30720   */\n      add\n        /* \"#utility.yul\":30696:30743   */\n      mstore\n        /* \"#utility.yul\":30760:30891   */\n      tag_593\n        /* \"#utility.yul\":30886:30890   */\n      dup2\n        /* \"#utility.yul\":30760:30891   */\n      tag_300\n      jump\t// in\n    tag_593:\n        /* \"#utility.yul\":30752:30891   */\n      swap1\n      pop\n        /* \"#utility.yul\":30479:30898   */\n      swap2\n      swap1\n      pop\n      jump\t// out\n        /* \"#utility.yul\":30904:31078   */\n    tag_301:\n        /* \"#utility.yul\":31044:31070   */\n      0x4d65737361676520686173206265656e2064656c657465640000000000000000\n        /* \"#utility.yul\":31040:31041   */\n      0x00\n        /* \"#utility.yul\":31032:31038   */\n      dup3\n        /* \"#utility.yul\":31028:31042   */\n      add\n        /* \"#utility.yul\":31021:31071   */\n      mstore\n        /* \"#utility.yul\":30904:31078   */\n      pop\n      jump\t// out\n        /* \"#utility.yul\":31084:31450   */\n    tag_302:\n        /* \"#utility.yul\":31226:31229   */\n      0x00\n        /* \"#utility.yul\":31247:31314   */\n      tag_596\n        /* \"#utility.yul\":31311:31313   */\n      0x18\n        /* \"#utility.yul\":31306:31309   */\n      dup4\n        /* \"#utility.yul\":31247:31314   */\n      tag_237\n      jump\t// in\n    tag_596:\n        /* \"#utility.yul\":31240:31314   */\n      swap2\n      pop\n        /* \"#utility.yul\":31323:31416   */\n      tag_597\n        /* \"#utility.yul\":31412:31415   */\n      dup3\n        /* \"#utility.yul\":31323:31416   */\n      tag_301\n      jump\t// in\n    tag_597:\n        /* \"#utility.yul\":31441:31443   */\n      0x20\n        /* \"#utility.yul\":31436:31439   */\n      dup3\n        /* \"#utility.yul\":31432:31444   */\n      add\n        /* \"#utility.yul\":31425:31444   */\n      swap1\n      pop\n        /* \"#utility.yul\":31084:31450   */\n      swap2\n      swap1\n      pop\n      jump\t// out\n        /* \"#utility.yul\":31456:31875   */\n    tag_172:\n        /* \"#utility.yul\":31622:31626   */\n      0x00\n        /* \"#utility.yul\":31660:31662   */\n      0x20\n        /* \"#utility.yul\":31649:31658   */\n      dup3\n        /* \"#utility.yul\":31645:31663   */\n      add\n        /* \"#utility.yul\":31637:31663   */\n      swap1\n      pop\n        /* \"#utility.yul\":31709:31718   */\n      dup2\n        /* \"#utility.yul\":31703:31707   */\n      dup2\n        /* \"#utility.yul\":31699:31719   */\n      sub\n        /* \"#utility.yul\":31695:31696   */\n      0x00\n        /* \"#utility.yul\":31684:31693   */\n      dup4\n        /* \"#utility.yul\":31680:31697   */\n      add\n        /* \"#utility.yul\":31673:31720   */\n      mstore\n        /* \"#utility.yul\":31737:31868   */\n      tag_599\n        /* \"#utility.yul\":31863:31867   */\n      dup2\n        /* \"#utility.yul\":31737:31868   */\n      tag_302\n      jump\t// in\n    tag_599:\n        /* \"#utility.yul\":31729:31868   */\n      swap1\n      pop\n        /* \"#utility.yul\":31456:31875   */\n      swap2\n      swap1\n      pop\n      jump\t// out\n        /* \"#utility.yul\":31881:32104   */\n    tag_303:\n        /* \"#utility.yul\":32021:32055   */\n      0x4f6e6c79206d65737361676520617574686f722063616e207265717565737420\n        /* \"#utility.yul\":32017:32018   */\n      0x00\n        /* \"#utility.yul\":32009:32015   */\n      dup3\n        /* \"#utility.yul\":32005:32019   */\n      add\n        /* \"#utility.yul\":31998:32056   */\n      mstore\n        /* \"#utility.yul\":32090:32096   */\n      0x6564697400000000000000000000000000000000000000000000000000000000\n        /* \"#utility.yul\":32085:32087   */\n      0x20\n        /* \"#utility.yul\":32077:32083   */\n      dup3\n        /* \"#utility.yul\":32073:32088   */\n      add\n        /* \"#utility.yul\":32066:32097   */\n      mstore\n        /* \"#utility.yul\":31881:32104   */\n      pop\n      jump\t// out\n        /* \"#utility.yul\":32110:32476   */\n    tag_304:\n        /* \"#utility.yul\":32252:32255   */\n      0x00\n        /* \"#utility.yul\":32273:32340   */\n      tag_602\n        /* \"#utility.yul\":32337:32339   */\n      0x24\n        /* \"#utility.yul\":32332:32335   */\n      dup4\n        /* \"#utility.yul\":32273:32340   */\n      tag_237\n      jump\t// in\n    tag_602:\n        /* \"#utility.yul\":32266:32340   */\n      swap2\n      pop\n        /* \"#utility.yul\":32349:32442   */\n      tag_603\n        /* \"#utility.yul\":32438:32441   */\n      dup3\n        /* \"#utility.yul\":32349:32442   */\n      tag_303\n      jump\t// in\n    tag_603:\n        /* \"#utility.yul\":32467:32469   */\n      0x40\n        /* \"#utility.yul\":32462:32465   */\n      dup3\n        /* \"#utility.yul\":32458:32470   */\n      add\n        /* \"#utility.yul\":32451:32470   */\n      swap1\n      pop\n        /* \"#utility.yul\":32110:32476   */\n      swap2\n      swap1\n      pop\n      jump\t// out\n        /* \"#utility.yul\":32482:32901   */\n    tag_189:\n        /* \"#utility.yul\":32648:32652   */\n      0x00\n        /* \"#utility.yul\":32686:32688   */\n      0x20\n        /* \"#utility.yul\":32675:32684   */\n      dup3\n        /* \"#utility.yul\":32671:32689   */\n      add\n        /* \"#utility.yul\":32663:32689   */\n      swap1\n      pop\n        /* \"#utility.yul\":32735:32744   */\n      dup2\n        /* \"#utility.yul\":32729:32733   */\n      dup2\n        /* \"#utility.yul\":32725:32745   */\n      sub\n        /* \"#utility.yul\":32721:32722   */\n      0x00\n        /* \"#utility.yul\":32710:32719   */\n      dup4\n        /* \"#utility.yul\":32706:32723   */\n      add\n        /* \"#utility.yul\":32699:32746   */\n      mstore\n        /* \"#utility.yul\":32763:32894   */\n      tag_605\n        /* \"#utility.yul\":32889:32893   */\n      dup2\n        /* \"#utility.yul\":32763:32894   */\n      tag_304\n      jump\t// in\n    tag_605:\n        /* \"#utility.yul\":32755:32894   */\n      swap1\n      pop\n        /* \"#utility.yul\":32482:32901   */\n      swap2\n      swap1\n      pop\n      jump\t// out\n        /* \"#utility.yul\":32907:33084   */\n    tag_305:\n        /* \"#utility.yul\":33047:33076   */\n      0x4e657720636f6e74656e742063616e6e6f7420626520656d7074790000000000\n        /* \"#utility.yul\":33043:33044   */\n      0x00\n        /* \"#utility.yul\":33035:33041   */\n      dup3\n        /* \"#utility.yul\":33031:33045   */\n      add\n        /* \"#utility.yul\":33024:33077   */\n      mstore\n        /* \"#utility.yul\":32907:33084   */\n      pop\n      jump\t// out\n        /* \"#utility.yul\":33090:33456   */\n    tag_306:\n        /* \"#utility.yul\":33232:33235   */\n      0x00\n        /* \"#utility.yul\":33253:33320   */\n      tag_608\n        /* \"#utility.yul\":33317:33319   */\n      0x1b\n        /* \"#utility.yul\":33312:33315   */\n      dup4\n        /* \"#utility.yul\":33253:33320   */\n      tag_237\n      jump\t// in\n    tag_608:\n        /* \"#utility.yul\":33246:33320   */\n      swap2\n      pop\n        /* \"#utility.yul\":33329:33422   */\n      tag_609\n        /* \"#utility.yul\":33418:33421   */\n      dup3\n        /* \"#utility.yul\":33329:33422   */\n      tag_305\n      jump\t// in\n    tag_609:\n        /* \"#utility.yul\":33447:33449   */\n      0x20\n        /* \"#utility.yul\":33442:33445   */\n      dup3\n        /* \"#utility.yul\":33438:33450   */\n      add\n        /* \"#utility.yul\":33431:33450   */\n      swap1\n      pop\n        /* \"#utility.yul\":33090:33456   */\n      swap2\n      swap1\n      pop\n      jump\t// out\n        /* \"#utility.yul\":33462:33881   */\n    tag_192:\n        /* \"#utility.yul\":33628:33632   */\n      0x00\n        /* \"#utility.yul\":33666:33668   */\n      0x20\n        /* \"#utility.yul\":33655:33664   */\n      dup3\n        /* \"#utility.yul\":33651:33669   */\n      add\n        /* \"#utility.yul\":33643:33669   */\n      swap1\n      pop\n        /* \"#utility.yul\":33715:33724   */\n      dup2\n        /* \"#utility.yul\":33709:33713   */\n      dup2\n        /* \"#utility.yul\":33705:33725   */\n      sub\n        /* \"#utility.yul\":33701:33702   */\n      0x00\n        /* \"#utility.yul\":33690:33699   */\n      dup4\n        /* \"#utility.yul\":33686:33703   */\n      add\n        /* \"#utility.yul\":33679:33726   */\n      mstore\n        /* \"#utility.yul\":33743:33874   */\n      tag_611\n        /* \"#utility.yul\":33869:33873   */\n      dup2\n        /* \"#utility.yul\":33743:33874   */\n      tag_306\n      jump\t// in\n    tag_611:\n        /* \"#utility.yul\":33735:33874   */\n      swap1\n      pop\n        /* \"#utility.yul\":33462:33881   */\n      swap2\n      swap1\n      pop\n      jump\t// out\n        /* \"#utility.yul\":33887:34060   */\n    tag_307:\n        /* \"#utility.yul\":34027:34052   */\n      0x4d65737361676520616c72656164792064656c65746564000000000000000000\n        /* \"#utility.yul\":34023:34024   */\n      0x00\n        /* \"#utility.yul\":34015:34021   */\n      dup3\n        /* \"#utility.yul\":34011:34025   */\n      add\n        /* \"#utility.yul\":34004:34053   */\n      mstore\n        /* \"#utility.yul\":33887:34060   */\n      pop\n      jump\t// out\n        /* \"#utility.yul\":34066:34432   */\n    tag_308:\n        /* \"#utility.yul\":34208:34211   */\n      0x00\n        /* \"#utility.yul\":34229:34296   */\n      tag_614\n        /* \"#utility.yul\":34293:34295   */\n      0x17\n        /* \"#utility.yul\":34288:34291   */\n      dup4\n        /* \"#utility.yul\":34229:34296   */\n      tag_237\n      jump\t// in\n    tag_614:\n        /* \"#utility.yul\":34222:34296   */\n      swap2\n      pop\n        /* \"#utility.yul\":34305:34398   */\n      tag_615\n        /* \"#utility.yul\":34394:34397   */\n      dup3\n        /* \"#utility.yul\":34305:34398   */\n      tag_307\n      jump\t// in\n    tag_615:\n        /* \"#utility.yul\":34423:34425   */\n      0x20\n        /* \"#utility.yul\":34418:34421   */\n      dup3\n        /* \"#utility.yul\":34414:34426   */\n      add\n        /* \"#utility.yul\":34407:34426   */\n      swap1\n      pop\n        /* \"#utility.yul\":34066:34432   */\n      swap2\n      swap1\n      pop\n      jump\t// out\n        /* \"#utility.yul\":34438:34857   */\n    tag_205:\n        /* \"#utility.yul\":34604:34608   */\n      0x00\n        /* \"#utility.yul\":34642:34644   */\n      0x20\n        /* \"#utility.yul\":34631:34640   */\n      dup3\n        /* \"#utility.yul\":34627:34645   */\n      add\n        /* \"#utility.yul\":34619:34645   */\n      swap1\n      pop\n        /* \"#utility.yul\":34691:34700   */\n      dup2\n        /* \"#utility.yul\":34685:34689   */\n      dup2\n        /* \"#utility.yul\":34681:34701   */\n      sub\n        /* \"#utility.yul\":34677:34678   */\n      0x00\n        /* \"#utility.yul\":34666:34675   */\n      dup4\n        /* \"#utility.yul\":34662:34679   */\n      add\n        /* \"#utility.yul\":34655:34702   */\n      mstore\n        /* \"#utility.yul\":34719:34850   */\n      tag_617\n        /* \"#utility.yul\":34845:34849   */\n      dup2\n        /* \"#utility.yul\":34719:34850   */\n      tag_308\n      jump\t// in\n    tag_617:\n        /* \"#utility.yul\":34711:34850   */\n      swap1\n      pop\n        /* \"#utility.yul\":34438:34857   */\n      swap2\n      swap1\n      pop\n      jump\t// out\n        /* \"#utility.yul\":34863:35044   */\n    tag_309:\n        /* \"#utility.yul\":35003:35036   */\n      0x5265656e7472616e637947756172643a207265656e7472616e742063616c6c00\n        /* \"#utility.yul\":34999:35000   */\n      0x00\n        /* \"#utility.yul\":34991:34997   */\n      dup3\n        /* \"#utility.yul\":34987:35001   */\n      add\n        /* \"#utility.yul\":34980:35037   */\n      mstore\n        /* \"#utility.yul\":34863:35044   */\n      pop\n      jump\t// out\n        /* \"#utility.yul\":35050:35416   */\n    tag_310:\n        /* \"#utility.yul\":35192:35195   */\n      0x00\n        /* \"#utility.yul\":35213:35280   */\n      tag_620\n        /* \"#utility.yul\":35277:35279   */\n      0x1f\n        /* \"#utility.yul\":35272:35275   */\n      dup4\n        /* \"#utility.yul\":35213:35280   */\n      tag_237\n      jump\t// in\n    tag_620:\n        /* \"#utility.yul\":35206:35280   */\n      swap2\n      pop\n        /* \"#utility.yul\":35289:35382   */\n      tag_621\n        /* \"#utility.yul\":35378:35381   */\n      dup3\n        /* \"#utility.yul\":35289:35382   */\n      tag_309\n      jump\t// in\n    tag_621:\n        /* \"#utility.yul\":35407:35409   */\n      0x20\n        /* \"#utility.yul\":35402:35405   */\n      dup3\n        /* \"#utility.yul\":35398:35410   */\n      add\n        /* \"#utility.yul\":35391:35410   */\n      swap1\n      pop\n        /* \"#utility.yul\":35050:35416   */\n      swap2\n      swap1\n      pop\n      jump\t// out\n        /* \"#utility.yul\":35422:35841   */\n    tag_215:\n        /* \"#utility.yul\":35588:35592   */\n      0x00\n        /* \"#utility.yul\":35626:35628   */\n      0x20\n        /* \"#utility.yul\":35615:35624   */\n      dup3\n        /* \"#utility.yul\":35611:35629   */\n      add\n        /* \"#utility.yul\":35603:35629   */\n      swap1\n      pop\n        /* \"#utility.yul\":35675:35684   */\n      dup2\n        /* \"#utility.yul\":35669:35673   */\n      dup2\n        /* \"#utility.yul\":35665:35685   */\n      sub\n        /* \"#utility.yul\":35661:35662   */\n      0x00\n        /* \"#utility.yul\":35650:35659   */\n      dup4\n        /* \"#utility.yul\":35646:35663   */\n      add\n        /* \"#utility.yul\":35639:35686   */\n      mstore\n        /* \"#utility.yul\":35703:35834   */\n      tag_623\n        /* \"#utility.yul\":35829:35833   */\n      dup2\n        /* \"#utility.yul\":35703:35834   */\n      tag_310\n      jump\t// in\n    tag_623:\n        /* \"#utility.yul\":35695:35834   */\n      swap1\n      pop\n        /* \"#utility.yul\":35422:35841   */\n      swap2\n      swap1\n      pop\n      jump\t// out\n\n    auxdata: 0xa2646970667358221220875d94ba5700bcaaba45ef78289c5ea7560137893a156ce790372b8acd7d7e4b64736f6c634300081e0033\n}\n",
				"bytecode": {
					"linkReferences": {},
					"object": "608060405234801561000f575f5ffd5b50335f73ffffffffffffffffffffffffffffffffffffffff168173ffffffffffffffffffffffffffffffffffffffff1603610081575f6040517f1e4fbdf7000000000000000000000000000000000000000000000000000000008152600401610078919061019d565b60405180910390fd5b6100908161009d60201b60201c565b50600180819055506101b6565b5f5f5f9054906101000a900473ffffffffffffffffffffffffffffffffffffffff169050815f5f6101000a81548173ffffffffffffffffffffffffffffffffffffffff021916908373ffffffffffffffffffffffffffffffffffffffff1602179055508173ffffffffffffffffffffffffffffffffffffffff168173ffffffffffffffffffffffffffffffffffffffff167f8be0079c531659141344cd1fd0a4f28419497f9722a3daafe3b4186f6b6457e060405160405180910390a35050565b5f73ffffffffffffffffffffffffffffffffffffffff82169050919050565b5f6101878261015e565b9050919050565b6101978161017d565b82525050565b5f6020820190506101b05f83018461018e565b92915050565b612566806101c35f395ff3fe608060405234801561000f575f5ffd5b50600436106100e8575f3560e01c806377175fac1161008a5780638da5cb5b116100645780638da5cb5b14610251578063a8c69fd81461026f578063b888690a1461028b578063f2fde38b146102a7576100e8565b806377175fac146101d257806383c3cca71461020557806386f79edb14610221576100e8565b806344a56dd9116100c657806344a56dd91461015c57806353f5e3801461017a5780636630f88f14610198578063715018a6146101c8576100e8565b80630d80fefd146100ec5780633bdae52f146101205780633dbcc8d11461013e575b5f5ffd5b6101066004803603810190610101919061149e565b6102c3565b6040516101179594939291906115a1565b60405180910390f35b6101286103a6565b60405161013591906115f9565b60405180910390f35b6101466103ac565b60405161015391906115f9565b60405180910390f35b6101646103b2565b60405161017191906117a2565b60405180910390f35b6101826105b5565b60405161018f91906118f0565b60405180910390f35b6101b260048036038101906101ad9190611a3c565b6107c2565b6040516101bf91906115f9565b60405180910390f35b6101d061096c565b005b6101ec60048036038101906101e7919061149e565b61097f565b6040516101fc9493929190611a83565b60405180910390f35b61021f600480360381019061021a919061149e565b610a5c565b005b61023b6004803603810190610236919061149e565b610ba4565b6040516102489190611b40565b60405180910390f35b610259610d92565b6040516102669190611b60565b60405180910390f35b61028960048036038101906102849190611b79565b610db9565b005b6102a560048036038101906102a0919061149e565b61109a565b005b6102c160048036038101906102bc9190611bfd565b6111af565b005b6002602052805f5260405f205f91509050805f015490806001015f9054906101000a900473ffffffffffffffffffffffffffffffffffffffff169080600201805461030d90611c55565b80601f016020809104026020016040519081016040528092919081815260200182805461033990611c55565b80156103845780601f1061035b57610100808354040283529160200191610384565b820191905f5260205f20905b81548152906001019060200180831161036757829003601f168201915b505050505090806003015490806004015f9054906101000a900460ff16905085565b60055481565b60045481565b60605f60055467ffffffffffffffff8111156103d1576103d0611918565b5b60405190808252806020026020018201604052801561040a57816020015b6103f76113da565b8152602001906001900390816103ef5790505b5090505f5f90505f600190505b60055481116105a95760035f8281526020019081526020015f206003015f9054906101000a900460ff166105965760035f8281526020019081526020015f206040518060800160405290815f8201548152602001600182015f9054906101000a900473ffffffffffffffffffffffffffffffffffffffff1673ffffffffffffffffffffffffffffffffffffffff1673ffffffffffffffffffffffffffffffffffffffff1681526020016002820180546104cf90611c55565b80601f01602080910402602001604051908101604052809291908181526020018280546104fb90611c55565b80156105465780601f1061051d57610100808354040283529160200191610546565b820191905f5260205f20905b81548152906001019060200180831161052957829003601f168201915b50505050508152602001600382015f9054906101000a900460ff16151515158152505083838151811061057c5761057b611c85565b5b6020026020010181905250818061059290611cdf565b9250505b80806105a190611cdf565b915050610417565b50808252819250505090565b60605f60045467ffffffffffffffff8111156105d4576105d3611918565b5b60405190808252806020026020018201604052801561060d57816020015b6105fa611417565b8152602001906001900390816105f25790505b5090505f5f90505f600190505b60045481116107b65760025f8281526020019081526020015f206004015f9054906101000a900460ff166107a35760025f8281526020019081526020015f206040518060a00160405290815f8201548152602001600182015f9054906101000a900473ffffffffffffffffffffffffffffffffffffffff1673ffffffffffffffffffffffffffffffffffffffff1673ffffffffffffffffffffffffffffffffffffffff1681526020016002820180546106d290611c55565b80601f01602080910402602001604051908101604052809291908181526020018280546106fe90611c55565b80156107495780601f1061072057610100808354040283529160200191610749565b820191905f5260205f20905b81548152906001019060200180831161072c57829003601f168201915b5050505050815260200160038201548152602001600482015f9054906101000a900460ff16151515158152505083838151811061078957610788611c85565b5b6020026020010181905250818061079f90611cdf565b9250505b80806107ae90611cdf565b91505061061a565b50808252819250505090565b5f6107cb611233565b5f82511161080e576040517f08c379a000000000000000000000000000000000000000000000000000000000815260040161080590611d70565b60405180910390fd5b60045f81548092919061082090611cdf565b91905055506040518060a0016040528060045481526020013373ffffffffffffffffffffffffffffffffffffffff1681526020018381526020014281526020015f151581525060025f60045481526020019081526020015f205f820151815f01556020820151816001015f6101000a81548173ffffffffffffffffffffffffffffffffffffffff021916908373ffffffffffffffffffffffffffffffffffffffff16021790555060408201518160020190816108dc9190611f2e565b50606082015181600301556080820151816004015f6101000a81548160ff0219169083151502179055509050503373ffffffffffffffffffffffffffffffffffffffff166004547f16effde6b8c5f78279aca5974057ff6b6fd8c9ab5e96994c7f1b62cbfcbbd78b846040516109529190611ffd565b60405180910390a36004549050610967611282565b919050565b61097461128b565b61097d5f611312565b565b6003602052805f5260405f205f91509050805f015490806001015f9054906101000a900473ffffffffffffffffffffffffffffffffffffffff16908060020180546109c990611c55565b80601f01602080910402602001604051908101604052809291908181526020018280546109f590611c55565b8015610a405780601f10610a1757610100808354040283529160200191610a40565b820191905f5260205f20905b815481529060010190602001808311610a2357829003601f168201915b505050505090806003015f9054906101000a900460ff16905084565b610a6461128b565b5f81118015610a7557506005548111155b610ab4576040517f08c379a0000000000000000000000000000000000000000000000000000000008152600401610aab90612067565b60405180910390fd5b5f60035f8381526020019081526020015f209050806003015f9054906101000a900460ff1615610b19576040517f08c379a0000000000000000000000000000000000000000000000000000000008152600401610b10906120cf565b60405180910390fd5b5f60025f835f015481526020019081526020015f20905081600201816002019081610b449190612114565b506001826003015f6101000a81548160ff021916908315150217905550815f01547fc044182a0ac1fcdfa543f1c6ff27940f1a5b4221b8232e11b492d48953bc9c4383600201604051610b97919061227a565b60405180910390a2505050565b610bac611417565b5f82118015610bbd57506004548211155b610bfc576040517f08c379a0000000000000000000000000000000000000000000000000000000008152600401610bf3906122e4565b60405180910390fd5b60025f8381526020019081526020015f206004015f9054906101000a900460ff1615610c5d576040517f08c379a0000000000000000000000000000000000000000000000000000000008152600401610c549061234c565b60405180910390fd5b60025f8381526020019081526020015f206040518060a00160405290815f8201548152602001600182015f9054906101000a900473ffffffffffffffffffffffffffffffffffffffff1673ffffffffffffffffffffffffffffffffffffffff1673ffffffffffffffffffffffffffffffffffffffff168152602001600282018054610ce790611c55565b80601f0160208091040260200160405190810160405280929190818152602001828054610d1390611c55565b8015610d5e5780601f10610d3557610100808354040283529160200191610d5e565b820191905f5260205f20905b815481529060010190602001808311610d4157829003601f168201915b5050505050815260200160038201548152602001600482015f9054906101000a900460ff1615151515815250509050919050565b5f5f5f9054906101000a900473ffffffffffffffffffffffffffffffffffffffff16905090565b610dc1611233565b5f82118015610dd257506004548211155b610e11576040517f08c379a0000000000000000000000000000000000000000000000000000000008152600401610e08906122e4565b60405180910390fd5b60025f8381526020019081526020015f206004015f9054906101000a900460ff1615610e72576040517f08c379a0000000000000000000000000000000000000000000000000000000008152600401610e699061234c565b60405180910390fd5b3373ffffffffffffffffffffffffffffffffffffffff1660025f8481526020019081526020015f206001015f9054906101000a900473ffffffffffffffffffffffffffffffffffffffff1673ffffffffffffffffffffffffffffffffffffffff1614610f13576040517f08c379a0000000000000000000000000000000000000000000000000000000008152600401610f0a906123da565b60405180910390fd5b5f815111610f56576040517f08c379a0000000000000000000000000000000000000000000000000000000008152600401610f4d90612442565b60405180910390fd5b60055f815480929190610f6890611cdf565b919050555060405180608001604052808381526020013373ffffffffffffffffffffffffffffffffffffffff1681526020018281526020015f151581525060035f60055481526020019081526020015f205f820151815f01556020820151816001015f6101000a81548173ffffffffffffffffffffffffffffffffffffffff021916908373ffffffffffffffffffffffffffffffffffffffff160217905550604082015181600201908161101c9190611f2e565b506060820151816003015f6101000a81548160ff0219169083151502179055509050503373ffffffffffffffffffffffffffffffffffffffff16827f65a5dfdcca99d0a97bd4a95e21c4af5e64327ba9493215cccbfd0b87ca2ba362836040516110869190611ffd565b60405180910390a3611096611282565b5050565b6110a261128b565b5f811180156110b357506004548111155b6110f2576040517f08c379a00000000000000000000000000000000000000000000000000000000081526004016110e9906122e4565b60405180910390fd5b60025f8281526020019081526020015f206004015f9054906101000a900460ff1615611153576040517f08c379a000000000000000000000000000000000000000000000000000000000815260040161114a906124aa565b60405180910390fd5b600160025f8381526020019081526020015f206004015f6101000a81548160ff021916908315150217905550807f6279be045e4d4d5a0eba7b1f0e578322b6dd7c01e92f0991700a02180904654b60405160405180910390a250565b6111b761128b565b5f73ffffffffffffffffffffffffffffffffffffffff168173ffffffffffffffffffffffffffffffffffffffff1603611227575f6040517f1e4fbdf700000000000000000000000000000000000000000000000000000000815260040161121e9190611b60565b60405180910390fd5b61123081611312565b50565b600260015403611278576040517f08c379a000000000000000000000000000000000000000000000000000000000815260040161126f90612512565b60405180910390fd5b6002600181905550565b60018081905550565b6112936113d3565b73ffffffffffffffffffffffffffffffffffffffff166112b1610d92565b73ffffffffffffffffffffffffffffffffffffffff1614611310576112d46113d3565b6040517f118cdaa70000000000000000000000000000000000000000000000000000000081526004016113079190611b60565b60405180910390fd5b565b5f5f5f9054906101000a900473ffffffffffffffffffffffffffffffffffffffff169050815f5f6101000a81548173ffffffffffffffffffffffffffffffffffffffff021916908373ffffffffffffffffffffffffffffffffffffffff1602179055508173ffffffffffffffffffffffffffffffffffffffff168173ffffffffffffffffffffffffffffffffffffffff167f8be0079c531659141344cd1fd0a4f28419497f9722a3daafe3b4186f6b6457e060405160405180910390a35050565b5f33905090565b60405180608001604052805f81526020015f73ffffffffffffffffffffffffffffffffffffffff168152602001606081526020015f151581525090565b6040518060a001604052805f81526020015f73ffffffffffffffffffffffffffffffffffffffff168152602001606081526020015f81526020015f151581525090565b5f604051905090565b5f5ffd5b5f5ffd5b5f819050919050565b61147d8161146b565b8114611487575f5ffd5b50565b5f8135905061149881611474565b92915050565b5f602082840312156114b3576114b2611463565b5b5f6114c08482850161148a565b91505092915050565b6114d28161146b565b82525050565b5f73ffffffffffffffffffffffffffffffffffffffff82169050919050565b5f611501826114d8565b9050919050565b611511816114f7565b82525050565b5f81519050919050565b5f82825260208201905092915050565b8281835e5f83830152505050565b5f601f19601f8301169050919050565b5f61155982611517565b6115638185611521565b9350611573818560208601611531565b61157c8161153f565b840191505092915050565b5f8115159050919050565b61159b81611587565b82525050565b5f60a0820190506115b45f8301886114c9565b6115c16020830187611508565b81810360408301526115d3818661154f565b90506115e260608301856114c9565b6115ef6080830184611592565b9695505050505050565b5f60208201905061160c5f8301846114c9565b92915050565b5f81519050919050565b5f82825260208201905092915050565b5f819050602082019050919050565b6116448161146b565b82525050565b611653816114f7565b82525050565b5f82825260208201905092915050565b5f61167382611517565b61167d8185611659565b935061168d818560208601611531565b6116968161153f565b840191505092915050565b6116aa81611587565b82525050565b5f608083015f8301516116c55f86018261163b565b5060208301516116d8602086018261164a565b50604083015184820360408601526116f08282611669565b915050606083015161170560608601826116a1565b508091505092915050565b5f61171b83836116b0565b905092915050565b5f602082019050919050565b5f61173982611612565b611743818561161c565b9350836020820285016117558561162c565b805f5b8581101561179057848403895281516117718582611710565b945061177c83611723565b925060208a01995050600181019050611758565b50829750879550505050505092915050565b5f6020820190508181035f8301526117ba818461172f565b905092915050565b5f81519050919050565b5f82825260208201905092915050565b5f819050602082019050919050565b5f60a083015f8301516118005f86018261163b565b506020830151611813602086018261164a565b506040830151848203604086015261182b8282611669565b9150506060830151611840606086018261163b565b50608083015161185360808601826116a1565b508091505092915050565b5f61186983836117eb565b905092915050565b5f602082019050919050565b5f611887826117c2565b61189181856117cc565b9350836020820285016118a3856117dc565b805f5b858110156118de57848403895281516118bf858261185e565b94506118ca83611871565b925060208a019950506001810190506118a6565b50829750879550505050505092915050565b5f6020820190508181035f830152611908818461187d565b905092915050565b5f5ffd5b5f5ffd5b7f4e487b71000000000000000000000000000000000000000000000000000000005f52604160045260245ffd5b61194e8261153f565b810181811067ffffffffffffffff8211171561196d5761196c611918565b5b80604052505050565b5f61197f61145a565b905061198b8282611945565b919050565b5f67ffffffffffffffff8211156119aa576119a9611918565b5b6119b38261153f565b9050602081019050919050565b828183375f83830152505050565b5f6119e06119db84611990565b611976565b9050828152602081018484840111156119fc576119fb611914565b5b611a078482856119c0565b509392505050565b5f82601f830112611a2357611a22611910565b5b8135611a338482602086016119ce565b91505092915050565b5f60208284031215611a5157611a50611463565b5b5f82013567ffffffffffffffff811115611a6e57611a6d611467565b5b611a7a84828501611a0f565b91505092915050565b5f608082019050611a965f8301876114c9565b611aa36020830186611508565b8181036040830152611ab5818561154f565b9050611ac46060830184611592565b95945050505050565b5f60a083015f830151611ae25f86018261163b565b506020830151611af5602086018261164a565b5060408301518482036040860152611b0d8282611669565b9150506060830151611b22606086018261163b565b506080830151611b3560808601826116a1565b508091505092915050565b5f6020820190508181035f830152611b588184611acd565b905092915050565b5f602082019050611b735f830184611508565b92915050565b5f5f60408385031215611b8f57611b8e611463565b5b5f611b9c8582860161148a565b925050602083013567ffffffffffffffff811115611bbd57611bbc611467565b5b611bc985828601611a0f565b9150509250929050565b611bdc816114f7565b8114611be6575f5ffd5b50565b5f81359050611bf781611bd3565b92915050565b5f60208284031215611c1257611c11611463565b5b5f611c1f84828501611be9565b91505092915050565b7f4e487b71000000000000000000000000000000000000000000000000000000005f52602260045260245ffd5b5f6002820490506001821680611c6c57607f821691505b602082108103611c7f57611c7e611c28565b5b50919050565b7f4e487b71000000000000000000000000000000000000000000000000000000005f52603260045260245ffd5b7f4e487b71000000000000000000000000000000000000000000000000000000005f52601160045260245ffd5b5f611ce98261146b565b91507fffffffffffffffffffffffffffffffffffffffffffffffffffffffffffffffff8203611d1b57611d1a611cb2565b5b600182019050919050565b7f4d6573736167652063616e6e6f7420626520656d7074790000000000000000005f82015250565b5f611d5a601783611521565b9150611d6582611d26565b602082019050919050565b5f6020820190508181035f830152611d8781611d4e565b9050919050565b5f819050815f5260205f209050919050565b5f6020601f8301049050919050565b5f82821b905092915050565b5f60088302611dea7fffffffffffffffffffffffffffffffffffffffffffffffffffffffffffffffff82611daf565b611df48683611daf565b95508019841693508086168417925050509392505050565b5f819050919050565b5f611e2f611e2a611e258461146b565b611e0c565b61146b565b9050919050565b5f819050919050565b611e4883611e15565b611e5c611e5482611e36565b848454611dbb565b825550505050565b5f5f905090565b611e73611e64565b611e7e818484611e3f565b505050565b5b81811015611ea157611e965f82611e6b565b600181019050611e84565b5050565b601f821115611ee657611eb781611d8e565b611ec084611da0565b81016020851015611ecf578190505b611ee3611edb85611da0565b830182611e83565b50505b505050565b5f82821c905092915050565b5f611f065f1984600802611eeb565b1980831691505092915050565b5f611f1e8383611ef7565b9150826002028217905092915050565b611f3782611517565b67ffffffffffffffff811115611f5057611f4f611918565b5b611f5a8254611c55565b611f65828285611ea5565b5f60209050601f831160018114611f96575f8415611f84578287015190505b611f8e8582611f13565b865550611ff5565b601f198416611fa486611d8e565b5f5b82811015611fcb57848901518255600182019150602085019450602081019050611fa6565b86831015611fe85784890151611fe4601f891682611ef7565b8355505b6001600288020188555050505b505050505050565b5f6020820190508181035f830152612015818461154f565b905092915050565b7f496e76616c6964206564697420726571756573742049440000000000000000005f82015250565b5f612051601783611521565b915061205c8261201d565b602082019050919050565b5f6020820190508181035f83015261207e81612045565b9050919050565b7f45646974207265717565737420616c726561647920617070726f7665640000005f82015250565b5f6120b9601d83611521565b91506120c482612085565b602082019050919050565b5f6020820190508181035f8301526120e6816120ad565b9050919050565b5f815490506120fb81611c55565b9050919050565b5f819050815f5260205f209050919050565b8181036121225750506121f7565b61212b826120ed565b67ffffffffffffffff81111561214457612143611918565b5b61214e8254611c55565b612159828285611ea5565b5f601f831160018114612186575f8415612174578287015490505b61217e8582611f13565b8655506121f0565b601f19841661219487612102565b965061219f86611d8e565b5f5b828110156121c6578489015482556001820191506001850194506020810190506121a1565b868310156121e357848901546121df601f891682611ef7565b8355505b6001600288020188555050505b5050505050505b565b5f815461220581611c55565b61220f8186611521565b9450600182165f8114612229576001811461223f57612271565b60ff198316865281151560200286019350612271565b61224885611d8e565b5f5b838110156122695781548189015260018201915060208101905061224a565b808801955050505b50505092915050565b5f6020820190508181035f83015261229281846121f9565b905092915050565b7f496e76616c6964206d65737361676520494400000000000000000000000000005f82015250565b5f6122ce601283611521565b91506122d98261229a565b602082019050919050565b5f6020820190508181035f8301526122fb816122c2565b9050919050565b7f4d65737361676520686173206265656e2064656c6574656400000000000000005f82015250565b5f612336601883611521565b915061234182612302565b602082019050919050565b5f6020820190508181035f8301526123638161232a565b9050919050565b7f4f6e6c79206d65737361676520617574686f722063616e2072657175657374205f8201527f6564697400000000000000000000000000000000000000000000000000000000602082015250565b5f6123c4602483611521565b91506123cf8261236a565b604082019050919050565b5f6020820190508181035f8301526123f1816123b8565b9050919050565b7f4e657720636f6e74656e742063616e6e6f7420626520656d70747900000000005f82015250565b5f61242c601b83611521565b9150612437826123f8565b602082019050919050565b5f6020820190508181035f83015261245981612420565b9050919050565b7f4d65737361676520616c72656164792064656c657465640000000000000000005f82015250565b5f612494601783611521565b915061249f82612460565b602082019050919050565b5f6020820190508181035f8301526124c181612488565b9050919050565b7f5265656e7472616e637947756172643a207265656e7472616e742063616c6c005f82015250565b5f6124fc601f83611521565b9150612507826124c8565b602082019050919050565b5f6020820190508181035f830152612529816124f0565b905091905056fea2646970667358221220875d94ba5700bcaaba45ef78289c5ea7560137893a156ce790372b8acd7d7e4b64736f6c634300081e0033",
					"opcodes": "PUSH1 0x80 PUSH1 0x40 MSTORE CALLVALUE DUP1 ISZERO PUSH2 0xF JUMPI PUSH0 PUSH0 REVERT JUMPDEST POP CALLER PUSH0 PUSH20 0xFFFFFFFFFFFFFFFFFFFFFFFFFFFFFFFFFFFFFFFF AND DUP2 PUSH20 0xFFFFFFFFFFFFFFFFFFFFFFFFFFFFFFFFFFFFFFFF AND SUB PUSH2 0x81 JUMPI PUSH0 PUSH1 0x40 MLOAD PUSH32 0x1E4FBDF700000000000000000000000000000000000000000000000000000000 DUP2 MSTORE PUSH1 0x4 ADD PUSH2 0x78 SWAP2 SWAP1 PUSH2 0x19D JUMP JUMPDEST PUSH1 0x40 MLOAD DUP1 SWAP2 SUB SWAP1 REVERT JUMPDEST PUSH2 0x90 DUP2 PUSH2 0x9D PUSH1 0x20 SHL PUSH1 0x20 SHR JUMP JUMPDEST POP PUSH1 0x1 DUP1 DUP2 SWAP1 SSTORE POP PUSH2 0x1B6 JUMP JUMPDEST PUSH0 PUSH0 PUSH0 SWAP1 SLOAD SWAP1 PUSH2 0x100 EXP SWAP1 DIV PUSH20 0xFFFFFFFFFFFFFFFFFFFFFFFFFFFFFFFFFFFFFFFF AND SWAP1 POP DUP2 PUSH0 PUSH0 PUSH2 0x100 EXP DUP2 SLOAD DUP2 PUSH20 0xFFFFFFFFFFFFFFFFFFFFFFFFFFFFFFFFFFFFFFFF MUL NOT AND SWAP1 DUP4 PUSH20 0xFFFFFFFFFFFFFFFFFFFFFFFFFFFFFFFFFFFFFFFF AND MUL OR SWAP1 SSTORE POP DUP2 PUSH20 0xFFFFFFFFFFFFFFFFFFFFFFFFFFFFFFFFFFFFFFFF AND DUP2 PUSH20 0xFFFFFFFFFFFFFFFFFFFFFFFFFFFFFFFFFFFFFFFF AND PUSH32 0x8BE0079C531659141344CD1FD0A4F28419497F9722A3DAAFE3B4186F6B6457E0 PUSH1 0x40 MLOAD PUSH1 0x40 MLOAD DUP1 SWAP2 SUB SWAP1 LOG3 POP POP JUMP JUMPDEST PUSH0 PUSH20 0xFFFFFFFFFFFFFFFFFFFFFFFFFFFFFFFFFFFFFFFF DUP3 AND SWAP1 POP SWAP2 SWAP1 POP JUMP JUMPDEST PUSH0 PUSH2 0x187 DUP3 PUSH2 0x15E JUMP JUMPDEST SWAP1 POP SWAP2 SWAP1 POP JUMP JUMPDEST PUSH2 0x197 DUP2 PUSH2 0x17D JUMP JUMPDEST DUP3 MSTORE POP POP JUMP JUMPDEST PUSH0 PUSH1 0x20 DUP3 ADD SWAP1 POP PUSH2 0x1B0 PUSH0 DUP4 ADD DUP5 PUSH2 0x18E JUMP JUMPDEST SWAP3 SWAP2 POP POP JUMP JUMPDEST PUSH2 0x2566 DUP1 PUSH2 0x1C3 PUSH0 CODECOPY PUSH0 RETURN INVALID PUSH1 0x80 PUSH1 0x40 MSTORE CALLVALUE DUP1 ISZERO PUSH2 0xF JUMPI PUSH0 PUSH0 REVERT JUMPDEST POP PUSH1 0x4 CALLDATASIZE LT PUSH2 0xE8 JUMPI PUSH0 CALLDATALOAD PUSH1 0xE0 SHR DUP1 PUSH4 0x77175FAC GT PUSH2 0x8A JUMPI DUP1 PUSH4 0x8DA5CB5B GT PUSH2 0x64 JUMPI DUP1 PUSH4 0x8DA5CB5B EQ PUSH2 0x251 JUMPI DUP1 PUSH4 0xA8C69FD8 EQ PUSH2 0x26F JUMPI DUP1 PUSH4 0xB888690A EQ PUSH2 0x28B JUMPI DUP1 PUSH4 0xF2FDE38B EQ PUSH2 0x2A7 JUMPI PUSH2 0xE8 JUMP JUMPDEST DUP1 PUSH4 0x77175FAC EQ PUSH2 0x1D2 JUMPI DUP1 PUSH4 0x83C3CCA7 EQ PUSH2 0x205 JUMPI DUP1 PUSH4 0x86F79EDB EQ PUSH2 0x221 JUMPI PUSH2 0xE8 JUMP JUMPDEST DUP1 PUSH4 0x44A56DD9 GT PUSH2 0xC6 JUMPI DUP1 PUSH4 0x44A56DD9 EQ PUSH2 0x15C JUMPI DUP1 PUSH4 0x53F5E380 EQ PUSH2 0x17A JUMPI DUP1 PUSH4 0x6630F88F EQ PUSH2 0x198 JUMPI DUP1 PUSH4 0x715018A6 EQ PUSH2 0x1C8 JUMPI PUSH2 0xE8 JUMP JUMPDEST DUP1 PUSH4 0xD80FEFD EQ PUSH2 0xEC JUMPI DUP1 PUSH4 0x3BDAE52F EQ PUSH2 0x120 JUMPI DUP1 PUSH4 0x3DBCC8D1 EQ PUSH2 0x13E JUMPI JUMPDEST PUSH0 PUSH0 REVERT JUMPDEST PUSH2 0x106 PUSH1 0x4 DUP1 CALLDATASIZE SUB DUP2 ADD SWAP1 PUSH2 0x101 SWAP2 SWAP1 PUSH2 0x149E JUMP JUMPDEST PUSH2 0x2C3 JUMP JUMPDEST PUSH1 0x40 MLOAD PUSH2 0x117 SWAP6 SWAP5 SWAP4 SWAP3 SWAP2 SWAP1 PUSH2 0x15A1 JUMP JUMPDEST PUSH1 0x40 MLOAD DUP1 SWAP2 SUB SWAP1 RETURN JUMPDEST PUSH2 0x128 PUSH2 0x3A6 JUMP JUMPDEST PUSH1 0x40 MLOAD PUSH2 0x135 SWAP2 SWAP1 PUSH2 0x15F9 JUMP JUMPDEST PUSH1 0x40 MLOAD DUP1 SWAP2 SUB SWAP1 RETURN JUMPDEST PUSH2 0x146 PUSH2 0x3AC JUMP JUMPDEST PUSH1 0x40 MLOAD PUSH2 0x153 SWAP2 SWAP1 PUSH2 0x15F9 JUMP JUMPDEST PUSH1 0x40 MLOAD DUP1 SWAP2 SUB SWAP1 RETURN JUMPDEST PUSH2 0x164 PUSH2 0x3B2 JUMP JUMPDEST PUSH1 0x40 MLOAD PUSH2 0x171 SWAP2 SWAP1 PUSH2 0x17A2 JUMP JUMPDEST PUSH1 0x40 MLOAD DUP1 SWAP2 SUB SWAP1 RETURN JUMPDEST PUSH2 0x182 PUSH2 0x5B5 JUMP JUMPDEST PUSH1 0x40 MLOAD PUSH2 0x18F SWAP2 SWAP1 PUSH2 0x18F0 JUMP JUMPDEST PUSH1 0x40 MLOAD DUP1 SWAP2 SUB SWAP1 RETURN JUMPDEST PUSH2 0x1B2 PUSH1 0x4 DUP1 CALLDATASIZE SUB DUP2 ADD SWAP1 PUSH2 0x1AD SWAP2 SWAP1 PUSH2 0x1A3C JUMP JUMPDEST PUSH2 0x7C2 JUMP JUMPDEST PUSH1 0x40 MLOAD PUSH2 0x1BF SWAP2 SWAP1 PUSH2 0x15F9 JUMP JUMPDEST PUSH1 0x40 MLOAD DUP1 SWAP2 SUB SWAP1 RETURN JUMPDEST PUSH2 0x1D0 PUSH2 0x96C JUMP JUMPDEST STOP JUMPDEST PUSH2 0x1EC PUSH1 0x4 DUP1 CALLDATASIZE SUB DUP2 ADD SWAP1 PUSH2 0x1E7 SWAP2 SWAP1 PUSH2 0x149E JUMP JUMPDEST PUSH2 0x97F JUMP JUMPDEST PUSH1 0x40 MLOAD PUSH2 0x1FC SWAP5 SWAP4 SWAP3 SWAP2 SWAP1 PUSH2 0x1A83 JUMP JUMPDEST PUSH1 0x40 MLOAD DUP1 SWAP2 SUB SWAP1 RETURN JUMPDEST PUSH2 0x21F PUSH1 0x4 DUP1 CALLDATASIZE SUB DUP2 ADD SWAP1 PUSH2 0x21A SWAP2 SWAP1 PUSH2 0x149E JUMP JUMPDEST PUSH2 0xA5C JUMP JUMPDEST STOP JUMPDEST PUSH2 0x23B PUSH1 0x4 DUP1 CALLDATASIZE SUB DUP2 ADD SWAP1 PUSH2 0x236 SWAP2 SWAP1 PUSH2 0x149E JUMP JUMPDEST PUSH2 0xBA4 JUMP JUMPDEST PUSH1 0x40 MLOAD PUSH2 0x248 SWAP2 SWAP1 PUSH2 0x1B40 JUMP JUMPDEST PUSH1 0x40 MLOAD DUP1 SWAP2 SUB SWAP1 RETURN JUMPDEST PUSH2 0x259 PUSH2 0xD92 JUMP JUMPDEST PUSH1 0x40 MLOAD PUSH2 0x266 SWAP2 SWAP1 PUSH2 0x1B60 JUMP JUMPDEST PUSH1 0x40 MLOAD DUP1 SWAP2 SUB SWAP1 RETURN JUMPDEST PUSH2 0x289 PUSH1 0x4 DUP1 CALLDATASIZE SUB DUP2 ADD SWAP1 PUSH2 0x284 SWAP2 SWAP1 PUSH2 0x1B79 JUMP JUMPDEST PUSH2 0xDB9 JUMP JUMPDEST STOP JUMPDEST PUSH2 0x2A5 PUSH1 0x4 DUP1 CALLDATASIZE SUB DUP2 ADD SWAP1 PUSH2 0x2A0 SWAP2 SWAP1 PUSH2 0x149E JUMP JUMPDEST PUSH2 0x109A JUMP JUMPDEST STOP JUMPDEST PUSH2 0x2C1 PUSH1 0x4 DUP1 CALLDATASIZE SUB DUP2 ADD SWAP1 PUSH2 0x2BC SWAP2 SWAP1 PUSH2 0x1BFD JUMP JUMPDEST PUSH2 0x11AF JUMP JUMPDEST STOP JUMPDEST PUSH1 0x2 PUSH1 0x20 MSTORE DUP1 PUSH0 MSTORE PUSH1 0x40 PUSH0 KECCAK256 PUSH0 SWAP2 POP SWAP1 POP DUP1 PUSH0 ADD SLOAD SWAP1 DUP1 PUSH1 0x1 ADD PUSH0 SWAP1 SLOAD SWAP1 PUSH2 0x100 EXP SWAP1 DIV PUSH20 0xFFFFFFFFFFFFFFFFFFFFFFFFFFFFFFFFFFFFFFFF AND SWAP1 DUP1 PUSH1 0x2 ADD DUP1 SLOAD PUSH2 0x30D SWAP1 PUSH2 0x1C55 JUMP JUMPDEST DUP1 PUSH1 0x1F ADD PUSH1 0x20 DUP1 SWAP2 DIV MUL PUSH1 0x20 ADD PUSH1 0x40 MLOAD SWAP1 DUP2 ADD PUSH1 0x40 MSTORE DUP1 SWAP3 SWAP2 SWAP1 DUP2 DUP2 MSTORE PUSH1 0x20 ADD DUP3 DUP1 SLOAD PUSH2 0x339 SWAP1 PUSH2 0x1C55 JUMP JUMPDEST DUP1 ISZERO PUSH2 0x384 JUMPI DUP1 PUSH1 0x1F LT PUSH2 0x35B JUMPI PUSH2 0x100 DUP1 DUP4 SLOAD DIV MUL DUP4 MSTORE SWAP2 PUSH1 0x20 ADD SWAP2 PUSH2 0x384 JUMP JUMPDEST DUP3 ADD SWAP2 SWAP1 PUSH0 MSTORE PUSH1 0x20 PUSH0 KECCAK256 SWAP1 JUMPDEST DUP2 SLOAD DUP2 MSTORE SWAP1 PUSH1 0x1 ADD SWAP1 PUSH1 0x20 ADD DUP1 DUP4 GT PUSH2 0x367 JUMPI DUP3 SWAP1 SUB PUSH1 0x1F AND DUP3 ADD SWAP2 JUMPDEST POP POP POP POP POP SWAP1 DUP1 PUSH1 0x3 ADD SLOAD SWAP1 DUP1 PUSH1 0x4 ADD PUSH0 SWAP1 SLOAD SWAP1 PUSH2 0x100 EXP SWAP1 DIV PUSH1 0xFF AND SWAP1 POP DUP6 JUMP JUMPDEST PUSH1 0x5 SLOAD DUP2 JUMP JUMPDEST PUSH1 0x4 SLOAD DUP2 JUMP JUMPDEST PUSH1 0x60 PUSH0 PUSH1 0x5 SLOAD PUSH8 0xFFFFFFFFFFFFFFFF DUP2 GT ISZERO PUSH2 0x3D1 JUMPI PUSH2 0x3D0 PUSH2 0x1918 JUMP JUMPDEST JUMPDEST PUSH1 0x40 MLOAD SWAP1 DUP1 DUP3 MSTORE DUP1 PUSH1 0x20 MUL PUSH1 0x20 ADD DUP3 ADD PUSH1 0x40 MSTORE DUP1 ISZERO PUSH2 0x40A JUMPI DUP2 PUSH1 0x20 ADD JUMPDEST PUSH2 0x3F7 PUSH2 0x13DA JUMP JUMPDEST DUP2 MSTORE PUSH1 0x20 ADD SWAP1 PUSH1 0x1 SWAP1 SUB SWAP1 DUP2 PUSH2 0x3EF JUMPI SWAP1 POP JUMPDEST POP SWAP1 POP PUSH0 PUSH0 SWAP1 POP PUSH0 PUSH1 0x1 SWAP1 POP JUMPDEST PUSH1 0x5 SLOAD DUP2 GT PUSH2 0x5A9 JUMPI PUSH1 0x3 PUSH0 DUP3 DUP2 MSTORE PUSH1 0x20 ADD SWAP1 DUP2 MSTORE PUSH1 0x20 ADD PUSH0 KECCAK256 PUSH1 0x3 ADD PUSH0 SWAP1 SLOAD SWAP1 PUSH2 0x100 EXP SWAP1 DIV PUSH1 0xFF AND PUSH2 0x596 JUMPI PUSH1 0x3 PUSH0 DUP3 DUP2 MSTORE PUSH1 0x20 ADD SWAP1 DUP2 MSTORE PUSH1 0x20 ADD PUSH0 KECCAK256 PUSH1 0x40 MLOAD DUP1 PUSH1 0x80 ADD PUSH1 0x40 MSTORE SWAP1 DUP2 PUSH0 DUP3 ADD SLOAD DUP2 MSTORE PUSH1 0x20 ADD PUSH1 0x1 DUP3 ADD PUSH0 SWAP1 SLOAD SWAP1 PUSH2 0x100 EXP SWAP1 DIV PUSH20 0xFFFFFFFFFFFFFFFFFFFFFFFFFFFFFFFFFFFFFFFF AND PUSH20 0xFFFFFFFFFFFFFFFFFFFFFFFFFFFFFFFFFFFFFFFF AND PUSH20 0xFFFFFFFFFFFFFFFFFFFFFFFFFFFFFFFFFFFFFFFF AND DUP2 MSTORE PUSH1 0x20 ADD PUSH1 0x2 DUP3 ADD DUP1 SLOAD PUSH2 0x4CF SWAP1 PUSH2 0x1C55 JUMP JUMPDEST DUP1 PUSH1 0x1F ADD PUSH1 0x20 DUP1 SWAP2 DIV MUL PUSH1 0x20 ADD PUSH1 0x40 MLOAD SWAP1 DUP2 ADD PUSH1 0x40 MSTORE DUP1 SWAP3 SWAP2 SWAP1 DUP2 DUP2 MSTORE PUSH1 0x20 ADD DUP3 DUP1 SLOAD PUSH2 0x4FB SWAP1 PUSH2 0x1C55 JUMP JUMPDEST DUP1 ISZERO PUSH2 0x546 JUMPI DUP1 PUSH1 0x1F LT PUSH2 0x51D JUMPI PUSH2 0x100 DUP1 DUP4 SLOAD DIV MUL DUP4 MSTORE SWAP2 PUSH1 0x20 ADD SWAP2 PUSH2 0x546 JUMP JUMPDEST DUP3 ADD SWAP2 SWAP1 PUSH0 MSTORE PUSH1 0x20 PUSH0 KECCAK256 SWAP1 JUMPDEST DUP2 SLOAD DUP2 MSTORE SWAP1 PUSH1 0x1 ADD SWAP1 PUSH1 0x20 ADD DUP1 DUP4 GT PUSH2 0x529 JUMPI DUP3 SWAP1 SUB PUSH1 0x1F AND DUP3 ADD SWAP2 JUMPDEST POP POP POP POP POP DUP2 MSTORE PUSH1 0x20 ADD PUSH1 0x3 DUP3 ADD PUSH0 SWAP1 SLOAD SWAP1 PUSH2 0x100 EXP SWAP1 DIV PUSH1 0xFF AND ISZERO ISZERO ISZERO ISZERO DUP2 MSTORE POP POP DUP4 DUP4 DUP2 MLOAD DUP2 LT PUSH2 0x57C JUMPI PUSH2 0x57B PUSH2 0x1C85 JUMP JUMPDEST JUMPDEST PUSH1 0x20 MUL PUSH1 0x20 ADD ADD DUP2 SWAP1 MSTORE POP DUP2 DUP1 PUSH2 0x592 SWAP1 PUSH2 0x1CDF JUMP JUMPDEST SWAP3 POP POP JUMPDEST DUP1 DUP1 PUSH2 0x5A1 SWAP1 PUSH2 0x1CDF JUMP JUMPDEST SWAP2 POP POP PUSH2 0x417 JUMP JUMPDEST POP DUP1 DUP3 MSTORE DUP2 SWAP3 POP POP POP SWAP1 JUMP JUMPDEST PUSH1 0x60 PUSH0 PUSH1 0x4 SLOAD PUSH8 0xFFFFFFFFFFFFFFFF DUP2 GT ISZERO PUSH2 0x5D4 JUMPI PUSH2 0x5D3 PUSH2 0x1918 JUMP JUMPDEST JUMPDEST PUSH1 0x40 MLOAD SWAP1 DUP1 DUP3 MSTORE DUP1 PUSH1 0x20 MUL PUSH1 0x20 ADD DUP3 ADD PUSH1 0x40 MSTORE DUP1 ISZERO PUSH2 0x60D JUMPI DUP2 PUSH1 0x20 ADD JUMPDEST PUSH2 0x5FA PUSH2 0x1417 JUMP JUMPDEST DUP2 MSTORE PUSH1 0x20 ADD SWAP1 PUSH1 0x1 SWAP1 SUB SWAP1 DUP2 PUSH2 0x5F2 JUMPI SWAP1 POP JUMPDEST POP SWAP1 POP PUSH0 PUSH0 SWAP1 POP PUSH0 PUSH1 0x1 SWAP1 POP JUMPDEST PUSH1 0x4 SLOAD DUP2 GT PUSH2 0x7B6 JUMPI PUSH1 0x2 PUSH0 DUP3 DUP2 MSTORE PUSH1 0x20 ADD SWAP1 DUP2 MSTORE PUSH1 0x20 ADD PUSH0 KECCAK256 PUSH1 0x4 ADD PUSH0 SWAP1 SLOAD SWAP1 PUSH2 0x100 EXP SWAP1 DIV PUSH1 0xFF AND PUSH2 0x7A3 JUMPI PUSH1 0x2 PUSH0 DUP3 DUP2 MSTORE PUSH1 0x20 ADD SWAP1 DUP2 MSTORE PUSH1 0x20 ADD PUSH0 KECCAK256 PUSH1 0x40 MLOAD DUP1 PUSH1 0xA0 ADD PUSH1 0x40 MSTORE SWAP1 DUP2 PUSH0 DUP3 ADD SLOAD DUP2 MSTORE PUSH1 0x20 ADD PUSH1 0x1 DUP3 ADD PUSH0 SWAP1 SLOAD SWAP1 PUSH2 0x100 EXP SWAP1 DIV PUSH20 0xFFFFFFFFFFFFFFFFFFFFFFFFFFFFFFFFFFFFFFFF AND PUSH20 0xFFFFFFFFFFFFFFFFFFFFFFFFFFFFFFFFFFFFFFFF AND PUSH20 0xFFFFFFFFFFFFFFFFFFFFFFFFFFFFFFFFFFFFFFFF AND DUP2 MSTORE PUSH1 0x20 ADD PUSH1 0x2 DUP3 ADD DUP1 SLOAD PUSH2 0x6D2 SWAP1 PUSH2 0x1C55 JUMP JUMPDEST DUP1 PUSH1 0x1F ADD PUSH1 0x20 DUP1 SWAP2 DIV MUL PUSH1 0x20 ADD PUSH1 0x40 MLOAD SWAP1 DUP2 ADD PUSH1 0x40 MSTORE DUP1 SWAP3 SWAP2 SWAP1 DUP2 DUP2 MSTORE PUSH1 0x20 ADD DUP3 DUP1 SLOAD PUSH2 0x6FE SWAP1 PUSH2 0x1C55 JUMP JUMPDEST DUP1 ISZERO PUSH2 0x749 JUMPI DUP1 PUSH1 0x1F LT PUSH2 0x720 JUMPI PUSH2 0x100 DUP1 DUP4 SLOAD DIV MUL DUP4 MSTORE SWAP2 PUSH1 0x20 ADD SWAP2 PUSH2 0x749 JUMP JUMPDEST DUP3 ADD SWAP2 SWAP1 PUSH0 MSTORE PUSH1 0x20 PUSH0 KECCAK256 SWAP1 JUMPDEST DUP2 SLOAD DUP2 MSTORE SWAP1 PUSH1 0x1 ADD SWAP1 PUSH1 0x20 ADD DUP1 DUP4 GT PUSH2 0x72C JUMPI DUP3 SWAP1 SUB PUSH1 0x1F AND DUP3 ADD SWAP2 JUMPDEST POP POP POP POP POP DUP2 MSTORE PUSH1 0x20 ADD PUSH1 0x3 DUP3 ADD SLOAD DUP2 MSTORE PUSH1 0x20 ADD PUSH1 0x4 DUP3 ADD PUSH0 SWAP1 SLOAD SWAP1 PUSH2 0x100 EXP SWAP1 DIV PUSH1 0xFF AND ISZERO ISZERO ISZERO ISZERO DUP2 MSTORE POP POP DUP4 DUP4 DUP2 MLOAD DUP2 LT PUSH2 0x789 JUMPI PUSH2 0x788 PUSH2 0x1C85 JUMP JUMPDEST JUMPDEST PUSH1 0x20 MUL PUSH1 0x20 ADD ADD DUP2 SWAP1 MSTORE POP DUP2 DUP1 PUSH2 0x79F SWAP1 PUSH2 0x1CDF JUMP JUMPDEST SWAP3 POP POP JUMPDEST DUP1 DUP1 PUSH2 0x7AE SWAP1 PUSH2 0x1CDF JUMP JUMPDEST SWAP2 POP POP PUSH2 0x61A JUMP JUMPDEST POP DUP1 DUP3 MSTORE DUP2 SWAP3 POP POP POP SWAP1 JUMP JUMPDEST PUSH0 PUSH2 0x7CB PUSH2 0x1233 JUMP JUMPDEST PUSH0 DUP3 MLOAD GT PUSH2 0x80E JUMPI PUSH1 0x40 MLOAD PUSH32 0x8C379A000000000000000000000000000000000000000000000000000000000 DUP2 MSTORE PUSH1 0x4 ADD PUSH2 0x805 SWAP1 PUSH2 0x1D70 JUMP JUMPDEST PUSH1 0x40 MLOAD DUP1 SWAP2 SUB SWAP1 REVERT JUMPDEST PUSH1 0x4 PUSH0 DUP2 SLOAD DUP1 SWAP3 SWAP2 SWAP1 PUSH2 0x820 SWAP1 PUSH2 0x1CDF JUMP JUMPDEST SWAP2 SWAP1 POP SSTORE POP PUSH1 0x40 MLOAD DUP1 PUSH1 0xA0 ADD PUSH1 0x40 MSTORE DUP1 PUSH1 0x4 SLOAD DUP2 MSTORE PUSH1 0x20 ADD CALLER PUSH20 0xFFFFFFFFFFFFFFFFFFFFFFFFFFFFFFFFFFFFFFFF AND DUP2 MSTORE PUSH1 0x20 ADD DUP4 DUP2 MSTORE PUSH1 0x20 ADD TIMESTAMP DUP2 MSTORE PUSH1 0x20 ADD PUSH0 ISZERO ISZERO DUP2 MSTORE POP PUSH1 0x2 PUSH0 PUSH1 0x4 SLOAD DUP2 MSTORE PUSH1 0x20 ADD SWAP1 DUP2 MSTORE PUSH1 0x20 ADD PUSH0 KECCAK256 PUSH0 DUP3 ADD MLOAD DUP2 PUSH0 ADD SSTORE PUSH1 0x20 DUP3 ADD MLOAD DUP2 PUSH1 0x1 ADD PUSH0 PUSH2 0x100 EXP DUP2 SLOAD DUP2 PUSH20 0xFFFFFFFFFFFFFFFFFFFFFFFFFFFFFFFFFFFFFFFF MUL NOT AND SWAP1 DUP4 PUSH20 0xFFFFFFFFFFFFFFFFFFFFFFFFFFFFFFFFFFFFFFFF AND MUL OR SWAP1 SSTORE POP PUSH1 0x40 DUP3 ADD MLOAD DUP2 PUSH1 0x2 ADD SWAP1 DUP2 PUSH2 0x8DC SWAP2 SWAP1 PUSH2 0x1F2E JUMP JUMPDEST POP PUSH1 0x60 DUP3 ADD MLOAD DUP2 PUSH1 0x3 ADD SSTORE PUSH1 0x80 DUP3 ADD MLOAD DUP2 PUSH1 0x4 ADD PUSH0 PUSH2 0x100 EXP DUP2 SLOAD DUP2 PUSH1 0xFF MUL NOT AND SWAP1 DUP4 ISZERO ISZERO MUL OR SWAP1 SSTORE POP SWAP1 POP POP CALLER PUSH20 0xFFFFFFFFFFFFFFFFFFFFFFFFFFFFFFFFFFFFFFFF AND PUSH1 0x4 SLOAD PUSH32 0x16EFFDE6B8C5F78279ACA5974057FF6B6FD8C9AB5E96994C7F1B62CBFCBBD78B DUP5 PUSH1 0x40 MLOAD PUSH2 0x952 SWAP2 SWAP1 PUSH2 0x1FFD JUMP JUMPDEST PUSH1 0x40 MLOAD DUP1 SWAP2 SUB SWAP1 LOG3 PUSH1 0x4 SLOAD SWAP1 POP PUSH2 0x967 PUSH2 0x1282 JUMP JUMPDEST SWAP2 SWAP1 POP JUMP JUMPDEST PUSH2 0x974 PUSH2 0x128B JUMP JUMPDEST PUSH2 0x97D PUSH0 PUSH2 0x1312 JUMP JUMPDEST JUMP JUMPDEST PUSH1 0x3 PUSH1 0x20 MSTORE DUP1 PUSH0 MSTORE PUSH1 0x40 PUSH0 KECCAK256 PUSH0 SWAP2 POP SWAP1 POP DUP1 PUSH0 ADD SLOAD SWAP1 DUP1 PUSH1 0x1 ADD PUSH0 SWAP1 SLOAD SWAP1 PUSH2 0x100 EXP SWAP1 DIV PUSH20 0xFFFFFFFFFFFFFFFFFFFFFFFFFFFFFFFFFFFFFFFF AND SWAP1 DUP1 PUSH1 0x2 ADD DUP1 SLOAD PUSH2 0x9C9 SWAP1 PUSH2 0x1C55 JUMP JUMPDEST DUP1 PUSH1 0x1F ADD PUSH1 0x20 DUP1 SWAP2 DIV MUL PUSH1 0x20 ADD PUSH1 0x40 MLOAD SWAP1 DUP2 ADD PUSH1 0x40 MSTORE DUP1 SWAP3 SWAP2 SWAP1 DUP2 DUP2 MSTORE PUSH1 0x20 ADD DUP3 DUP1 SLOAD PUSH2 0x9F5 SWAP1 PUSH2 0x1C55 JUMP JUMPDEST DUP1 ISZERO PUSH2 0xA40 JUMPI DUP1 PUSH1 0x1F LT PUSH2 0xA17 JUMPI PUSH2 0x100 DUP1 DUP4 SLOAD DIV MUL DUP4 MSTORE SWAP2 PUSH1 0x20 ADD SWAP2 PUSH2 0xA40 JUMP JUMPDEST DUP3 ADD SWAP2 SWAP1 PUSH0 MSTORE PUSH1 0x20 PUSH0 KECCAK256 SWAP1 JUMPDEST DUP2 SLOAD DUP2 MSTORE SWAP1 PUSH1 0x1 ADD SWAP1 PUSH1 0x20 ADD DUP1 DUP4 GT PUSH2 0xA23 JUMPI DUP3 SWAP1 SUB PUSH1 0x1F AND DUP3 ADD SWAP2 JUMPDEST POP POP POP POP POP SWAP1 DUP1 PUSH1 0x3 ADD PUSH0 SWAP1 SLOAD SWAP1 PUSH2 0x100 EXP SWAP1 DIV PUSH1 0xFF AND SWAP1 POP DUP5 JUMP JUMPDEST PUSH2 0xA64 PUSH2 0x128B JUMP JUMPDEST PUSH0 DUP2 GT DUP1 ISZERO PUSH2 0xA75 JUMPI POP PUSH1 0x5 SLOAD DUP2 GT ISZERO JUMPDEST PUSH2 0xAB4 JUMPI PUSH1 0x40 MLOAD PUSH32 0x8C379A000000000000000000000000000000000000000000000000000000000 DUP2 MSTORE PUSH1 0x4 ADD PUSH2 0xAAB SWAP1 PUSH2 0x2067 JUMP JUMPDEST PUSH1 0x40 MLOAD DUP1 SWAP2 SUB SWAP1 REVERT JUMPDEST PUSH0 PUSH1 0x3 PUSH0 DUP4 DUP2 MSTORE PUSH1 0x20 ADD SWAP1 DUP2 MSTORE PUSH1 0x20 ADD PUSH0 KECCAK256 SWAP1 POP DUP1 PUSH1 0x3 ADD PUSH0 SWAP1 SLOAD SWAP1 PUSH2 0x100 EXP SWAP1 DIV PUSH1 0xFF AND ISZERO PUSH2 0xB19 JUMPI PUSH1 0x40 MLOAD PUSH32 0x8C379A000000000000000000000000000000000000000000000000000000000 DUP2 MSTORE PUSH1 0x4 ADD PUSH2 0xB10 SWAP1 PUSH2 0x20CF JUMP JUMPDEST PUSH1 0x40 MLOAD DUP1 SWAP2 SUB SWAP1 REVERT JUMPDEST PUSH0 PUSH1 0x2 PUSH0 DUP4 PUSH0 ADD SLOAD DUP2 MSTORE PUSH1 0x20 ADD SWAP1 DUP2 MSTORE PUSH1 0x20 ADD PUSH0 KECCAK256 SWAP1 POP DUP2 PUSH1 0x2 ADD DUP2 PUSH1 0x2 ADD SWAP1 DUP2 PUSH2 0xB44 SWAP2 SWAP1 PUSH2 0x2114 JUMP JUMPDEST POP PUSH1 0x1 DUP3 PUSH1 0x3 ADD PUSH0 PUSH2 0x100 EXP DUP2 SLOAD DUP2 PUSH1 0xFF MUL NOT AND SWAP1 DUP4 ISZERO ISZERO MUL OR SWAP1 SSTORE POP DUP2 PUSH0 ADD SLOAD PUSH32 0xC044182A0AC1FCDFA543F1C6FF27940F1A5B4221B8232E11B492D48953BC9C43 DUP4 PUSH1 0x2 ADD PUSH1 0x40 MLOAD PUSH2 0xB97 SWAP2 SWAP1 PUSH2 0x227A JUMP JUMPDEST PUSH1 0x40 MLOAD DUP1 SWAP2 SUB SWAP1 LOG2 POP POP POP JUMP JUMPDEST PUSH2 0xBAC PUSH2 0x1417 JUMP JUMPDEST PUSH0 DUP3 GT DUP1 ISZERO PUSH2 0xBBD JUMPI POP PUSH1 0x4 SLOAD DUP3 GT ISZERO JUMPDEST PUSH2 0xBFC JUMPI PUSH1 0x40 MLOAD PUSH32 0x8C379A000000000000000000000000000000000000000000000000000000000 DUP2 MSTORE PUSH1 0x4 ADD PUSH2 0xBF3 SWAP1 PUSH2 0x22E4 JUMP JUMPDEST PUSH1 0x40 MLOAD DUP1 SWAP2 SUB SWAP1 REVERT JUMPDEST PUSH1 0x2 PUSH0 DUP4 DUP2 MSTORE PUSH1 0x20 ADD SWAP1 DUP2 MSTORE PUSH1 0x20 ADD PUSH0 KECCAK256 PUSH1 0x4 ADD PUSH0 SWAP1 SLOAD SWAP1 PUSH2 0x100 EXP SWAP1 DIV PUSH1 0xFF AND ISZERO PUSH2 0xC5D JUMPI PUSH1 0x40 MLOAD PUSH32 0x8C379A000000000000000000000000000000000000000000000000000000000 DUP2 MSTORE PUSH1 0x4 ADD PUSH2 0xC54 SWAP1 PUSH2 0x234C JUMP JUMPDEST PUSH1 0x40 MLOAD DUP1 SWAP2 SUB SWAP1 REVERT JUMPDEST PUSH1 0x2 PUSH0 DUP4 DUP2 MSTORE PUSH1 0x20 ADD SWAP1 DUP2 MSTORE PUSH1 0x20 ADD PUSH0 KECCAK256 PUSH1 0x40 MLOAD DUP1 PUSH1 0xA0 ADD PUSH1 0x40 MSTORE SWAP1 DUP2 PUSH0 DUP3 ADD SLOAD DUP2 MSTORE PUSH1 0x20 ADD PUSH1 0x1 DUP3 ADD PUSH0 SWAP1 SLOAD SWAP1 PUSH2 0x100 EXP SWAP1 DIV PUSH20 0xFFFFFFFFFFFFFFFFFFFFFFFFFFFFFFFFFFFFFFFF AND PUSH20 0xFFFFFFFFFFFFFFFFFFFFFFFFFFFFFFFFFFFFFFFF AND PUSH20 0xFFFFFFFFFFFFFFFFFFFFFFFFFFFFFFFFFFFFFFFF AND DUP2 MSTORE PUSH1 0x20 ADD PUSH1 0x2 DUP3 ADD DUP1 SLOAD PUSH2 0xCE7 SWAP1 PUSH2 0x1C55 JUMP JUMPDEST DUP1 PUSH1 0x1F ADD PUSH1 0x20 DUP1 SWAP2 DIV MUL PUSH1 0x20 ADD PUSH1 0x40 MLOAD SWAP1 DUP2 ADD PUSH1 0x40 MSTORE DUP1 SWAP3 SWAP2 SWAP1 DUP2 DUP2 MSTORE PUSH1 0x20 ADD DUP3 DUP1 SLOAD PUSH2 0xD13 SWAP1 PUSH2 0x1C55 JUMP JUMPDEST DUP1 ISZERO PUSH2 0xD5E JUMPI DUP1 PUSH1 0x1F LT PUSH2 0xD35 JUMPI PUSH2 0x100 DUP1 DUP4 SLOAD DIV MUL DUP4 MSTORE SWAP2 PUSH1 0x20 ADD SWAP2 PUSH2 0xD5E JUMP JUMPDEST DUP3 ADD SWAP2 SWAP1 PUSH0 MSTORE PUSH1 0x20 PUSH0 KECCAK256 SWAP1 JUMPDEST DUP2 SLOAD DUP2 MSTORE SWAP1 PUSH1 0x1 ADD SWAP1 PUSH1 0x20 ADD DUP1 DUP4 GT PUSH2 0xD41 JUMPI DUP3 SWAP1 SUB PUSH1 0x1F AND DUP3 ADD SWAP2 JUMPDEST POP POP POP POP POP DUP2 MSTORE PUSH1 0x20 ADD PUSH1 0x3 DUP3 ADD SLOAD DUP2 MSTORE PUSH1 0x20 ADD PUSH1 0x4 DUP3 ADD PUSH0 SWAP1 SLOAD SWAP1 PUSH2 0x100 EXP SWAP1 DIV PUSH1 0xFF AND ISZERO ISZERO ISZERO ISZERO DUP2 MSTORE POP POP SWAP1 POP SWAP2 SWAP1 POP JUMP JUMPDEST PUSH0 PUSH0 PUSH0 SWAP1 SLOAD SWAP1 PUSH2 0x100 EXP SWAP1 DIV PUSH20 0xFFFFFFFFFFFFFFFFFFFFFFFFFFFFFFFFFFFFFFFF AND SWAP1 POP SWAP1 JUMP JUMPDEST PUSH2 0xDC1 PUSH2 0x1233 JUMP JUMPDEST PUSH0 DUP3 GT DUP1 ISZERO PUSH2 0xDD2 JUMPI POP PUSH1 0x4 SLOAD DUP3 GT ISZERO JUMPDEST PUSH2 0xE11 JUMPI PUSH1 0x40 MLOAD PUSH32 0x8C379A000000000000000000000000000000000000000000000000000000000 DUP2 MSTORE PUSH1 0x4 ADD PUSH2 0xE08 SWAP1 PUSH2 0x22E4 JUMP JUMPDEST PUSH1 0x40 MLOAD DUP1 SWAP2 SUB SWAP1 REVERT JUMPDEST PUSH1 0x2 PUSH0 DUP4 DUP2 MSTORE PUSH1 0x20 ADD SWAP1 DUP2 MSTORE PUSH1 0x20 ADD PUSH0 KECCAK256 PUSH1 0x4 ADD PUSH0 SWAP1 SLOAD SWAP1 PUSH2 0x100 EXP SWAP1 DIV PUSH1 0xFF AND ISZERO PUSH2 0xE72 JUMPI PUSH1 0x40 MLOAD PUSH32 0x8C379A000000000000000000000000000000000000000000000000000000000 DUP2 MSTORE PUSH1 0x4 ADD PUSH2 0xE69 SWAP1 PUSH2 0x234C JUMP JUMPDEST PUSH1 0x40 MLOAD DUP1 SWAP2 SUB SWAP1 REVERT JUMPDEST CALLER PUSH20 0xFFFFFFFFFFFFFFFFFFFFFFFFFFFFFFFFFFFFFFFF AND PUSH1 0x2 PUSH0 DUP5 DUP2 MSTORE PUSH1 0x20 ADD SWAP1 DUP2 MSTORE PUSH1 0x20 ADD PUSH0 KECCAK256 PUSH1 0x1 ADD PUSH0 SWAP1 SLOAD SWAP1 PUSH2 0x100 EXP SWAP1 DIV PUSH20 0xFFFFFFFFFFFFFFFFFFFFFFFFFFFFFFFFFFFFFFFF AND PUSH20 0xFFFFFFFFFFFFFFFFFFFFFFFFFFFFFFFFFFFFFFFF AND EQ PUSH2 0xF13 JUMPI PUSH1 0x40 MLOAD PUSH32 0x8C379A000000000000000000000000000000000000000000000000000000000 DUP2 MSTORE PUSH1 0x4 ADD PUSH2 0xF0A SWAP1 PUSH2 0x23DA JUMP JUMPDEST PUSH1 0x40 MLOAD DUP1 SWAP2 SUB SWAP1 REVERT JUMPDEST PUSH0 DUP2 MLOAD GT PUSH2 0xF56 JUMPI PUSH1 0x40 MLOAD PUSH32 0x8C379A000000000000000000000000000000000000000000000000000000000 DUP2 MSTORE PUSH1 0x4 ADD PUSH2 0xF4D SWAP1 PUSH2 0x2442 JUMP JUMPDEST PUSH1 0x40 MLOAD DUP1 SWAP2 SUB SWAP1 REVERT JUMPDEST PUSH1 0x5 PUSH0 DUP2 SLOAD DUP1 SWAP3 SWAP2 SWAP1 PUSH2 0xF68 SWAP1 PUSH2 0x1CDF JUMP JUMPDEST SWAP2 SWAP1 POP SSTORE POP PUSH1 0x40 MLOAD DUP1 PUSH1 0x80 ADD PUSH1 0x40 MSTORE DUP1 DUP4 DUP2 MSTORE PUSH1 0x20 ADD CALLER PUSH20 0xFFFFFFFFFFFFFFFFFFFFFFFFFFFFFFFFFFFFFFFF AND DUP2 MSTORE PUSH1 0x20 ADD DUP3 DUP2 MSTORE PUSH1 0x20 ADD PUSH0 ISZERO ISZERO DUP2 MSTORE POP PUSH1 0x3 PUSH0 PUSH1 0x5 SLOAD DUP2 MSTORE PUSH1 0x20 ADD SWAP1 DUP2 MSTORE PUSH1 0x20 ADD PUSH0 KECCAK256 PUSH0 DUP3 ADD MLOAD DUP2 PUSH0 ADD SSTORE PUSH1 0x20 DUP3 ADD MLOAD DUP2 PUSH1 0x1 ADD PUSH0 PUSH2 0x100 EXP DUP2 SLOAD DUP2 PUSH20 0xFFFFFFFFFFFFFFFFFFFFFFFFFFFFFFFFFFFFFFFF MUL NOT AND SWAP1 DUP4 PUSH20 0xFFFFFFFFFFFFFFFFFFFFFFFFFFFFFFFFFFFFFFFF AND MUL OR SWAP1 SSTORE POP PUSH1 0x40 DUP3 ADD MLOAD DUP2 PUSH1 0x2 ADD SWAP1 DUP2 PUSH2 0x101C SWAP2 SWAP1 PUSH2 0x1F2E JUMP JUMPDEST POP PUSH1 0x60 DUP3 ADD MLOAD DUP2 PUSH1 0x3 ADD PUSH0 PUSH2 0x100 EXP DUP2 SLOAD DUP2 PUSH1 0xFF MUL NOT AND SWAP1 DUP4 ISZERO ISZERO MUL OR SWAP1 SSTORE POP SWAP1 POP POP CALLER PUSH20 0xFFFFFFFFFFFFFFFFFFFFFFFFFFFFFFFFFFFFFFFF AND DUP3 PUSH32 0x65A5DFDCCA99D0A97BD4A95E21C4AF5E64327BA9493215CCCBFD0B87CA2BA362 DUP4 PUSH1 0x40 MLOAD PUSH2 0x1086 SWAP2 SWAP1 PUSH2 0x1FFD JUMP JUMPDEST PUSH1 0x40 MLOAD DUP1 SWAP2 SUB SWAP1 LOG3 PUSH2 0x1096 PUSH2 0x1282 JUMP JUMPDEST POP POP JUMP JUMPDEST PUSH2 0x10A2 PUSH2 0x128B JUMP JUMPDEST PUSH0 DUP2 GT DUP1 ISZERO PUSH2 0x10B3 JUMPI POP PUSH1 0x4 SLOAD DUP2 GT ISZERO JUMPDEST PUSH2 0x10F2 JUMPI PUSH1 0x40 MLOAD PUSH32 0x8C379A000000000000000000000000000000000000000000000000000000000 DUP2 MSTORE PUSH1 0x4 ADD PUSH2 0x10E9 SWAP1 PUSH2 0x22E4 JUMP JUMPDEST PUSH1 0x40 MLOAD DUP1 SWAP2 SUB SWAP1 REVERT JUMPDEST PUSH1 0x2 PUSH0 DUP3 DUP2 MSTORE PUSH1 0x20 ADD SWAP1 DUP2 MSTORE PUSH1 0x20 ADD PUSH0 KECCAK256 PUSH1 0x4 ADD PUSH0 SWAP1 SLOAD SWAP1 PUSH2 0x100 EXP SWAP1 DIV PUSH1 0xFF AND ISZERO PUSH2 0x1153 JUMPI PUSH1 0x40 MLOAD PUSH32 0x8C379A000000000000000000000000000000000000000000000000000000000 DUP2 MSTORE PUSH1 0x4 ADD PUSH2 0x114A SWAP1 PUSH2 0x24AA JUMP JUMPDEST PUSH1 0x40 MLOAD DUP1 SWAP2 SUB SWAP1 REVERT JUMPDEST PUSH1 0x1 PUSH1 0x2 PUSH0 DUP4 DUP2 MSTORE PUSH1 0x20 ADD SWAP1 DUP2 MSTORE PUSH1 0x20 ADD PUSH0 KECCAK256 PUSH1 0x4 ADD PUSH0 PUSH2 0x100 EXP DUP2 SLOAD DUP2 PUSH1 0xFF MUL NOT AND SWAP1 DUP4 ISZERO ISZERO MUL OR SWAP1 SSTORE POP DUP1 PUSH32 0x6279BE045E4D4D5A0EBA7B1F0E578322B6DD7C01E92F0991700A02180904654B PUSH1 0x40 MLOAD PUSH1 0x40 MLOAD DUP1 SWAP2 SUB SWAP1 LOG2 POP JUMP JUMPDEST PUSH2 0x11B7 PUSH2 0x128B JUMP JUMPDEST PUSH0 PUSH20 0xFFFFFFFFFFFFFFFFFFFFFFFFFFFFFFFFFFFFFFFF AND DUP2 PUSH20 0xFFFFFFFFFFFFFFFFFFFFFFFFFFFFFFFFFFFFFFFF AND SUB PUSH2 0x1227 JUMPI PUSH0 PUSH1 0x40 MLOAD PUSH32 0x1E4FBDF700000000000000000000000000000000000000000000000000000000 DUP2 MSTORE PUSH1 0x4 ADD PUSH2 0x121E SWAP2 SWAP1 PUSH2 0x1B60 JUMP JUMPDEST PUSH1 0x40 MLOAD DUP1 SWAP2 SUB SWAP1 REVERT JUMPDEST PUSH2 0x1230 DUP2 PUSH2 0x1312 JUMP JUMPDEST POP JUMP JUMPDEST PUSH1 0x2 PUSH1 0x1 SLOAD SUB PUSH2 0x1278 JUMPI PUSH1 0x40 MLOAD PUSH32 0x8C379A000000000000000000000000000000000000000000000000000000000 DUP2 MSTORE PUSH1 0x4 ADD PUSH2 0x126F SWAP1 PUSH2 0x2512 JUMP JUMPDEST PUSH1 0x40 MLOAD DUP1 SWAP2 SUB SWAP1 REVERT JUMPDEST PUSH1 0x2 PUSH1 0x1 DUP2 SWAP1 SSTORE POP JUMP JUMPDEST PUSH1 0x1 DUP1 DUP2 SWAP1 SSTORE POP JUMP JUMPDEST PUSH2 0x1293 PUSH2 0x13D3 JUMP JUMPDEST PUSH20 0xFFFFFFFFFFFFFFFFFFFFFFFFFFFFFFFFFFFFFFFF AND PUSH2 0x12B1 PUSH2 0xD92 JUMP JUMPDEST PUSH20 0xFFFFFFFFFFFFFFFFFFFFFFFFFFFFFFFFFFFFFFFF AND EQ PUSH2 0x1310 JUMPI PUSH2 0x12D4 PUSH2 0x13D3 JUMP JUMPDEST PUSH1 0x40 MLOAD PUSH32 0x118CDAA700000000000000000000000000000000000000000000000000000000 DUP2 MSTORE PUSH1 0x4 ADD PUSH2 0x1307 SWAP2 SWAP1 PUSH2 0x1B60 JUMP JUMPDEST PUSH1 0x40 MLOAD DUP1 SWAP2 SUB SWAP1 REVERT JUMPDEST JUMP JUMPDEST PUSH0 PUSH0 PUSH0 SWAP1 SLOAD SWAP1 PUSH2 0x100 EXP SWAP1 DIV PUSH20 0xFFFFFFFFFFFFFFFFFFFFFFFFFFFFFFFFFFFFFFFF AND SWAP1 POP DUP2 PUSH0 PUSH0 PUSH2 0x100 EXP DUP2 SLOAD DUP2 PUSH20 0xFFFFFFFFFFFFFFFFFFFFFFFFFFFFFFFFFFFFFFFF MUL NOT AND SWAP1 DUP4 PUSH20 0xFFFFFFFFFFFFFFFFFFFFFFFFFFFFFFFFFFFFFFFF AND MUL OR SWAP1 SSTORE POP DUP2 PUSH20 0xFFFFFFFFFFFFFFFFFFFFFFFFFFFFFFFFFFFFFFFF AND DUP2 PUSH20 0xFFFFFFFFFFFFFFFFFFFFFFFFFFFFFFFFFFFFFFFF AND PUSH32 0x8BE0079C531659141344CD1FD0A4F28419497F9722A3DAAFE3B4186F6B6457E0 PUSH1 0x40 MLOAD PUSH1 0x40 MLOAD DUP1 SWAP2 SUB SWAP1 LOG3 POP POP JUMP JUMPDEST PUSH0 CALLER SWAP1 POP SWAP1 JUMP JUMPDEST PUSH1 0x40 MLOAD DUP1 PUSH1 0x80 ADD PUSH1 0x40 MSTORE DUP1 PUSH0 DUP2 MSTORE PUSH1 0x20 ADD PUSH0 PUSH20 0xFFFFFFFFFFFFFFFFFFFFFFFFFFFFFFFFFFFFFFFF AND DUP2 MSTORE PUSH1 0x20 ADD PUSH1 0x60 DUP2 MSTORE PUSH1 0x20 ADD PUSH0 ISZERO ISZERO DUP2 MSTORE POP SWAP1 JUMP JUMPDEST PUSH1 0x40 MLOAD DUP1 PUSH1 0xA0 ADD PUSH1 0x40 MSTORE DUP1 PUSH0 DUP2 MSTORE PUSH1 0x20 ADD PUSH0 PUSH20 0xFFFFFFFFFFFFFFFFFFFFFFFFFFFFFFFFFFFFFFFF AND DUP2 MSTORE PUSH1 0x20 ADD PUSH1 0x60 DUP2 MSTORE PUSH1 0x20 ADD PUSH0 DUP2 MSTORE PUSH1 0x20 ADD PUSH0 ISZERO ISZERO DUP2 MSTORE POP SWAP1 JUMP JUMPDEST PUSH0 PUSH1 0x40 MLOAD SWAP1 POP SWAP1 JUMP JUMPDEST PUSH0 PUSH0 REVERT JUMPDEST PUSH0 PUSH0 REVERT JUMPDEST PUSH0 DUP2 SWAP1 POP SWAP2 SWAP1 POP JUMP JUMPDEST PUSH2 0x147D DUP2 PUSH2 0x146B JUMP JUMPDEST DUP2 EQ PUSH2 0x1487 JUMPI PUSH0 PUSH0 REVERT JUMPDEST POP JUMP JUMPDEST PUSH0 DUP2 CALLDATALOAD SWAP1 POP PUSH2 0x1498 DUP2 PUSH2 0x1474 JUMP JUMPDEST SWAP3 SWAP2 POP POP JUMP JUMPDEST PUSH0 PUSH1 0x20 DUP3 DUP5 SUB SLT ISZERO PUSH2 0x14B3 JUMPI PUSH2 0x14B2 PUSH2 0x1463 JUMP JUMPDEST JUMPDEST PUSH0 PUSH2 0x14C0 DUP5 DUP3 DUP6 ADD PUSH2 0x148A JUMP JUMPDEST SWAP2 POP POP SWAP3 SWAP2 POP POP JUMP JUMPDEST PUSH2 0x14D2 DUP2 PUSH2 0x146B JUMP JUMPDEST DUP3 MSTORE POP POP JUMP JUMPDEST PUSH0 PUSH20 0xFFFFFFFFFFFFFFFFFFFFFFFFFFFFFFFFFFFFFFFF DUP3 AND SWAP1 POP SWAP2 SWAP1 POP JUMP JUMPDEST PUSH0 PUSH2 0x1501 DUP3 PUSH2 0x14D8 JUMP JUMPDEST SWAP1 POP SWAP2 SWAP1 POP JUMP JUMPDEST PUSH2 0x1511 DUP2 PUSH2 0x14F7 JUMP JUMPDEST DUP3 MSTORE POP POP JUMP JUMPDEST PUSH0 DUP2 MLOAD SWAP1 POP SWAP2 SWAP1 POP JUMP JUMPDEST PUSH0 DUP3 DUP3 MSTORE PUSH1 0x20 DUP3 ADD SWAP1 POP SWAP3 SWAP2 POP POP JUMP JUMPDEST DUP3 DUP2 DUP4 MCOPY PUSH0 DUP4 DUP4 ADD MSTORE POP POP POP JUMP JUMPDEST PUSH0 PUSH1 0x1F NOT PUSH1 0x1F DUP4 ADD AND SWAP1 POP SWAP2 SWAP1 POP JUMP JUMPDEST PUSH0 PUSH2 0x1559 DUP3 PUSH2 0x1517 JUMP JUMPDEST PUSH2 0x1563 DUP2 DUP6 PUSH2 0x1521 JUMP JUMPDEST SWAP4 POP PUSH2 0x1573 DUP2 DUP6 PUSH1 0x20 DUP7 ADD PUSH2 0x1531 JUMP JUMPDEST PUSH2 0x157C DUP2 PUSH2 0x153F JUMP JUMPDEST DUP5 ADD SWAP2 POP POP SWAP3 SWAP2 POP POP JUMP JUMPDEST PUSH0 DUP2 ISZERO ISZERO SWAP1 POP SWAP2 SWAP1 POP JUMP JUMPDEST PUSH2 0x159B DUP2 PUSH2 0x1587 JUMP JUMPDEST DUP3 MSTORE POP POP JUMP JUMPDEST PUSH0 PUSH1 0xA0 DUP3 ADD SWAP1 POP PUSH2 0x15B4 PUSH0 DUP4 ADD DUP9 PUSH2 0x14C9 JUMP JUMPDEST PUSH2 0x15C1 PUSH1 0x20 DUP4 ADD DUP8 PUSH2 0x1508 JUMP JUMPDEST DUP2 DUP2 SUB PUSH1 0x40 DUP4 ADD MSTORE PUSH2 0x15D3 DUP2 DUP7 PUSH2 0x154F JUMP JUMPDEST SWAP1 POP PUSH2 0x15E2 PUSH1 0x60 DUP4 ADD DUP6 PUSH2 0x14C9 JUMP JUMPDEST PUSH2 0x15EF PUSH1 0x80 DUP4 ADD DUP5 PUSH2 0x1592 JUMP JUMPDEST SWAP7 SWAP6 POP POP POP POP POP POP JUMP JUMPDEST PUSH0 PUSH1 0x20 DUP3 ADD SWAP1 POP PUSH2 0x160C PUSH0 DUP4 ADD DUP5 PUSH2 0x14C9 JUMP JUMPDEST SWAP3 SWAP2 POP POP JUMP JUMPDEST PUSH0 DUP2 MLOAD SWAP1 POP SWAP2 SWAP1 POP JUMP JUMPDEST PUSH0 DUP3 DUP3 MSTORE PUSH1 0x20 DUP3 ADD SWAP1 POP SWAP3 SWAP2 POP POP JUMP JUMPDEST PUSH0 DUP2 SWAP1 POP PUSH1 0x20 DUP3 ADD SWAP1 POP SWAP2 SWAP1 POP JUMP JUMPDEST PUSH2 0x1644 DUP2 PUSH2 0x146B JUMP JUMPDEST DUP3 MSTORE POP POP JUMP JUMPDEST PUSH2 0x1653 DUP2 PUSH2 0x14F7 JUMP JUMPDEST DUP3 MSTORE POP POP JUMP JUMPDEST PUSH0 DUP3 DUP3 MSTORE PUSH1 0x20 DUP3 ADD SWAP1 POP SWAP3 SWAP2 POP POP JUMP JUMPDEST PUSH0 PUSH2 0x1673 DUP3 PUSH2 0x1517 JUMP JUMPDEST PUSH2 0x167D DUP2 DUP6 PUSH2 0x1659 JUMP JUMPDEST SWAP4 POP PUSH2 0x168D DUP2 DUP6 PUSH1 0x20 DUP7 ADD PUSH2 0x1531 JUMP JUMPDEST PUSH2 0x1696 DUP2 PUSH2 0x153F JUMP JUMPDEST DUP5 ADD SWAP2 POP POP SWAP3 SWAP2 POP POP JUMP JUMPDEST PUSH2 0x16AA DUP2 PUSH2 0x1587 JUMP JUMPDEST DUP3 MSTORE POP POP JUMP JUMPDEST PUSH0 PUSH1 0x80 DUP4 ADD PUSH0 DUP4 ADD MLOAD PUSH2 0x16C5 PUSH0 DUP7 ADD DUP3 PUSH2 0x163B JUMP JUMPDEST POP PUSH1 0x20 DUP4 ADD MLOAD PUSH2 0x16D8 PUSH1 0x20 DUP7 ADD DUP3 PUSH2 0x164A JUMP JUMPDEST POP PUSH1 0x40 DUP4 ADD MLOAD DUP5 DUP3 SUB PUSH1 0x40 DUP7 ADD MSTORE PUSH2 0x16F0 DUP3 DUP3 PUSH2 0x1669 JUMP JUMPDEST SWAP2 POP POP PUSH1 0x60 DUP4 ADD MLOAD PUSH2 0x1705 PUSH1 0x60 DUP7 ADD DUP3 PUSH2 0x16A1 JUMP JUMPDEST POP DUP1 SWAP2 POP POP SWAP3 SWAP2 POP POP JUMP JUMPDEST PUSH0 PUSH2 0x171B DUP4 DUP4 PUSH2 0x16B0 JUMP JUMPDEST SWAP1 POP SWAP3 SWAP2 POP POP JUMP JUMPDEST PUSH0 PUSH1 0x20 DUP3 ADD SWAP1 POP SWAP2 SWAP1 POP JUMP JUMPDEST PUSH0 PUSH2 0x1739 DUP3 PUSH2 0x1612 JUMP JUMPDEST PUSH2 0x1743 DUP2 DUP6 PUSH2 0x161C JUMP JUMPDEST SWAP4 POP DUP4 PUSH1 0x20 DUP3 MUL DUP6 ADD PUSH2 0x1755 DUP6 PUSH2 0x162C JUMP JUMPDEST DUP1 PUSH0 JUMPDEST DUP6 DUP2 LT ISZERO PUSH2 0x1790 JUMPI DUP5 DUP5 SUB DUP10 MSTORE DUP2 MLOAD PUSH2 0x1771 DUP6 DUP3 PUSH2 0x1710 JUMP JUMPDEST SWAP5 POP PUSH2 0x177C DUP4 PUSH2 0x1723 JUMP JUMPDEST SWAP3 POP PUSH1 0x20 DUP11 ADD SWAP10 POP POP PUSH1 0x1 DUP2 ADD SWAP1 POP PUSH2 0x1758 JUMP JUMPDEST POP DUP3 SWAP8 POP DUP8 SWAP6 POP POP POP POP POP POP SWAP3 SWAP2 POP POP JUMP JUMPDEST PUSH0 PUSH1 0x20 DUP3 ADD SWAP1 POP DUP2 DUP2 SUB PUSH0 DUP4 ADD MSTORE PUSH2 0x17BA DUP2 DUP5 PUSH2 0x172F JUMP JUMPDEST SWAP1 POP SWAP3 SWAP2 POP POP JUMP JUMPDEST PUSH0 DUP2 MLOAD SWAP1 POP SWAP2 SWAP1 POP JUMP JUMPDEST PUSH0 DUP3 DUP3 MSTORE PUSH1 0x20 DUP3 ADD SWAP1 POP SWAP3 SWAP2 POP POP JUMP JUMPDEST PUSH0 DUP2 SWAP1 POP PUSH1 0x20 DUP3 ADD SWAP1 POP SWAP2 SWAP1 POP JUMP JUMPDEST PUSH0 PUSH1 0xA0 DUP4 ADD PUSH0 DUP4 ADD MLOAD PUSH2 0x1800 PUSH0 DUP7 ADD DUP3 PUSH2 0x163B JUMP JUMPDEST POP PUSH1 0x20 DUP4 ADD MLOAD PUSH2 0x1813 PUSH1 0x20 DUP7 ADD DUP3 PUSH2 0x164A JUMP JUMPDEST POP PUSH1 0x40 DUP4 ADD MLOAD DUP5 DUP3 SUB PUSH1 0x40 DUP7 ADD MSTORE PUSH2 0x182B DUP3 DUP3 PUSH2 0x1669 JUMP JUMPDEST SWAP2 POP POP PUSH1 0x60 DUP4 ADD MLOAD PUSH2 0x1840 PUSH1 0x60 DUP7 ADD DUP3 PUSH2 0x163B JUMP JUMPDEST POP PUSH1 0x80 DUP4 ADD MLOAD PUSH2 0x1853 PUSH1 0x80 DUP7 ADD DUP3 PUSH2 0x16A1 JUMP JUMPDEST POP DUP1 SWAP2 POP POP SWAP3 SWAP2 POP POP JUMP JUMPDEST PUSH0 PUSH2 0x1869 DUP4 DUP4 PUSH2 0x17EB JUMP JUMPDEST SWAP1 POP SWAP3 SWAP2 POP POP JUMP JUMPDEST PUSH0 PUSH1 0x20 DUP3 ADD SWAP1 POP SWAP2 SWAP1 POP JUMP JUMPDEST PUSH0 PUSH2 0x1887 DUP3 PUSH2 0x17C2 JUMP JUMPDEST PUSH2 0x1891 DUP2 DUP6 PUSH2 0x17CC JUMP JUMPDEST SWAP4 POP DUP4 PUSH1 0x20 DUP3 MUL DUP6 ADD PUSH2 0x18A3 DUP6 PUSH2 0x17DC JUMP JUMPDEST DUP1 PUSH0 JUMPDEST DUP6 DUP2 LT ISZERO PUSH2 0x18DE JUMPI DUP5 DUP5 SUB DUP10 MSTORE DUP2 MLOAD PUSH2 0x18BF DUP6 DUP3 PUSH2 0x185E JUMP JUMPDEST SWAP5 POP PUSH2 0x18CA DUP4 PUSH2 0x1871 JUMP JUMPDEST SWAP3 POP PUSH1 0x20 DUP11 ADD SWAP10 POP POP PUSH1 0x1 DUP2 ADD SWAP1 POP PUSH2 0x18A6 JUMP JUMPDEST POP DUP3 SWAP8 POP DUP8 SWAP6 POP POP POP POP POP POP SWAP3 SWAP2 POP POP JUMP JUMPDEST PUSH0 PUSH1 0x20 DUP3 ADD SWAP1 POP DUP2 DUP2 SUB PUSH0 DUP4 ADD MSTORE PUSH2 0x1908 DUP2 DUP5 PUSH2 0x187D JUMP JUMPDEST SWAP1 POP SWAP3 SWAP2 POP POP JUMP JUMPDEST PUSH0 PUSH0 REVERT JUMPDEST PUSH0 PUSH0 REVERT JUMPDEST PUSH32 0x4E487B7100000000000000000000000000000000000000000000000000000000 PUSH0 MSTORE PUSH1 0x41 PUSH1 0x4 MSTORE PUSH1 0x24 PUSH0 REVERT JUMPDEST PUSH2 0x194E DUP3 PUSH2 0x153F JUMP JUMPDEST DUP2 ADD DUP2 DUP2 LT PUSH8 0xFFFFFFFFFFFFFFFF DUP3 GT OR ISZERO PUSH2 0x196D JUMPI PUSH2 0x196C PUSH2 0x1918 JUMP JUMPDEST JUMPDEST DUP1 PUSH1 0x40 MSTORE POP POP POP JUMP JUMPDEST PUSH0 PUSH2 0x197F PUSH2 0x145A JUMP JUMPDEST SWAP1 POP PUSH2 0x198B DUP3 DUP3 PUSH2 0x1945 JUMP JUMPDEST SWAP2 SWAP1 POP JUMP JUMPDEST PUSH0 PUSH8 0xFFFFFFFFFFFFFFFF DUP3 GT ISZERO PUSH2 0x19AA JUMPI PUSH2 0x19A9 PUSH2 0x1918 JUMP JUMPDEST JUMPDEST PUSH2 0x19B3 DUP3 PUSH2 0x153F JUMP JUMPDEST SWAP1 POP PUSH1 0x20 DUP2 ADD SWAP1 POP SWAP2 SWAP1 POP JUMP JUMPDEST DUP3 DUP2 DUP4 CALLDATACOPY PUSH0 DUP4 DUP4 ADD MSTORE POP POP POP JUMP JUMPDEST PUSH0 PUSH2 0x19E0 PUSH2 0x19DB DUP5 PUSH2 0x1990 JUMP JUMPDEST PUSH2 0x1976 JUMP JUMPDEST SWAP1 POP DUP3 DUP2 MSTORE PUSH1 0x20 DUP2 ADD DUP5 DUP5 DUP5 ADD GT ISZERO PUSH2 0x19FC JUMPI PUSH2 0x19FB PUSH2 0x1914 JUMP JUMPDEST JUMPDEST PUSH2 0x1A07 DUP5 DUP3 DUP6 PUSH2 0x19C0 JUMP JUMPDEST POP SWAP4 SWAP3 POP POP POP JUMP JUMPDEST PUSH0 DUP3 PUSH1 0x1F DUP4 ADD SLT PUSH2 0x1A23 JUMPI PUSH2 0x1A22 PUSH2 0x1910 JUMP JUMPDEST JUMPDEST DUP2 CALLDATALOAD PUSH2 0x1A33 DUP5 DUP3 PUSH1 0x20 DUP7 ADD PUSH2 0x19CE JUMP JUMPDEST SWAP2 POP POP SWAP3 SWAP2 POP POP JUMP JUMPDEST PUSH0 PUSH1 0x20 DUP3 DUP5 SUB SLT ISZERO PUSH2 0x1A51 JUMPI PUSH2 0x1A50 PUSH2 0x1463 JUMP JUMPDEST JUMPDEST PUSH0 DUP3 ADD CALLDATALOAD PUSH8 0xFFFFFFFFFFFFFFFF DUP2 GT ISZERO PUSH2 0x1A6E JUMPI PUSH2 0x1A6D PUSH2 0x1467 JUMP JUMPDEST JUMPDEST PUSH2 0x1A7A DUP5 DUP3 DUP6 ADD PUSH2 0x1A0F JUMP JUMPDEST SWAP2 POP POP SWAP3 SWAP2 POP POP JUMP JUMPDEST PUSH0 PUSH1 0x80 DUP3 ADD SWAP1 POP PUSH2 0x1A96 PUSH0 DUP4 ADD DUP8 PUSH2 0x14C9 JUMP JUMPDEST PUSH2 0x1AA3 PUSH1 0x20 DUP4 ADD DUP7 PUSH2 0x1508 JUMP JUMPDEST DUP2 DUP2 SUB PUSH1 0x40 DUP4 ADD MSTORE PUSH2 0x1AB5 DUP2 DUP6 PUSH2 0x154F JUMP JUMPDEST SWAP1 POP PUSH2 0x1AC4 PUSH1 0x60 DUP4 ADD DUP5 PUSH2 0x1592 JUMP JUMPDEST SWAP6 SWAP5 POP POP POP POP POP JUMP JUMPDEST PUSH0 PUSH1 0xA0 DUP4 ADD PUSH0 DUP4 ADD MLOAD PUSH2 0x1AE2 PUSH0 DUP7 ADD DUP3 PUSH2 0x163B JUMP JUMPDEST POP PUSH1 0x20 DUP4 ADD MLOAD PUSH2 0x1AF5 PUSH1 0x20 DUP7 ADD DUP3 PUSH2 0x164A JUMP JUMPDEST POP PUSH1 0x40 DUP4 ADD MLOAD DUP5 DUP3 SUB PUSH1 0x40 DUP7 ADD MSTORE PUSH2 0x1B0D DUP3 DUP3 PUSH2 0x1669 JUMP JUMPDEST SWAP2 POP POP PUSH1 0x60 DUP4 ADD MLOAD PUSH2 0x1B22 PUSH1 0x60 DUP7 ADD DUP3 PUSH2 0x163B JUMP JUMPDEST POP PUSH1 0x80 DUP4 ADD MLOAD PUSH2 0x1B35 PUSH1 0x80 DUP7 ADD DUP3 PUSH2 0x16A1 JUMP JUMPDEST POP DUP1 SWAP2 POP POP SWAP3 SWAP2 POP POP JUMP JUMPDEST PUSH0 PUSH1 0x20 DUP3 ADD SWAP1 POP DUP2 DUP2 SUB PUSH0 DUP4 ADD MSTORE PUSH2 0x1B58 DUP2 DUP5 PUSH2 0x1ACD JUMP JUMPDEST SWAP1 POP SWAP3 SWAP2 POP POP JUMP JUMPDEST PUSH0 PUSH1 0x20 DUP3 ADD SWAP1 POP PUSH2 0x1B73 PUSH0 DUP4 ADD DUP5 PUSH2 0x1508 JUMP JUMPDEST SWAP3 SWAP2 POP POP JUMP JUMPDEST PUSH0 PUSH0 PUSH1 0x40 DUP4 DUP6 SUB SLT ISZERO PUSH2 0x1B8F JUMPI PUSH2 0x1B8E PUSH2 0x1463 JUMP JUMPDEST JUMPDEST PUSH0 PUSH2 0x1B9C DUP6 DUP3 DUP7 ADD PUSH2 0x148A JUMP JUMPDEST SWAP3 POP POP PUSH1 0x20 DUP4 ADD CALLDATALOAD PUSH8 0xFFFFFFFFFFFFFFFF DUP2 GT ISZERO PUSH2 0x1BBD JUMPI PUSH2 0x1BBC PUSH2 0x1467 JUMP JUMPDEST JUMPDEST PUSH2 0x1BC9 DUP6 DUP3 DUP7 ADD PUSH2 0x1A0F JUMP JUMPDEST SWAP2 POP POP SWAP3 POP SWAP3 SWAP1 POP JUMP JUMPDEST PUSH2 0x1BDC DUP2 PUSH2 0x14F7 JUMP JUMPDEST DUP2 EQ PUSH2 0x1BE6 JUMPI PUSH0 PUSH0 REVERT JUMPDEST POP JUMP JUMPDEST PUSH0 DUP2 CALLDATALOAD SWAP1 POP PUSH2 0x1BF7 DUP2 PUSH2 0x1BD3 JUMP JUMPDEST SWAP3 SWAP2 POP POP JUMP JUMPDEST PUSH0 PUSH1 0x20 DUP3 DUP5 SUB SLT ISZERO PUSH2 0x1C12 JUMPI PUSH2 0x1C11 PUSH2 0x1463 JUMP JUMPDEST JUMPDEST PUSH0 PUSH2 0x1C1F DUP5 DUP3 DUP6 ADD PUSH2 0x1BE9 JUMP JUMPDEST SWAP2 POP POP SWAP3 SWAP2 POP POP JUMP JUMPDEST PUSH32 0x4E487B7100000000000000000000000000000000000000000000000000000000 PUSH0 MSTORE PUSH1 0x22 PUSH1 0x4 MSTORE PUSH1 0x24 PUSH0 REVERT JUMPDEST PUSH0 PUSH1 0x2 DUP3 DIV SWAP1 POP PUSH1 0x1 DUP3 AND DUP1 PUSH2 0x1C6C JUMPI PUSH1 0x7F DUP3 AND SWAP2 POP JUMPDEST PUSH1 0x20 DUP3 LT DUP2 SUB PUSH2 0x1C7F JUMPI PUSH2 0x1C7E PUSH2 0x1C28 JUMP JUMPDEST JUMPDEST POP SWAP2 SWAP1 POP JUMP JUMPDEST PUSH32 0x4E487B7100000000000000000000000000000000000000000000000000000000 PUSH0 MSTORE PUSH1 0x32 PUSH1 0x4 MSTORE PUSH1 0x24 PUSH0 REVERT JUMPDEST PUSH32 0x4E487B7100000000000000000000000000000000000000000000000000000000 PUSH0 MSTORE PUSH1 0x11 PUSH1 0x4 MSTORE PUSH1 0x24 PUSH0 REVERT JUMPDEST PUSH0 PUSH2 0x1CE9 DUP3 PUSH2 0x146B JUMP JUMPDEST SWAP2 POP PUSH32 0xFFFFFFFFFFFFFFFFFFFFFFFFFFFFFFFFFFFFFFFFFFFFFFFFFFFFFFFFFFFFFFFF DUP3 SUB PUSH2 0x1D1B JUMPI PUSH2 0x1D1A PUSH2 0x1CB2 JUMP JUMPDEST JUMPDEST PUSH1 0x1 DUP3 ADD SWAP1 POP SWAP2 SWAP1 POP JUMP JUMPDEST PUSH32 0x4D6573736167652063616E6E6F7420626520656D707479000000000000000000 PUSH0 DUP3 ADD MSTORE POP JUMP JUMPDEST PUSH0 PUSH2 0x1D5A PUSH1 0x17 DUP4 PUSH2 0x1521 JUMP JUMPDEST SWAP2 POP PUSH2 0x1D65 DUP3 PUSH2 0x1D26 JUMP JUMPDEST PUSH1 0x20 DUP3 ADD SWAP1 POP SWAP2 SWAP1 POP JUMP JUMPDEST PUSH0 PUSH1 0x20 DUP3 ADD SWAP1 POP DUP2 DUP2 SUB PUSH0 DUP4 ADD MSTORE PUSH2 0x1D87 DUP2 PUSH2 0x1D4E JUMP JUMPDEST SWAP1 POP SWAP2 SWAP1 POP JUMP JUMPDEST PUSH0 DUP2 SWAP1 POP DUP2 PUSH0 MSTORE PUSH1 0x20 PUSH0 KECCAK256 SWAP1 POP SWAP2 SWAP1 POP JUMP JUMPDEST PUSH0 PUSH1 0x20 PUSH1 0x1F DUP4 ADD DIV SWAP1 POP SWAP2 SWAP1 POP JUMP JUMPDEST PUSH0 DUP3 DUP3 SHL SWAP1 POP SWAP3 SWAP2 POP POP JUMP JUMPDEST PUSH0 PUSH1 0x8 DUP4 MUL PUSH2 0x1DEA PUSH32 0xFFFFFFFFFFFFFFFFFFFFFFFFFFFFFFFFFFFFFFFFFFFFFFFFFFFFFFFFFFFFFFFF DUP3 PUSH2 0x1DAF JUMP JUMPDEST PUSH2 0x1DF4 DUP7 DUP4 PUSH2 0x1DAF JUMP JUMPDEST SWAP6 POP DUP1 NOT DUP5 AND SWAP4 POP DUP1 DUP7 AND DUP5 OR SWAP3 POP POP POP SWAP4 SWAP3 POP POP POP JUMP JUMPDEST PUSH0 DUP2 SWAP1 POP SWAP2 SWAP1 POP JUMP JUMPDEST PUSH0 PUSH2 0x1E2F PUSH2 0x1E2A PUSH2 0x1E25 DUP5 PUSH2 0x146B JUMP JUMPDEST PUSH2 0x1E0C JUMP JUMPDEST PUSH2 0x146B JUMP JUMPDEST SWAP1 POP SWAP2 SWAP1 POP JUMP JUMPDEST PUSH0 DUP2 SWAP1 POP SWAP2 SWAP1 POP JUMP JUMPDEST PUSH2 0x1E48 DUP4 PUSH2 0x1E15 JUMP JUMPDEST PUSH2 0x1E5C PUSH2 0x1E54 DUP3 PUSH2 0x1E36 JUMP JUMPDEST DUP5 DUP5 SLOAD PUSH2 0x1DBB JUMP JUMPDEST DUP3 SSTORE POP POP POP POP JUMP JUMPDEST PUSH0 PUSH0 SWAP1 POP SWAP1 JUMP JUMPDEST PUSH2 0x1E73 PUSH2 0x1E64 JUMP JUMPDEST PUSH2 0x1E7E DUP2 DUP5 DUP5 PUSH2 0x1E3F JUMP JUMPDEST POP POP POP JUMP JUMPDEST JUMPDEST DUP2 DUP2 LT ISZERO PUSH2 0x1EA1 JUMPI PUSH2 0x1E96 PUSH0 DUP3 PUSH2 0x1E6B JUMP JUMPDEST PUSH1 0x1 DUP2 ADD SWAP1 POP PUSH2 0x1E84 JUMP JUMPDEST POP POP JUMP JUMPDEST PUSH1 0x1F DUP3 GT ISZERO PUSH2 0x1EE6 JUMPI PUSH2 0x1EB7 DUP2 PUSH2 0x1D8E JUMP JUMPDEST PUSH2 0x1EC0 DUP5 PUSH2 0x1DA0 JUMP JUMPDEST DUP2 ADD PUSH1 0x20 DUP6 LT ISZERO PUSH2 0x1ECF JUMPI DUP2 SWAP1 POP JUMPDEST PUSH2 0x1EE3 PUSH2 0x1EDB DUP6 PUSH2 0x1DA0 JUMP JUMPDEST DUP4 ADD DUP3 PUSH2 0x1E83 JUMP JUMPDEST POP POP JUMPDEST POP POP POP JUMP JUMPDEST PUSH0 DUP3 DUP3 SHR SWAP1 POP SWAP3 SWAP2 POP POP JUMP JUMPDEST PUSH0 PUSH2 0x1F06 PUSH0 NOT DUP5 PUSH1 0x8 MUL PUSH2 0x1EEB JUMP JUMPDEST NOT DUP1 DUP4 AND SWAP2 POP POP SWAP3 SWAP2 POP POP JUMP JUMPDEST PUSH0 PUSH2 0x1F1E DUP4 DUP4 PUSH2 0x1EF7 JUMP JUMPDEST SWAP2 POP DUP3 PUSH1 0x2 MUL DUP3 OR SWAP1 POP SWAP3 SWAP2 POP POP JUMP JUMPDEST PUSH2 0x1F37 DUP3 PUSH2 0x1517 JUMP JUMPDEST PUSH8 0xFFFFFFFFFFFFFFFF DUP2 GT ISZERO PUSH2 0x1F50 JUMPI PUSH2 0x1F4F PUSH2 0x1918 JUMP JUMPDEST JUMPDEST PUSH2 0x1F5A DUP3 SLOAD PUSH2 0x1C55 JUMP JUMPDEST PUSH2 0x1F65 DUP3 DUP3 DUP6 PUSH2 0x1EA5 JUMP JUMPDEST PUSH0 PUSH1 0x20 SWAP1 POP PUSH1 0x1F DUP4 GT PUSH1 0x1 DUP2 EQ PUSH2 0x1F96 JUMPI PUSH0 DUP5 ISZERO PUSH2 0x1F84 JUMPI DUP3 DUP8 ADD MLOAD SWAP1 POP JUMPDEST PUSH2 0x1F8E DUP6 DUP3 PUSH2 0x1F13 JUMP JUMPDEST DUP7 SSTORE POP PUSH2 0x1FF5 JUMP JUMPDEST PUSH1 0x1F NOT DUP5 AND PUSH2 0x1FA4 DUP7 PUSH2 0x1D8E JUMP JUMPDEST PUSH0 JUMPDEST DUP3 DUP2 LT ISZERO PUSH2 0x1FCB JUMPI DUP5 DUP10 ADD MLOAD DUP3 SSTORE PUSH1 0x1 DUP3 ADD SWAP2 POP PUSH1 0x20 DUP6 ADD SWAP5 POP PUSH1 0x20 DUP2 ADD SWAP1 POP PUSH2 0x1FA6 JUMP JUMPDEST DUP7 DUP4 LT ISZERO PUSH2 0x1FE8 JUMPI DUP5 DUP10 ADD MLOAD PUSH2 0x1FE4 PUSH1 0x1F DUP10 AND DUP3 PUSH2 0x1EF7 JUMP JUMPDEST DUP4 SSTORE POP JUMPDEST PUSH1 0x1 PUSH1 0x2 DUP9 MUL ADD DUP9 SSTORE POP POP POP JUMPDEST POP POP POP POP POP POP JUMP JUMPDEST PUSH0 PUSH1 0x20 DUP3 ADD SWAP1 POP DUP2 DUP2 SUB PUSH0 DUP4 ADD MSTORE PUSH2 0x2015 DUP2 DUP5 PUSH2 0x154F JUMP JUMPDEST SWAP1 POP SWAP3 SWAP2 POP POP JUMP JUMPDEST PUSH32 0x496E76616C696420656469742072657175657374204944000000000000000000 PUSH0 DUP3 ADD MSTORE POP JUMP JUMPDEST PUSH0 PUSH2 0x2051 PUSH1 0x17 DUP4 PUSH2 0x1521 JUMP JUMPDEST SWAP2 POP PUSH2 0x205C DUP3 PUSH2 0x201D JUMP JUMPDEST PUSH1 0x20 DUP3 ADD SWAP1 POP SWAP2 SWAP1 POP JUMP JUMPDEST PUSH0 PUSH1 0x20 DUP3 ADD SWAP1 POP DUP2 DUP2 SUB PUSH0 DUP4 ADD MSTORE PUSH2 0x207E DUP2 PUSH2 0x2045 JUMP JUMPDEST SWAP1 POP SWAP2 SWAP1 POP JUMP JUMPDEST PUSH32 0x45646974207265717565737420616C726561647920617070726F766564000000 PUSH0 DUP3 ADD MSTORE POP JUMP JUMPDEST PUSH0 PUSH2 0x20B9 PUSH1 0x1D DUP4 PUSH2 0x1521 JUMP JUMPDEST SWAP2 POP PUSH2 0x20C4 DUP3 PUSH2 0x2085 JUMP JUMPDEST PUSH1 0x20 DUP3 ADD SWAP1 POP SWAP2 SWAP1 POP JUMP JUMPDEST PUSH0 PUSH1 0x20 DUP3 ADD SWAP1 POP DUP2 DUP2 SUB PUSH0 DUP4 ADD MSTORE PUSH2 0x20E6 DUP2 PUSH2 0x20AD JUMP JUMPDEST SWAP1 POP SWAP2 SWAP1 POP JUMP JUMPDEST PUSH0 DUP2 SLOAD SWAP1 POP PUSH2 0x20FB DUP2 PUSH2 0x1C55 JUMP JUMPDEST SWAP1 POP SWAP2 SWAP1 POP JUMP JUMPDEST PUSH0 DUP2 SWAP1 POP DUP2 PUSH0 MSTORE PUSH1 0x20 PUSH0 KECCAK256 SWAP1 POP SWAP2 SWAP1 POP JUMP JUMPDEST DUP2 DUP2 SUB PUSH2 0x2122 JUMPI POP POP PUSH2 0x21F7 JUMP JUMPDEST PUSH2 0x212B DUP3 PUSH2 0x20ED JUMP JUMPDEST PUSH8 0xFFFFFFFFFFFFFFFF DUP2 GT ISZERO PUSH2 0x2144 JUMPI PUSH2 0x2143 PUSH2 0x1918 JUMP JUMPDEST JUMPDEST PUSH2 0x214E DUP3 SLOAD PUSH2 0x1C55 JUMP JUMPDEST PUSH2 0x2159 DUP3 DUP3 DUP6 PUSH2 0x1EA5 JUMP JUMPDEST PUSH0 PUSH1 0x1F DUP4 GT PUSH1 0x1 DUP2 EQ PUSH2 0x2186 JUMPI PUSH0 DUP5 ISZERO PUSH2 0x2174 JUMPI DUP3 DUP8 ADD SLOAD SWAP1 POP JUMPDEST PUSH2 0x217E DUP6 DUP3 PUSH2 0x1F13 JUMP JUMPDEST DUP7 SSTORE POP PUSH2 0x21F0 JUMP JUMPDEST PUSH1 0x1F NOT DUP5 AND PUSH2 0x2194 DUP8 PUSH2 0x2102 JUMP JUMPDEST SWAP7 POP PUSH2 0x219F DUP7 PUSH2 0x1D8E JUMP JUMPDEST PUSH0 JUMPDEST DUP3 DUP2 LT ISZERO PUSH2 0x21C6 JUMPI DUP5 DUP10 ADD SLOAD DUP3 SSTORE PUSH1 0x1 DUP3 ADD SWAP2 POP PUSH1 0x1 DUP6 ADD SWAP5 POP PUSH1 0x20 DUP2 ADD SWAP1 POP PUSH2 0x21A1 JUMP JUMPDEST DUP7 DUP4 LT ISZERO PUSH2 0x21E3 JUMPI DUP5 DUP10 ADD SLOAD PUSH2 0x21DF PUSH1 0x1F DUP10 AND DUP3 PUSH2 0x1EF7 JUMP JUMPDEST DUP4 SSTORE POP JUMPDEST PUSH1 0x1 PUSH1 0x2 DUP9 MUL ADD DUP9 SSTORE POP POP POP JUMPDEST POP POP POP POP POP POP JUMPDEST JUMP JUMPDEST PUSH0 DUP2 SLOAD PUSH2 0x2205 DUP2 PUSH2 0x1C55 JUMP JUMPDEST PUSH2 0x220F DUP2 DUP7 PUSH2 0x1521 JUMP JUMPDEST SWAP5 POP PUSH1 0x1 DUP3 AND PUSH0 DUP2 EQ PUSH2 0x2229 JUMPI PUSH1 0x1 DUP2 EQ PUSH2 0x223F JUMPI PUSH2 0x2271 JUMP JUMPDEST PUSH1 0xFF NOT DUP4 AND DUP7 MSTORE DUP2 ISZERO ISZERO PUSH1 0x20 MUL DUP7 ADD SWAP4 POP PUSH2 0x2271 JUMP JUMPDEST PUSH2 0x2248 DUP6 PUSH2 0x1D8E JUMP JUMPDEST PUSH0 JUMPDEST DUP4 DUP2 LT ISZERO PUSH2 0x2269 JUMPI DUP2 SLOAD DUP2 DUP10 ADD MSTORE PUSH1 0x1 DUP3 ADD SWAP2 POP PUSH1 0x20 DUP2 ADD SWAP1 POP PUSH2 0x224A JUMP JUMPDEST DUP1 DUP9 ADD SWAP6 POP POP POP JUMPDEST POP POP POP SWAP3 SWAP2 POP POP JUMP JUMPDEST PUSH0 PUSH1 0x20 DUP3 ADD SWAP1 POP DUP2 DUP2 SUB PUSH0 DUP4 ADD MSTORE PUSH2 0x2292 DUP2 DUP5 PUSH2 0x21F9 JUMP JUMPDEST SWAP1 POP SWAP3 SWAP2 POP POP JUMP JUMPDEST PUSH32 0x496E76616C6964206D6573736167652049440000000000000000000000000000 PUSH0 DUP3 ADD MSTORE POP JUMP JUMPDEST PUSH0 PUSH2 0x22CE PUSH1 0x12 DUP4 PUSH2 0x1521 JUMP JUMPDEST SWAP2 POP PUSH2 0x22D9 DUP3 PUSH2 0x229A JUMP JUMPDEST PUSH1 0x20 DUP3 ADD SWAP1 POP SWAP2 SWAP1 POP JUMP JUMPDEST PUSH0 PUSH1 0x20 DUP3 ADD SWAP1 POP DUP2 DUP2 SUB PUSH0 DUP4 ADD MSTORE PUSH2 0x22FB DUP2 PUSH2 0x22C2 JUMP JUMPDEST SWAP1 POP SWAP2 SWAP1 POP JUMP JUMPDEST PUSH32 0x4D65737361676520686173206265656E2064656C657465640000000000000000 PUSH0 DUP3 ADD MSTORE POP JUMP JUMPDEST PUSH0 PUSH2 0x2336 PUSH1 0x18 DUP4 PUSH2 0x1521 JUMP JUMPDEST SWAP2 POP PUSH2 0x2341 DUP3 PUSH2 0x2302 JUMP JUMPDEST PUSH1 0x20 DUP3 ADD SWAP1 POP SWAP2 SWAP1 POP JUMP JUMPDEST PUSH0 PUSH1 0x20 DUP3 ADD SWAP1 POP DUP2 DUP2 SUB PUSH0 DUP4 ADD MSTORE PUSH2 0x2363 DUP2 PUSH2 0x232A JUMP JUMPDEST SWAP1 POP SWAP2 SWAP1 POP JUMP JUMPDEST PUSH32 0x4F6E6C79206D65737361676520617574686F722063616E207265717565737420 PUSH0 DUP3 ADD MSTORE PUSH32 0x6564697400000000000000000000000000000000000000000000000000000000 PUSH1 0x20 DUP3 ADD MSTORE POP JUMP JUMPDEST PUSH0 PUSH2 0x23C4 PUSH1 0x24 DUP4 PUSH2 0x1521 JUMP JUMPDEST SWAP2 POP PUSH2 0x23CF DUP3 PUSH2 0x236A JUMP JUMPDEST PUSH1 0x40 DUP3 ADD SWAP1 POP SWAP2 SWAP1 POP JUMP JUMPDEST PUSH0 PUSH1 0x20 DUP3 ADD SWAP1 POP DUP2 DUP2 SUB PUSH0 DUP4 ADD MSTORE PUSH2 0x23F1 DUP2 PUSH2 0x23B8 JUMP JUMPDEST SWAP1 POP SWAP2 SWAP1 POP JUMP JUMPDEST PUSH32 0x4E657720636F6E74656E742063616E6E6F7420626520656D7074790000000000 PUSH0 DUP3 ADD MSTORE POP JUMP JUMPDEST PUSH0 PUSH2 0x242C PUSH1 0x1B DUP4 PUSH2 0x1521 JUMP JUMPDEST SWAP2 POP PUSH2 0x2437 DUP3 PUSH2 0x23F8 JUMP JUMPDEST PUSH1 0x20 DUP3 ADD SWAP1 POP SWAP2 SWAP1 POP JUMP JUMPDEST PUSH0 PUSH1 0x20 DUP3 ADD SWAP1 POP DUP2 DUP2 SUB PUSH0 DUP4 ADD MSTORE PUSH2 0x2459 DUP2 PUSH2 0x2420 JUMP JUMPDEST SWAP1 POP SWAP2 SWAP1 POP JUMP JUMPDEST PUSH32 0x4D65737361676520616C72656164792064656C65746564000000000000000000 PUSH0 DUP3 ADD MSTORE POP JUMP JUMPDEST PUSH0 PUSH2 0x2494 PUSH1 0x17 DUP4 PUSH2 0x1521 JUMP JUMPDEST SWAP2 POP PUSH2 0x249F DUP3 PUSH2 0x2460 JUMP JUMPDEST PUSH1 0x20 DUP3 ADD SWAP1 POP SWAP2 SWAP1 POP JUMP JUMPDEST PUSH0 PUSH1 0x20 DUP3 ADD SWAP1 POP DUP2 DUP2 SUB PUSH0 DUP4 ADD MSTORE PUSH2 0x24C1 DUP2 PUSH2 0x2488 JUMP JUMPDEST SWAP1 POP SWAP2 SWAP1 POP JUMP JUMPDEST PUSH32 0x5265656E7472616E637947756172643A207265656E7472616E742063616C6C00 PUSH0 DUP3 ADD MSTORE POP JUMP JUMPDEST PUSH0 PUSH2 0x24FC PUSH1 0x1F DUP4 PUSH2 0x1521 JUMP JUMPDEST SWAP2 POP PUSH2 0x2507 DUP3 PUSH2 0x24C8 JUMP JUMPDEST PUSH1 0x20 DUP3 ADD SWAP1 POP SWAP2 SWAP1 POP JUMP JUMPDEST PUSH0 PUSH1 0x20 DUP3 ADD SWAP1 POP DUP2 DUP2 SUB PUSH0 DUP4 ADD MSTORE PUSH2 0x2529 DUP2 PUSH2 0x24F0 JUMP JUMPDEST SWAP1 POP SWAP2 SWAP1 POP JUMP INVALID LOG2 PUSH5 0x6970667358 0x22 SLT KECCAK256 DUP8 TSTORE SWAP5 0xBA JUMPI STOP 0xBC 0xAA 0xBA GASLIMIT 0xEF PUSH25 0x289C5EA7560137893A156CE790372B8ACD7D7E4B64736F6C63 NUMBER STOP ADDMOD 0x1E STOP CALLER "
				},
				"gasEstimates": {
					"creation": {
						"codeDepositCost": "1914800",
						"executionCost": "infinite",
						"totalCost": "infinite"
					},
					"external": {
						"approveMessageEdit(uint256)": "infinite",
						"deleteMessage(uint256)": "infinite",
						"editRequestCount()": "2471",
						"editRequests(uint256)": "infinite",
						"getAllMessages()": "infinite",
						"getMessage(uint256)": "infinite",
						"getPendingEditRequests()": "infinite",
						"messageCount()": "2493",
						"messages(uint256)": "infinite",
						"owner()": "2536",
						"postMessage(string)": "infinite",
						"renounceOwnership()": "infinite",
						"requestMessageEdit(uint256,string)": "infinite",
						"transferOwnership(address)": "infinite"
					}
				},
				"methodIdentifiers": {
					"approveMessageEdit(uint256)": "83c3cca7",
					"deleteMessage(uint256)": "b888690a",
					"editRequestCount()": "3bdae52f",
					"editRequests(uint256)": "77175fac",
					"getAllMessages()": "53f5e380",
					"getMessage(uint256)": "86f79edb",
					"getPendingEditRequests()": "44a56dd9",
					"messageCount()": "3dbcc8d1",
					"messages(uint256)": "0d80fefd",
					"owner()": "8da5cb5b",
					"postMessage(string)": "6630f88f",
					"renounceOwnership()": "715018a6",
					"requestMessageEdit(uint256,string)": "a8c69fd8",
					"transferOwnership(address)": "f2fde38b"
				}
			},
			"storageLayout": {
				"storage": [
					{
						"astId": 8,
						"contract": "chaintalk.sol:ChainTalk",
						"label": "_owner",
						"offset": 0,
						"slot": "0",
						"type": "t_address"
					},
					{
						"astId": 158,
						"contract": "chaintalk.sol:ChainTalk",
						"label": "_status",
						"offset": 0,
						"slot": "1",
						"type": "t_uint256"
					},
					{
						"astId": 275,
						"contract": "chaintalk.sol:ChainTalk",
						"label": "messages",
						"offset": 0,
						"slot": "2",
						"type": "t_mapping(t_uint256,t_struct(Message)261_storage)"
					},
					{
						"astId": 280,
						"contract": "chaintalk.sol:ChainTalk",
						"label": "editRequests",
						"offset": 0,
						"slot": "3",
						"type": "t_mapping(t_uint256,t_struct(EditRequest)270_storage)"
					},
					{
						"astId": 282,
						"contract": "chaintalk.sol:ChainTalk",
						"label": "messageCount",
						"offset": 0,
						"slot": "4",
						"type": "t_uint256"
					},
					{
						"astId": 284,
						"contract": "chaintalk.sol:ChainTalk",
						"label": "editRequestCount",
						"offset": 0,
						"slot": "5",
						"type": "t_uint256"
					}
				],
				"types": {
					"t_address": {
						"encoding": "inplace",
						"label": "address",
						"numberOfBytes": "20"
					},
					"t_bool": {
						"encoding": "inplace",
						"label": "bool",
						"numberOfBytes": "1"
					},
					"t_mapping(t_uint256,t_struct(EditRequest)270_storage)": {
						"encoding": "mapping",
						"key": "t_uint256",
						"label": "mapping(uint256 => struct ChainTalk.EditRequest)",
						"numberOfBytes": "32",
						"value": "t_struct(EditRequest)270_storage"
					},
					"t_mapping(t_uint256,t_struct(Message)261_storage)": {
						"encoding": "mapping",
						"key": "t_uint256",
						"label": "mapping(uint256 => struct ChainTalk.Message)",
						"numberOfBytes": "32",
						"value": "t_struct(Message)261_storage"
					},
					"t_string_storage": {
						"encoding": "bytes",
						"label": "string",
						"numberOfBytes": "32"
					},
					"t_struct(EditRequest)270_storage": {
						"encoding": "inplace",
						"label": "struct ChainTalk.EditRequest",
						"members": [
							{
								"astId": 263,
								"contract": "chaintalk.sol:ChainTalk",
								"label": "messageId",
								"offset": 0,
								"slot": "0",
								"type": "t_uint256"
							},
							{
								"astId": 265,
								"contract": "chaintalk.sol:ChainTalk",
								"label": "requester",
								"offset": 0,
								"slot": "1",
								"type": "t_address"
							},
							{
								"astId": 267,
								"contract": "chaintalk.sol:ChainTalk",
								"label": "newContent",
								"offset": 0,
								"slot": "2",
								"type": "t_string_storage"
							},
							{
								"astId": 269,
								"contract": "chaintalk.sol:ChainTalk",
								"label": "isApproved",
								"offset": 0,
								"slot": "3",
								"type": "t_bool"
							}
						],
						"numberOfBytes": "128"
					},
					"t_struct(Message)261_storage": {
						"encoding": "inplace",
						"label": "struct ChainTalk.Message",
						"members": [
							{
								"astId": 252,
								"contract": "chaintalk.sol:ChainTalk",
								"label": "id",
								"offset": 0,
								"slot": "0",
								"type": "t_uint256"
							},
							{
								"astId": 254,
								"contract": "chaintalk.sol:ChainTalk",
								"label": "author",
								"offset": 0,
								"slot": "1",
								"type": "t_address"
							},
							{
								"astId": 256,
								"contract": "chaintalk.sol:ChainTalk",
								"label": "content",
								"offset": 0,
								"slot": "2",
								"type": "t_string_storage"
							},
							{
								"astId": 258,
								"contract": "chaintalk.sol:ChainTalk",
								"label": "timestamp",
								"offset": 0,
								"slot": "3",
								"type": "t_uint256"
							},
							{
								"astId": 260,
								"contract": "chaintalk.sol:ChainTalk",
								"label": "isDeleted",
								"offset": 0,
								"slot": "4",
								"type": "t_bool"
							}
						],
						"numberOfBytes": "160"
					},
					"t_uint256": {
						"encoding": "inplace",
						"label": "uint256",
						"numberOfBytes": "32"
					}
				}
			},
			"userdoc": {
				"kind": "user",
				"methods": {},
				"version": 1
			}
		}
	}
}