{
	"MessageBoard.sol": {
		"ChainTalk": {
			"abi": [
				{
					"inputs": [],
					"stateMutability": "nonpayable",
					"type": "constructor"
				},
				{
					"inputs": [
						{
							"internalType": "address",
							"name": "owner",
							"type": "address"
						}
					],
					"name": "OwnableInvalidOwner",
					"type": "error"
				},
				{
					"inputs": [
						{
							"internalType": "address",
							"name": "account",
							"type": "address"
						}
					],
					"name": "OwnableUnauthorizedAccount",
					"type": "error"
				},
				{
					"anonymous": false,
					"inputs": [
						{
							"indexed": true,
							"internalType": "uint256",
							"name": "messageId",
							"type": "uint256"
						},
						{
							"indexed": false,
							"internalType": "string",
							"name": "newContent",
							"type": "string"
						}
					],
					"name": "EditApproved",
					"type": "event"
				},
				{
					"anonymous": false,
					"inputs": [
						{
							"indexed": true,
							"internalType": "uint256",
							"name": "messageId",
							"type": "uint256"
						},
						{
							"indexed": true,
							"internalType": "address",
							"name": "requester",
							"type": "address"
						},
						{
							"indexed": false,
							"internalType": "string",
							"name": "newContent",
							"type": "string"
						}
					],
					"name": "EditRequested",
					"type": "event"
				},
				{
					"anonymous": false,
					"inputs": [
						{
							"indexed": true,
							"internalType": "uint256",
							"name": "messageId",
							"type": "uint256"
						}
					],
					"name": "MessageDeleted",
					"type": "event"
				},
				{
					"anonymous": false,
					"inputs": [
						{
							"indexed": true,
							"internalType": "uint256",
							"name": "messageId",
							"type": "uint256"
						},
						{
							"indexed": true,
							"internalType": "address",
							"name": "author",
							"type": "address"
						},
						{
							"indexed": false,
							"internalType": "string",
							"name": "content",
							"type": "string"
						}
					],
					"name": "MessagePosted",
					"type": "event"
				},
				{
					"anonymous": false,
					"inputs": [
						{
							"indexed": true,
							"internalType": "address",
							"name": "previousOwner",
							"type": "address"
						},
						{
							"indexed": true,
							"internalType": "address",
							"name": "newOwner",
							"type": "address"
						}
					],
					"name": "OwnershipTransferred",
					"type": "event"
				},
				{
					"inputs": [
						{
							"internalType": "uint256",
							"name": "_editRequestId",
							"type": "uint256"
						}
					],
					"name": "approveMessageEdit",
					"outputs": [],
					"stateMutability": "nonpayable",
					"type": "function"
				},
				{
					"inputs": [
						{
							"internalType": "uint256",
							"name": "_messageId",
							"type": "uint256"
						}
					],
					"name": "deleteMessage",
					"outputs": [],
					"stateMutability": "nonpayable",
					"type": "function"
				},
				{
					"inputs": [],
					"name": "editRequestCount",
					"outputs": [
						{
							"internalType": "uint256",
							"name": "",
							"type": "uint256"
						}
					],
					"stateMutability": "view",
					"type": "function"
				},
				{
					"inputs": [
						{
							"internalType": "uint256",
							"name": "",
							"type": "uint256"
						}
					],
					"name": "editRequests",
					"outputs": [
						{
							"internalType": "uint256",
							"name": "messageId",
							"type": "uint256"
						},
						{
							"internalType": "address",
							"name": "requester",
							"type": "address"
						},
						{
							"internalType": "string",
							"name": "newContent",
							"type": "string"
						},
						{
							"internalType": "bool",
							"name": "isApproved",
							"type": "bool"
						}
					],
					"stateMutability": "view",
					"type": "function"
				},
				{
					"inputs": [],
					"name": "getAllMessages",
					"outputs": [
						{
							"components": [
								{
									"internalType": "uint256",
									"name": "id",
									"type": "uint256"
								},
								{
									"internalType": "address",
									"name": "author",
									"type": "address"
								},
								{
									"internalType": "string",
									"name": "content",
									"type": "string"
								},
								{
									"internalType": "uint256",
									"name": "timestamp",
									"type": "uint256"
								},
								{
									"internalType": "bool",
									"name": "isDeleted",
									"type": "bool"
								}
							],
							"internalType": "struct ChainTalk.Message[]",
							"name": "",
							"type": "tuple[]"
						}
					],
					"stateMutability": "view",
					"type": "function"
				},
				{
					"inputs": [
						{
							"internalType": "uint256",
							"name": "_messageId",
							"type": "uint256"
						}
					],
					"name": "getMessage",
					"outputs": [
						{
							"components": [
								{
									"internalType": "uint256",
									"name": "id",
									"type": "uint256"
								},
								{
									"internalType": "address",
									"name": "author",
									"type": "address"
								},
								{
									"internalType": "string",
									"name": "content",
									"type": "string"
								},
								{
									"internalType": "uint256",
									"name": "timestamp",
									"type": "uint256"
								},
								{
									"internalType": "bool",
									"name": "isDeleted",
									"type": "bool"
								}
							],
							"internalType": "struct ChainTalk.Message",
							"name": "",
							"type": "tuple"
						}
					],
					"stateMutability": "view",
					"type": "function"
				},
				{
					"inputs": [],
					"name": "getPendingEditRequests",
					"outputs": [
						{
							"components": [
								{
									"internalType": "uint256",
									"name": "messageId",
									"type": "uint256"
								},
								{
									"internalType": "address",
									"name": "requester",
									"type": "address"
								},
								{
									"internalType": "string",
									"name": "newContent",
									"type": "string"
								},
								{
									"internalType": "bool",
									"name": "isApproved",
									"type": "bool"
								}
							],
							"internalType": "struct ChainTalk.EditRequest[]",
							"name": "",
							"type": "tuple[]"
						}
					],
					"stateMutability": "view",
					"type": "function"
				},
				{
					"inputs": [],
					"name": "messageCount",
					"outputs": [
						{
							"internalType": "uint256",
							"name": "",
							"type": "uint256"
						}
					],
					"stateMutability": "view",
					"type": "function"
				},
				{
					"inputs": [
						{
							"internalType": "uint256",
							"name": "",
							"type": "uint256"
						}
					],
					"name": "messages",
					"outputs": [
						{
							"internalType": "uint256",
							"name": "id",
							"type": "uint256"
						},
						{
							"internalType": "address",
							"name": "author",
							"type": "address"
						},
						{
							"internalType": "string",
							"name": "content",
							"type": "string"
						},
						{
							"internalType": "uint256",
							"name": "timestamp",
							"type": "uint256"
						},
						{
							"internalType": "bool",
							"name": "isDeleted",
							"type": "bool"
						}
					],
					"stateMutability": "view",
					"type": "function"
				},
				{
					"inputs": [],
					"name": "owner",
					"outputs": [
						{
							"internalType": "address",
							"name": "",
							"type": "address"
						}
					],
					"stateMutability": "view",
					"type": "function"
				},
				{
					"inputs": [
						{
							"internalType": "string",
							"name": "_content",
							"type": "string"
						}
					],
					"name": "postMessage",
					"outputs": [
						{
							"internalType": "uint256",
							"name": "",
							"type": "uint256"
						}
					],
					"stateMutability": "nonpayable",
					"type": "function"
				},
				{
					"inputs": [],
					"name": "renounceOwnership",
					"outputs": [],
					"stateMutability": "nonpayable",
					"type": "function"
				},
				{
					"inputs": [
						{
							"internalType": "uint256",
							"name": "_messageId",
							"type": "uint256"
						},
						{
							"internalType": "string",
							"name": "_newContent",
							"type": "string"
						}
					],
					"name": "requestMessageEdit",
					"outputs": [],
					"stateMutability": "nonpayable",
					"type": "function"
				},
				{
					"inputs": [
						{
							"internalType": "address",
							"name": "newOwner",
							"type": "address"
						}
					],
					"name": "transferOwnership",
					"outputs": [],
					"stateMutability": "nonpayable",
					"type": "function"
				}
			],
			"devdoc": {
				"details": "A smart contract for a decentralized message board with advanced features",
				"errors": {
					"OwnableInvalidOwner(address)": [
						{
							"details": "The owner is not a valid owner account. (eg. `address(0)`)"
						}
					],
					"OwnableUnauthorizedAccount(address)": [
						{
							"details": "The caller account is not authorized to perform an operation."
						}
					]
				},
				"kind": "dev",
				"methods": {
					"approveMessageEdit(uint256)": {
						"details": "Approve an edit request (only owner)",
						"params": {
							"_editRequestId": "The ID of the edit request to approve"
						}
					},
					"deleteMessage(uint256)": {
						"details": "Delete a message (only owner)",
						"params": {
							"_messageId": "The ID of the message to delete"
						}
					},
					"getAllMessages()": {
						"details": "Retrieve all non-deleted messages",
						"returns": {
							"_0": "An array of all active messages"
						}
					},
					"getMessage(uint256)": {
						"details": "Retrieve a specific message by ID",
						"params": {
							"_messageId": "The ID of the message to retrieve"
						},
						"returns": {
							"_0": "The message struct"
						}
					},
					"getPendingEditRequests()": {
						"details": "Retrieve all pending edit requests",
						"returns": {
							"_0": "An array of pending edit requests"
						}
					},
					"owner()": {
						"details": "Returns the address of the current owner."
					},
					"postMessage(string)": {
						"details": "Post a new message",
						"params": {
							"_content": "The content of the message"
						},
						"returns": {
							"_0": "The ID of the newly created message"
						}
					},
					"renounceOwnership()": {
						"details": "Leaves the contract without owner. It will not be possible to call `onlyOwner` functions. Can only be called by the current owner. NOTE: Renouncing ownership will leave the contract without an owner, thereby disabling any functionality that is only available to the owner."
					},
					"requestMessageEdit(uint256,string)": {
						"details": "Request an edit to a message",
						"params": {
							"_messageId": "The ID of the message to edit",
							"_newContent": "The proposed new content"
						}
					},
					"transferOwnership(address)": {
						"details": "Transfers ownership of the contract to a new account (`newOwner`). Can only be called by the current owner."
					}
				},
				"title": "ChainTalk",
				"version": 1
			},
			"evm": {
				"assembly": "    /* \"MessageBoard.sol\":295:6681  contract ChainTalk is Ownable, ReentrancyGuard {... */\n  mstore(0x40, 0x80)\n    /* \"MessageBoard.sol\":1405:1441  constructor() Ownable(msg.sender) {} */\n  callvalue\n  dup1\n  iszero\n  tag_1\n  jumpi\n  0x00\n  dup1\n  revert\ntag_1:\n  pop\n    /* \"MessageBoard.sol\":1427:1437  msg.sender */\n  caller\n    /* \"@openzeppelin/contracts/access/Ownable.sol\":1297:1298  0 */\n  0x00\n    /* \"@openzeppelin/contracts/access/Ownable.sol\":1273:1299  initialOwner == address(0) */\n  0xffffffffffffffffffffffffffffffffffffffff\n  and\n    /* \"@openzeppelin/contracts/access/Ownable.sol\":1273:1285  initialOwner */\n  dup2\n    /* \"@openzeppelin/contracts/access/Ownable.sol\":1273:1299  initialOwner == address(0) */\n  0xffffffffffffffffffffffffffffffffffffffff\n  and\n  sub\n    /* \"@openzeppelin/contracts/access/Ownable.sol\":1269:1364  if (initialOwner == address(0)) {... */\n  tag_6\n  jumpi\n    /* \"@openzeppelin/contracts/access/Ownable.sol\":1350:1351  0 */\n  0x00\n    /* \"@openzeppelin/contracts/access/Ownable.sol\":1322:1353  OwnableInvalidOwner(address(0)) */\n  mload(0x40)\n  0x1e4fbdf700000000000000000000000000000000000000000000000000000000\n  dup2\n  mstore\n  0x04\n  add\n  tag_7\n  swap2\n  swap1\n  tag_8\n  jump\t// in\ntag_7:\n  mload(0x40)\n  dup1\n  swap2\n  sub\n  swap1\n  revert\n    /* \"@openzeppelin/contracts/access/Ownable.sol\":1269:1364  if (initialOwner == address(0)) {... */\ntag_6:\n    /* \"@openzeppelin/contracts/access/Ownable.sol\":1373:1405  _transferOwnership(initialOwner) */\n  tag_9\n    /* \"@openzeppelin/contracts/access/Ownable.sol\":1392:1404  initialOwner */\n  dup2\n    /* \"@openzeppelin/contracts/access/Ownable.sol\":1373:1391  _transferOwnership */\n  shl(0x20, tag_10)\n    /* \"@openzeppelin/contracts/access/Ownable.sol\":1373:1405  _transferOwnership(initialOwner) */\n  0x20\n  shr\n  jump\t// in\ntag_9:\n    /* \"@openzeppelin/contracts/access/Ownable.sol\":1225:1412  constructor(address initialOwner) {... */\n  pop\n    /* \"@openzeppelin/contracts/security/ReentrancyGuard.sol\":1716:1717  1 */\n  0x01\n    /* \"@openzeppelin/contracts/security/ReentrancyGuard.sol\":1821:1828  _status */\n  dup1\n    /* \"@openzeppelin/contracts/security/ReentrancyGuard.sol\":1821:1843  _status = _NOT_ENTERED */\n  dup2\n  swap1\n  sstore\n  pop\n    /* \"MessageBoard.sol\":295:6681  contract ChainTalk is Ownable, ReentrancyGuard {... */\n  jump(tag_13)\n    /* \"@openzeppelin/contracts/access/Ownable.sol\":2912:3099  function _transferOwnership(address newOwner) internal virtual {... */\ntag_10:\n    /* \"@openzeppelin/contracts/access/Ownable.sol\":2985:3001  address oldOwner */\n  0x00\n    /* \"@openzeppelin/contracts/access/Ownable.sol\":3004:3010  _owner */\n  dup1\n  0x00\n  swap1\n  sload\n  swap1\n  0x0100\n  exp\n  swap1\n  div\n  0xffffffffffffffffffffffffffffffffffffffff\n  and\n    /* \"@openzeppelin/contracts/access/Ownable.sol\":2985:3010  address oldOwner = _owner */\n  swap1\n  pop\n    /* \"@openzeppelin/contracts/access/Ownable.sol\":3029:3037  newOwner */\n  dup2\n    /* \"@openzeppelin/contracts/access/Ownable.sol\":3020:3026  _owner */\n  0x00\n  dup1\n    /* \"@openzeppelin/contracts/access/Ownable.sol\":3020:3037  _owner = newOwner */\n  0x0100\n  exp\n  dup2\n  sload\n  dup2\n  0xffffffffffffffffffffffffffffffffffffffff\n  mul\n  not\n  and\n  swap1\n  dup4\n  0xffffffffffffffffffffffffffffffffffffffff\n  and\n  mul\n  or\n  swap1\n  sstore\n  pop\n    /* \"@openzeppelin/contracts/access/Ownable.sol\":3083:3091  newOwner */\n  dup2\n    /* \"@openzeppelin/contracts/access/Ownable.sol\":3052:3092  OwnershipTransferred(oldOwner, newOwner) */\n  0xffffffffffffffffffffffffffffffffffffffff\n  and\n    /* \"@openzeppelin/contracts/access/Ownable.sol\":3073:3081  oldOwner */\n  dup2\n    /* \"@openzeppelin/contracts/access/Ownable.sol\":3052:3092  OwnershipTransferred(oldOwner, newOwner) */\n  0xffffffffffffffffffffffffffffffffffffffff\n  and\n  0x8be0079c531659141344cd1fd0a4f28419497f9722a3daafe3b4186f6b6457e0\n  mload(0x40)\n  mload(0x40)\n  dup1\n  swap2\n  sub\n  swap1\n  log3\n    /* \"@openzeppelin/contracts/access/Ownable.sol\":2975:3099  {... */\n  pop\n    /* \"@openzeppelin/contracts/access/Ownable.sol\":2912:3099  function _transferOwnership(address newOwner) internal virtual {... */\n  pop\n  jump\t// out\n    /* \"#utility.yul\":7:133   */\ntag_15:\n    /* \"#utility.yul\":44:51   */\n  0x00\n    /* \"#utility.yul\":84:126   */\n  0xffffffffffffffffffffffffffffffffffffffff\n    /* \"#utility.yul\":77:82   */\n  dup3\n    /* \"#utility.yul\":73:127   */\n  and\n    /* \"#utility.yul\":62:127   */\n  swap1\n  pop\n    /* \"#utility.yul\":7:133   */\n  swap2\n  swap1\n  pop\n  jump\t// out\n    /* \"#utility.yul\":139:235   */\ntag_16:\n    /* \"#utility.yul\":176:183   */\n  0x00\n    /* \"#utility.yul\":205:229   */\n  tag_21\n    /* \"#utility.yul\":223:228   */\n  dup3\n    /* \"#utility.yul\":205:229   */\n  tag_15\n  jump\t// in\ntag_21:\n    /* \"#utility.yul\":194:229   */\n  swap1\n  pop\n    /* \"#utility.yul\":139:235   */\n  swap2\n  swap1\n  pop\n  jump\t// out\n    /* \"#utility.yul\":241:359   */\ntag_17:\n    /* \"#utility.yul\":328:352   */\n  tag_23\n    /* \"#utility.yul\":346:351   */\n  dup2\n    /* \"#utility.yul\":328:352   */\n  tag_16\n  jump\t// in\ntag_23:\n    /* \"#utility.yul\":323:326   */\n  dup3\n    /* \"#utility.yul\":316:353   */\n  mstore\n    /* \"#utility.yul\":241:359   */\n  pop\n  pop\n  jump\t// out\n    /* \"#utility.yul\":365:587   */\ntag_8:\n    /* \"#utility.yul\":458:462   */\n  0x00\n    /* \"#utility.yul\":496:498   */\n  0x20\n    /* \"#utility.yul\":485:494   */\n  dup3\n    /* \"#utility.yul\":481:499   */\n  add\n    /* \"#utility.yul\":473:499   */\n  swap1\n  pop\n    /* \"#utility.yul\":509:580   */\n  tag_25\n    /* \"#utility.yul\":577:578   */\n  0x00\n    /* \"#utility.yul\":566:575   */\n  dup4\n    /* \"#utility.yul\":562:579   */\n  add\n    /* \"#utility.yul\":553:559   */\n  dup5\n    /* \"#utility.yul\":509:580   */\n  tag_17\n  jump\t// in\ntag_25:\n    /* \"#utility.yul\":365:587   */\n  swap3\n  swap2\n  pop\n  pop\n  jump\t// out\n    /* \"MessageBoard.sol\":295:6681  contract ChainTalk is Ownable, ReentrancyGuard {... */\ntag_13:\n  dataSize(sub_0)\n  dup1\n  dataOffset(sub_0)\n  0x00\n  codecopy\n  0x00\n  return\nstop\n\nsub_0: assembly {\n        /* \"MessageBoard.sol\":295:6681  contract ChainTalk is Ownable, ReentrancyGuard {... */\n      mstore(0x40, 0x80)\n      callvalue\n      dup1\n      iszero\n      tag_1\n      jumpi\n      0x00\n      dup1\n      revert\n    tag_1:\n      pop\n      jumpi(tag_2, lt(calldatasize, 0x04))\n      shr(0xe0, calldataload(0x00))\n      dup1\n      0x77175fac\n      gt\n      tag_17\n      jumpi\n      dup1\n      0x8da5cb5b\n      gt\n      tag_18\n      jumpi\n      dup1\n      0x8da5cb5b\n      eq\n      tag_13\n      jumpi\n      dup1\n      0xa8c69fd8\n      eq\n      tag_14\n      jumpi\n      dup1\n      0xb888690a\n      eq\n      tag_15\n      jumpi\n      dup1\n      0xf2fde38b\n      eq\n      tag_16\n      jumpi\n      jump(tag_2)\n    tag_18:\n      dup1\n      0x77175fac\n      eq\n      tag_10\n      jumpi\n      dup1\n      0x83c3cca7\n      eq\n      tag_11\n      jumpi\n      dup1\n      0x86f79edb\n      eq\n      tag_12\n      jumpi\n      jump(tag_2)\n    tag_17:\n      dup1\n      0x44a56dd9\n      gt\n      tag_19\n      jumpi\n      dup1\n      0x44a56dd9\n      eq\n      tag_6\n      jumpi\n      dup1\n      0x53f5e380\n      eq\n      tag_7\n      jumpi\n      dup1\n      0x6630f88f\n      eq\n      tag_8\n      jumpi\n      dup1\n      0x715018a6\n      eq\n      tag_9\n      jumpi\n      jump(tag_2)\n    tag_19:\n      dup1\n      0x0d80fefd\n      eq\n      tag_3\n      jumpi\n      dup1\n      0x3bdae52f\n      eq\n      tag_4\n      jumpi\n      dup1\n      0x3dbcc8d1\n      eq\n      tag_5\n      jumpi\n    tag_2:\n      0x00\n      dup1\n      revert\n        /* \"MessageBoard.sol\":784:827  mapping(uint256 => Message) public messages */\n    tag_3:\n      tag_20\n      0x04\n      dup1\n      calldatasize\n      sub\n      dup2\n      add\n      swap1\n      tag_21\n      swap2\n      swap1\n      tag_22\n      jump\t// in\n    tag_21:\n      tag_23\n      jump\t// in\n    tag_20:\n      mload(0x40)\n      tag_24\n      swap6\n      swap5\n      swap4\n      swap3\n      swap2\n      swap1\n      tag_25\n      jump\t// in\n    tag_24:\n      mload(0x40)\n      dup1\n      swap2\n      sub\n      swap1\n      return\n        /* \"MessageBoard.sol\":968:999  uint256 public editRequestCount */\n    tag_4:\n      tag_26\n      tag_27\n      jump\t// in\n    tag_26:\n      mload(0x40)\n      tag_28\n      swap2\n      swap1\n      tag_29\n      jump\t// in\n    tag_28:\n      mload(0x40)\n      dup1\n      swap2\n      sub\n      swap1\n      return\n        /* \"MessageBoard.sol\":934:961  uint256 public messageCount */\n    tag_5:\n      tag_30\n      tag_31\n      jump\t// in\n    tag_30:\n      mload(0x40)\n      tag_32\n      swap2\n      swap1\n      tag_29\n      jump\t// in\n    tag_32:\n      mload(0x40)\n      dup1\n      swap2\n      sub\n      swap1\n      return\n        /* \"MessageBoard.sol\":5447:6137  function getPendingEditRequests() public view returns (EditRequest[] memory) {... */\n    tag_6:\n      tag_33\n      tag_34\n      jump\t// in\n    tag_33:\n      mload(0x40)\n      tag_35\n      swap2\n      swap1\n      tag_36\n      jump\t// in\n    tag_35:\n      mload(0x40)\n      dup1\n      swap2\n      sub\n      swap1\n      return\n        /* \"MessageBoard.sol\":2815:3462  function getAllMessages() public view returns (Message[] memory) {... */\n    tag_7:\n      tag_37\n      tag_38\n      jump\t// in\n    tag_37:\n      mload(0x40)\n      tag_39\n      swap2\n      swap1\n      tag_40\n      jump\t// in\n    tag_39:\n      mload(0x40)\n      dup1\n      swap2\n      sub\n      swap1\n      return\n        /* \"MessageBoard.sol\":1602:2238  function postMessage(string memory _content) public nonReentrant returns (uint256) {... */\n    tag_8:\n      tag_41\n      0x04\n      dup1\n      calldatasize\n      sub\n      dup2\n      add\n      swap1\n      tag_42\n      swap2\n      swap1\n      tag_43\n      jump\t// in\n    tag_42:\n      tag_44\n      jump\t// in\n    tag_41:\n      mload(0x40)\n      tag_45\n      swap2\n      swap1\n      tag_29\n      jump\t// in\n    tag_45:\n      mload(0x40)\n      dup1\n      swap2\n      sub\n      swap1\n      return\n        /* \"@openzeppelin/contracts/access/Ownable.sol\":2293:2394  function renounceOwnership() public virtual onlyOwner {... */\n    tag_9:\n      tag_46\n      tag_47\n      jump\t// in\n    tag_46:\n      stop\n        /* \"MessageBoard.sol\":834:885  mapping(uint256 => EditRequest) public editRequests */\n    tag_10:\n      tag_48\n      0x04\n      dup1\n      calldatasize\n      sub\n      dup2\n      add\n      swap1\n      tag_49\n      swap2\n      swap1\n      tag_22\n      jump\t// in\n    tag_49:\n      tag_50\n      jump\t// in\n    tag_48:\n      mload(0x40)\n      tag_51\n      swap5\n      swap4\n      swap3\n      swap2\n      swap1\n      tag_52\n      jump\t// in\n    tag_51:\n      mload(0x40)\n      dup1\n      swap2\n      sub\n      swap1\n      return\n        /* \"MessageBoard.sol\":4638:5323  function approveMessageEdit(uint256 _editRequestId) public onlyOwner {... */\n    tag_11:\n      tag_53\n      0x04\n      dup1\n      calldatasize\n      sub\n      dup2\n      add\n      swap1\n      tag_54\n      swap2\n      swap1\n      tag_22\n      jump\t// in\n    tag_54:\n      tag_55\n      jump\t// in\n    tag_53:\n      stop\n        /* \"MessageBoard.sol\":2406:2694  function getMessage(uint256 _messageId) public view returns (Message memory) {... */\n    tag_12:\n      tag_56\n      0x04\n      dup1\n      calldatasize\n      sub\n      dup2\n      add\n      swap1\n      tag_57\n      swap2\n      swap1\n      tag_22\n      jump\t// in\n    tag_57:\n      tag_58\n      jump\t// in\n    tag_56:\n      mload(0x40)\n      tag_59\n      swap2\n      swap1\n      tag_60\n      jump\t// in\n    tag_59:\n      mload(0x40)\n      dup1\n      swap2\n      sub\n      swap1\n      return\n        /* \"@openzeppelin/contracts/access/Ownable.sol\":1638:1723  function owner() public view virtual returns (address) {... */\n    tag_13:\n      tag_61\n      tag_62\n      jump\t// in\n    tag_61:\n      mload(0x40)\n      tag_63\n      swap2\n      swap1\n      tag_64\n      jump\t// in\n    tag_63:\n      mload(0x40)\n      dup1\n      swap2\n      sub\n      swap1\n      return\n        /* \"MessageBoard.sol\":3638:4494  function requestMessageEdit(uint256 _messageId, string memory _newContent) public nonReentrant {... */\n    tag_14:\n      tag_65\n      0x04\n      dup1\n      calldatasize\n      sub\n      dup2\n      add\n      swap1\n      tag_66\n      swap2\n      swap1\n      tag_67\n      jump\t// in\n    tag_66:\n      tag_68\n      jump\t// in\n    tag_65:\n      stop\n        /* \"MessageBoard.sol\":6264:6678  function deleteMessage(uint256 _messageId) public onlyOwner {... */\n    tag_15:\n      tag_69\n      0x04\n      dup1\n      calldatasize\n      sub\n      dup2\n      add\n      swap1\n      tag_70\n      swap2\n      swap1\n      tag_22\n      jump\t// in\n    tag_70:\n      tag_71\n      jump\t// in\n    tag_69:\n      stop\n        /* \"@openzeppelin/contracts/access/Ownable.sol\":2543:2758  function transferOwnership(address newOwner) public virtual onlyOwner {... */\n    tag_16:\n      tag_72\n      0x04\n      dup1\n      calldatasize\n      sub\n      dup2\n      add\n      swap1\n      tag_73\n      swap2\n      swap1\n      tag_74\n      jump\t// in\n    tag_73:\n      tag_75\n      jump\t// in\n    tag_72:\n      stop\n        /* \"MessageBoard.sol\":784:827  mapping(uint256 => Message) public messages */\n    tag_23:\n      mstore(0x20, 0x02)\n      dup1\n      0x00\n      mstore\n      keccak256(0x00, 0x40)\n      0x00\n      swap2\n      pop\n      swap1\n      pop\n      dup1\n      0x00\n      add\n      sload\n      swap1\n      dup1\n      0x01\n      add\n      0x00\n      swap1\n      sload\n      swap1\n      0x0100\n      exp\n      swap1\n      div\n      0xffffffffffffffffffffffffffffffffffffffff\n      and\n      swap1\n      dup1\n      0x02\n      add\n      dup1\n      sload\n      tag_76\n      swap1\n      tag_77\n      jump\t// in\n    tag_76:\n      dup1\n      0x1f\n      add\n      0x20\n      dup1\n      swap2\n      div\n      mul\n      0x20\n      add\n      mload(0x40)\n      swap1\n      dup2\n      add\n      0x40\n      mstore\n      dup1\n      swap3\n      swap2\n      swap1\n      dup2\n      dup2\n      mstore\n      0x20\n      add\n      dup3\n      dup1\n      sload\n      tag_78\n      swap1\n      tag_77\n      jump\t// in\n    tag_78:\n      dup1\n      iszero\n      tag_79\n      jumpi\n      dup1\n      0x1f\n      lt\n      tag_80\n      jumpi\n      0x0100\n      dup1\n      dup4\n      sload\n      div\n      mul\n      dup4\n      mstore\n      swap2\n      0x20\n      add\n      swap2\n      jump(tag_79)\n    tag_80:\n      dup3\n      add\n      swap2\n      swap1\n      0x00\n      mstore\n      keccak256(0x00, 0x20)\n      swap1\n    tag_81:\n      dup2\n      sload\n      dup2\n      mstore\n      swap1\n      0x01\n      add\n      swap1\n      0x20\n      add\n      dup1\n      dup4\n      gt\n      tag_81\n      jumpi\n      dup3\n      swap1\n      sub\n      0x1f\n      and\n      dup3\n      add\n      swap2\n    tag_79:\n      pop\n      pop\n      pop\n      pop\n      pop\n      swap1\n      dup1\n      0x03\n      add\n      sload\n      swap1\n      dup1\n      0x04\n      add\n      0x00\n      swap1\n      sload\n      swap1\n      0x0100\n      exp\n      swap1\n      div\n      0xff\n      and\n      swap1\n      pop\n      dup6\n      jump\t// out\n        /* \"MessageBoard.sol\":968:999  uint256 public editRequestCount */\n    tag_27:\n      sload(0x05)\n      dup2\n      jump\t// out\n        /* \"MessageBoard.sol\":934:961  uint256 public messageCount */\n    tag_31:\n      sload(0x04)\n      dup2\n      jump\t// out\n        /* \"MessageBoard.sol\":5447:6137  function getPendingEditRequests() public view returns (EditRequest[] memory) {... */\n    tag_34:\n        /* \"MessageBoard.sol\":5502:5522  EditRequest[] memory */\n      0x60\n        /* \"MessageBoard.sol\":5596:5632  EditRequest[] memory pendingRequests */\n      0x00\n        /* \"MessageBoard.sol\":5653:5669  editRequestCount */\n      sload(0x05)\n        /* \"MessageBoard.sol\":5635:5670  new EditRequest[](editRequestCount) */\n      0xffffffffffffffff\n      dup2\n      gt\n      iszero\n      tag_83\n      jumpi\n      tag_84\n      tag_85\n      jump\t// in\n    tag_84:\n    tag_83:\n      mload(0x40)\n      swap1\n      dup1\n      dup3\n      mstore\n      dup1\n      0x20\n      mul\n      0x20\n      add\n      dup3\n      add\n      0x40\n      mstore\n      dup1\n      iszero\n      tag_86\n      jumpi\n      dup2\n      0x20\n      add\n    tag_87:\n      tag_88\n      tag_89\n      jump\t// in\n    tag_88:\n      dup2\n      mstore\n      0x20\n      add\n      swap1\n      0x01\n      swap1\n      sub\n      swap1\n      dup2\n      tag_87\n      jumpi\n      swap1\n      pop\n    tag_86:\n      pop\n        /* \"MessageBoard.sol\":5596:5670  EditRequest[] memory pendingRequests = new EditRequest[](editRequestCount) */\n      swap1\n      pop\n        /* \"MessageBoard.sol\":5681:5694  uint256 count */\n      0x00\n        /* \"MessageBoard.sol\":5770:5779  uint256 i */\n      dup1\n        /* \"MessageBoard.sol\":5782:5783  1 */\n      0x01\n        /* \"MessageBoard.sol\":5770:5783  uint256 i = 1 */\n      swap1\n      pop\n        /* \"MessageBoard.sol\":5765:5973  for (uint256 i = 1; i <= editRequestCount; i++) {... */\n    tag_90:\n        /* \"MessageBoard.sol\":5790:5806  editRequestCount */\n      sload(0x05)\n        /* \"MessageBoard.sol\":5785:5786  i */\n      dup2\n        /* \"MessageBoard.sol\":5785:5806  i <= editRequestCount */\n      gt\n        /* \"MessageBoard.sol\":5765:5973  for (uint256 i = 1; i <= editRequestCount; i++) {... */\n      tag_91\n      jumpi\n        /* \"MessageBoard.sol\":5833:5845  editRequests */\n      0x03\n        /* \"MessageBoard.sol\":5833:5848  editRequests[i] */\n      0x00\n        /* \"MessageBoard.sol\":5846:5847  i */\n      dup3\n        /* \"MessageBoard.sol\":5833:5848  editRequests[i] */\n      dup2\n      mstore\n      0x20\n      add\n      swap1\n      dup2\n      mstore\n      0x20\n      add\n      0x00\n      keccak256\n        /* \"MessageBoard.sol\":5833:5859  editRequests[i].isApproved */\n      0x03\n      add\n      0x00\n      swap1\n      sload\n      swap1\n      0x0100\n      exp\n      swap1\n      div\n      0xff\n      and\n        /* \"MessageBoard.sol\":5828:5962  if (!editRequests[i].isApproved) {... */\n      tag_93\n      jumpi\n        /* \"MessageBoard.sol\":5905:5917  editRequests */\n      0x03\n        /* \"MessageBoard.sol\":5905:5920  editRequests[i] */\n      0x00\n        /* \"MessageBoard.sol\":5918:5919  i */\n      dup3\n        /* \"MessageBoard.sol\":5905:5920  editRequests[i] */\n      dup2\n      mstore\n      0x20\n      add\n      swap1\n      dup2\n      mstore\n      0x20\n      add\n      0x00\n      keccak256\n        /* \"MessageBoard.sol\":5880:5920  pendingRequests[count] = editRequests[i] */\n      mload(0x40)\n      dup1\n      0x80\n      add\n      0x40\n      mstore\n      swap1\n      dup2\n      0x00\n      dup3\n      add\n      sload\n      dup2\n      mstore\n      0x20\n      add\n      0x01\n      dup3\n      add\n      0x00\n      swap1\n      sload\n      swap1\n      0x0100\n      exp\n      swap1\n      div\n      0xffffffffffffffffffffffffffffffffffffffff\n      and\n      0xffffffffffffffffffffffffffffffffffffffff\n      and\n      0xffffffffffffffffffffffffffffffffffffffff\n      and\n      dup2\n      mstore\n      0x20\n      add\n      0x02\n      dup3\n      add\n      dup1\n      sload\n      tag_94\n      swap1\n      tag_77\n      jump\t// in\n    tag_94:\n      dup1\n      0x1f\n      add\n      0x20\n      dup1\n      swap2\n      div\n      mul\n      0x20\n      add\n      mload(0x40)\n      swap1\n      dup2\n      add\n      0x40\n      mstore\n      dup1\n      swap3\n      swap2\n      swap1\n      dup2\n      dup2\n      mstore\n      0x20\n      add\n      dup3\n      dup1\n      sload\n      tag_95\n      swap1\n      tag_77\n      jump\t// in\n    tag_95:\n      dup1\n      iszero\n      tag_96\n      jumpi\n      dup1\n      0x1f\n      lt\n      tag_97\n      jumpi\n      0x0100\n      dup1\n      dup4\n      sload\n      div\n      mul\n      dup4\n      mstore\n      swap2\n      0x20\n      add\n      swap2\n      jump(tag_96)\n    tag_97:\n      dup3\n      add\n      swap2\n      swap1\n      0x00\n      mstore\n      keccak256(0x00, 0x20)\n      swap1\n    tag_98:\n      dup2\n      sload\n      dup2\n      mstore\n      swap1\n      0x01\n      add\n      swap1\n      0x20\n      add\n      dup1\n      dup4\n      gt\n      tag_98\n      jumpi\n      dup3\n      swap1\n      sub\n      0x1f\n      and\n      dup3\n      add\n      swap2\n    tag_96:\n      pop\n      pop\n      pop\n      pop\n      pop\n      dup2\n      mstore\n      0x20\n      add\n      0x03\n      dup3\n      add\n      0x00\n      swap1\n      sload\n      swap1\n      0x0100\n      exp\n      swap1\n      div\n      0xff\n      and\n      iszero\n      iszero\n      iszero\n      iszero\n      dup2\n      mstore\n      pop\n      pop\n        /* \"MessageBoard.sol\":5880:5895  pendingRequests */\n      dup4\n        /* \"MessageBoard.sol\":5896:5901  count */\n      dup4\n        /* \"MessageBoard.sol\":5880:5902  pendingRequests[count] */\n      dup2\n      mload\n      dup2\n      lt\n      tag_99\n      jumpi\n      tag_100\n      tag_101\n      jump\t// in\n    tag_100:\n    tag_99:\n      0x20\n      mul\n      0x20\n      add\n      add\n        /* \"MessageBoard.sol\":5880:5920  pendingRequests[count] = editRequests[i] */\n      dup2\n      swap1\n      mstore\n      pop\n        /* \"MessageBoard.sol\":5939:5946  count++ */\n      dup2\n      dup1\n      tag_102\n      swap1\n      tag_103\n      jump\t// in\n    tag_102:\n      swap3\n      pop\n      pop\n        /* \"MessageBoard.sol\":5828:5962  if (!editRequests[i].isApproved) {... */\n    tag_93:\n        /* \"MessageBoard.sol\":5808:5811  i++ */\n      dup1\n      dup1\n      tag_104\n      swap1\n      tag_103\n      jump\t// in\n    tag_104:\n      swap2\n      pop\n      pop\n        /* \"MessageBoard.sol\":5765:5973  for (uint256 i = 1; i <= editRequestCount; i++) {... */\n      jump(tag_90)\n    tag_91:\n      pop\n        /* \"MessageBoard.sol\":6078:6083  count */\n      dup1\n        /* \"MessageBoard.sol\":6061:6076  pendingRequests */\n      dup3\n        /* \"MessageBoard.sol\":6054:6084  mstore(pendingRequests, count) */\n      mstore\n        /* \"MessageBoard.sol\":6114:6129  pendingRequests */\n      dup2\n        /* \"MessageBoard.sol\":6107:6129  return pendingRequests */\n      swap3\n      pop\n      pop\n      pop\n        /* \"MessageBoard.sol\":5447:6137  function getPendingEditRequests() public view returns (EditRequest[] memory) {... */\n      swap1\n      jump\t// out\n        /* \"MessageBoard.sol\":2815:3462  function getAllMessages() public view returns (Message[] memory) {... */\n    tag_38:\n        /* \"MessageBoard.sol\":2862:2878  Message[] memory */\n      0x60\n        /* \"MessageBoard.sol\":2951:2982  Message[] memory activeMessages */\n      0x00\n        /* \"MessageBoard.sol\":2999:3011  messageCount */\n      sload(0x04)\n        /* \"MessageBoard.sol\":2985:3012  new Message[](messageCount) */\n      0xffffffffffffffff\n      dup2\n      gt\n      iszero\n      tag_106\n      jumpi\n      tag_107\n      tag_85\n      jump\t// in\n    tag_107:\n    tag_106:\n      mload(0x40)\n      swap1\n      dup1\n      dup3\n      mstore\n      dup1\n      0x20\n      mul\n      0x20\n      add\n      dup3\n      add\n      0x40\n      mstore\n      dup1\n      iszero\n      tag_108\n      jumpi\n      dup2\n      0x20\n      add\n    tag_109:\n      tag_110\n      tag_111\n      jump\t// in\n    tag_110:\n      dup2\n      mstore\n      0x20\n      add\n      swap1\n      0x01\n      swap1\n      sub\n      swap1\n      dup2\n      tag_109\n      jumpi\n      swap1\n      pop\n    tag_108:\n      pop\n        /* \"MessageBoard.sol\":2951:3012  Message[] memory activeMessages = new Message[](messageCount) */\n      swap1\n      pop\n        /* \"MessageBoard.sol\":3023:3036  uint256 count */\n      0x00\n        /* \"MessageBoard.sol\":3111:3120  uint256 i */\n      dup1\n        /* \"MessageBoard.sol\":3123:3124  1 */\n      0x01\n        /* \"MessageBoard.sol\":3111:3124  uint256 i = 1 */\n      swap1\n      pop\n        /* \"MessageBoard.sol\":3106:3300  for (uint256 i = 1; i <= messageCount; i++) {... */\n    tag_112:\n        /* \"MessageBoard.sol\":3131:3143  messageCount */\n      sload(0x04)\n        /* \"MessageBoard.sol\":3126:3127  i */\n      dup2\n        /* \"MessageBoard.sol\":3126:3143  i <= messageCount */\n      gt\n        /* \"MessageBoard.sol\":3106:3300  for (uint256 i = 1; i <= messageCount; i++) {... */\n      tag_113\n      jumpi\n        /* \"MessageBoard.sol\":3170:3178  messages */\n      0x02\n        /* \"MessageBoard.sol\":3170:3181  messages[i] */\n      0x00\n        /* \"MessageBoard.sol\":3179:3180  i */\n      dup3\n        /* \"MessageBoard.sol\":3170:3181  messages[i] */\n      dup2\n      mstore\n      0x20\n      add\n      swap1\n      dup2\n      mstore\n      0x20\n      add\n      0x00\n      keccak256\n        /* \"MessageBoard.sol\":3170:3191  messages[i].isDeleted */\n      0x04\n      add\n      0x00\n      swap1\n      sload\n      swap1\n      0x0100\n      exp\n      swap1\n      div\n      0xff\n      and\n        /* \"MessageBoard.sol\":3165:3289  if (!messages[i].isDeleted) {... */\n      tag_115\n      jumpi\n        /* \"MessageBoard.sol\":3236:3244  messages */\n      0x02\n        /* \"MessageBoard.sol\":3236:3247  messages[i] */\n      0x00\n        /* \"MessageBoard.sol\":3245:3246  i */\n      dup3\n        /* \"MessageBoard.sol\":3236:3247  messages[i] */\n      dup2\n      mstore\n      0x20\n      add\n      swap1\n      dup2\n      mstore\n      0x20\n      add\n      0x00\n      keccak256\n        /* \"MessageBoard.sol\":3212:3247  activeMessages[count] = messages[i] */\n      mload(0x40)\n      dup1\n      0xa0\n      add\n      0x40\n      mstore\n      swap1\n      dup2\n      0x00\n      dup3\n      add\n      sload\n      dup2\n      mstore\n      0x20\n      add\n      0x01\n      dup3\n      add\n      0x00\n      swap1\n      sload\n      swap1\n      0x0100\n      exp\n      swap1\n      div\n      0xffffffffffffffffffffffffffffffffffffffff\n      and\n      0xffffffffffffffffffffffffffffffffffffffff\n      and\n      0xffffffffffffffffffffffffffffffffffffffff\n      and\n      dup2\n      mstore\n      0x20\n      add\n      0x02\n      dup3\n      add\n      dup1\n      sload\n      tag_116\n      swap1\n      tag_77\n      jump\t// in\n    tag_116:\n      dup1\n      0x1f\n      add\n      0x20\n      dup1\n      swap2\n      div\n      mul\n      0x20\n      add\n      mload(0x40)\n      swap1\n      dup2\n      add\n      0x40\n      mstore\n      dup1\n      swap3\n      swap2\n      swap1\n      dup2\n      dup2\n      mstore\n      0x20\n      add\n      dup3\n      dup1\n      sload\n      tag_117\n      swap1\n      tag_77\n      jump\t// in\n    tag_117:\n      dup1\n      iszero\n      tag_118\n      jumpi\n      dup1\n      0x1f\n      lt\n      tag_119\n      jumpi\n      0x0100\n      dup1\n      dup4\n      sload\n      div\n      mul\n      dup4\n      mstore\n      swap2\n      0x20\n      add\n      swap2\n      jump(tag_118)\n    tag_119:\n      dup3\n      add\n      swap2\n      swap1\n      0x00\n      mstore\n      keccak256(0x00, 0x20)\n      swap1\n    tag_120:\n      dup2\n      sload\n      dup2\n      mstore\n      swap1\n      0x01\n      add\n      swap1\n      0x20\n      add\n      dup1\n      dup4\n      gt\n      tag_120\n      jumpi\n      dup3\n      swap1\n      sub\n      0x1f\n      and\n      dup3\n      add\n      swap2\n    tag_118:\n      pop\n      pop\n      pop\n      pop\n      pop\n      dup2\n      mstore\n      0x20\n      add\n      0x03\n      dup3\n      add\n      sload\n      dup2\n      mstore\n      0x20\n      add\n      0x04\n      dup3\n      add\n      0x00\n      swap1\n      sload\n      swap1\n      0x0100\n      exp\n      swap1\n      div\n      0xff\n      and\n      iszero\n      iszero\n      iszero\n      iszero\n      dup2\n      mstore\n      pop\n      pop\n        /* \"MessageBoard.sol\":3212:3226  activeMessages */\n      dup4\n        /* \"MessageBoard.sol\":3227:3232  count */\n      dup4\n        /* \"MessageBoard.sol\":3212:3233  activeMessages[count] */\n      dup2\n      mload\n      dup2\n      lt\n      tag_121\n      jumpi\n      tag_122\n      tag_101\n      jump\t// in\n    tag_122:\n    tag_121:\n      0x20\n      mul\n      0x20\n      add\n      add\n        /* \"MessageBoard.sol\":3212:3247  activeMessages[count] = messages[i] */\n      dup2\n      swap1\n      mstore\n      pop\n        /* \"MessageBoard.sol\":3266:3273  count++ */\n      dup2\n      dup1\n      tag_123\n      swap1\n      tag_103\n      jump\t// in\n    tag_123:\n      swap3\n      pop\n      pop\n        /* \"MessageBoard.sol\":3165:3289  if (!messages[i].isDeleted) {... */\n    tag_115:\n        /* \"MessageBoard.sol\":3145:3148  i++ */\n      dup1\n      dup1\n      tag_124\n      swap1\n      tag_103\n      jump\t// in\n    tag_124:\n      swap2\n      pop\n      pop\n        /* \"MessageBoard.sol\":3106:3300  for (uint256 i = 1; i <= messageCount; i++) {... */\n      jump(tag_112)\n    tag_113:\n      pop\n        /* \"MessageBoard.sol\":3404:3409  count */\n      dup1\n        /* \"MessageBoard.sol\":3388:3402  activeMessages */\n      dup3\n        /* \"MessageBoard.sol\":3381:3410  mstore(activeMessages, count) */\n      mstore\n        /* \"MessageBoard.sol\":3440:3454  activeMessages */\n      dup2\n        /* \"MessageBoard.sol\":3433:3454  return activeMessages */\n      swap3\n      pop\n      pop\n      pop\n        /* \"MessageBoard.sol\":2815:3462  function getAllMessages() public view returns (Message[] memory) {... */\n      swap1\n      jump\t// out\n        /* \"MessageBoard.sol\":1602:2238  function postMessage(string memory _content) public nonReentrant returns (uint256) {... */\n    tag_44:\n        /* \"MessageBoard.sol\":1676:1683  uint256 */\n      0x00\n        /* \"@openzeppelin/contracts/security/ReentrancyGuard.sol\":2261:2282  _nonReentrantBefore() */\n      tag_126\n        /* \"@openzeppelin/contracts/security/ReentrancyGuard.sol\":2261:2280  _nonReentrantBefore */\n      tag_127\n        /* \"@openzeppelin/contracts/security/ReentrancyGuard.sol\":2261:2282  _nonReentrantBefore() */\n      jump\t// in\n    tag_126:\n        /* \"MessageBoard.sol\":1769:1770  0 */\n      0x00\n        /* \"MessageBoard.sol\":1750:1758  _content */\n      dup3\n        /* \"MessageBoard.sol\":1744:1766  bytes(_content).length */\n      mload\n        /* \"MessageBoard.sol\":1744:1770  bytes(_content).length > 0 */\n      gt\n        /* \"MessageBoard.sol\":1736:1798  require(bytes(_content).length > 0, \"Message cannot be empty\") */\n      tag_129\n      jumpi\n      mload(0x40)\n      0x08c379a000000000000000000000000000000000000000000000000000000000\n      dup2\n      mstore\n      0x04\n      add\n      tag_130\n      swap1\n      tag_131\n      jump\t// in\n    tag_130:\n      mload(0x40)\n      dup1\n      swap2\n      sub\n      swap1\n      revert\n    tag_129:\n        /* \"MessageBoard.sol\":1870:1882  messageCount */\n      0x04\n      0x00\n        /* \"MessageBoard.sol\":1870:1884  messageCount++ */\n      dup2\n      sload\n      dup1\n      swap3\n      swap2\n      swap1\n      tag_132\n      swap1\n      tag_103\n      jump\t// in\n    tag_132:\n      swap2\n      swap1\n      pop\n      sstore\n      pop\n        /* \"MessageBoard.sol\":1920:2108  Message({... */\n      mload(0x40)\n      dup1\n      0xa0\n      add\n      0x40\n      mstore\n      dup1\n        /* \"MessageBoard.sol\":1947:1959  messageCount */\n      sload(0x04)\n        /* \"MessageBoard.sol\":1920:2108  Message({... */\n      dup2\n      mstore\n      0x20\n      add\n        /* \"MessageBoard.sol\":1982:1992  msg.sender */\n      caller\n        /* \"MessageBoard.sol\":1920:2108  Message({... */\n      0xffffffffffffffffffffffffffffffffffffffff\n      and\n      dup2\n      mstore\n      0x20\n      add\n        /* \"MessageBoard.sol\":2016:2024  _content */\n      dup4\n        /* \"MessageBoard.sol\":1920:2108  Message({... */\n      dup2\n      mstore\n      0x20\n      add\n        /* \"MessageBoard.sol\":2050:2065  block.timestamp */\n      timestamp\n        /* \"MessageBoard.sol\":1920:2108  Message({... */\n      dup2\n      mstore\n      0x20\n      add\n        /* \"MessageBoard.sol\":2091:2096  false */\n      0x00\n        /* \"MessageBoard.sol\":1920:2108  Message({... */\n      iszero\n      iszero\n      dup2\n      mstore\n      pop\n        /* \"MessageBoard.sol\":1895:1903  messages */\n      0x02\n        /* \"MessageBoard.sol\":1895:1917  messages[messageCount] */\n      0x00\n        /* \"MessageBoard.sol\":1904:1916  messageCount */\n      sload(0x04)\n        /* \"MessageBoard.sol\":1895:1917  messages[messageCount] */\n      dup2\n      mstore\n      0x20\n      add\n      swap1\n      dup2\n      mstore\n      0x20\n      add\n      0x00\n      keccak256\n        /* \"MessageBoard.sol\":1895:2108  messages[messageCount] = Message({... */\n      0x00\n      dup3\n      add\n      mload\n      dup2\n      0x00\n      add\n      sstore\n      0x20\n      dup3\n      add\n      mload\n      dup2\n      0x01\n      add\n      exp(0x0100, 0x00)\n      dup2\n      sload\n      dup2\n      0xffffffffffffffffffffffffffffffffffffffff\n      mul\n      not\n      and\n      swap1\n      dup4\n      0xffffffffffffffffffffffffffffffffffffffff\n      and\n      mul\n      or\n      swap1\n      sstore\n      pop\n      0x40\n      dup3\n      add\n      mload\n      dup2\n      0x02\n      add\n      swap1\n      dup2\n      tag_133\n      swap2\n      swap1\n      tag_134\n      jump\t// in\n    tag_133:\n      pop\n      0x60\n      dup3\n      add\n      mload\n      dup2\n      0x03\n      add\n      sstore\n      0x80\n      dup3\n      add\n      mload\n      dup2\n      0x04\n      add\n      exp(0x0100, 0x00)\n      dup2\n      sload\n      dup2\n      0xff\n      mul\n      not\n      and\n      swap1\n      dup4\n      iszero\n      iszero\n      mul\n      or\n      swap1\n      sstore\n      pop\n      swap1\n      pop\n      pop\n        /* \"MessageBoard.sol\":2177:2187  msg.sender */\n      caller\n        /* \"MessageBoard.sol\":2149:2198  MessagePosted(messageCount, msg.sender, _content) */\n      0xffffffffffffffffffffffffffffffffffffffff\n      and\n        /* \"MessageBoard.sol\":2163:2175  messageCount */\n      sload(0x04)\n        /* \"MessageBoard.sol\":2149:2198  MessagePosted(messageCount, msg.sender, _content) */\n      0x16effde6b8c5f78279aca5974057ff6b6fd8c9ab5e96994c7f1b62cbfcbbd78b\n        /* \"MessageBoard.sol\":2189:2197  _content */\n      dup5\n        /* \"MessageBoard.sol\":2149:2198  MessagePosted(messageCount, msg.sender, _content) */\n      mload(0x40)\n      tag_135\n      swap2\n      swap1\n      tag_136\n      jump\t// in\n    tag_135:\n      mload(0x40)\n      dup1\n      swap2\n      sub\n      swap1\n      log3\n        /* \"MessageBoard.sol\":2218:2230  messageCount */\n      sload(0x04)\n        /* \"MessageBoard.sol\":2211:2230  return messageCount */\n      swap1\n      pop\n        /* \"@openzeppelin/contracts/security/ReentrancyGuard.sol\":2303:2323  _nonReentrantAfter() */\n      tag_137\n        /* \"@openzeppelin/contracts/security/ReentrancyGuard.sol\":2303:2321  _nonReentrantAfter */\n      tag_138\n        /* \"@openzeppelin/contracts/security/ReentrancyGuard.sol\":2303:2323  _nonReentrantAfter() */\n      jump\t// in\n    tag_137:\n        /* \"MessageBoard.sol\":1602:2238  function postMessage(string memory _content) public nonReentrant returns (uint256) {... */\n      swap2\n      swap1\n      pop\n      jump\t// out\n        /* \"@openzeppelin/contracts/access/Ownable.sol\":2293:2394  function renounceOwnership() public virtual onlyOwner {... */\n    tag_47:\n        /* \"@openzeppelin/contracts/access/Ownable.sol\":1531:1544  _checkOwner() */\n      tag_140\n        /* \"@openzeppelin/contracts/access/Ownable.sol\":1531:1542  _checkOwner */\n      tag_141\n        /* \"@openzeppelin/contracts/access/Ownable.sol\":1531:1544  _checkOwner() */\n      jump\t// in\n    tag_140:\n        /* \"@openzeppelin/contracts/access/Ownable.sol\":2357:2387  _transferOwnership(address(0)) */\n      tag_143\n        /* \"@openzeppelin/contracts/access/Ownable.sol\":2384:2385  0 */\n      0x00\n        /* \"@openzeppelin/contracts/access/Ownable.sol\":2357:2375  _transferOwnership */\n      tag_144\n        /* \"@openzeppelin/contracts/access/Ownable.sol\":2357:2387  _transferOwnership(address(0)) */\n      jump\t// in\n    tag_143:\n        /* \"@openzeppelin/contracts/access/Ownable.sol\":2293:2394  function renounceOwnership() public virtual onlyOwner {... */\n      jump\t// out\n        /* \"MessageBoard.sol\":834:885  mapping(uint256 => EditRequest) public editRequests */\n    tag_50:\n      mstore(0x20, 0x03)\n      dup1\n      0x00\n      mstore\n      keccak256(0x00, 0x40)\n      0x00\n      swap2\n      pop\n      swap1\n      pop\n      dup1\n      0x00\n      add\n      sload\n      swap1\n      dup1\n      0x01\n      add\n      0x00\n      swap1\n      sload\n      swap1\n      0x0100\n      exp\n      swap1\n      div\n      0xffffffffffffffffffffffffffffffffffffffff\n      and\n      swap1\n      dup1\n      0x02\n      add\n      dup1\n      sload\n      tag_145\n      swap1\n      tag_77\n      jump\t// in\n    tag_145:\n      dup1\n      0x1f\n      add\n      0x20\n      dup1\n      swap2\n      div\n      mul\n      0x20\n      add\n      mload(0x40)\n      swap1\n      dup2\n      add\n      0x40\n      mstore\n      dup1\n      swap3\n      swap2\n      swap1\n      dup2\n      dup2\n      mstore\n      0x20\n      add\n      dup3\n      dup1\n      sload\n      tag_146\n      swap1\n      tag_77\n      jump\t// in\n    tag_146:\n      dup1\n      iszero\n      tag_147\n      jumpi\n      dup1\n      0x1f\n      lt\n      tag_148\n      jumpi\n      0x0100\n      dup1\n      dup4\n      sload\n      div\n      mul\n      dup4\n      mstore\n      swap2\n      0x20\n      add\n      swap2\n      jump(tag_147)\n    tag_148:\n      dup3\n      add\n      swap2\n      swap1\n      0x00\n      mstore\n      keccak256(0x00, 0x20)\n      swap1\n    tag_149:\n      dup2\n      sload\n      dup2\n      mstore\n      swap1\n      0x01\n      add\n      swap1\n      0x20\n      add\n      dup1\n      dup4\n      gt\n      tag_149\n      jumpi\n      dup3\n      swap1\n      sub\n      0x1f\n      and\n      dup3\n      add\n      swap2\n    tag_147:\n      pop\n      pop\n      pop\n      pop\n      pop\n      swap1\n      dup1\n      0x03\n      add\n      0x00\n      swap1\n      sload\n      swap1\n      0x0100\n      exp\n      swap1\n      div\n      0xff\n      and\n      swap1\n      pop\n      dup5\n      jump\t// out\n        /* \"MessageBoard.sol\":4638:5323  function approveMessageEdit(uint256 _editRequestId) public onlyOwner {... */\n    tag_55:\n        /* \"@openzeppelin/contracts/access/Ownable.sol\":1531:1544  _checkOwner() */\n      tag_151\n        /* \"@openzeppelin/contracts/access/Ownable.sol\":1531:1542  _checkOwner */\n      tag_141\n        /* \"@openzeppelin/contracts/access/Ownable.sol\":1531:1544  _checkOwner() */\n      jump\t// in\n    tag_151:\n        /* \"MessageBoard.sol\":4777:4778  0 */\n      0x00\n        /* \"MessageBoard.sol\":4760:4774  _editRequestId */\n      dup2\n        /* \"MessageBoard.sol\":4760:4778  _editRequestId > 0 */\n      gt\n        /* \"MessageBoard.sol\":4760:4816  _editRequestId > 0 && _editRequestId <= editRequestCount */\n      dup1\n      iszero\n      tag_153\n      jumpi\n      pop\n        /* \"MessageBoard.sol\":4800:4816  editRequestCount */\n      sload(0x05)\n        /* \"MessageBoard.sol\":4782:4796  _editRequestId */\n      dup2\n        /* \"MessageBoard.sol\":4782:4816  _editRequestId <= editRequestCount */\n      gt\n      iszero\n        /* \"MessageBoard.sol\":4760:4816  _editRequestId > 0 && _editRequestId <= editRequestCount */\n    tag_153:\n        /* \"MessageBoard.sol\":4752:4844  require(_editRequestId > 0 && _editRequestId <= editRequestCount, \"Invalid edit request ID\") */\n      tag_154\n      jumpi\n      mload(0x40)\n      0x08c379a000000000000000000000000000000000000000000000000000000000\n      dup2\n      mstore\n      0x04\n      add\n      tag_155\n      swap1\n      tag_156\n      jump\t// in\n    tag_155:\n      mload(0x40)\n      dup1\n      swap2\n      sub\n      swap1\n      revert\n    tag_154:\n        /* \"MessageBoard.sol\":4855:4886  EditRequest storage editRequest */\n      0x00\n        /* \"MessageBoard.sol\":4889:4901  editRequests */\n      0x03\n        /* \"MessageBoard.sol\":4889:4917  editRequests[_editRequestId] */\n      0x00\n        /* \"MessageBoard.sol\":4902:4916  _editRequestId */\n      dup4\n        /* \"MessageBoard.sol\":4889:4917  editRequests[_editRequestId] */\n      dup2\n      mstore\n      0x20\n      add\n      swap1\n      dup2\n      mstore\n      0x20\n      add\n      0x00\n      keccak256\n        /* \"MessageBoard.sol\":4855:4917  EditRequest storage editRequest = editRequests[_editRequestId] */\n      swap1\n      pop\n        /* \"MessageBoard.sol\":4937:4948  editRequest */\n      dup1\n        /* \"MessageBoard.sol\":4937:4959  editRequest.isApproved */\n      0x03\n      add\n      0x00\n      swap1\n      sload\n      swap1\n      0x0100\n      exp\n      swap1\n      div\n      0xff\n      and\n        /* \"MessageBoard.sol\":4936:4959  !editRequest.isApproved */\n      iszero\n        /* \"MessageBoard.sol\":4928:4993  require(!editRequest.isApproved, \"Edit request already approved\") */\n      tag_157\n      jumpi\n      mload(0x40)\n      0x08c379a000000000000000000000000000000000000000000000000000000000\n      dup2\n      mstore\n      0x04\n      add\n      tag_158\n      swap1\n      tag_159\n      jump\t// in\n    tag_158:\n      mload(0x40)\n      dup1\n      swap2\n      sub\n      swap1\n      revert\n    tag_157:\n        /* \"MessageBoard.sol\":5067:5090  Message storage message */\n      0x00\n        /* \"MessageBoard.sol\":5093:5101  messages */\n      0x02\n        /* \"MessageBoard.sol\":5093:5124  messages[editRequest.messageId] */\n      0x00\n        /* \"MessageBoard.sol\":5102:5113  editRequest */\n      dup4\n        /* \"MessageBoard.sol\":5102:5123  editRequest.messageId */\n      0x00\n      add\n      sload\n        /* \"MessageBoard.sol\":5093:5124  messages[editRequest.messageId] */\n      dup2\n      mstore\n      0x20\n      add\n      swap1\n      dup2\n      mstore\n      0x20\n      add\n      0x00\n      keccak256\n        /* \"MessageBoard.sol\":5067:5124  Message storage message = messages[editRequest.messageId] */\n      swap1\n      pop\n        /* \"MessageBoard.sol\":5153:5164  editRequest */\n      dup2\n        /* \"MessageBoard.sol\":5153:5175  editRequest.newContent */\n      0x02\n      add\n        /* \"MessageBoard.sol\":5135:5142  message */\n      dup2\n        /* \"MessageBoard.sol\":5135:5150  message.content */\n      0x02\n      add\n        /* \"MessageBoard.sol\":5135:5175  message.content = editRequest.newContent */\n      swap1\n      dup2\n      tag_160\n      swap2\n      swap1\n      tag_161\n      jump\t// in\n    tag_160:\n      pop\n        /* \"MessageBoard.sol\":5211:5215  true */\n      0x01\n        /* \"MessageBoard.sol\":5186:5197  editRequest */\n      dup3\n        /* \"MessageBoard.sol\":5186:5208  editRequest.isApproved */\n      0x03\n      add\n      0x00\n        /* \"MessageBoard.sol\":5186:5215  editRequest.isApproved = true */\n      0x0100\n      exp\n      dup2\n      sload\n      dup2\n      0xff\n      mul\n      not\n      and\n      swap1\n      dup4\n      iszero\n      iszero\n      mul\n      or\n      swap1\n      sstore\n      pop\n        /* \"MessageBoard.sol\":5269:5280  editRequest */\n      dup2\n        /* \"MessageBoard.sol\":5269:5290  editRequest.messageId */\n      0x00\n      add\n      sload\n        /* \"MessageBoard.sol\":5256:5315  EditApproved(editRequest.messageId, editRequest.newContent) */\n      0xc044182a0ac1fcdfa543f1c6ff27940f1a5b4221b8232e11b492d48953bc9c43\n        /* \"MessageBoard.sol\":5292:5303  editRequest */\n      dup4\n        /* \"MessageBoard.sol\":5292:5314  editRequest.newContent */\n      0x02\n      add\n        /* \"MessageBoard.sol\":5256:5315  EditApproved(editRequest.messageId, editRequest.newContent) */\n      mload(0x40)\n      tag_162\n      swap2\n      swap1\n      tag_163\n      jump\t// in\n    tag_162:\n      mload(0x40)\n      dup1\n      swap2\n      sub\n      swap1\n      log2\n        /* \"MessageBoard.sol\":4707:5323  {... */\n      pop\n      pop\n        /* \"MessageBoard.sol\":4638:5323  function approveMessageEdit(uint256 _editRequestId) public onlyOwner {... */\n      pop\n      jump\t// out\n        /* \"MessageBoard.sol\":2406:2694  function getMessage(uint256 _messageId) public view returns (Message memory) {... */\n    tag_58:\n        /* \"MessageBoard.sol\":2467:2481  Message memory */\n      tag_164\n      tag_111\n      jump\t// in\n    tag_164:\n        /* \"MessageBoard.sol\":2515:2516  0 */\n      0x00\n        /* \"MessageBoard.sol\":2502:2512  _messageId */\n      dup3\n        /* \"MessageBoard.sol\":2502:2516  _messageId > 0 */\n      gt\n        /* \"MessageBoard.sol\":2502:2546  _messageId > 0 && _messageId <= messageCount */\n      dup1\n      iszero\n      tag_166\n      jumpi\n      pop\n        /* \"MessageBoard.sol\":2534:2546  messageCount */\n      sload(0x04)\n        /* \"MessageBoard.sol\":2520:2530  _messageId */\n      dup3\n        /* \"MessageBoard.sol\":2520:2546  _messageId <= messageCount */\n      gt\n      iszero\n        /* \"MessageBoard.sol\":2502:2546  _messageId > 0 && _messageId <= messageCount */\n    tag_166:\n        /* \"MessageBoard.sol\":2494:2569  require(_messageId > 0 && _messageId <= messageCount, \"Invalid message ID\") */\n      tag_167\n      jumpi\n      mload(0x40)\n      0x08c379a000000000000000000000000000000000000000000000000000000000\n      dup2\n      mstore\n      0x04\n      add\n      tag_168\n      swap1\n      tag_169\n      jump\t// in\n    tag_168:\n      mload(0x40)\n      dup1\n      swap2\n      sub\n      swap1\n      revert\n    tag_167:\n        /* \"MessageBoard.sol\":2589:2597  messages */\n      0x02\n        /* \"MessageBoard.sol\":2589:2609  messages[_messageId] */\n      0x00\n        /* \"MessageBoard.sol\":2598:2608  _messageId */\n      dup4\n        /* \"MessageBoard.sol\":2589:2609  messages[_messageId] */\n      dup2\n      mstore\n      0x20\n      add\n      swap1\n      dup2\n      mstore\n      0x20\n      add\n      0x00\n      keccak256\n        /* \"MessageBoard.sol\":2589:2619  messages[_messageId].isDeleted */\n      0x04\n      add\n      0x00\n      swap1\n      sload\n      swap1\n      0x0100\n      exp\n      swap1\n      div\n      0xff\n      and\n        /* \"MessageBoard.sol\":2588:2619  !messages[_messageId].isDeleted */\n      iszero\n        /* \"MessageBoard.sol\":2580:2648  require(!messages[_messageId].isDeleted, \"Message has been deleted\") */\n      tag_170\n      jumpi\n      mload(0x40)\n      0x08c379a000000000000000000000000000000000000000000000000000000000\n      dup2\n      mstore\n      0x04\n      add\n      tag_171\n      swap1\n      tag_172\n      jump\t// in\n    tag_171:\n      mload(0x40)\n      dup1\n      swap2\n      sub\n      swap1\n      revert\n    tag_170:\n        /* \"MessageBoard.sol\":2666:2674  messages */\n      0x02\n        /* \"MessageBoard.sol\":2666:2686  messages[_messageId] */\n      0x00\n        /* \"MessageBoard.sol\":2675:2685  _messageId */\n      dup4\n        /* \"MessageBoard.sol\":2666:2686  messages[_messageId] */\n      dup2\n      mstore\n      0x20\n      add\n      swap1\n      dup2\n      mstore\n      0x20\n      add\n      0x00\n      keccak256\n        /* \"MessageBoard.sol\":2659:2686  return messages[_messageId] */\n      mload(0x40)\n      dup1\n      0xa0\n      add\n      0x40\n      mstore\n      swap1\n      dup2\n      0x00\n      dup3\n      add\n      sload\n      dup2\n      mstore\n      0x20\n      add\n      0x01\n      dup3\n      add\n      0x00\n      swap1\n      sload\n      swap1\n      0x0100\n      exp\n      swap1\n      div\n      0xffffffffffffffffffffffffffffffffffffffff\n      and\n      0xffffffffffffffffffffffffffffffffffffffff\n      and\n      0xffffffffffffffffffffffffffffffffffffffff\n      and\n      dup2\n      mstore\n      0x20\n      add\n      0x02\n      dup3\n      add\n      dup1\n      sload\n      tag_173\n      swap1\n      tag_77\n      jump\t// in\n    tag_173:\n      dup1\n      0x1f\n      add\n      0x20\n      dup1\n      swap2\n      div\n      mul\n      0x20\n      add\n      mload(0x40)\n      swap1\n      dup2\n      add\n      0x40\n      mstore\n      dup1\n      swap3\n      swap2\n      swap1\n      dup2\n      dup2\n      mstore\n      0x20\n      add\n      dup3\n      dup1\n      sload\n      tag_174\n      swap1\n      tag_77\n      jump\t// in\n    tag_174:\n      dup1\n      iszero\n      tag_175\n      jumpi\n      dup1\n      0x1f\n      lt\n      tag_176\n      jumpi\n      0x0100\n      dup1\n      dup4\n      sload\n      div\n      mul\n      dup4\n      mstore\n      swap2\n      0x20\n      add\n      swap2\n      jump(tag_175)\n    tag_176:\n      dup3\n      add\n      swap2\n      swap1\n      0x00\n      mstore\n      keccak256(0x00, 0x20)\n      swap1\n    tag_177:\n      dup2\n      sload\n      dup2\n      mstore\n      swap1\n      0x01\n      add\n      swap1\n      0x20\n      add\n      dup1\n      dup4\n      gt\n      tag_177\n      jumpi\n      dup3\n      swap1\n      sub\n      0x1f\n      and\n      dup3\n      add\n      swap2\n    tag_175:\n      pop\n      pop\n      pop\n      pop\n      pop\n      dup2\n      mstore\n      0x20\n      add\n      0x03\n      dup3\n      add\n      sload\n      dup2\n      mstore\n      0x20\n      add\n      0x04\n      dup3\n      add\n      0x00\n      swap1\n      sload\n      swap1\n      0x0100\n      exp\n      swap1\n      div\n      0xff\n      and\n      iszero\n      iszero\n      iszero\n      iszero\n      dup2\n      mstore\n      pop\n      pop\n      swap1\n      pop\n        /* \"MessageBoard.sol\":2406:2694  function getMessage(uint256 _messageId) public view returns (Message memory) {... */\n      swap2\n      swap1\n      pop\n      jump\t// out\n        /* \"@openzeppelin/contracts/access/Ownable.sol\":1638:1723  function owner() public view virtual returns (address) {... */\n    tag_62:\n        /* \"@openzeppelin/contracts/access/Ownable.sol\":1684:1691  address */\n      0x00\n        /* \"@openzeppelin/contracts/access/Ownable.sol\":1710:1716  _owner */\n      dup1\n      0x00\n      swap1\n      sload\n      swap1\n      0x0100\n      exp\n      swap1\n      div\n      0xffffffffffffffffffffffffffffffffffffffff\n      and\n        /* \"@openzeppelin/contracts/access/Ownable.sol\":1703:1716  return _owner */\n      swap1\n      pop\n        /* \"@openzeppelin/contracts/access/Ownable.sol\":1638:1723  function owner() public view virtual returns (address) {... */\n      swap1\n      jump\t// out\n        /* \"MessageBoard.sol\":3638:4494  function requestMessageEdit(uint256 _messageId, string memory _newContent) public nonReentrant {... */\n    tag_68:\n        /* \"@openzeppelin/contracts/security/ReentrancyGuard.sol\":2261:2282  _nonReentrantBefore() */\n      tag_180\n        /* \"@openzeppelin/contracts/security/ReentrancyGuard.sol\":2261:2280  _nonReentrantBefore */\n      tag_127\n        /* \"@openzeppelin/contracts/security/ReentrancyGuard.sol\":2261:2282  _nonReentrantBefore() */\n      jump\t// in\n    tag_180:\n        /* \"MessageBoard.sol\":3808:3809  0 */\n      0x00\n        /* \"MessageBoard.sol\":3795:3805  _messageId */\n      dup3\n        /* \"MessageBoard.sol\":3795:3809  _messageId > 0 */\n      gt\n        /* \"MessageBoard.sol\":3795:3839  _messageId > 0 && _messageId <= messageCount */\n      dup1\n      iszero\n      tag_182\n      jumpi\n      pop\n        /* \"MessageBoard.sol\":3827:3839  messageCount */\n      sload(0x04)\n        /* \"MessageBoard.sol\":3813:3823  _messageId */\n      dup3\n        /* \"MessageBoard.sol\":3813:3839  _messageId <= messageCount */\n      gt\n      iszero\n        /* \"MessageBoard.sol\":3795:3839  _messageId > 0 && _messageId <= messageCount */\n    tag_182:\n        /* \"MessageBoard.sol\":3787:3862  require(_messageId > 0 && _messageId <= messageCount, \"Invalid message ID\") */\n      tag_183\n      jumpi\n      mload(0x40)\n      0x08c379a000000000000000000000000000000000000000000000000000000000\n      dup2\n      mstore\n      0x04\n      add\n      tag_184\n      swap1\n      tag_169\n      jump\t// in\n    tag_184:\n      mload(0x40)\n      dup1\n      swap2\n      sub\n      swap1\n      revert\n    tag_183:\n        /* \"MessageBoard.sol\":3882:3890  messages */\n      0x02\n        /* \"MessageBoard.sol\":3882:3902  messages[_messageId] */\n      0x00\n        /* \"MessageBoard.sol\":3891:3901  _messageId */\n      dup4\n        /* \"MessageBoard.sol\":3882:3902  messages[_messageId] */\n      dup2\n      mstore\n      0x20\n      add\n      swap1\n      dup2\n      mstore\n      0x20\n      add\n      0x00\n      keccak256\n        /* \"MessageBoard.sol\":3882:3912  messages[_messageId].isDeleted */\n      0x04\n      add\n      0x00\n      swap1\n      sload\n      swap1\n      0x0100\n      exp\n      swap1\n      div\n      0xff\n      and\n        /* \"MessageBoard.sol\":3881:3912  !messages[_messageId].isDeleted */\n      iszero\n        /* \"MessageBoard.sol\":3873:3941  require(!messages[_messageId].isDeleted, \"Message has been deleted\") */\n      tag_185\n      jumpi\n      mload(0x40)\n      0x08c379a000000000000000000000000000000000000000000000000000000000\n      dup2\n      mstore\n      0x04\n      add\n      tag_186\n      swap1\n      tag_172\n      jump\t// in\n    tag_186:\n      mload(0x40)\n      dup1\n      swap2\n      sub\n      swap1\n      revert\n    tag_185:\n        /* \"MessageBoard.sol\":3991:4001  msg.sender */\n      caller\n        /* \"MessageBoard.sol\":3960:4001  messages[_messageId].author == msg.sender */\n      0xffffffffffffffffffffffffffffffffffffffff\n      and\n        /* \"MessageBoard.sol\":3960:3968  messages */\n      0x02\n        /* \"MessageBoard.sol\":3960:3980  messages[_messageId] */\n      0x00\n        /* \"MessageBoard.sol\":3969:3979  _messageId */\n      dup5\n        /* \"MessageBoard.sol\":3960:3980  messages[_messageId] */\n      dup2\n      mstore\n      0x20\n      add\n      swap1\n      dup2\n      mstore\n      0x20\n      add\n      0x00\n      keccak256\n        /* \"MessageBoard.sol\":3960:3987  messages[_messageId].author */\n      0x01\n      add\n      0x00\n      swap1\n      sload\n      swap1\n      0x0100\n      exp\n      swap1\n      div\n      0xffffffffffffffffffffffffffffffffffffffff\n      and\n        /* \"MessageBoard.sol\":3960:4001  messages[_messageId].author == msg.sender */\n      0xffffffffffffffffffffffffffffffffffffffff\n      and\n      eq\n        /* \"MessageBoard.sol\":3952:4042  require(messages[_messageId].author == msg.sender, \"Only message author can request edit\") */\n      tag_187\n      jumpi\n      mload(0x40)\n      0x08c379a000000000000000000000000000000000000000000000000000000000\n      dup2\n      mstore\n      0x04\n      add\n      tag_188\n      swap1\n      tag_189\n      jump\t// in\n    tag_188:\n      mload(0x40)\n      dup1\n      swap2\n      sub\n      swap1\n      revert\n    tag_187:\n        /* \"MessageBoard.sol\":4089:4090  0 */\n      0x00\n        /* \"MessageBoard.sol\":4067:4078  _newContent */\n      dup2\n        /* \"MessageBoard.sol\":4061:4086  bytes(_newContent).length */\n      mload\n        /* \"MessageBoard.sol\":4061:4090  bytes(_newContent).length > 0 */\n      gt\n        /* \"MessageBoard.sol\":4053:4122  require(bytes(_newContent).length > 0, \"New content cannot be empty\") */\n      tag_190\n      jumpi\n      mload(0x40)\n      0x08c379a000000000000000000000000000000000000000000000000000000000\n      dup2\n      mstore\n      0x04\n      add\n      tag_191\n      swap1\n      tag_192\n      jump\t// in\n    tag_191:\n      mload(0x40)\n      dup1\n      swap2\n      sub\n      swap1\n      revert\n    tag_190:\n        /* \"MessageBoard.sol\":4167:4183  editRequestCount */\n      0x05\n      0x00\n        /* \"MessageBoard.sol\":4167:4185  editRequestCount++ */\n      dup2\n      sload\n      dup1\n      swap3\n      swap2\n      swap1\n      tag_193\n      swap1\n      tag_103\n      jump\t// in\n    tag_193:\n      swap2\n      swap1\n      pop\n      sstore\n      pop\n        /* \"MessageBoard.sol\":4229:4395  EditRequest({... */\n      mload(0x40)\n      dup1\n      0x80\n      add\n      0x40\n      mstore\n      dup1\n        /* \"MessageBoard.sol\":4267:4277  _messageId */\n      dup4\n        /* \"MessageBoard.sol\":4229:4395  EditRequest({... */\n      dup2\n      mstore\n      0x20\n      add\n        /* \"MessageBoard.sol\":4303:4313  msg.sender */\n      caller\n        /* \"MessageBoard.sol\":4229:4395  EditRequest({... */\n      0xffffffffffffffffffffffffffffffffffffffff\n      and\n      dup2\n      mstore\n      0x20\n      add\n        /* \"MessageBoard.sol\":4340:4351  _newContent */\n      dup3\n        /* \"MessageBoard.sol\":4229:4395  EditRequest({... */\n      dup2\n      mstore\n      0x20\n      add\n        /* \"MessageBoard.sol\":4378:4383  false */\n      0x00\n        /* \"MessageBoard.sol\":4229:4395  EditRequest({... */\n      iszero\n      iszero\n      dup2\n      mstore\n      pop\n        /* \"MessageBoard.sol\":4196:4208  editRequests */\n      0x03\n        /* \"MessageBoard.sol\":4196:4226  editRequests[editRequestCount] */\n      0x00\n        /* \"MessageBoard.sol\":4209:4225  editRequestCount */\n      sload(0x05)\n        /* \"MessageBoard.sol\":4196:4226  editRequests[editRequestCount] */\n      dup2\n      mstore\n      0x20\n      add\n      swap1\n      dup2\n      mstore\n      0x20\n      add\n      0x00\n      keccak256\n        /* \"MessageBoard.sol\":4196:4395  editRequests[editRequestCount] = EditRequest({... */\n      0x00\n      dup3\n      add\n      mload\n      dup2\n      0x00\n      add\n      sstore\n      0x20\n      dup3\n      add\n      mload\n      dup2\n      0x01\n      add\n      exp(0x0100, 0x00)\n      dup2\n      sload\n      dup2\n      0xffffffffffffffffffffffffffffffffffffffff\n      mul\n      not\n      and\n      swap1\n      dup4\n      0xffffffffffffffffffffffffffffffffffffffff\n      and\n      mul\n      or\n      swap1\n      sstore\n      pop\n      0x40\n      dup3\n      add\n      mload\n      dup2\n      0x02\n      add\n      swap1\n      dup2\n      tag_194\n      swap2\n      swap1\n      tag_134\n      jump\t// in\n    tag_194:\n      pop\n      0x60\n      dup3\n      add\n      mload\n      dup2\n      0x03\n      add\n      exp(0x0100, 0x00)\n      dup2\n      sload\n      dup2\n      0xff\n      mul\n      not\n      and\n      swap1\n      dup4\n      iszero\n      iszero\n      mul\n      or\n      swap1\n      sstore\n      pop\n      swap1\n      pop\n      pop\n        /* \"MessageBoard.sol\":4462:4472  msg.sender */\n      caller\n        /* \"MessageBoard.sol\":4436:4486  EditRequested(_messageId, msg.sender, _newContent) */\n      0xffffffffffffffffffffffffffffffffffffffff\n      and\n        /* \"MessageBoard.sol\":4450:4460  _messageId */\n      dup3\n        /* \"MessageBoard.sol\":4436:4486  EditRequested(_messageId, msg.sender, _newContent) */\n      0x65a5dfdcca99d0a97bd4a95e21c4af5e64327ba9493215cccbfd0b87ca2ba362\n        /* \"MessageBoard.sol\":4474:4485  _newContent */\n      dup4\n        /* \"MessageBoard.sol\":4436:4486  EditRequested(_messageId, msg.sender, _newContent) */\n      mload(0x40)\n      tag_195\n      swap2\n      swap1\n      tag_136\n      jump\t// in\n    tag_195:\n      mload(0x40)\n      dup1\n      swap2\n      sub\n      swap1\n      log3\n        /* \"@openzeppelin/contracts/security/ReentrancyGuard.sol\":2303:2323  _nonReentrantAfter() */\n      tag_196\n        /* \"@openzeppelin/contracts/security/ReentrancyGuard.sol\":2303:2321  _nonReentrantAfter */\n      tag_138\n        /* \"@openzeppelin/contracts/security/ReentrancyGuard.sol\":2303:2323  _nonReentrantAfter() */\n      jump\t// in\n    tag_196:\n        /* \"MessageBoard.sol\":3638:4494  function requestMessageEdit(uint256 _messageId, string memory _newContent) public nonReentrant {... */\n      pop\n      pop\n      jump\t// out\n        /* \"MessageBoard.sol\":6264:6678  function deleteMessage(uint256 _messageId) public onlyOwner {... */\n    tag_71:\n        /* \"@openzeppelin/contracts/access/Ownable.sol\":1531:1544  _checkOwner() */\n      tag_198\n        /* \"@openzeppelin/contracts/access/Ownable.sol\":1531:1542  _checkOwner */\n      tag_141\n        /* \"@openzeppelin/contracts/access/Ownable.sol\":1531:1544  _checkOwner() */\n      jump\t// in\n    tag_198:\n        /* \"MessageBoard.sol\":6385:6386  0 */\n      0x00\n        /* \"MessageBoard.sol\":6372:6382  _messageId */\n      dup2\n        /* \"MessageBoard.sol\":6372:6386  _messageId > 0 */\n      gt\n        /* \"MessageBoard.sol\":6372:6416  _messageId > 0 && _messageId <= messageCount */\n      dup1\n      iszero\n      tag_200\n      jumpi\n      pop\n        /* \"MessageBoard.sol\":6404:6416  messageCount */\n      sload(0x04)\n        /* \"MessageBoard.sol\":6390:6400  _messageId */\n      dup2\n        /* \"MessageBoard.sol\":6390:6416  _messageId <= messageCount */\n      gt\n      iszero\n        /* \"MessageBoard.sol\":6372:6416  _messageId > 0 && _messageId <= messageCount */\n    tag_200:\n        /* \"MessageBoard.sol\":6364:6439  require(_messageId > 0 && _messageId <= messageCount, \"Invalid message ID\") */\n      tag_201\n      jumpi\n      mload(0x40)\n      0x08c379a000000000000000000000000000000000000000000000000000000000\n      dup2\n      mstore\n      0x04\n      add\n      tag_202\n      swap1\n      tag_169\n      jump\t// in\n    tag_202:\n      mload(0x40)\n      dup1\n      swap2\n      sub\n      swap1\n      revert\n    tag_201:\n        /* \"MessageBoard.sol\":6459:6467  messages */\n      0x02\n        /* \"MessageBoard.sol\":6459:6479  messages[_messageId] */\n      0x00\n        /* \"MessageBoard.sol\":6468:6478  _messageId */\n      dup3\n        /* \"MessageBoard.sol\":6459:6479  messages[_messageId] */\n      dup2\n      mstore\n      0x20\n      add\n      swap1\n      dup2\n      mstore\n      0x20\n      add\n      0x00\n      keccak256\n        /* \"MessageBoard.sol\":6459:6489  messages[_messageId].isDeleted */\n      0x04\n      add\n      0x00\n      swap1\n      sload\n      swap1\n      0x0100\n      exp\n      swap1\n      div\n      0xff\n      and\n        /* \"MessageBoard.sol\":6458:6489  !messages[_messageId].isDeleted */\n      iszero\n        /* \"MessageBoard.sol\":6450:6517  require(!messages[_messageId].isDeleted, \"Message already deleted\") */\n      tag_203\n      jumpi\n      mload(0x40)\n      0x08c379a000000000000000000000000000000000000000000000000000000000\n      dup2\n      mstore\n      0x04\n      add\n      tag_204\n      swap1\n      tag_205\n      jump\t// in\n    tag_204:\n      mload(0x40)\n      dup1\n      swap2\n      sub\n      swap1\n      revert\n    tag_203:\n        /* \"MessageBoard.sol\":6599:6603  true */\n      0x01\n        /* \"MessageBoard.sol\":6566:6574  messages */\n      0x02\n        /* \"MessageBoard.sol\":6566:6586  messages[_messageId] */\n      0x00\n        /* \"MessageBoard.sol\":6575:6585  _messageId */\n      dup4\n        /* \"MessageBoard.sol\":6566:6586  messages[_messageId] */\n      dup2\n      mstore\n      0x20\n      add\n      swap1\n      dup2\n      mstore\n      0x20\n      add\n      0x00\n      keccak256\n        /* \"MessageBoard.sol\":6566:6596  messages[_messageId].isDeleted */\n      0x04\n      add\n      0x00\n        /* \"MessageBoard.sol\":6566:6603  messages[_messageId].isDeleted = true */\n      0x0100\n      exp\n      dup2\n      sload\n      dup2\n      0xff\n      mul\n      not\n      and\n      swap1\n      dup4\n      iszero\n      iszero\n      mul\n      or\n      swap1\n      sstore\n      pop\n        /* \"MessageBoard.sol\":6659:6669  _messageId */\n      dup1\n        /* \"MessageBoard.sol\":6644:6670  MessageDeleted(_messageId) */\n      0x6279be045e4d4d5a0eba7b1f0e578322b6dd7c01e92f0991700a02180904654b\n      mload(0x40)\n      mload(0x40)\n      dup1\n      swap2\n      sub\n      swap1\n      log2\n        /* \"MessageBoard.sol\":6264:6678  function deleteMessage(uint256 _messageId) public onlyOwner {... */\n      pop\n      jump\t// out\n        /* \"@openzeppelin/contracts/access/Ownable.sol\":2543:2758  function transferOwnership(address newOwner) public virtual onlyOwner {... */\n    tag_75:\n        /* \"@openzeppelin/contracts/access/Ownable.sol\":1531:1544  _checkOwner() */\n      tag_207\n        /* \"@openzeppelin/contracts/access/Ownable.sol\":1531:1542  _checkOwner */\n      tag_141\n        /* \"@openzeppelin/contracts/access/Ownable.sol\":1531:1544  _checkOwner() */\n      jump\t// in\n    tag_207:\n        /* \"@openzeppelin/contracts/access/Ownable.sol\":2647:2648  0 */\n      0x00\n        /* \"@openzeppelin/contracts/access/Ownable.sol\":2627:2649  newOwner == address(0) */\n      0xffffffffffffffffffffffffffffffffffffffff\n      and\n        /* \"@openzeppelin/contracts/access/Ownable.sol\":2627:2635  newOwner */\n      dup2\n        /* \"@openzeppelin/contracts/access/Ownable.sol\":2627:2649  newOwner == address(0) */\n      0xffffffffffffffffffffffffffffffffffffffff\n      and\n      sub\n        /* \"@openzeppelin/contracts/access/Ownable.sol\":2623:2714  if (newOwner == address(0)) {... */\n      tag_209\n      jumpi\n        /* \"@openzeppelin/contracts/access/Ownable.sol\":2700:2701  0 */\n      0x00\n        /* \"@openzeppelin/contracts/access/Ownable.sol\":2672:2703  OwnableInvalidOwner(address(0)) */\n      mload(0x40)\n      0x1e4fbdf700000000000000000000000000000000000000000000000000000000\n      dup2\n      mstore\n      0x04\n      add\n      tag_210\n      swap2\n      swap1\n      tag_64\n      jump\t// in\n    tag_210:\n      mload(0x40)\n      dup1\n      swap2\n      sub\n      swap1\n      revert\n        /* \"@openzeppelin/contracts/access/Ownable.sol\":2623:2714  if (newOwner == address(0)) {... */\n    tag_209:\n        /* \"@openzeppelin/contracts/access/Ownable.sol\":2723:2751  _transferOwnership(newOwner) */\n      tag_211\n        /* \"@openzeppelin/contracts/access/Ownable.sol\":2742:2750  newOwner */\n      dup2\n        /* \"@openzeppelin/contracts/access/Ownable.sol\":2723:2741  _transferOwnership */\n      tag_144\n        /* \"@openzeppelin/contracts/access/Ownable.sol\":2723:2751  _transferOwnership(newOwner) */\n      jump\t// in\n    tag_211:\n        /* \"@openzeppelin/contracts/access/Ownable.sol\":2543:2758  function transferOwnership(address newOwner) public virtual onlyOwner {... */\n      pop\n      jump\t// out\n        /* \"@openzeppelin/contracts/security/ReentrancyGuard.sol\":2336:2623  function _nonReentrantBefore() private {... */\n    tag_127:\n        /* \"@openzeppelin/contracts/security/ReentrancyGuard.sol\":1759:1760  2 */\n      0x02\n        /* \"@openzeppelin/contracts/security/ReentrancyGuard.sol\":2468:2475  _status */\n      sload(0x01)\n        /* \"@openzeppelin/contracts/security/ReentrancyGuard.sol\":2468:2487  _status != _ENTERED */\n      sub\n        /* \"@openzeppelin/contracts/security/ReentrancyGuard.sol\":2460:2523  require(_status != _ENTERED, \"ReentrancyGuard: reentrant call\") */\n      tag_213\n      jumpi\n      mload(0x40)\n      0x08c379a000000000000000000000000000000000000000000000000000000000\n      dup2\n      mstore\n      0x04\n      add\n      tag_214\n      swap1\n      tag_215\n      jump\t// in\n    tag_214:\n      mload(0x40)\n      dup1\n      swap2\n      sub\n      swap1\n      revert\n    tag_213:\n        /* \"@openzeppelin/contracts/security/ReentrancyGuard.sol\":1759:1760  2 */\n      0x02\n        /* \"@openzeppelin/contracts/security/ReentrancyGuard.sol\":2598:2605  _status */\n      0x01\n        /* \"@openzeppelin/contracts/security/ReentrancyGuard.sol\":2598:2616  _status = _ENTERED */\n      dup2\n      swap1\n      sstore\n      pop\n        /* \"@openzeppelin/contracts/security/ReentrancyGuard.sol\":2336:2623  function _nonReentrantBefore() private {... */\n      jump\t// out\n        /* \"@openzeppelin/contracts/security/ReentrancyGuard.sol\":2629:2838  function _nonReentrantAfter() private {... */\n    tag_138:\n        /* \"@openzeppelin/contracts/security/ReentrancyGuard.sol\":1716:1717  1 */\n      0x01\n        /* \"@openzeppelin/contracts/security/ReentrancyGuard.sol\":2809:2816  _status */\n      dup1\n        /* \"@openzeppelin/contracts/security/ReentrancyGuard.sol\":2809:2831  _status = _NOT_ENTERED */\n      dup2\n      swap1\n      sstore\n      pop\n        /* \"@openzeppelin/contracts/security/ReentrancyGuard.sol\":2629:2838  function _nonReentrantAfter() private {... */\n      jump\t// out\n        /* \"@openzeppelin/contracts/access/Ownable.sol\":1796:1958  function _checkOwner() internal view virtual {... */\n    tag_141:\n        /* \"@openzeppelin/contracts/access/Ownable.sol\":1866:1878  _msgSender() */\n      tag_218\n        /* \"@openzeppelin/contracts/access/Ownable.sol\":1866:1876  _msgSender */\n      tag_219\n        /* \"@openzeppelin/contracts/access/Ownable.sol\":1866:1878  _msgSender() */\n      jump\t// in\n    tag_218:\n        /* \"@openzeppelin/contracts/access/Ownable.sol\":1855:1878  owner() != _msgSender() */\n      0xffffffffffffffffffffffffffffffffffffffff\n      and\n        /* \"@openzeppelin/contracts/access/Ownable.sol\":1855:1862  owner() */\n      tag_220\n        /* \"@openzeppelin/contracts/access/Ownable.sol\":1855:1860  owner */\n      tag_62\n        /* \"@openzeppelin/contracts/access/Ownable.sol\":1855:1862  owner() */\n      jump\t// in\n    tag_220:\n        /* \"@openzeppelin/contracts/access/Ownable.sol\":1855:1878  owner() != _msgSender() */\n      0xffffffffffffffffffffffffffffffffffffffff\n      and\n      eq\n        /* \"@openzeppelin/contracts/access/Ownable.sol\":1851:1952  if (owner() != _msgSender()) {... */\n      tag_221\n      jumpi\n        /* \"@openzeppelin/contracts/access/Ownable.sol\":1928:1940  _msgSender() */\n      tag_222\n        /* \"@openzeppelin/contracts/access/Ownable.sol\":1928:1938  _msgSender */\n      tag_219\n        /* \"@openzeppelin/contracts/access/Ownable.sol\":1928:1940  _msgSender() */\n      jump\t// in\n    tag_222:\n        /* \"@openzeppelin/contracts/access/Ownable.sol\":1901:1941  OwnableUnauthorizedAccount(_msgSender()) */\n      mload(0x40)\n      0x118cdaa700000000000000000000000000000000000000000000000000000000\n      dup2\n      mstore\n      0x04\n      add\n      tag_223\n      swap2\n      swap1\n      tag_64\n      jump\t// in\n    tag_223:\n      mload(0x40)\n      dup1\n      swap2\n      sub\n      swap1\n      revert\n        /* \"@openzeppelin/contracts/access/Ownable.sol\":1851:1952  if (owner() != _msgSender()) {... */\n    tag_221:\n        /* \"@openzeppelin/contracts/access/Ownable.sol\":1796:1958  function _checkOwner() internal view virtual {... */\n      jump\t// out\n        /* \"@openzeppelin/contracts/access/Ownable.sol\":2912:3099  function _transferOwnership(address newOwner) internal virtual {... */\n    tag_144:\n        /* \"@openzeppelin/contracts/access/Ownable.sol\":2985:3001  address oldOwner */\n      0x00\n        /* \"@openzeppelin/contracts/access/Ownable.sol\":3004:3010  _owner */\n      dup1\n      0x00\n      swap1\n      sload\n      swap1\n      0x0100\n      exp\n      swap1\n      div\n      0xffffffffffffffffffffffffffffffffffffffff\n      and\n        /* \"@openzeppelin/contracts/access/Ownable.sol\":2985:3010  address oldOwner = _owner */\n      swap1\n      pop\n        /* \"@openzeppelin/contracts/access/Ownable.sol\":3029:3037  newOwner */\n      dup2\n        /* \"@openzeppelin/contracts/access/Ownable.sol\":3020:3026  _owner */\n      0x00\n      dup1\n        /* \"@openzeppelin/contracts/access/Ownable.sol\":3020:3037  _owner = newOwner */\n      0x0100\n      exp\n      dup2\n      sload\n      dup2\n      0xffffffffffffffffffffffffffffffffffffffff\n      mul\n      not\n      and\n      swap1\n      dup4\n      0xffffffffffffffffffffffffffffffffffffffff\n      and\n      mul\n      or\n      swap1\n      sstore\n      pop\n        /* \"@openzeppelin/contracts/access/Ownable.sol\":3083:3091  newOwner */\n      dup2\n        /* \"@openzeppelin/contracts/access/Ownable.sol\":3052:3092  OwnershipTransferred(oldOwner, newOwner) */\n      0xffffffffffffffffffffffffffffffffffffffff\n      and\n        /* \"@openzeppelin/contracts/access/Ownable.sol\":3073:3081  oldOwner */\n      dup2\n        /* \"@openzeppelin/contracts/access/Ownable.sol\":3052:3092  OwnershipTransferred(oldOwner, newOwner) */\n      0xffffffffffffffffffffffffffffffffffffffff\n      and\n      0x8be0079c531659141344cd1fd0a4f28419497f9722a3daafe3b4186f6b6457e0\n      mload(0x40)\n      mload(0x40)\n      dup1\n      swap2\n      sub\n      swap1\n      log3\n        /* \"@openzeppelin/contracts/access/Ownable.sol\":2975:3099  {... */\n      pop\n        /* \"@openzeppelin/contracts/access/Ownable.sol\":2912:3099  function _transferOwnership(address newOwner) internal virtual {... */\n      pop\n      jump\t// out\n        /* \"@openzeppelin/contracts/utils/Context.sol\":656:752  function _msgSender() internal view virtual returns (address) {... */\n    tag_219:\n        /* \"@openzeppelin/contracts/utils/Context.sol\":709:716  address */\n      0x00\n        /* \"@openzeppelin/contracts/utils/Context.sol\":735:745  msg.sender */\n      caller\n        /* \"@openzeppelin/contracts/utils/Context.sol\":728:745  return msg.sender */\n      swap1\n      pop\n        /* \"@openzeppelin/contracts/utils/Context.sol\":656:752  function _msgSender() internal view virtual returns (address) {... */\n      swap1\n      jump\t// out\n    tag_89:\n      mload(0x40)\n      dup1\n      0x80\n      add\n      0x40\n      mstore\n      dup1\n      0x00\n      dup2\n      mstore\n      0x20\n      add\n      and(0xffffffffffffffffffffffffffffffffffffffff, 0x00)\n      dup2\n      mstore\n      0x20\n      add\n      0x60\n      dup2\n      mstore\n      0x20\n      add\n      iszero(iszero(0x00))\n      dup2\n      mstore\n      pop\n      swap1\n      jump\t// out\n    tag_111:\n      mload(0x40)\n      dup1\n      0xa0\n      add\n      0x40\n      mstore\n      dup1\n      0x00\n      dup2\n      mstore\n      0x20\n      add\n      and(0xffffffffffffffffffffffffffffffffffffffff, 0x00)\n      dup2\n      mstore\n      0x20\n      add\n      0x60\n      dup2\n      mstore\n      0x20\n      add\n      0x00\n      dup2\n      mstore\n      0x20\n      add\n      iszero(iszero(0x00))\n      dup2\n      mstore\n      pop\n      swap1\n      jump\t// out\n        /* \"#utility.yul\":7:82   */\n    tag_226:\n        /* \"#utility.yul\":40:46   */\n      0x00\n        /* \"#utility.yul\":73:75   */\n      0x40\n        /* \"#utility.yul\":67:76   */\n      mload\n        /* \"#utility.yul\":57:76   */\n      swap1\n      pop\n        /* \"#utility.yul\":7:82   */\n      swap1\n      jump\t// out\n        /* \"#utility.yul\":88:205   */\n    tag_227:\n        /* \"#utility.yul\":197:198   */\n      0x00\n        /* \"#utility.yul\":194:195   */\n      dup1\n        /* \"#utility.yul\":187:199   */\n      revert\n        /* \"#utility.yul\":211:328   */\n    tag_228:\n        /* \"#utility.yul\":320:321   */\n      0x00\n        /* \"#utility.yul\":317:318   */\n      dup1\n        /* \"#utility.yul\":310:322   */\n      revert\n        /* \"#utility.yul\":334:411   */\n    tag_229:\n        /* \"#utility.yul\":371:378   */\n      0x00\n        /* \"#utility.yul\":400:405   */\n      dup2\n        /* \"#utility.yul\":389:405   */\n      swap1\n      pop\n        /* \"#utility.yul\":334:411   */\n      swap2\n      swap1\n      pop\n      jump\t// out\n        /* \"#utility.yul\":417:539   */\n    tag_230:\n        /* \"#utility.yul\":490:514   */\n      tag_317\n        /* \"#utility.yul\":508:513   */\n      dup2\n        /* \"#utility.yul\":490:514   */\n      tag_229\n      jump\t// in\n    tag_317:\n        /* \"#utility.yul\":483:488   */\n      dup2\n        /* \"#utility.yul\":480:515   */\n      eq\n        /* \"#utility.yul\":470:533   */\n      tag_318\n      jumpi\n        /* \"#utility.yul\":529:530   */\n      0x00\n        /* \"#utility.yul\":526:527   */\n      dup1\n        /* \"#utility.yul\":519:531   */\n      revert\n        /* \"#utility.yul\":470:533   */\n    tag_318:\n        /* \"#utility.yul\":417:539   */\n      pop\n      jump\t// out\n        /* \"#utility.yul\":545:684   */\n    tag_231:\n        /* \"#utility.yul\":591:596   */\n      0x00\n        /* \"#utility.yul\":629:635   */\n      dup2\n        /* \"#utility.yul\":616:636   */\n      calldataload\n        /* \"#utility.yul\":607:636   */\n      swap1\n      pop\n        /* \"#utility.yul\":645:678   */\n      tag_320\n        /* \"#utility.yul\":672:677   */\n      dup2\n        /* \"#utility.yul\":645:678   */\n      tag_230\n      jump\t// in\n    tag_320:\n        /* \"#utility.yul\":545:684   */\n      swap3\n      swap2\n      pop\n      pop\n      jump\t// out\n        /* \"#utility.yul\":690:1019   */\n    tag_22:\n        /* \"#utility.yul\":749:755   */\n      0x00\n        /* \"#utility.yul\":798:800   */\n      0x20\n        /* \"#utility.yul\":786:795   */\n      dup3\n        /* \"#utility.yul\":777:784   */\n      dup5\n        /* \"#utility.yul\":773:796   */\n      sub\n        /* \"#utility.yul\":769:801   */\n      slt\n        /* \"#utility.yul\":766:885   */\n      iszero\n      tag_322\n      jumpi\n        /* \"#utility.yul\":804:883   */\n      tag_323\n      tag_227\n      jump\t// in\n    tag_323:\n        /* \"#utility.yul\":766:885   */\n    tag_322:\n        /* \"#utility.yul\":924:925   */\n      0x00\n        /* \"#utility.yul\":949:1002   */\n      tag_324\n        /* \"#utility.yul\":994:1001   */\n      dup5\n        /* \"#utility.yul\":985:991   */\n      dup3\n        /* \"#utility.yul\":974:983   */\n      dup6\n        /* \"#utility.yul\":970:992   */\n      add\n        /* \"#utility.yul\":949:1002   */\n      tag_231\n      jump\t// in\n    tag_324:\n        /* \"#utility.yul\":939:1002   */\n      swap2\n      pop\n        /* \"#utility.yul\":895:1012   */\n      pop\n        /* \"#utility.yul\":690:1019   */\n      swap3\n      swap2\n      pop\n      pop\n      jump\t// out\n        /* \"#utility.yul\":1025:1143   */\n    tag_232:\n        /* \"#utility.yul\":1112:1136   */\n      tag_326\n        /* \"#utility.yul\":1130:1135   */\n      dup2\n        /* \"#utility.yul\":1112:1136   */\n      tag_229\n      jump\t// in\n    tag_326:\n        /* \"#utility.yul\":1107:1110   */\n      dup3\n        /* \"#utility.yul\":1100:1137   */\n      mstore\n        /* \"#utility.yul\":1025:1143   */\n      pop\n      pop\n      jump\t// out\n        /* \"#utility.yul\":1149:1275   */\n    tag_233:\n        /* \"#utility.yul\":1186:1193   */\n      0x00\n        /* \"#utility.yul\":1226:1268   */\n      0xffffffffffffffffffffffffffffffffffffffff\n        /* \"#utility.yul\":1219:1224   */\n      dup3\n        /* \"#utility.yul\":1215:1269   */\n      and\n        /* \"#utility.yul\":1204:1269   */\n      swap1\n      pop\n        /* \"#utility.yul\":1149:1275   */\n      swap2\n      swap1\n      pop\n      jump\t// out\n        /* \"#utility.yul\":1281:1377   */\n    tag_234:\n        /* \"#utility.yul\":1318:1325   */\n      0x00\n        /* \"#utility.yul\":1347:1371   */\n      tag_329\n        /* \"#utility.yul\":1365:1370   */\n      dup3\n        /* \"#utility.yul\":1347:1371   */\n      tag_233\n      jump\t// in\n    tag_329:\n        /* \"#utility.yul\":1336:1371   */\n      swap1\n      pop\n        /* \"#utility.yul\":1281:1377   */\n      swap2\n      swap1\n      pop\n      jump\t// out\n        /* \"#utility.yul\":1383:1501   */\n    tag_235:\n        /* \"#utility.yul\":1470:1494   */\n      tag_331\n        /* \"#utility.yul\":1488:1493   */\n      dup2\n        /* \"#utility.yul\":1470:1494   */\n      tag_234\n      jump\t// in\n    tag_331:\n        /* \"#utility.yul\":1465:1468   */\n      dup3\n        /* \"#utility.yul\":1458:1495   */\n      mstore\n        /* \"#utility.yul\":1383:1501   */\n      pop\n      pop\n      jump\t// out\n        /* \"#utility.yul\":1507:1606   */\n    tag_236:\n        /* \"#utility.yul\":1559:1565   */\n      0x00\n        /* \"#utility.yul\":1593:1598   */\n      dup2\n        /* \"#utility.yul\":1587:1599   */\n      mload\n        /* \"#utility.yul\":1577:1599   */\n      swap1\n      pop\n        /* \"#utility.yul\":1507:1606   */\n      swap2\n      swap1\n      pop\n      jump\t// out\n        /* \"#utility.yul\":1612:1781   */\n    tag_237:\n        /* \"#utility.yul\":1696:1707   */\n      0x00\n        /* \"#utility.yul\":1730:1736   */\n      dup3\n        /* \"#utility.yul\":1725:1728   */\n      dup3\n        /* \"#utility.yul\":1718:1737   */\n      mstore\n        /* \"#utility.yul\":1770:1774   */\n      0x20\n        /* \"#utility.yul\":1765:1768   */\n      dup3\n        /* \"#utility.yul\":1761:1775   */\n      add\n        /* \"#utility.yul\":1746:1775   */\n      swap1\n      pop\n        /* \"#utility.yul\":1612:1781   */\n      swap3\n      swap2\n      pop\n      pop\n      jump\t// out\n        /* \"#utility.yul\":1787:2033   */\n    tag_238:\n        /* \"#utility.yul\":1868:1869   */\n      0x00\n        /* \"#utility.yul\":1878:1991   */\n    tag_335:\n        /* \"#utility.yul\":1892:1898   */\n      dup4\n        /* \"#utility.yul\":1889:1890   */\n      dup2\n        /* \"#utility.yul\":1886:1899   */\n      lt\n        /* \"#utility.yul\":1878:1991   */\n      iszero\n      tag_337\n      jumpi\n        /* \"#utility.yul\":1977:1978   */\n      dup1\n        /* \"#utility.yul\":1972:1975   */\n      dup3\n        /* \"#utility.yul\":1968:1979   */\n      add\n        /* \"#utility.yul\":1962:1980   */\n      mload\n        /* \"#utility.yul\":1958:1959   */\n      dup2\n        /* \"#utility.yul\":1953:1956   */\n      dup5\n        /* \"#utility.yul\":1949:1960   */\n      add\n        /* \"#utility.yul\":1942:1981   */\n      mstore\n        /* \"#utility.yul\":1914:1916   */\n      0x20\n        /* \"#utility.yul\":1911:1912   */\n      dup2\n        /* \"#utility.yul\":1907:1917   */\n      add\n        /* \"#utility.yul\":1902:1917   */\n      swap1\n      pop\n        /* \"#utility.yul\":1878:1991   */\n      jump(tag_335)\n    tag_337:\n        /* \"#utility.yul\":2025:2026   */\n      0x00\n        /* \"#utility.yul\":2016:2022   */\n      dup5\n        /* \"#utility.yul\":2011:2014   */\n      dup5\n        /* \"#utility.yul\":2007:2023   */\n      add\n        /* \"#utility.yul\":2000:2027   */\n      mstore\n        /* \"#utility.yul\":1849:2033   */\n      pop\n        /* \"#utility.yul\":1787:2033   */\n      pop\n      pop\n      pop\n      jump\t// out\n        /* \"#utility.yul\":2039:2141   */\n    tag_239:\n        /* \"#utility.yul\":2080:2086   */\n      0x00\n        /* \"#utility.yul\":2131:2133   */\n      0x1f\n        /* \"#utility.yul\":2127:2134   */\n      not\n        /* \"#utility.yul\":2122:2124   */\n      0x1f\n        /* \"#utility.yul\":2115:2120   */\n      dup4\n        /* \"#utility.yul\":2111:2125   */\n      add\n        /* \"#utility.yul\":2107:2135   */\n      and\n        /* \"#utility.yul\":2097:2135   */\n      swap1\n      pop\n        /* \"#utility.yul\":2039:2141   */\n      swap2\n      swap1\n      pop\n      jump\t// out\n        /* \"#utility.yul\":2147:2524   */\n    tag_240:\n        /* \"#utility.yul\":2235:2238   */\n      0x00\n        /* \"#utility.yul\":2263:2302   */\n      tag_340\n        /* \"#utility.yul\":2296:2301   */\n      dup3\n        /* \"#utility.yul\":2263:2302   */\n      tag_236\n      jump\t// in\n    tag_340:\n        /* \"#utility.yul\":2318:2389   */\n      tag_341\n        /* \"#utility.yul\":2382:2388   */\n      dup2\n        /* \"#utility.yul\":2377:2380   */\n      dup6\n        /* \"#utility.yul\":2318:2389   */\n      tag_237\n      jump\t// in\n    tag_341:\n        /* \"#utility.yul\":2311:2389   */\n      swap4\n      pop\n        /* \"#utility.yul\":2398:2463   */\n      tag_342\n        /* \"#utility.yul\":2456:2462   */\n      dup2\n        /* \"#utility.yul\":2451:2454   */\n      dup6\n        /* \"#utility.yul\":2444:2448   */\n      0x20\n        /* \"#utility.yul\":2437:2442   */\n      dup7\n        /* \"#utility.yul\":2433:2449   */\n      add\n        /* \"#utility.yul\":2398:2463   */\n      tag_238\n      jump\t// in\n    tag_342:\n        /* \"#utility.yul\":2488:2517   */\n      tag_343\n        /* \"#utility.yul\":2510:2516   */\n      dup2\n        /* \"#utility.yul\":2488:2517   */\n      tag_239\n      jump\t// in\n    tag_343:\n        /* \"#utility.yul\":2483:2486   */\n      dup5\n        /* \"#utility.yul\":2479:2518   */\n      add\n        /* \"#utility.yul\":2472:2518   */\n      swap2\n      pop\n        /* \"#utility.yul\":2239:2524   */\n      pop\n        /* \"#utility.yul\":2147:2524   */\n      swap3\n      swap2\n      pop\n      pop\n      jump\t// out\n        /* \"#utility.yul\":2530:2620   */\n    tag_241:\n        /* \"#utility.yul\":2564:2571   */\n      0x00\n        /* \"#utility.yul\":2607:2612   */\n      dup2\n        /* \"#utility.yul\":2600:2613   */\n      iszero\n        /* \"#utility.yul\":2593:2614   */\n      iszero\n        /* \"#utility.yul\":2582:2614   */\n      swap1\n      pop\n        /* \"#utility.yul\":2530:2620   */\n      swap2\n      swap1\n      pop\n      jump\t// out\n        /* \"#utility.yul\":2626:2735   */\n    tag_242:\n        /* \"#utility.yul\":2707:2728   */\n      tag_346\n        /* \"#utility.yul\":2722:2727   */\n      dup2\n        /* \"#utility.yul\":2707:2728   */\n      tag_241\n      jump\t// in\n    tag_346:\n        /* \"#utility.yul\":2702:2705   */\n      dup3\n        /* \"#utility.yul\":2695:2729   */\n      mstore\n        /* \"#utility.yul\":2626:2735   */\n      pop\n      pop\n      jump\t// out\n        /* \"#utility.yul\":2741:3484   */\n    tag_25:\n        /* \"#utility.yul\":2960:2964   */\n      0x00\n        /* \"#utility.yul\":2998:3001   */\n      0xa0\n        /* \"#utility.yul\":2987:2996   */\n      dup3\n        /* \"#utility.yul\":2983:3002   */\n      add\n        /* \"#utility.yul\":2975:3002   */\n      swap1\n      pop\n        /* \"#utility.yul\":3012:3083   */\n      tag_348\n        /* \"#utility.yul\":3080:3081   */\n      0x00\n        /* \"#utility.yul\":3069:3078   */\n      dup4\n        /* \"#utility.yul\":3065:3082   */\n      add\n        /* \"#utility.yul\":3056:3062   */\n      dup9\n        /* \"#utility.yul\":3012:3083   */\n      tag_232\n      jump\t// in\n    tag_348:\n        /* \"#utility.yul\":3093:3165   */\n      tag_349\n        /* \"#utility.yul\":3161:3163   */\n      0x20\n        /* \"#utility.yul\":3150:3159   */\n      dup4\n        /* \"#utility.yul\":3146:3164   */\n      add\n        /* \"#utility.yul\":3137:3143   */\n      dup8\n        /* \"#utility.yul\":3093:3165   */\n      tag_235\n      jump\t// in\n    tag_349:\n        /* \"#utility.yul\":3212:3221   */\n      dup2\n        /* \"#utility.yul\":3206:3210   */\n      dup2\n        /* \"#utility.yul\":3202:3222   */\n      sub\n        /* \"#utility.yul\":3197:3199   */\n      0x40\n        /* \"#utility.yul\":3186:3195   */\n      dup4\n        /* \"#utility.yul\":3182:3200   */\n      add\n        /* \"#utility.yul\":3175:3223   */\n      mstore\n        /* \"#utility.yul\":3240:3318   */\n      tag_350\n        /* \"#utility.yul\":3313:3317   */\n      dup2\n        /* \"#utility.yul\":3304:3310   */\n      dup7\n        /* \"#utility.yul\":3240:3318   */\n      tag_240\n      jump\t// in\n    tag_350:\n        /* \"#utility.yul\":3232:3318   */\n      swap1\n      pop\n        /* \"#utility.yul\":3328:3400   */\n      tag_351\n        /* \"#utility.yul\":3396:3398   */\n      0x60\n        /* \"#utility.yul\":3385:3394   */\n      dup4\n        /* \"#utility.yul\":3381:3399   */\n      add\n        /* \"#utility.yul\":3372:3378   */\n      dup6\n        /* \"#utility.yul\":3328:3400   */\n      tag_232\n      jump\t// in\n    tag_351:\n        /* \"#utility.yul\":3410:3477   */\n      tag_352\n        /* \"#utility.yul\":3472:3475   */\n      0x80\n        /* \"#utility.yul\":3461:3470   */\n      dup4\n        /* \"#utility.yul\":3457:3476   */\n      add\n        /* \"#utility.yul\":3448:3454   */\n      dup5\n        /* \"#utility.yul\":3410:3477   */\n      tag_242\n      jump\t// in\n    tag_352:\n        /* \"#utility.yul\":2741:3484   */\n      swap7\n      swap6\n      pop\n      pop\n      pop\n      pop\n      pop\n      pop\n      jump\t// out\n        /* \"#utility.yul\":3490:3712   */\n    tag_29:\n        /* \"#utility.yul\":3583:3587   */\n      0x00\n        /* \"#utility.yul\":3621:3623   */\n      0x20\n        /* \"#utility.yul\":3610:3619   */\n      dup3\n        /* \"#utility.yul\":3606:3624   */\n      add\n        /* \"#utility.yul\":3598:3624   */\n      swap1\n      pop\n        /* \"#utility.yul\":3634:3705   */\n      tag_354\n        /* \"#utility.yul\":3702:3703   */\n      0x00\n        /* \"#utility.yul\":3691:3700   */\n      dup4\n        /* \"#utility.yul\":3687:3704   */\n      add\n        /* \"#utility.yul\":3678:3684   */\n      dup5\n        /* \"#utility.yul\":3634:3705   */\n      tag_232\n      jump\t// in\n    tag_354:\n        /* \"#utility.yul\":3490:3712   */\n      swap3\n      swap2\n      pop\n      pop\n      jump\t// out\n        /* \"#utility.yul\":3718:3860   */\n    tag_243:\n        /* \"#utility.yul\":3813:3819   */\n      0x00\n        /* \"#utility.yul\":3847:3852   */\n      dup2\n        /* \"#utility.yul\":3841:3853   */\n      mload\n        /* \"#utility.yul\":3831:3853   */\n      swap1\n      pop\n        /* \"#utility.yul\":3718:3860   */\n      swap2\n      swap1\n      pop\n      jump\t// out\n        /* \"#utility.yul\":3866:4078   */\n    tag_244:\n        /* \"#utility.yul\":3993:4004   */\n      0x00\n        /* \"#utility.yul\":4027:4033   */\n      dup3\n        /* \"#utility.yul\":4022:4025   */\n      dup3\n        /* \"#utility.yul\":4015:4034   */\n      mstore\n        /* \"#utility.yul\":4067:4071   */\n      0x20\n        /* \"#utility.yul\":4062:4065   */\n      dup3\n        /* \"#utility.yul\":4058:4072   */\n      add\n        /* \"#utility.yul\":4043:4072   */\n      swap1\n      pop\n        /* \"#utility.yul\":3866:4078   */\n      swap3\n      swap2\n      pop\n      pop\n      jump\t// out\n        /* \"#utility.yul\":4084:4244   */\n    tag_245:\n        /* \"#utility.yul\":4179:4183   */\n      0x00\n        /* \"#utility.yul\":4202:4205   */\n      dup2\n        /* \"#utility.yul\":4194:4205   */\n      swap1\n      pop\n        /* \"#utility.yul\":4232:4236   */\n      0x20\n        /* \"#utility.yul\":4227:4230   */\n      dup3\n        /* \"#utility.yul\":4223:4237   */\n      add\n        /* \"#utility.yul\":4215:4237   */\n      swap1\n      pop\n        /* \"#utility.yul\":4084:4244   */\n      swap2\n      swap1\n      pop\n      jump\t// out\n        /* \"#utility.yul\":4250:4358   */\n    tag_246:\n        /* \"#utility.yul\":4327:4351   */\n      tag_359\n        /* \"#utility.yul\":4345:4350   */\n      dup2\n        /* \"#utility.yul\":4327:4351   */\n      tag_229\n      jump\t// in\n    tag_359:\n        /* \"#utility.yul\":4322:4325   */\n      dup3\n        /* \"#utility.yul\":4315:4352   */\n      mstore\n        /* \"#utility.yul\":4250:4358   */\n      pop\n      pop\n      jump\t// out\n        /* \"#utility.yul\":4364:4472   */\n    tag_247:\n        /* \"#utility.yul\":4441:4465   */\n      tag_361\n        /* \"#utility.yul\":4459:4464   */\n      dup2\n        /* \"#utility.yul\":4441:4465   */\n      tag_234\n      jump\t// in\n    tag_361:\n        /* \"#utility.yul\":4436:4439   */\n      dup3\n        /* \"#utility.yul\":4429:4466   */\n      mstore\n        /* \"#utility.yul\":4364:4472   */\n      pop\n      pop\n      jump\t// out\n        /* \"#utility.yul\":4478:4637   */\n    tag_248:\n        /* \"#utility.yul\":4552:4563   */\n      0x00\n        /* \"#utility.yul\":4586:4592   */\n      dup3\n        /* \"#utility.yul\":4581:4584   */\n      dup3\n        /* \"#utility.yul\":4574:4593   */\n      mstore\n        /* \"#utility.yul\":4626:4630   */\n      0x20\n        /* \"#utility.yul\":4621:4624   */\n      dup3\n        /* \"#utility.yul\":4617:4631   */\n      add\n        /* \"#utility.yul\":4602:4631   */\n      swap1\n      pop\n        /* \"#utility.yul\":4478:4637   */\n      swap3\n      swap2\n      pop\n      pop\n      jump\t// out\n        /* \"#utility.yul\":4643:5000   */\n    tag_249:\n        /* \"#utility.yul\":4721:4724   */\n      0x00\n        /* \"#utility.yul\":4749:4788   */\n      tag_364\n        /* \"#utility.yul\":4782:4787   */\n      dup3\n        /* \"#utility.yul\":4749:4788   */\n      tag_236\n      jump\t// in\n    tag_364:\n        /* \"#utility.yul\":4804:4865   */\n      tag_365\n        /* \"#utility.yul\":4858:4864   */\n      dup2\n        /* \"#utility.yul\":4853:4856   */\n      dup6\n        /* \"#utility.yul\":4804:4865   */\n      tag_248\n      jump\t// in\n    tag_365:\n        /* \"#utility.yul\":4797:4865   */\n      swap4\n      pop\n        /* \"#utility.yul\":4874:4939   */\n      tag_366\n        /* \"#utility.yul\":4932:4938   */\n      dup2\n        /* \"#utility.yul\":4927:4930   */\n      dup6\n        /* \"#utility.yul\":4920:4924   */\n      0x20\n        /* \"#utility.yul\":4913:4918   */\n      dup7\n        /* \"#utility.yul\":4909:4925   */\n      add\n        /* \"#utility.yul\":4874:4939   */\n      tag_238\n      jump\t// in\n    tag_366:\n        /* \"#utility.yul\":4964:4993   */\n      tag_367\n        /* \"#utility.yul\":4986:4992   */\n      dup2\n        /* \"#utility.yul\":4964:4993   */\n      tag_239\n      jump\t// in\n    tag_367:\n        /* \"#utility.yul\":4959:4962   */\n      dup5\n        /* \"#utility.yul\":4955:4994   */\n      add\n        /* \"#utility.yul\":4948:4994   */\n      swap2\n      pop\n        /* \"#utility.yul\":4725:5000   */\n      pop\n        /* \"#utility.yul\":4643:5000   */\n      swap3\n      swap2\n      pop\n      pop\n      jump\t// out\n        /* \"#utility.yul\":5006:5105   */\n    tag_250:\n        /* \"#utility.yul\":5077:5098   */\n      tag_369\n        /* \"#utility.yul\":5092:5097   */\n      dup2\n        /* \"#utility.yul\":5077:5098   */\n      tag_241\n      jump\t// in\n    tag_369:\n        /* \"#utility.yul\":5072:5075   */\n      dup3\n        /* \"#utility.yul\":5065:5099   */\n      mstore\n        /* \"#utility.yul\":5006:5105   */\n      pop\n      pop\n      jump\t// out\n        /* \"#utility.yul\":5179:6145   */\n    tag_251:\n        /* \"#utility.yul\":5294:5297   */\n      0x00\n        /* \"#utility.yul\":5330:5334   */\n      0x80\n        /* \"#utility.yul\":5325:5328   */\n      dup4\n        /* \"#utility.yul\":5321:5335   */\n      add\n        /* \"#utility.yul\":5422:5426   */\n      0x00\n        /* \"#utility.yul\":5415:5420   */\n      dup4\n        /* \"#utility.yul\":5411:5427   */\n      add\n        /* \"#utility.yul\":5405:5428   */\n      mload\n        /* \"#utility.yul\":5441:5504   */\n      tag_371\n        /* \"#utility.yul\":5498:5502   */\n      0x00\n        /* \"#utility.yul\":5493:5496   */\n      dup7\n        /* \"#utility.yul\":5489:5503   */\n      add\n        /* \"#utility.yul\":5475:5487   */\n      dup3\n        /* \"#utility.yul\":5441:5504   */\n      tag_246\n      jump\t// in\n    tag_371:\n        /* \"#utility.yul\":5345:5514   */\n      pop\n        /* \"#utility.yul\":5601:5605   */\n      0x20\n        /* \"#utility.yul\":5594:5599   */\n      dup4\n        /* \"#utility.yul\":5590:5606   */\n      add\n        /* \"#utility.yul\":5584:5607   */\n      mload\n        /* \"#utility.yul\":5620:5683   */\n      tag_372\n        /* \"#utility.yul\":5677:5681   */\n      0x20\n        /* \"#utility.yul\":5672:5675   */\n      dup7\n        /* \"#utility.yul\":5668:5682   */\n      add\n        /* \"#utility.yul\":5654:5666   */\n      dup3\n        /* \"#utility.yul\":5620:5683   */\n      tag_247\n      jump\t// in\n    tag_372:\n        /* \"#utility.yul\":5524:5693   */\n      pop\n        /* \"#utility.yul\":5781:5785   */\n      0x40\n        /* \"#utility.yul\":5774:5779   */\n      dup4\n        /* \"#utility.yul\":5770:5786   */\n      add\n        /* \"#utility.yul\":5764:5787   */\n      mload\n        /* \"#utility.yul\":5834:5837   */\n      dup5\n        /* \"#utility.yul\":5828:5832   */\n      dup3\n        /* \"#utility.yul\":5824:5838   */\n      sub\n        /* \"#utility.yul\":5817:5821   */\n      0x40\n        /* \"#utility.yul\":5812:5815   */\n      dup7\n        /* \"#utility.yul\":5808:5822   */\n      add\n        /* \"#utility.yul\":5801:5839   */\n      mstore\n        /* \"#utility.yul\":5860:5933   */\n      tag_373\n        /* \"#utility.yul\":5928:5932   */\n      dup3\n        /* \"#utility.yul\":5914:5926   */\n      dup3\n        /* \"#utility.yul\":5860:5933   */\n      tag_249\n      jump\t// in\n    tag_373:\n        /* \"#utility.yul\":5852:5933   */\n      swap2\n      pop\n        /* \"#utility.yul\":5703:5944   */\n      pop\n        /* \"#utility.yul\":6032:6036   */\n      0x60\n        /* \"#utility.yul\":6025:6030   */\n      dup4\n        /* \"#utility.yul\":6021:6037   */\n      add\n        /* \"#utility.yul\":6015:6038   */\n      mload\n        /* \"#utility.yul\":6051:6108   */\n      tag_374\n        /* \"#utility.yul\":6102:6106   */\n      0x60\n        /* \"#utility.yul\":6097:6100   */\n      dup7\n        /* \"#utility.yul\":6093:6107   */\n      add\n        /* \"#utility.yul\":6079:6091   */\n      dup3\n        /* \"#utility.yul\":6051:6108   */\n      tag_250\n      jump\t// in\n    tag_374:\n        /* \"#utility.yul\":5954:6118   */\n      pop\n        /* \"#utility.yul\":6135:6139   */\n      dup1\n        /* \"#utility.yul\":6128:6139   */\n      swap2\n      pop\n        /* \"#utility.yul\":5299:6145   */\n      pop\n        /* \"#utility.yul\":5179:6145   */\n      swap3\n      swap2\n      pop\n      pop\n      jump\t// out\n        /* \"#utility.yul\":6151:6419   */\n    tag_252:\n        /* \"#utility.yul\":6276:6286   */\n      0x00\n        /* \"#utility.yul\":6311:6413   */\n      tag_376\n        /* \"#utility.yul\":6409:6412   */\n      dup4\n        /* \"#utility.yul\":6401:6407   */\n      dup4\n        /* \"#utility.yul\":6311:6413   */\n      tag_251\n      jump\t// in\n    tag_376:\n        /* \"#utility.yul\":6297:6413   */\n      swap1\n      pop\n        /* \"#utility.yul\":6151:6419   */\n      swap3\n      swap2\n      pop\n      pop\n      jump\t// out\n        /* \"#utility.yul\":6425:6566   */\n    tag_253:\n        /* \"#utility.yul\":6523:6527   */\n      0x00\n        /* \"#utility.yul\":6555:6559   */\n      0x20\n        /* \"#utility.yul\":6550:6553   */\n      dup3\n        /* \"#utility.yul\":6546:6560   */\n      add\n        /* \"#utility.yul\":6538:6560   */\n      swap1\n      pop\n        /* \"#utility.yul\":6425:6566   */\n      swap2\n      swap1\n      pop\n      jump\t// out\n        /* \"#utility.yul\":6644:7779   */\n    tag_254:\n        /* \"#utility.yul\":6819:6822   */\n      0x00\n        /* \"#utility.yul\":6848:6930   */\n      tag_379\n        /* \"#utility.yul\":6924:6929   */\n      dup3\n        /* \"#utility.yul\":6848:6930   */\n      tag_243\n      jump\t// in\n    tag_379:\n        /* \"#utility.yul\":6946:7060   */\n      tag_380\n        /* \"#utility.yul\":7053:7059   */\n      dup2\n        /* \"#utility.yul\":7048:7051   */\n      dup6\n        /* \"#utility.yul\":6946:7060   */\n      tag_244\n      jump\t// in\n    tag_380:\n        /* \"#utility.yul\":6939:7060   */\n      swap4\n      pop\n        /* \"#utility.yul\":7086:7089   */\n      dup4\n        /* \"#utility.yul\":7131:7135   */\n      0x20\n        /* \"#utility.yul\":7123:7129   */\n      dup3\n        /* \"#utility.yul\":7119:7136   */\n      mul\n        /* \"#utility.yul\":7114:7117   */\n      dup6\n        /* \"#utility.yul\":7110:7137   */\n      add\n        /* \"#utility.yul\":7161:7245   */\n      tag_381\n        /* \"#utility.yul\":7239:7244   */\n      dup6\n        /* \"#utility.yul\":7161:7245   */\n      tag_245\n      jump\t// in\n    tag_381:\n        /* \"#utility.yul\":7268:7275   */\n      dup1\n        /* \"#utility.yul\":7299:7300   */\n      0x00\n        /* \"#utility.yul\":7284:7734   */\n    tag_382:\n        /* \"#utility.yul\":7309:7315   */\n      dup6\n        /* \"#utility.yul\":7306:7307   */\n      dup2\n        /* \"#utility.yul\":7303:7316   */\n      lt\n        /* \"#utility.yul\":7284:7734   */\n      iszero\n      tag_384\n      jumpi\n        /* \"#utility.yul\":7380:7389   */\n      dup5\n        /* \"#utility.yul\":7374:7378   */\n      dup5\n        /* \"#utility.yul\":7370:7390   */\n      sub\n        /* \"#utility.yul\":7365:7368   */\n      dup10\n        /* \"#utility.yul\":7358:7391   */\n      mstore\n        /* \"#utility.yul\":7431:7437   */\n      dup2\n        /* \"#utility.yul\":7425:7438   */\n      mload\n        /* \"#utility.yul\":7459:7579   */\n      tag_385\n        /* \"#utility.yul\":7574:7578   */\n      dup6\n        /* \"#utility.yul\":7559:7572   */\n      dup3\n        /* \"#utility.yul\":7459:7579   */\n      tag_252\n      jump\t// in\n    tag_385:\n        /* \"#utility.yul\":7451:7579   */\n      swap5\n      pop\n        /* \"#utility.yul\":7602:7690   */\n      tag_386\n        /* \"#utility.yul\":7683:7689   */\n      dup4\n        /* \"#utility.yul\":7602:7690   */\n      tag_253\n      jump\t// in\n    tag_386:\n        /* \"#utility.yul\":7592:7690   */\n      swap3\n      pop\n        /* \"#utility.yul\":7719:7723   */\n      0x20\n        /* \"#utility.yul\":7714:7717   */\n      dup11\n        /* \"#utility.yul\":7710:7724   */\n      add\n        /* \"#utility.yul\":7703:7724   */\n      swap10\n      pop\n        /* \"#utility.yul\":7344:7734   */\n      pop\n        /* \"#utility.yul\":7331:7332   */\n      0x01\n        /* \"#utility.yul\":7328:7329   */\n      dup2\n        /* \"#utility.yul\":7324:7333   */\n      add\n        /* \"#utility.yul\":7319:7333   */\n      swap1\n      pop\n        /* \"#utility.yul\":7284:7734   */\n      jump(tag_382)\n    tag_384:\n        /* \"#utility.yul\":7288:7302   */\n      pop\n        /* \"#utility.yul\":7750:7754   */\n      dup3\n        /* \"#utility.yul\":7743:7754   */\n      swap8\n      pop\n        /* \"#utility.yul\":7770:7773   */\n      dup8\n        /* \"#utility.yul\":7763:7773   */\n      swap6\n      pop\n        /* \"#utility.yul\":6824:7779   */\n      pop\n      pop\n      pop\n      pop\n      pop\n        /* \"#utility.yul\":6644:7779   */\n      swap3\n      swap2\n      pop\n      pop\n      jump\t// out\n        /* \"#utility.yul\":7785:8270   */\n    tag_36:\n        /* \"#utility.yul\":7984:7988   */\n      0x00\n        /* \"#utility.yul\":8022:8024   */\n      0x20\n        /* \"#utility.yul\":8011:8020   */\n      dup3\n        /* \"#utility.yul\":8007:8025   */\n      add\n        /* \"#utility.yul\":7999:8025   */\n      swap1\n      pop\n        /* \"#utility.yul\":8071:8080   */\n      dup2\n        /* \"#utility.yul\":8065:8069   */\n      dup2\n        /* \"#utility.yul\":8061:8081   */\n      sub\n        /* \"#utility.yul\":8057:8058   */\n      0x00\n        /* \"#utility.yul\":8046:8055   */\n      dup4\n        /* \"#utility.yul\":8042:8059   */\n      add\n        /* \"#utility.yul\":8035:8082   */\n      mstore\n        /* \"#utility.yul\":8099:8263   */\n      tag_388\n        /* \"#utility.yul\":8258:8262   */\n      dup2\n        /* \"#utility.yul\":8249:8255   */\n      dup5\n        /* \"#utility.yul\":8099:8263   */\n      tag_254\n      jump\t// in\n    tag_388:\n        /* \"#utility.yul\":8091:8263   */\n      swap1\n      pop\n        /* \"#utility.yul\":7785:8270   */\n      swap3\n      swap2\n      pop\n      pop\n      jump\t// out\n        /* \"#utility.yul\":8276:8414   */\n    tag_255:\n        /* \"#utility.yul\":8367:8373   */\n      0x00\n        /* \"#utility.yul\":8401:8406   */\n      dup2\n        /* \"#utility.yul\":8395:8407   */\n      mload\n        /* \"#utility.yul\":8385:8407   */\n      swap1\n      pop\n        /* \"#utility.yul\":8276:8414   */\n      swap2\n      swap1\n      pop\n      jump\t// out\n        /* \"#utility.yul\":8420:8628   */\n    tag_256:\n        /* \"#utility.yul\":8543:8554   */\n      0x00\n        /* \"#utility.yul\":8577:8583   */\n      dup3\n        /* \"#utility.yul\":8572:8575   */\n      dup3\n        /* \"#utility.yul\":8565:8584   */\n      mstore\n        /* \"#utility.yul\":8617:8621   */\n      0x20\n        /* \"#utility.yul\":8612:8615   */\n      dup3\n        /* \"#utility.yul\":8608:8622   */\n      add\n        /* \"#utility.yul\":8593:8622   */\n      swap1\n      pop\n        /* \"#utility.yul\":8420:8628   */\n      swap3\n      swap2\n      pop\n      pop\n      jump\t// out\n        /* \"#utility.yul\":8634:8790   */\n    tag_257:\n        /* \"#utility.yul\":8725:8729   */\n      0x00\n        /* \"#utility.yul\":8748:8751   */\n      dup2\n        /* \"#utility.yul\":8740:8751   */\n      swap1\n      pop\n        /* \"#utility.yul\":8778:8782   */\n      0x20\n        /* \"#utility.yul\":8773:8776   */\n      dup3\n        /* \"#utility.yul\":8769:8783   */\n      add\n        /* \"#utility.yul\":8761:8783   */\n      swap1\n      pop\n        /* \"#utility.yul\":8634:8790   */\n      swap2\n      swap1\n      pop\n      jump\t// out\n        /* \"#utility.yul\":8856:9979   */\n    tag_258:\n        /* \"#utility.yul\":8963:8966   */\n      0x00\n        /* \"#utility.yul\":8999:9003   */\n      0xa0\n        /* \"#utility.yul\":8994:8997   */\n      dup4\n        /* \"#utility.yul\":8990:9004   */\n      add\n        /* \"#utility.yul\":9084:9088   */\n      0x00\n        /* \"#utility.yul\":9077:9082   */\n      dup4\n        /* \"#utility.yul\":9073:9089   */\n      add\n        /* \"#utility.yul\":9067:9090   */\n      mload\n        /* \"#utility.yul\":9103:9166   */\n      tag_393\n        /* \"#utility.yul\":9160:9164   */\n      0x00\n        /* \"#utility.yul\":9155:9158   */\n      dup7\n        /* \"#utility.yul\":9151:9165   */\n      add\n        /* \"#utility.yul\":9137:9149   */\n      dup3\n        /* \"#utility.yul\":9103:9166   */\n      tag_246\n      jump\t// in\n    tag_393:\n        /* \"#utility.yul\":9014:9176   */\n      pop\n        /* \"#utility.yul\":9260:9264   */\n      0x20\n        /* \"#utility.yul\":9253:9258   */\n      dup4\n        /* \"#utility.yul\":9249:9265   */\n      add\n        /* \"#utility.yul\":9243:9266   */\n      mload\n        /* \"#utility.yul\":9279:9342   */\n      tag_394\n        /* \"#utility.yul\":9336:9340   */\n      0x20\n        /* \"#utility.yul\":9331:9334   */\n      dup7\n        /* \"#utility.yul\":9327:9341   */\n      add\n        /* \"#utility.yul\":9313:9325   */\n      dup3\n        /* \"#utility.yul\":9279:9342   */\n      tag_247\n      jump\t// in\n    tag_394:\n        /* \"#utility.yul\":9186:9352   */\n      pop\n        /* \"#utility.yul\":9437:9441   */\n      0x40\n        /* \"#utility.yul\":9430:9435   */\n      dup4\n        /* \"#utility.yul\":9426:9442   */\n      add\n        /* \"#utility.yul\":9420:9443   */\n      mload\n        /* \"#utility.yul\":9490:9493   */\n      dup5\n        /* \"#utility.yul\":9484:9488   */\n      dup3\n        /* \"#utility.yul\":9480:9494   */\n      sub\n        /* \"#utility.yul\":9473:9477   */\n      0x40\n        /* \"#utility.yul\":9468:9471   */\n      dup7\n        /* \"#utility.yul\":9464:9478   */\n      add\n        /* \"#utility.yul\":9457:9495   */\n      mstore\n        /* \"#utility.yul\":9516:9589   */\n      tag_395\n        /* \"#utility.yul\":9584:9588   */\n      dup3\n        /* \"#utility.yul\":9570:9582   */\n      dup3\n        /* \"#utility.yul\":9516:9589   */\n      tag_249\n      jump\t// in\n    tag_395:\n        /* \"#utility.yul\":9508:9589   */\n      swap2\n      pop\n        /* \"#utility.yul\":9362:9600   */\n      pop\n        /* \"#utility.yul\":9687:9691   */\n      0x60\n        /* \"#utility.yul\":9680:9685   */\n      dup4\n        /* \"#utility.yul\":9676:9692   */\n      add\n        /* \"#utility.yul\":9670:9693   */\n      mload\n        /* \"#utility.yul\":9706:9769   */\n      tag_396\n        /* \"#utility.yul\":9763:9767   */\n      0x60\n        /* \"#utility.yul\":9758:9761   */\n      dup7\n        /* \"#utility.yul\":9754:9768   */\n      add\n        /* \"#utility.yul\":9740:9752   */\n      dup3\n        /* \"#utility.yul\":9706:9769   */\n      tag_246\n      jump\t// in\n    tag_396:\n        /* \"#utility.yul\":9610:9779   */\n      pop\n        /* \"#utility.yul\":9866:9870   */\n      0x80\n        /* \"#utility.yul\":9859:9864   */\n      dup4\n        /* \"#utility.yul\":9855:9871   */\n      add\n        /* \"#utility.yul\":9849:9872   */\n      mload\n        /* \"#utility.yul\":9885:9942   */\n      tag_397\n        /* \"#utility.yul\":9936:9940   */\n      0x80\n        /* \"#utility.yul\":9931:9934   */\n      dup7\n        /* \"#utility.yul\":9927:9941   */\n      add\n        /* \"#utility.yul\":9913:9925   */\n      dup3\n        /* \"#utility.yul\":9885:9942   */\n      tag_250\n      jump\t// in\n    tag_397:\n        /* \"#utility.yul\":9789:9952   */\n      pop\n        /* \"#utility.yul\":9969:9973   */\n      dup1\n        /* \"#utility.yul\":9962:9973   */\n      swap2\n      pop\n        /* \"#utility.yul\":8968:9979   */\n      pop\n        /* \"#utility.yul\":8856:9979   */\n      swap3\n      swap2\n      pop\n      pop\n      jump\t// out\n        /* \"#utility.yul\":9985:10237   */\n    tag_259:\n        /* \"#utility.yul\":10102:10112   */\n      0x00\n        /* \"#utility.yul\":10137:10231   */\n      tag_399\n        /* \"#utility.yul\":10227:10230   */\n      dup4\n        /* \"#utility.yul\":10219:10225   */\n      dup4\n        /* \"#utility.yul\":10137:10231   */\n      tag_258\n      jump\t// in\n    tag_399:\n        /* \"#utility.yul\":10123:10231   */\n      swap1\n      pop\n        /* \"#utility.yul\":9985:10237   */\n      swap3\n      swap2\n      pop\n      pop\n      jump\t// out\n        /* \"#utility.yul\":10243:10380   */\n    tag_260:\n        /* \"#utility.yul\":10337:10341   */\n      0x00\n        /* \"#utility.yul\":10369:10373   */\n      0x20\n        /* \"#utility.yul\":10364:10367   */\n      dup3\n        /* \"#utility.yul\":10360:10374   */\n      add\n        /* \"#utility.yul\":10352:10374   */\n      swap1\n      pop\n        /* \"#utility.yul\":10243:10380   */\n      swap2\n      swap1\n      pop\n      jump\t// out\n        /* \"#utility.yul\":10450:11553   */\n    tag_261:\n        /* \"#utility.yul\":10617:10620   */\n      0x00\n        /* \"#utility.yul\":10646:10724   */\n      tag_402\n        /* \"#utility.yul\":10718:10723   */\n      dup3\n        /* \"#utility.yul\":10646:10724   */\n      tag_255\n      jump\t// in\n    tag_402:\n        /* \"#utility.yul\":10740:10850   */\n      tag_403\n        /* \"#utility.yul\":10843:10849   */\n      dup2\n        /* \"#utility.yul\":10838:10841   */\n      dup6\n        /* \"#utility.yul\":10740:10850   */\n      tag_256\n      jump\t// in\n    tag_403:\n        /* \"#utility.yul\":10733:10850   */\n      swap4\n      pop\n        /* \"#utility.yul\":10876:10879   */\n      dup4\n        /* \"#utility.yul\":10921:10925   */\n      0x20\n        /* \"#utility.yul\":10913:10919   */\n      dup3\n        /* \"#utility.yul\":10909:10926   */\n      mul\n        /* \"#utility.yul\":10904:10907   */\n      dup6\n        /* \"#utility.yul\":10900:10927   */\n      add\n        /* \"#utility.yul\":10951:11031   */\n      tag_404\n        /* \"#utility.yul\":11025:11030   */\n      dup6\n        /* \"#utility.yul\":10951:11031   */\n      tag_257\n      jump\t// in\n    tag_404:\n        /* \"#utility.yul\":11054:11061   */\n      dup1\n        /* \"#utility.yul\":11085:11086   */\n      0x00\n        /* \"#utility.yul\":11070:11508   */\n    tag_405:\n        /* \"#utility.yul\":11095:11101   */\n      dup6\n        /* \"#utility.yul\":11092:11093   */\n      dup2\n        /* \"#utility.yul\":11089:11102   */\n      lt\n        /* \"#utility.yul\":11070:11508   */\n      iszero\n      tag_407\n      jumpi\n        /* \"#utility.yul\":11166:11175   */\n      dup5\n        /* \"#utility.yul\":11160:11164   */\n      dup5\n        /* \"#utility.yul\":11156:11176   */\n      sub\n        /* \"#utility.yul\":11151:11154   */\n      dup10\n        /* \"#utility.yul\":11144:11177   */\n      mstore\n        /* \"#utility.yul\":11217:11223   */\n      dup2\n        /* \"#utility.yul\":11211:11224   */\n      mload\n        /* \"#utility.yul\":11245:11357   */\n      tag_408\n        /* \"#utility.yul\":11352:11356   */\n      dup6\n        /* \"#utility.yul\":11337:11350   */\n      dup3\n        /* \"#utility.yul\":11245:11357   */\n      tag_259\n      jump\t// in\n    tag_408:\n        /* \"#utility.yul\":11237:11357   */\n      swap5\n      pop\n        /* \"#utility.yul\":11380:11464   */\n      tag_409\n        /* \"#utility.yul\":11457:11463   */\n      dup4\n        /* \"#utility.yul\":11380:11464   */\n      tag_260\n      jump\t// in\n    tag_409:\n        /* \"#utility.yul\":11370:11464   */\n      swap3\n      pop\n        /* \"#utility.yul\":11493:11497   */\n      0x20\n        /* \"#utility.yul\":11488:11491   */\n      dup11\n        /* \"#utility.yul\":11484:11498   */\n      add\n        /* \"#utility.yul\":11477:11498   */\n      swap10\n      pop\n        /* \"#utility.yul\":11130:11508   */\n      pop\n        /* \"#utility.yul\":11117:11118   */\n      0x01\n        /* \"#utility.yul\":11114:11115   */\n      dup2\n        /* \"#utility.yul\":11110:11119   */\n      add\n        /* \"#utility.yul\":11105:11119   */\n      swap1\n      pop\n        /* \"#utility.yul\":11070:11508   */\n      jump(tag_405)\n    tag_407:\n        /* \"#utility.yul\":11074:11088   */\n      pop\n        /* \"#utility.yul\":11524:11528   */\n      dup3\n        /* \"#utility.yul\":11517:11528   */\n      swap8\n      pop\n        /* \"#utility.yul\":11544:11547   */\n      dup8\n        /* \"#utility.yul\":11537:11547   */\n      swap6\n      pop\n        /* \"#utility.yul\":10622:11553   */\n      pop\n      pop\n      pop\n      pop\n      pop\n        /* \"#utility.yul\":10450:11553   */\n      swap3\n      swap2\n      pop\n      pop\n      jump\t// out\n        /* \"#utility.yul\":11559:12028   */\n    tag_40:\n        /* \"#utility.yul\":11750:11754   */\n      0x00\n        /* \"#utility.yul\":11788:11790   */\n      0x20\n        /* \"#utility.yul\":11777:11786   */\n      dup3\n        /* \"#utility.yul\":11773:11791   */\n      add\n        /* \"#utility.yul\":11765:11791   */\n      swap1\n      pop\n        /* \"#utility.yul\":11837:11846   */\n      dup2\n        /* \"#utility.yul\":11831:11835   */\n      dup2\n        /* \"#utility.yul\":11827:11847   */\n      sub\n        /* \"#utility.yul\":11823:11824   */\n      0x00\n        /* \"#utility.yul\":11812:11821   */\n      dup4\n        /* \"#utility.yul\":11808:11825   */\n      add\n        /* \"#utility.yul\":11801:11848   */\n      mstore\n        /* \"#utility.yul\":11865:12021   */\n      tag_411\n        /* \"#utility.yul\":12016:12020   */\n      dup2\n        /* \"#utility.yul\":12007:12013   */\n      dup5\n        /* \"#utility.yul\":11865:12021   */\n      tag_261\n      jump\t// in\n    tag_411:\n        /* \"#utility.yul\":11857:12021   */\n      swap1\n      pop\n        /* \"#utility.yul\":11559:12028   */\n      swap3\n      swap2\n      pop\n      pop\n      jump\t// out\n        /* \"#utility.yul\":12034:12151   */\n    tag_262:\n        /* \"#utility.yul\":12143:12144   */\n      0x00\n        /* \"#utility.yul\":12140:12141   */\n      dup1\n        /* \"#utility.yul\":12133:12145   */\n      revert\n        /* \"#utility.yul\":12157:12274   */\n    tag_263:\n        /* \"#utility.yul\":12266:12267   */\n      0x00\n        /* \"#utility.yul\":12263:12264   */\n      dup1\n        /* \"#utility.yul\":12256:12268   */\n      revert\n        /* \"#utility.yul\":12280:12460   */\n    tag_85:\n        /* \"#utility.yul\":12328:12405   */\n      0x4e487b7100000000000000000000000000000000000000000000000000000000\n        /* \"#utility.yul\":12325:12326   */\n      0x00\n        /* \"#utility.yul\":12318:12406   */\n      mstore\n        /* \"#utility.yul\":12425:12429   */\n      0x41\n        /* \"#utility.yul\":12422:12423   */\n      0x04\n        /* \"#utility.yul\":12415:12430   */\n      mstore\n        /* \"#utility.yul\":12449:12453   */\n      0x24\n        /* \"#utility.yul\":12446:12447   */\n      0x00\n        /* \"#utility.yul\":12439:12454   */\n      revert\n        /* \"#utility.yul\":12466:12747   */\n    tag_264:\n        /* \"#utility.yul\":12549:12576   */\n      tag_416\n        /* \"#utility.yul\":12571:12575   */\n      dup3\n        /* \"#utility.yul\":12549:12576   */\n      tag_239\n      jump\t// in\n    tag_416:\n        /* \"#utility.yul\":12541:12547   */\n      dup2\n        /* \"#utility.yul\":12537:12577   */\n      add\n        /* \"#utility.yul\":12679:12685   */\n      dup2\n        /* \"#utility.yul\":12667:12677   */\n      dup2\n        /* \"#utility.yul\":12664:12686   */\n      lt\n        /* \"#utility.yul\":12643:12661   */\n      0xffffffffffffffff\n        /* \"#utility.yul\":12631:12641   */\n      dup3\n        /* \"#utility.yul\":12628:12662   */\n      gt\n        /* \"#utility.yul\":12625:12687   */\n      or\n        /* \"#utility.yul\":12622:12710   */\n      iszero\n      tag_417\n      jumpi\n        /* \"#utility.yul\":12690:12708   */\n      tag_418\n      tag_85\n      jump\t// in\n    tag_418:\n        /* \"#utility.yul\":12622:12710   */\n    tag_417:\n        /* \"#utility.yul\":12730:12740   */\n      dup1\n        /* \"#utility.yul\":12726:12728   */\n      0x40\n        /* \"#utility.yul\":12719:12741   */\n      mstore\n        /* \"#utility.yul\":12509:12747   */\n      pop\n        /* \"#utility.yul\":12466:12747   */\n      pop\n      pop\n      jump\t// out\n        /* \"#utility.yul\":12753:12882   */\n    tag_265:\n        /* \"#utility.yul\":12787:12793   */\n      0x00\n        /* \"#utility.yul\":12814:12834   */\n      tag_420\n      tag_226\n      jump\t// in\n    tag_420:\n        /* \"#utility.yul\":12804:12834   */\n      swap1\n      pop\n        /* \"#utility.yul\":12843:12876   */\n      tag_421\n        /* \"#utility.yul\":12871:12875   */\n      dup3\n        /* \"#utility.yul\":12863:12869   */\n      dup3\n        /* \"#utility.yul\":12843:12876   */\n      tag_264\n      jump\t// in\n    tag_421:\n        /* \"#utility.yul\":12753:12882   */\n      swap2\n      swap1\n      pop\n      jump\t// out\n        /* \"#utility.yul\":12888:13196   */\n    tag_266:\n        /* \"#utility.yul\":12950:12954   */\n      0x00\n        /* \"#utility.yul\":13040:13058   */\n      0xffffffffffffffff\n        /* \"#utility.yul\":13032:13038   */\n      dup3\n        /* \"#utility.yul\":13029:13059   */\n      gt\n        /* \"#utility.yul\":13026:13082   */\n      iszero\n      tag_423\n      jumpi\n        /* \"#utility.yul\":13062:13080   */\n      tag_424\n      tag_85\n      jump\t// in\n    tag_424:\n        /* \"#utility.yul\":13026:13082   */\n    tag_423:\n        /* \"#utility.yul\":13100:13129   */\n      tag_425\n        /* \"#utility.yul\":13122:13128   */\n      dup3\n        /* \"#utility.yul\":13100:13129   */\n      tag_239\n      jump\t// in\n    tag_425:\n        /* \"#utility.yul\":13092:13129   */\n      swap1\n      pop\n        /* \"#utility.yul\":13184:13188   */\n      0x20\n        /* \"#utility.yul\":13178:13182   */\n      dup2\n        /* \"#utility.yul\":13174:13189   */\n      add\n        /* \"#utility.yul\":13166:13189   */\n      swap1\n      pop\n        /* \"#utility.yul\":12888:13196   */\n      swap2\n      swap1\n      pop\n      jump\t// out\n        /* \"#utility.yul\":13202:13348   */\n    tag_267:\n        /* \"#utility.yul\":13299:13305   */\n      dup3\n        /* \"#utility.yul\":13294:13297   */\n      dup2\n        /* \"#utility.yul\":13289:13292   */\n      dup4\n        /* \"#utility.yul\":13276:13306   */\n      calldatacopy\n        /* \"#utility.yul\":13340:13341   */\n      0x00\n        /* \"#utility.yul\":13331:13337   */\n      dup4\n        /* \"#utility.yul\":13326:13329   */\n      dup4\n        /* \"#utility.yul\":13322:13338   */\n      add\n        /* \"#utility.yul\":13315:13342   */\n      mstore\n        /* \"#utility.yul\":13202:13348   */\n      pop\n      pop\n      pop\n      jump\t// out\n        /* \"#utility.yul\":13354:13779   */\n    tag_268:\n        /* \"#utility.yul\":13432:13437   */\n      0x00\n        /* \"#utility.yul\":13457:13523   */\n      tag_428\n        /* \"#utility.yul\":13473:13522   */\n      tag_429\n        /* \"#utility.yul\":13515:13521   */\n      dup5\n        /* \"#utility.yul\":13473:13522   */\n      tag_266\n      jump\t// in\n    tag_429:\n        /* \"#utility.yul\":13457:13523   */\n      tag_265\n      jump\t// in\n    tag_428:\n        /* \"#utility.yul\":13448:13523   */\n      swap1\n      pop\n        /* \"#utility.yul\":13546:13552   */\n      dup3\n        /* \"#utility.yul\":13539:13544   */\n      dup2\n        /* \"#utility.yul\":13532:13553   */\n      mstore\n        /* \"#utility.yul\":13584:13588   */\n      0x20\n        /* \"#utility.yul\":13577:13582   */\n      dup2\n        /* \"#utility.yul\":13573:13589   */\n      add\n        /* \"#utility.yul\":13622:13625   */\n      dup5\n        /* \"#utility.yul\":13613:13619   */\n      dup5\n        /* \"#utility.yul\":13608:13611   */\n      dup5\n        /* \"#utility.yul\":13604:13620   */\n      add\n        /* \"#utility.yul\":13601:13626   */\n      gt\n        /* \"#utility.yul\":13598:13710   */\n      iszero\n      tag_430\n      jumpi\n        /* \"#utility.yul\":13629:13708   */\n      tag_431\n      tag_263\n      jump\t// in\n    tag_431:\n        /* \"#utility.yul\":13598:13710   */\n    tag_430:\n        /* \"#utility.yul\":13719:13773   */\n      tag_432\n        /* \"#utility.yul\":13766:13772   */\n      dup5\n        /* \"#utility.yul\":13761:13764   */\n      dup3\n        /* \"#utility.yul\":13756:13759   */\n      dup6\n        /* \"#utility.yul\":13719:13773   */\n      tag_267\n      jump\t// in\n    tag_432:\n        /* \"#utility.yul\":13438:13779   */\n      pop\n        /* \"#utility.yul\":13354:13779   */\n      swap4\n      swap3\n      pop\n      pop\n      pop\n      jump\t// out\n        /* \"#utility.yul\":13799:14139   */\n    tag_269:\n        /* \"#utility.yul\":13855:13860   */\n      0x00\n        /* \"#utility.yul\":13904:13907   */\n      dup3\n        /* \"#utility.yul\":13897:13901   */\n      0x1f\n        /* \"#utility.yul\":13889:13895   */\n      dup4\n        /* \"#utility.yul\":13885:13902   */\n      add\n        /* \"#utility.yul\":13881:13908   */\n      slt\n        /* \"#utility.yul\":13871:13993   */\n      tag_434\n      jumpi\n        /* \"#utility.yul\":13912:13991   */\n      tag_435\n      tag_262\n      jump\t// in\n    tag_435:\n        /* \"#utility.yul\":13871:13993   */\n    tag_434:\n        /* \"#utility.yul\":14029:14035   */\n      dup2\n        /* \"#utility.yul\":14016:14036   */\n      calldataload\n        /* \"#utility.yul\":14054:14133   */\n      tag_436\n        /* \"#utility.yul\":14129:14132   */\n      dup5\n        /* \"#utility.yul\":14121:14127   */\n      dup3\n        /* \"#utility.yul\":14114:14118   */\n      0x20\n        /* \"#utility.yul\":14106:14112   */\n      dup7\n        /* \"#utility.yul\":14102:14119   */\n      add\n        /* \"#utility.yul\":14054:14133   */\n      tag_268\n      jump\t// in\n    tag_436:\n        /* \"#utility.yul\":14045:14133   */\n      swap2\n      pop\n        /* \"#utility.yul\":13861:14139   */\n      pop\n        /* \"#utility.yul\":13799:14139   */\n      swap3\n      swap2\n      pop\n      pop\n      jump\t// out\n        /* \"#utility.yul\":14145:14654   */\n    tag_43:\n        /* \"#utility.yul\":14214:14220   */\n      0x00\n        /* \"#utility.yul\":14263:14265   */\n      0x20\n        /* \"#utility.yul\":14251:14260   */\n      dup3\n        /* \"#utility.yul\":14242:14249   */\n      dup5\n        /* \"#utility.yul\":14238:14261   */\n      sub\n        /* \"#utility.yul\":14234:14266   */\n      slt\n        /* \"#utility.yul\":14231:14350   */\n      iszero\n      tag_438\n      jumpi\n        /* \"#utility.yul\":14269:14348   */\n      tag_439\n      tag_227\n      jump\t// in\n    tag_439:\n        /* \"#utility.yul\":14231:14350   */\n    tag_438:\n        /* \"#utility.yul\":14417:14418   */\n      0x00\n        /* \"#utility.yul\":14406:14415   */\n      dup3\n        /* \"#utility.yul\":14402:14419   */\n      add\n        /* \"#utility.yul\":14389:14420   */\n      calldataload\n        /* \"#utility.yul\":14447:14465   */\n      0xffffffffffffffff\n        /* \"#utility.yul\":14439:14445   */\n      dup2\n        /* \"#utility.yul\":14436:14466   */\n      gt\n        /* \"#utility.yul\":14433:14550   */\n      iszero\n      tag_440\n      jumpi\n        /* \"#utility.yul\":14469:14548   */\n      tag_441\n      tag_228\n      jump\t// in\n    tag_441:\n        /* \"#utility.yul\":14433:14550   */\n    tag_440:\n        /* \"#utility.yul\":14574:14637   */\n      tag_442\n        /* \"#utility.yul\":14629:14636   */\n      dup5\n        /* \"#utility.yul\":14620:14626   */\n      dup3\n        /* \"#utility.yul\":14609:14618   */\n      dup6\n        /* \"#utility.yul\":14605:14627   */\n      add\n        /* \"#utility.yul\":14574:14637   */\n      tag_269\n      jump\t// in\n    tag_442:\n        /* \"#utility.yul\":14564:14637   */\n      swap2\n      pop\n        /* \"#utility.yul\":14360:14647   */\n      pop\n        /* \"#utility.yul\":14145:14654   */\n      swap3\n      swap2\n      pop\n      pop\n      jump\t// out\n        /* \"#utility.yul\":14660:15292   */\n    tag_52:\n        /* \"#utility.yul\":14851:14855   */\n      0x00\n        /* \"#utility.yul\":14889:14892   */\n      0x80\n        /* \"#utility.yul\":14878:14887   */\n      dup3\n        /* \"#utility.yul\":14874:14893   */\n      add\n        /* \"#utility.yul\":14866:14893   */\n      swap1\n      pop\n        /* \"#utility.yul\":14903:14974   */\n      tag_444\n        /* \"#utility.yul\":14971:14972   */\n      0x00\n        /* \"#utility.yul\":14960:14969   */\n      dup4\n        /* \"#utility.yul\":14956:14973   */\n      add\n        /* \"#utility.yul\":14947:14953   */\n      dup8\n        /* \"#utility.yul\":14903:14974   */\n      tag_232\n      jump\t// in\n    tag_444:\n        /* \"#utility.yul\":14984:15056   */\n      tag_445\n        /* \"#utility.yul\":15052:15054   */\n      0x20\n        /* \"#utility.yul\":15041:15050   */\n      dup4\n        /* \"#utility.yul\":15037:15055   */\n      add\n        /* \"#utility.yul\":15028:15034   */\n      dup7\n        /* \"#utility.yul\":14984:15056   */\n      tag_235\n      jump\t// in\n    tag_445:\n        /* \"#utility.yul\":15103:15112   */\n      dup2\n        /* \"#utility.yul\":15097:15101   */\n      dup2\n        /* \"#utility.yul\":15093:15113   */\n      sub\n        /* \"#utility.yul\":15088:15090   */\n      0x40\n        /* \"#utility.yul\":15077:15086   */\n      dup4\n        /* \"#utility.yul\":15073:15091   */\n      add\n        /* \"#utility.yul\":15066:15114   */\n      mstore\n        /* \"#utility.yul\":15131:15209   */\n      tag_446\n        /* \"#utility.yul\":15204:15208   */\n      dup2\n        /* \"#utility.yul\":15195:15201   */\n      dup6\n        /* \"#utility.yul\":15131:15209   */\n      tag_240\n      jump\t// in\n    tag_446:\n        /* \"#utility.yul\":15123:15209   */\n      swap1\n      pop\n        /* \"#utility.yul\":15219:15285   */\n      tag_447\n        /* \"#utility.yul\":15281:15283   */\n      0x60\n        /* \"#utility.yul\":15270:15279   */\n      dup4\n        /* \"#utility.yul\":15266:15284   */\n      add\n        /* \"#utility.yul\":15257:15263   */\n      dup5\n        /* \"#utility.yul\":15219:15285   */\n      tag_242\n      jump\t// in\n    tag_447:\n        /* \"#utility.yul\":14660:15292   */\n      swap6\n      swap5\n      pop\n      pop\n      pop\n      pop\n      pop\n      jump\t// out\n        /* \"#utility.yul\":15358:16491   */\n    tag_270:\n        /* \"#utility.yul\":15475:15478   */\n      0x00\n        /* \"#utility.yul\":15511:15515   */\n      0xa0\n        /* \"#utility.yul\":15506:15509   */\n      dup4\n        /* \"#utility.yul\":15502:15516   */\n      add\n        /* \"#utility.yul\":15596:15600   */\n      0x00\n        /* \"#utility.yul\":15589:15594   */\n      dup4\n        /* \"#utility.yul\":15585:15601   */\n      add\n        /* \"#utility.yul\":15579:15602   */\n      mload\n        /* \"#utility.yul\":15615:15678   */\n      tag_449\n        /* \"#utility.yul\":15672:15676   */\n      0x00\n        /* \"#utility.yul\":15667:15670   */\n      dup7\n        /* \"#utility.yul\":15663:15677   */\n      add\n        /* \"#utility.yul\":15649:15661   */\n      dup3\n        /* \"#utility.yul\":15615:15678   */\n      tag_246\n      jump\t// in\n    tag_449:\n        /* \"#utility.yul\":15526:15688   */\n      pop\n        /* \"#utility.yul\":15772:15776   */\n      0x20\n        /* \"#utility.yul\":15765:15770   */\n      dup4\n        /* \"#utility.yul\":15761:15777   */\n      add\n        /* \"#utility.yul\":15755:15778   */\n      mload\n        /* \"#utility.yul\":15791:15854   */\n      tag_450\n        /* \"#utility.yul\":15848:15852   */\n      0x20\n        /* \"#utility.yul\":15843:15846   */\n      dup7\n        /* \"#utility.yul\":15839:15853   */\n      add\n        /* \"#utility.yul\":15825:15837   */\n      dup3\n        /* \"#utility.yul\":15791:15854   */\n      tag_247\n      jump\t// in\n    tag_450:\n        /* \"#utility.yul\":15698:15864   */\n      pop\n        /* \"#utility.yul\":15949:15953   */\n      0x40\n        /* \"#utility.yul\":15942:15947   */\n      dup4\n        /* \"#utility.yul\":15938:15954   */\n      add\n        /* \"#utility.yul\":15932:15955   */\n      mload\n        /* \"#utility.yul\":16002:16005   */\n      dup5\n        /* \"#utility.yul\":15996:16000   */\n      dup3\n        /* \"#utility.yul\":15992:16006   */\n      sub\n        /* \"#utility.yul\":15985:15989   */\n      0x40\n        /* \"#utility.yul\":15980:15983   */\n      dup7\n        /* \"#utility.yul\":15976:15990   */\n      add\n        /* \"#utility.yul\":15969:16007   */\n      mstore\n        /* \"#utility.yul\":16028:16101   */\n      tag_451\n        /* \"#utility.yul\":16096:16100   */\n      dup3\n        /* \"#utility.yul\":16082:16094   */\n      dup3\n        /* \"#utility.yul\":16028:16101   */\n      tag_249\n      jump\t// in\n    tag_451:\n        /* \"#utility.yul\":16020:16101   */\n      swap2\n      pop\n        /* \"#utility.yul\":15874:16112   */\n      pop\n        /* \"#utility.yul\":16199:16203   */\n      0x60\n        /* \"#utility.yul\":16192:16197   */\n      dup4\n        /* \"#utility.yul\":16188:16204   */\n      add\n        /* \"#utility.yul\":16182:16205   */\n      mload\n        /* \"#utility.yul\":16218:16281   */\n      tag_452\n        /* \"#utility.yul\":16275:16279   */\n      0x60\n        /* \"#utility.yul\":16270:16273   */\n      dup7\n        /* \"#utility.yul\":16266:16280   */\n      add\n        /* \"#utility.yul\":16252:16264   */\n      dup3\n        /* \"#utility.yul\":16218:16281   */\n      tag_246\n      jump\t// in\n    tag_452:\n        /* \"#utility.yul\":16122:16291   */\n      pop\n        /* \"#utility.yul\":16378:16382   */\n      0x80\n        /* \"#utility.yul\":16371:16376   */\n      dup4\n        /* \"#utility.yul\":16367:16383   */\n      add\n        /* \"#utility.yul\":16361:16384   */\n      mload\n        /* \"#utility.yul\":16397:16454   */\n      tag_453\n        /* \"#utility.yul\":16448:16452   */\n      0x80\n        /* \"#utility.yul\":16443:16446   */\n      dup7\n        /* \"#utility.yul\":16439:16453   */\n      add\n        /* \"#utility.yul\":16425:16437   */\n      dup3\n        /* \"#utility.yul\":16397:16454   */\n      tag_250\n      jump\t// in\n    tag_453:\n        /* \"#utility.yul\":16301:16464   */\n      pop\n        /* \"#utility.yul\":16481:16485   */\n      dup1\n        /* \"#utility.yul\":16474:16485   */\n      swap2\n      pop\n        /* \"#utility.yul\":15480:16491   */\n      pop\n        /* \"#utility.yul\":15358:16491   */\n      swap3\n      swap2\n      pop\n      pop\n      jump\t// out\n        /* \"#utility.yul\":16497:16866   */\n    tag_60:\n        /* \"#utility.yul\":16638:16642   */\n      0x00\n        /* \"#utility.yul\":16676:16678   */\n      0x20\n        /* \"#utility.yul\":16665:16674   */\n      dup3\n        /* \"#utility.yul\":16661:16679   */\n      add\n        /* \"#utility.yul\":16653:16679   */\n      swap1\n      pop\n        /* \"#utility.yul\":16725:16734   */\n      dup2\n        /* \"#utility.yul\":16719:16723   */\n      dup2\n        /* \"#utility.yul\":16715:16735   */\n      sub\n        /* \"#utility.yul\":16711:16712   */\n      0x00\n        /* \"#utility.yul\":16700:16709   */\n      dup4\n        /* \"#utility.yul\":16696:16713   */\n      add\n        /* \"#utility.yul\":16689:16736   */\n      mstore\n        /* \"#utility.yul\":16753:16859   */\n      tag_455\n        /* \"#utility.yul\":16854:16858   */\n      dup2\n        /* \"#utility.yul\":16845:16851   */\n      dup5\n        /* \"#utility.yul\":16753:16859   */\n      tag_270\n      jump\t// in\n    tag_455:\n        /* \"#utility.yul\":16745:16859   */\n      swap1\n      pop\n        /* \"#utility.yul\":16497:16866   */\n      swap3\n      swap2\n      pop\n      pop\n      jump\t// out\n        /* \"#utility.yul\":16872:17094   */\n    tag_64:\n        /* \"#utility.yul\":16965:16969   */\n      0x00\n        /* \"#utility.yul\":17003:17005   */\n      0x20\n        /* \"#utility.yul\":16992:17001   */\n      dup3\n        /* \"#utility.yul\":16988:17006   */\n      add\n        /* \"#utility.yul\":16980:17006   */\n      swap1\n      pop\n        /* \"#utility.yul\":17016:17087   */\n      tag_457\n        /* \"#utility.yul\":17084:17085   */\n      0x00\n        /* \"#utility.yul\":17073:17082   */\n      dup4\n        /* \"#utility.yul\":17069:17086   */\n      add\n        /* \"#utility.yul\":17060:17066   */\n      dup5\n        /* \"#utility.yul\":17016:17087   */\n      tag_235\n      jump\t// in\n    tag_457:\n        /* \"#utility.yul\":16872:17094   */\n      swap3\n      swap2\n      pop\n      pop\n      jump\t// out\n        /* \"#utility.yul\":17100:17754   */\n    tag_67:\n        /* \"#utility.yul\":17178:17184   */\n      0x00\n        /* \"#utility.yul\":17186:17192   */\n      dup1\n        /* \"#utility.yul\":17235:17237   */\n      0x40\n        /* \"#utility.yul\":17223:17232   */\n      dup4\n        /* \"#utility.yul\":17214:17221   */\n      dup6\n        /* \"#utility.yul\":17210:17233   */\n      sub\n        /* \"#utility.yul\":17206:17238   */\n      slt\n        /* \"#utility.yul\":17203:17322   */\n      iszero\n      tag_459\n      jumpi\n        /* \"#utility.yul\":17241:17320   */\n      tag_460\n      tag_227\n      jump\t// in\n    tag_460:\n        /* \"#utility.yul\":17203:17322   */\n    tag_459:\n        /* \"#utility.yul\":17361:17362   */\n      0x00\n        /* \"#utility.yul\":17386:17439   */\n      tag_461\n        /* \"#utility.yul\":17431:17438   */\n      dup6\n        /* \"#utility.yul\":17422:17428   */\n      dup3\n        /* \"#utility.yul\":17411:17420   */\n      dup7\n        /* \"#utility.yul\":17407:17429   */\n      add\n        /* \"#utility.yul\":17386:17439   */\n      tag_231\n      jump\t// in\n    tag_461:\n        /* \"#utility.yul\":17376:17439   */\n      swap3\n      pop\n        /* \"#utility.yul\":17332:17449   */\n      pop\n        /* \"#utility.yul\":17516:17518   */\n      0x20\n        /* \"#utility.yul\":17505:17514   */\n      dup4\n        /* \"#utility.yul\":17501:17519   */\n      add\n        /* \"#utility.yul\":17488:17520   */\n      calldataload\n        /* \"#utility.yul\":17547:17565   */\n      0xffffffffffffffff\n        /* \"#utility.yul\":17539:17545   */\n      dup2\n        /* \"#utility.yul\":17536:17566   */\n      gt\n        /* \"#utility.yul\":17533:17650   */\n      iszero\n      tag_462\n      jumpi\n        /* \"#utility.yul\":17569:17648   */\n      tag_463\n      tag_228\n      jump\t// in\n    tag_463:\n        /* \"#utility.yul\":17533:17650   */\n    tag_462:\n        /* \"#utility.yul\":17674:17737   */\n      tag_464\n        /* \"#utility.yul\":17729:17736   */\n      dup6\n        /* \"#utility.yul\":17720:17726   */\n      dup3\n        /* \"#utility.yul\":17709:17718   */\n      dup7\n        /* \"#utility.yul\":17705:17727   */\n      add\n        /* \"#utility.yul\":17674:17737   */\n      tag_269\n      jump\t// in\n    tag_464:\n        /* \"#utility.yul\":17664:17737   */\n      swap2\n      pop\n        /* \"#utility.yul\":17459:17747   */\n      pop\n        /* \"#utility.yul\":17100:17754   */\n      swap3\n      pop\n      swap3\n      swap1\n      pop\n      jump\t// out\n        /* \"#utility.yul\":17760:17882   */\n    tag_271:\n        /* \"#utility.yul\":17833:17857   */\n      tag_466\n        /* \"#utility.yul\":17851:17856   */\n      dup2\n        /* \"#utility.yul\":17833:17857   */\n      tag_234\n      jump\t// in\n    tag_466:\n        /* \"#utility.yul\":17826:17831   */\n      dup2\n        /* \"#utility.yul\":17823:17858   */\n      eq\n        /* \"#utility.yul\":17813:17876   */\n      tag_467\n      jumpi\n        /* \"#utility.yul\":17872:17873   */\n      0x00\n        /* \"#utility.yul\":17869:17870   */\n      dup1\n        /* \"#utility.yul\":17862:17874   */\n      revert\n        /* \"#utility.yul\":17813:17876   */\n    tag_467:\n        /* \"#utility.yul\":17760:17882   */\n      pop\n      jump\t// out\n        /* \"#utility.yul\":17888:18027   */\n    tag_272:\n        /* \"#utility.yul\":17934:17939   */\n      0x00\n        /* \"#utility.yul\":17972:17978   */\n      dup2\n        /* \"#utility.yul\":17959:17979   */\n      calldataload\n        /* \"#utility.yul\":17950:17979   */\n      swap1\n      pop\n        /* \"#utility.yul\":17988:18021   */\n      tag_469\n        /* \"#utility.yul\":18015:18020   */\n      dup2\n        /* \"#utility.yul\":17988:18021   */\n      tag_271\n      jump\t// in\n    tag_469:\n        /* \"#utility.yul\":17888:18027   */\n      swap3\n      swap2\n      pop\n      pop\n      jump\t// out\n        /* \"#utility.yul\":18033:18362   */\n    tag_74:\n        /* \"#utility.yul\":18092:18098   */\n      0x00\n        /* \"#utility.yul\":18141:18143   */\n      0x20\n        /* \"#utility.yul\":18129:18138   */\n      dup3\n        /* \"#utility.yul\":18120:18127   */\n      dup5\n        /* \"#utility.yul\":18116:18139   */\n      sub\n        /* \"#utility.yul\":18112:18144   */\n      slt\n        /* \"#utility.yul\":18109:18228   */\n      iszero\n      tag_471\n      jumpi\n        /* \"#utility.yul\":18147:18226   */\n      tag_472\n      tag_227\n      jump\t// in\n    tag_472:\n        /* \"#utility.yul\":18109:18228   */\n    tag_471:\n        /* \"#utility.yul\":18267:18268   */\n      0x00\n        /* \"#utility.yul\":18292:18345   */\n      tag_473\n        /* \"#utility.yul\":18337:18344   */\n      dup5\n        /* \"#utility.yul\":18328:18334   */\n      dup3\n        /* \"#utility.yul\":18317:18326   */\n      dup6\n        /* \"#utility.yul\":18313:18335   */\n      add\n        /* \"#utility.yul\":18292:18345   */\n      tag_272\n      jump\t// in\n    tag_473:\n        /* \"#utility.yul\":18282:18345   */\n      swap2\n      pop\n        /* \"#utility.yul\":18238:18355   */\n      pop\n        /* \"#utility.yul\":18033:18362   */\n      swap3\n      swap2\n      pop\n      pop\n      jump\t// out\n        /* \"#utility.yul\":18368:18548   */\n    tag_273:\n        /* \"#utility.yul\":18416:18493   */\n      0x4e487b7100000000000000000000000000000000000000000000000000000000\n        /* \"#utility.yul\":18413:18414   */\n      0x00\n        /* \"#utility.yul\":18406:18494   */\n      mstore\n        /* \"#utility.yul\":18513:18517   */\n      0x22\n        /* \"#utility.yul\":18510:18511   */\n      0x04\n        /* \"#utility.yul\":18503:18518   */\n      mstore\n        /* \"#utility.yul\":18537:18541   */\n      0x24\n        /* \"#utility.yul\":18534:18535   */\n      0x00\n        /* \"#utility.yul\":18527:18542   */\n      revert\n        /* \"#utility.yul\":18554:18874   */\n    tag_77:\n        /* \"#utility.yul\":18598:18604   */\n      0x00\n        /* \"#utility.yul\":18635:18636   */\n      0x02\n        /* \"#utility.yul\":18629:18633   */\n      dup3\n        /* \"#utility.yul\":18625:18637   */\n      div\n        /* \"#utility.yul\":18615:18637   */\n      swap1\n      pop\n        /* \"#utility.yul\":18682:18683   */\n      0x01\n        /* \"#utility.yul\":18676:18680   */\n      dup3\n        /* \"#utility.yul\":18672:18684   */\n      and\n        /* \"#utility.yul\":18703:18721   */\n      dup1\n        /* \"#utility.yul\":18693:18774   */\n      tag_476\n      jumpi\n        /* \"#utility.yul\":18759:18763   */\n      0x7f\n        /* \"#utility.yul\":18751:18757   */\n      dup3\n        /* \"#utility.yul\":18747:18764   */\n      and\n        /* \"#utility.yul\":18737:18764   */\n      swap2\n      pop\n        /* \"#utility.yul\":18693:18774   */\n    tag_476:\n        /* \"#utility.yul\":18821:18823   */\n      0x20\n        /* \"#utility.yul\":18813:18819   */\n      dup3\n        /* \"#utility.yul\":18810:18824   */\n      lt\n        /* \"#utility.yul\":18790:18808   */\n      dup2\n        /* \"#utility.yul\":18787:18825   */\n      sub\n        /* \"#utility.yul\":18784:18868   */\n      tag_477\n      jumpi\n        /* \"#utility.yul\":18840:18858   */\n      tag_478\n      tag_273\n      jump\t// in\n    tag_478:\n        /* \"#utility.yul\":18784:18868   */\n    tag_477:\n        /* \"#utility.yul\":18605:18874   */\n      pop\n        /* \"#utility.yul\":18554:18874   */\n      swap2\n      swap1\n      pop\n      jump\t// out\n        /* \"#utility.yul\":18880:19060   */\n    tag_101:\n        /* \"#utility.yul\":18928:19005   */\n      0x4e487b7100000000000000000000000000000000000000000000000000000000\n        /* \"#utility.yul\":18925:18926   */\n      0x00\n        /* \"#utility.yul\":18918:19006   */\n      mstore\n        /* \"#utility.yul\":19025:19029   */\n      0x32\n        /* \"#utility.yul\":19022:19023   */\n      0x04\n        /* \"#utility.yul\":19015:19030   */\n      mstore\n        /* \"#utility.yul\":19049:19053   */\n      0x24\n        /* \"#utility.yul\":19046:19047   */\n      0x00\n        /* \"#utility.yul\":19039:19054   */\n      revert\n        /* \"#utility.yul\":19066:19246   */\n    tag_274:\n        /* \"#utility.yul\":19114:19191   */\n      0x4e487b7100000000000000000000000000000000000000000000000000000000\n        /* \"#utility.yul\":19111:19112   */\n      0x00\n        /* \"#utility.yul\":19104:19192   */\n      mstore\n        /* \"#utility.yul\":19211:19215   */\n      0x11\n        /* \"#utility.yul\":19208:19209   */\n      0x04\n        /* \"#utility.yul\":19201:19216   */\n      mstore\n        /* \"#utility.yul\":19235:19239   */\n      0x24\n        /* \"#utility.yul\":19232:19233   */\n      0x00\n        /* \"#utility.yul\":19225:19240   */\n      revert\n        /* \"#utility.yul\":19252:19485   */\n    tag_103:\n        /* \"#utility.yul\":19291:19294   */\n      0x00\n        /* \"#utility.yul\":19314:19338   */\n      tag_482\n        /* \"#utility.yul\":19332:19337   */\n      dup3\n        /* \"#utility.yul\":19314:19338   */\n      tag_229\n      jump\t// in\n    tag_482:\n        /* \"#utility.yul\":19305:19338   */\n      swap2\n      pop\n        /* \"#utility.yul\":19360:19426   */\n      0xffffffffffffffffffffffffffffffffffffffffffffffffffffffffffffffff\n        /* \"#utility.yul\":19353:19358   */\n      dup3\n        /* \"#utility.yul\":19350:19427   */\n      sub\n        /* \"#utility.yul\":19347:19450   */\n      tag_483\n      jumpi\n        /* \"#utility.yul\":19430:19448   */\n      tag_484\n      tag_274\n      jump\t// in\n    tag_484:\n        /* \"#utility.yul\":19347:19450   */\n    tag_483:\n        /* \"#utility.yul\":19477:19478   */\n      0x01\n        /* \"#utility.yul\":19470:19475   */\n      dup3\n        /* \"#utility.yul\":19466:19479   */\n      add\n        /* \"#utility.yul\":19459:19479   */\n      swap1\n      pop\n        /* \"#utility.yul\":19252:19485   */\n      swap2\n      swap1\n      pop\n      jump\t// out\n        /* \"#utility.yul\":19491:19664   */\n    tag_275:\n        /* \"#utility.yul\":19631:19656   */\n      0x4d6573736167652063616e6e6f7420626520656d707479000000000000000000\n        /* \"#utility.yul\":19627:19628   */\n      0x00\n        /* \"#utility.yul\":19619:19625   */\n      dup3\n        /* \"#utility.yul\":19615:19629   */\n      add\n        /* \"#utility.yul\":19608:19657   */\n      mstore\n        /* \"#utility.yul\":19491:19664   */\n      pop\n      jump\t// out\n        /* \"#utility.yul\":19670:20036   */\n    tag_276:\n        /* \"#utility.yul\":19812:19815   */\n      0x00\n        /* \"#utility.yul\":19833:19900   */\n      tag_487\n        /* \"#utility.yul\":19897:19899   */\n      0x17\n        /* \"#utility.yul\":19892:19895   */\n      dup4\n        /* \"#utility.yul\":19833:19900   */\n      tag_237\n      jump\t// in\n    tag_487:\n        /* \"#utility.yul\":19826:19900   */\n      swap2\n      pop\n        /* \"#utility.yul\":19909:20002   */\n      tag_488\n        /* \"#utility.yul\":19998:20001   */\n      dup3\n        /* \"#utility.yul\":19909:20002   */\n      tag_275\n      jump\t// in\n    tag_488:\n        /* \"#utility.yul\":20027:20029   */\n      0x20\n        /* \"#utility.yul\":20022:20025   */\n      dup3\n        /* \"#utility.yul\":20018:20030   */\n      add\n        /* \"#utility.yul\":20011:20030   */\n      swap1\n      pop\n        /* \"#utility.yul\":19670:20036   */\n      swap2\n      swap1\n      pop\n      jump\t// out\n        /* \"#utility.yul\":20042:20461   */\n    tag_131:\n        /* \"#utility.yul\":20208:20212   */\n      0x00\n        /* \"#utility.yul\":20246:20248   */\n      0x20\n        /* \"#utility.yul\":20235:20244   */\n      dup3\n        /* \"#utility.yul\":20231:20249   */\n      add\n        /* \"#utility.yul\":20223:20249   */\n      swap1\n      pop\n        /* \"#utility.yul\":20295:20304   */\n      dup2\n        /* \"#utility.yul\":20289:20293   */\n      dup2\n        /* \"#utility.yul\":20285:20305   */\n      sub\n        /* \"#utility.yul\":20281:20282   */\n      0x00\n        /* \"#utility.yul\":20270:20279   */\n      dup4\n        /* \"#utility.yul\":20266:20283   */\n      add\n        /* \"#utility.yul\":20259:20306   */\n      mstore\n        /* \"#utility.yul\":20323:20454   */\n      tag_490\n        /* \"#utility.yul\":20449:20453   */\n      dup2\n        /* \"#utility.yul\":20323:20454   */\n      tag_276\n      jump\t// in\n    tag_490:\n        /* \"#utility.yul\":20315:20454   */\n      swap1\n      pop\n        /* \"#utility.yul\":20042:20461   */\n      swap2\n      swap1\n      pop\n      jump\t// out\n        /* \"#utility.yul\":20467:20608   */\n    tag_277:\n        /* \"#utility.yul\":20516:20520   */\n      0x00\n        /* \"#utility.yul\":20539:20542   */\n      dup2\n        /* \"#utility.yul\":20531:20542   */\n      swap1\n      pop\n        /* \"#utility.yul\":20562:20565   */\n      dup2\n        /* \"#utility.yul\":20559:20560   */\n      0x00\n        /* \"#utility.yul\":20552:20566   */\n      mstore\n        /* \"#utility.yul\":20596:20600   */\n      0x20\n        /* \"#utility.yul\":20593:20594   */\n      0x00\n        /* \"#utility.yul\":20583:20601   */\n      keccak256\n        /* \"#utility.yul\":20575:20601   */\n      swap1\n      pop\n        /* \"#utility.yul\":20467:20608   */\n      swap2\n      swap1\n      pop\n      jump\t// out\n        /* \"#utility.yul\":20614:20707   */\n    tag_278:\n        /* \"#utility.yul\":20651:20657   */\n      0x00\n        /* \"#utility.yul\":20698:20700   */\n      0x20\n        /* \"#utility.yul\":20693:20695   */\n      0x1f\n        /* \"#utility.yul\":20686:20691   */\n      dup4\n        /* \"#utility.yul\":20682:20696   */\n      add\n        /* \"#utility.yul\":20678:20701   */\n      div\n        /* \"#utility.yul\":20668:20701   */\n      swap1\n      pop\n        /* \"#utility.yul\":20614:20707   */\n      swap2\n      swap1\n      pop\n      jump\t// out\n        /* \"#utility.yul\":20713:20820   */\n    tag_279:\n        /* \"#utility.yul\":20757:20765   */\n      0x00\n        /* \"#utility.yul\":20807:20812   */\n      dup3\n        /* \"#utility.yul\":20801:20805   */\n      dup3\n        /* \"#utility.yul\":20797:20813   */\n      shl\n        /* \"#utility.yul\":20776:20813   */\n      swap1\n      pop\n        /* \"#utility.yul\":20713:20820   */\n      swap3\n      swap2\n      pop\n      pop\n      jump\t// out\n        /* \"#utility.yul\":20826:21219   */\n    tag_280:\n        /* \"#utility.yul\":20895:20901   */\n      0x00\n        /* \"#utility.yul\":20945:20946   */\n      0x08\n        /* \"#utility.yul\":20933:20943   */\n      dup4\n        /* \"#utility.yul\":20929:20947   */\n      mul\n        /* \"#utility.yul\":20968:21065   */\n      tag_495\n        /* \"#utility.yul\":20998:21064   */\n      0xffffffffffffffffffffffffffffffffffffffffffffffffffffffffffffffff\n        /* \"#utility.yul\":20987:20996   */\n      dup3\n        /* \"#utility.yul\":20968:21065   */\n      tag_279\n      jump\t// in\n    tag_495:\n        /* \"#utility.yul\":21086:21125   */\n      tag_496\n        /* \"#utility.yul\":21116:21124   */\n      dup7\n        /* \"#utility.yul\":21105:21114   */\n      dup4\n        /* \"#utility.yul\":21086:21125   */\n      tag_279\n      jump\t// in\n    tag_496:\n        /* \"#utility.yul\":21074:21125   */\n      swap6\n      pop\n        /* \"#utility.yul\":21158:21162   */\n      dup1\n        /* \"#utility.yul\":21154:21163   */\n      not\n        /* \"#utility.yul\":21147:21152   */\n      dup5\n        /* \"#utility.yul\":21143:21164   */\n      and\n        /* \"#utility.yul\":21134:21164   */\n      swap4\n      pop\n        /* \"#utility.yul\":21207:21211   */\n      dup1\n        /* \"#utility.yul\":21197:21205   */\n      dup7\n        /* \"#utility.yul\":21193:21212   */\n      and\n        /* \"#utility.yul\":21186:21191   */\n      dup5\n        /* \"#utility.yul\":21183:21213   */\n      or\n        /* \"#utility.yul\":21173:21213   */\n      swap3\n      pop\n        /* \"#utility.yul\":20902:21219   */\n      pop\n      pop\n        /* \"#utility.yul\":20826:21219   */\n      swap4\n      swap3\n      pop\n      pop\n      pop\n      jump\t// out\n        /* \"#utility.yul\":21225:21285   */\n    tag_281:\n        /* \"#utility.yul\":21253:21256   */\n      0x00\n        /* \"#utility.yul\":21274:21279   */\n      dup2\n        /* \"#utility.yul\":21267:21279   */\n      swap1\n      pop\n        /* \"#utility.yul\":21225:21285   */\n      swap2\n      swap1\n      pop\n      jump\t// out\n        /* \"#utility.yul\":21291:21433   */\n    tag_282:\n        /* \"#utility.yul\":21341:21350   */\n      0x00\n        /* \"#utility.yul\":21374:21427   */\n      tag_499\n        /* \"#utility.yul\":21392:21426   */\n      tag_500\n        /* \"#utility.yul\":21401:21425   */\n      tag_501\n        /* \"#utility.yul\":21419:21424   */\n      dup5\n        /* \"#utility.yul\":21401:21425   */\n      tag_229\n      jump\t// in\n    tag_501:\n        /* \"#utility.yul\":21392:21426   */\n      tag_281\n      jump\t// in\n    tag_500:\n        /* \"#utility.yul\":21374:21427   */\n      tag_229\n      jump\t// in\n    tag_499:\n        /* \"#utility.yul\":21361:21427   */\n      swap1\n      pop\n        /* \"#utility.yul\":21291:21433   */\n      swap2\n      swap1\n      pop\n      jump\t// out\n        /* \"#utility.yul\":21439:21514   */\n    tag_283:\n        /* \"#utility.yul\":21482:21485   */\n      0x00\n        /* \"#utility.yul\":21503:21508   */\n      dup2\n        /* \"#utility.yul\":21496:21508   */\n      swap1\n      pop\n        /* \"#utility.yul\":21439:21514   */\n      swap2\n      swap1\n      pop\n      jump\t// out\n        /* \"#utility.yul\":21520:21789   */\n    tag_284:\n        /* \"#utility.yul\":21630:21669   */\n      tag_504\n        /* \"#utility.yul\":21661:21668   */\n      dup4\n        /* \"#utility.yul\":21630:21669   */\n      tag_282\n      jump\t// in\n    tag_504:\n        /* \"#utility.yul\":21691:21782   */\n      tag_505\n        /* \"#utility.yul\":21740:21781   */\n      tag_506\n        /* \"#utility.yul\":21764:21780   */\n      dup3\n        /* \"#utility.yul\":21740:21781   */\n      tag_283\n      jump\t// in\n    tag_506:\n        /* \"#utility.yul\":21732:21738   */\n      dup5\n        /* \"#utility.yul\":21725:21729   */\n      dup5\n        /* \"#utility.yul\":21719:21730   */\n      sload\n        /* \"#utility.yul\":21691:21782   */\n      tag_280\n      jump\t// in\n    tag_505:\n        /* \"#utility.yul\":21685:21689   */\n      dup3\n        /* \"#utility.yul\":21678:21783   */\n      sstore\n        /* \"#utility.yul\":21596:21789   */\n      pop\n        /* \"#utility.yul\":21520:21789   */\n      pop\n      pop\n      pop\n      jump\t// out\n        /* \"#utility.yul\":21795:21868   */\n    tag_285:\n        /* \"#utility.yul\":21840:21843   */\n      0x00\n        /* \"#utility.yul\":21795:21868   */\n      swap1\n      jump\t// out\n        /* \"#utility.yul\":21874:22063   */\n    tag_286:\n        /* \"#utility.yul\":21951:21983   */\n      tag_509\n      tag_285\n      jump\t// in\n    tag_509:\n        /* \"#utility.yul\":21992:22057   */\n      tag_510\n        /* \"#utility.yul\":22050:22056   */\n      dup2\n        /* \"#utility.yul\":22042:22048   */\n      dup5\n        /* \"#utility.yul\":22036:22040   */\n      dup5\n        /* \"#utility.yul\":21992:22057   */\n      tag_284\n      jump\t// in\n    tag_510:\n        /* \"#utility.yul\":21927:22063   */\n      pop\n        /* \"#utility.yul\":21874:22063   */\n      pop\n      pop\n      jump\t// out\n        /* \"#utility.yul\":22069:22255   */\n    tag_287:\n        /* \"#utility.yul\":22129:22249   */\n    tag_512:\n        /* \"#utility.yul\":22146:22149   */\n      dup2\n        /* \"#utility.yul\":22139:22144   */\n      dup2\n        /* \"#utility.yul\":22136:22150   */\n      lt\n        /* \"#utility.yul\":22129:22249   */\n      iszero\n      tag_514\n      jumpi\n        /* \"#utility.yul\":22200:22239   */\n      tag_515\n        /* \"#utility.yul\":22237:22238   */\n      0x00\n        /* \"#utility.yul\":22230:22235   */\n      dup3\n        /* \"#utility.yul\":22200:22239   */\n      tag_286\n      jump\t// in\n    tag_515:\n        /* \"#utility.yul\":22173:22174   */\n      0x01\n        /* \"#utility.yul\":22166:22171   */\n      dup2\n        /* \"#utility.yul\":22162:22175   */\n      add\n        /* \"#utility.yul\":22153:22175   */\n      swap1\n      pop\n        /* \"#utility.yul\":22129:22249   */\n      jump(tag_512)\n    tag_514:\n        /* \"#utility.yul\":22069:22255   */\n      pop\n      pop\n      jump\t// out\n        /* \"#utility.yul\":22261:22804   */\n    tag_288:\n        /* \"#utility.yul\":22362:22364   */\n      0x1f\n        /* \"#utility.yul\":22357:22360   */\n      dup3\n        /* \"#utility.yul\":22354:22365   */\n      gt\n        /* \"#utility.yul\":22351:22797   */\n      iszero\n      tag_517\n      jumpi\n        /* \"#utility.yul\":22396:22434   */\n      tag_518\n        /* \"#utility.yul\":22428:22433   */\n      dup2\n        /* \"#utility.yul\":22396:22434   */\n      tag_277\n      jump\t// in\n    tag_518:\n        /* \"#utility.yul\":22480:22509   */\n      tag_519\n        /* \"#utility.yul\":22498:22508   */\n      dup5\n        /* \"#utility.yul\":22480:22509   */\n      tag_278\n      jump\t// in\n    tag_519:\n        /* \"#utility.yul\":22470:22478   */\n      dup2\n        /* \"#utility.yul\":22466:22510   */\n      add\n        /* \"#utility.yul\":22663:22665   */\n      0x20\n        /* \"#utility.yul\":22651:22661   */\n      dup6\n        /* \"#utility.yul\":22648:22666   */\n      lt\n        /* \"#utility.yul\":22645:22694   */\n      iszero\n      tag_520\n      jumpi\n        /* \"#utility.yul\":22684:22692   */\n      dup2\n        /* \"#utility.yul\":22669:22692   */\n      swap1\n      pop\n        /* \"#utility.yul\":22645:22694   */\n    tag_520:\n        /* \"#utility.yul\":22707:22787   */\n      tag_521\n        /* \"#utility.yul\":22763:22785   */\n      tag_522\n        /* \"#utility.yul\":22781:22784   */\n      dup6\n        /* \"#utility.yul\":22763:22785   */\n      tag_278\n      jump\t// in\n    tag_522:\n        /* \"#utility.yul\":22753:22761   */\n      dup4\n        /* \"#utility.yul\":22749:22786   */\n      add\n        /* \"#utility.yul\":22736:22747   */\n      dup3\n        /* \"#utility.yul\":22707:22787   */\n      tag_287\n      jump\t// in\n    tag_521:\n        /* \"#utility.yul\":22366:22797   */\n      pop\n      pop\n        /* \"#utility.yul\":22351:22797   */\n    tag_517:\n        /* \"#utility.yul\":22261:22804   */\n      pop\n      pop\n      pop\n      jump\t// out\n        /* \"#utility.yul\":22810:22927   */\n    tag_289:\n        /* \"#utility.yul\":22864:22872   */\n      0x00\n        /* \"#utility.yul\":22914:22919   */\n      dup3\n        /* \"#utility.yul\":22908:22912   */\n      dup3\n        /* \"#utility.yul\":22904:22920   */\n      shr\n        /* \"#utility.yul\":22883:22920   */\n      swap1\n      pop\n        /* \"#utility.yul\":22810:22927   */\n      swap3\n      swap2\n      pop\n      pop\n      jump\t// out\n        /* \"#utility.yul\":22933:23102   */\n    tag_290:\n        /* \"#utility.yul\":22977:22983   */\n      0x00\n        /* \"#utility.yul\":23010:23061   */\n      tag_525\n        /* \"#utility.yul\":23058:23059   */\n      0x00\n        /* \"#utility.yul\":23054:23060   */\n      not\n        /* \"#utility.yul\":23046:23051   */\n      dup5\n        /* \"#utility.yul\":23043:23044   */\n      0x08\n        /* \"#utility.yul\":23039:23052   */\n      mul\n        /* \"#utility.yul\":23010:23061   */\n      tag_289\n      jump\t// in\n    tag_525:\n        /* \"#utility.yul\":23006:23062   */\n      not\n        /* \"#utility.yul\":23091:23095   */\n      dup1\n        /* \"#utility.yul\":23085:23089   */\n      dup4\n        /* \"#utility.yul\":23081:23096   */\n      and\n        /* \"#utility.yul\":23071:23096   */\n      swap2\n      pop\n        /* \"#utility.yul\":22984:23102   */\n      pop\n        /* \"#utility.yul\":22933:23102   */\n      swap3\n      swap2\n      pop\n      pop\n      jump\t// out\n        /* \"#utility.yul\":23107:23402   */\n    tag_291:\n        /* \"#utility.yul\":23183:23187   */\n      0x00\n        /* \"#utility.yul\":23329:23358   */\n      tag_527\n        /* \"#utility.yul\":23354:23357   */\n      dup4\n        /* \"#utility.yul\":23348:23352   */\n      dup4\n        /* \"#utility.yul\":23329:23358   */\n      tag_290\n      jump\t// in\n    tag_527:\n        /* \"#utility.yul\":23321:23358   */\n      swap2\n      pop\n        /* \"#utility.yul\":23391:23394   */\n      dup3\n        /* \"#utility.yul\":23388:23389   */\n      0x02\n        /* \"#utility.yul\":23384:23395   */\n      mul\n        /* \"#utility.yul\":23378:23382   */\n      dup3\n        /* \"#utility.yul\":23375:23396   */\n      or\n        /* \"#utility.yul\":23367:23396   */\n      swap1\n      pop\n        /* \"#utility.yul\":23107:23402   */\n      swap3\n      swap2\n      pop\n      pop\n      jump\t// out\n        /* \"#utility.yul\":23407:24802   */\n    tag_134:\n        /* \"#utility.yul\":23524:23561   */\n      tag_529\n        /* \"#utility.yul\":23557:23560   */\n      dup3\n        /* \"#utility.yul\":23524:23561   */\n      tag_236\n      jump\t// in\n    tag_529:\n        /* \"#utility.yul\":23626:23644   */\n      0xffffffffffffffff\n        /* \"#utility.yul\":23618:23624   */\n      dup2\n        /* \"#utility.yul\":23615:23645   */\n      gt\n        /* \"#utility.yul\":23612:23668   */\n      iszero\n      tag_530\n      jumpi\n        /* \"#utility.yul\":23648:23666   */\n      tag_531\n      tag_85\n      jump\t// in\n    tag_531:\n        /* \"#utility.yul\":23612:23668   */\n    tag_530:\n        /* \"#utility.yul\":23692:23730   */\n      tag_532\n        /* \"#utility.yul\":23724:23728   */\n      dup3\n        /* \"#utility.yul\":23718:23729   */\n      sload\n        /* \"#utility.yul\":23692:23730   */\n      tag_77\n      jump\t// in\n    tag_532:\n        /* \"#utility.yul\":23777:23844   */\n      tag_533\n        /* \"#utility.yul\":23837:23843   */\n      dup3\n        /* \"#utility.yul\":23829:23835   */\n      dup3\n        /* \"#utility.yul\":23823:23827   */\n      dup6\n        /* \"#utility.yul\":23777:23844   */\n      tag_288\n      jump\t// in\n    tag_533:\n        /* \"#utility.yul\":23871:23872   */\n      0x00\n        /* \"#utility.yul\":23895:23899   */\n      0x20\n        /* \"#utility.yul\":23882:23899   */\n      swap1\n      pop\n        /* \"#utility.yul\":23927:23929   */\n      0x1f\n        /* \"#utility.yul\":23919:23925   */\n      dup4\n        /* \"#utility.yul\":23916:23930   */\n      gt\n        /* \"#utility.yul\":23944:23945   */\n      0x01\n        /* \"#utility.yul\":23939:24557   */\n      dup2\n      eq\n      tag_535\n      jumpi\n        /* \"#utility.yul\":24601:24602   */\n      0x00\n        /* \"#utility.yul\":24618:24624   */\n      dup5\n        /* \"#utility.yul\":24615:24692   */\n      iszero\n      tag_536\n      jumpi\n        /* \"#utility.yul\":24667:24676   */\n      dup3\n        /* \"#utility.yul\":24662:24665   */\n      dup8\n        /* \"#utility.yul\":24658:24677   */\n      add\n        /* \"#utility.yul\":24652:24678   */\n      mload\n        /* \"#utility.yul\":24643:24678   */\n      swap1\n      pop\n        /* \"#utility.yul\":24615:24692   */\n    tag_536:\n        /* \"#utility.yul\":24718:24785   */\n      tag_537\n        /* \"#utility.yul\":24778:24784   */\n      dup6\n        /* \"#utility.yul\":24771:24776   */\n      dup3\n        /* \"#utility.yul\":24718:24785   */\n      tag_291\n      jump\t// in\n    tag_537:\n        /* \"#utility.yul\":24712:24716   */\n      dup7\n        /* \"#utility.yul\":24705:24786   */\n      sstore\n        /* \"#utility.yul\":24574:24796   */\n      pop\n        /* \"#utility.yul\":23909:24796   */\n      jump(tag_534)\n        /* \"#utility.yul\":23939:24557   */\n    tag_535:\n        /* \"#utility.yul\":23991:23995   */\n      0x1f\n        /* \"#utility.yul\":23987:23996   */\n      not\n        /* \"#utility.yul\":23979:23985   */\n      dup5\n        /* \"#utility.yul\":23975:23997   */\n      and\n        /* \"#utility.yul\":24025:24062   */\n      tag_538\n        /* \"#utility.yul\":24057:24061   */\n      dup7\n        /* \"#utility.yul\":24025:24062   */\n      tag_277\n      jump\t// in\n    tag_538:\n        /* \"#utility.yul\":24084:24085   */\n      0x00\n        /* \"#utility.yul\":24098:24306   */\n    tag_539:\n        /* \"#utility.yul\":24112:24119   */\n      dup3\n        /* \"#utility.yul\":24109:24110   */\n      dup2\n        /* \"#utility.yul\":24106:24120   */\n      lt\n        /* \"#utility.yul\":24098:24306   */\n      iszero\n      tag_541\n      jumpi\n        /* \"#utility.yul\":24191:24200   */\n      dup5\n        /* \"#utility.yul\":24186:24189   */\n      dup10\n        /* \"#utility.yul\":24182:24201   */\n      add\n        /* \"#utility.yul\":24176:24202   */\n      mload\n        /* \"#utility.yul\":24168:24174   */\n      dup3\n        /* \"#utility.yul\":24161:24203   */\n      sstore\n        /* \"#utility.yul\":24242:24243   */\n      0x01\n        /* \"#utility.yul\":24234:24240   */\n      dup3\n        /* \"#utility.yul\":24230:24244   */\n      add\n        /* \"#utility.yul\":24220:24244   */\n      swap2\n      pop\n        /* \"#utility.yul\":24289:24291   */\n      0x20\n        /* \"#utility.yul\":24278:24287   */\n      dup6\n        /* \"#utility.yul\":24274:24292   */\n      add\n        /* \"#utility.yul\":24261:24292   */\n      swap5\n      pop\n        /* \"#utility.yul\":24135:24139   */\n      0x20\n        /* \"#utility.yul\":24132:24133   */\n      dup2\n        /* \"#utility.yul\":24128:24140   */\n      add\n        /* \"#utility.yul\":24123:24140   */\n      swap1\n      pop\n        /* \"#utility.yul\":24098:24306   */\n      jump(tag_539)\n    tag_541:\n        /* \"#utility.yul\":24334:24340   */\n      dup7\n        /* \"#utility.yul\":24325:24332   */\n      dup4\n        /* \"#utility.yul\":24322:24341   */\n      lt\n        /* \"#utility.yul\":24319:24498   */\n      iszero\n      tag_542\n      jumpi\n        /* \"#utility.yul\":24392:24401   */\n      dup5\n        /* \"#utility.yul\":24387:24390   */\n      dup10\n        /* \"#utility.yul\":24383:24402   */\n      add\n        /* \"#utility.yul\":24377:24403   */\n      mload\n        /* \"#utility.yul\":24435:24483   */\n      tag_543\n        /* \"#utility.yul\":24477:24481   */\n      0x1f\n        /* \"#utility.yul\":24469:24475   */\n      dup10\n        /* \"#utility.yul\":24465:24482   */\n      and\n        /* \"#utility.yul\":24454:24463   */\n      dup3\n        /* \"#utility.yul\":24435:24483   */\n      tag_290\n      jump\t// in\n    tag_543:\n        /* \"#utility.yul\":24427:24433   */\n      dup4\n        /* \"#utility.yul\":24420:24484   */\n      sstore\n        /* \"#utility.yul\":24342:24498   */\n      pop\n        /* \"#utility.yul\":24319:24498   */\n    tag_542:\n        /* \"#utility.yul\":24544:24545   */\n      0x01\n        /* \"#utility.yul\":24540:24541   */\n      0x02\n        /* \"#utility.yul\":24532:24538   */\n      dup9\n        /* \"#utility.yul\":24528:24542   */\n      mul\n        /* \"#utility.yul\":24524:24546   */\n      add\n        /* \"#utility.yul\":24518:24522   */\n      dup9\n        /* \"#utility.yul\":24511:24547   */\n      sstore\n        /* \"#utility.yul\":23946:24557   */\n      pop\n      pop\n      pop\n        /* \"#utility.yul\":23909:24796   */\n    tag_534:\n      pop\n        /* \"#utility.yul\":23499:24802   */\n      pop\n      pop\n      pop\n        /* \"#utility.yul\":23407:24802   */\n      pop\n      pop\n      jump\t// out\n        /* \"#utility.yul\":24808:25121   */\n    tag_136:\n        /* \"#utility.yul\":24921:24925   */\n      0x00\n        /* \"#utility.yul\":24959:24961   */\n      0x20\n        /* \"#utility.yul\":24948:24957   */\n      dup3\n        /* \"#utility.yul\":24944:24962   */\n      add\n        /* \"#utility.yul\":24936:24962   */\n      swap1\n      pop\n        /* \"#utility.yul\":25008:25017   */\n      dup2\n        /* \"#utility.yul\":25002:25006   */\n      dup2\n        /* \"#utility.yul\":24998:25018   */\n      sub\n        /* \"#utility.yul\":24994:24995   */\n      0x00\n        /* \"#utility.yul\":24983:24992   */\n      dup4\n        /* \"#utility.yul\":24979:24996   */\n      add\n        /* \"#utility.yul\":24972:25019   */\n      mstore\n        /* \"#utility.yul\":25036:25114   */\n      tag_545\n        /* \"#utility.yul\":25109:25113   */\n      dup2\n        /* \"#utility.yul\":25100:25106   */\n      dup5\n        /* \"#utility.yul\":25036:25114   */\n      tag_240\n      jump\t// in\n    tag_545:\n        /* \"#utility.yul\":25028:25114   */\n      swap1\n      pop\n        /* \"#utility.yul\":24808:25121   */\n      swap3\n      swap2\n      pop\n      pop\n      jump\t// out\n        /* \"#utility.yul\":25127:25300   */\n    tag_292:\n        /* \"#utility.yul\":25267:25292   */\n      0x496e76616c696420656469742072657175657374204944000000000000000000\n        /* \"#utility.yul\":25263:25264   */\n      0x00\n        /* \"#utility.yul\":25255:25261   */\n      dup3\n        /* \"#utility.yul\":25251:25265   */\n      add\n        /* \"#utility.yul\":25244:25293   */\n      mstore\n        /* \"#utility.yul\":25127:25300   */\n      pop\n      jump\t// out\n        /* \"#utility.yul\":25306:25672   */\n    tag_293:\n        /* \"#utility.yul\":25448:25451   */\n      0x00\n        /* \"#utility.yul\":25469:25536   */\n      tag_548\n        /* \"#utility.yul\":25533:25535   */\n      0x17\n        /* \"#utility.yul\":25528:25531   */\n      dup4\n        /* \"#utility.yul\":25469:25536   */\n      tag_237\n      jump\t// in\n    tag_548:\n        /* \"#utility.yul\":25462:25536   */\n      swap2\n      pop\n        /* \"#utility.yul\":25545:25638   */\n      tag_549\n        /* \"#utility.yul\":25634:25637   */\n      dup3\n        /* \"#utility.yul\":25545:25638   */\n      tag_292\n      jump\t// in\n    tag_549:\n        /* \"#utility.yul\":25663:25665   */\n      0x20\n        /* \"#utility.yul\":25658:25661   */\n      dup3\n        /* \"#utility.yul\":25654:25666   */\n      add\n        /* \"#utility.yul\":25647:25666   */\n      swap1\n      pop\n        /* \"#utility.yul\":25306:25672   */\n      swap2\n      swap1\n      pop\n      jump\t// out\n        /* \"#utility.yul\":25678:26097   */\n    tag_156:\n        /* \"#utility.yul\":25844:25848   */\n      0x00\n        /* \"#utility.yul\":25882:25884   */\n      0x20\n        /* \"#utility.yul\":25871:25880   */\n      dup3\n        /* \"#utility.yul\":25867:25885   */\n      add\n        /* \"#utility.yul\":25859:25885   */\n      swap1\n      pop\n        /* \"#utility.yul\":25931:25940   */\n      dup2\n        /* \"#utility.yul\":25925:25929   */\n      dup2\n        /* \"#utility.yul\":25921:25941   */\n      sub\n        /* \"#utility.yul\":25917:25918   */\n      0x00\n        /* \"#utility.yul\":25906:25915   */\n      dup4\n        /* \"#utility.yul\":25902:25919   */\n      add\n        /* \"#utility.yul\":25895:25942   */\n      mstore\n        /* \"#utility.yul\":25959:26090   */\n      tag_551\n        /* \"#utility.yul\":26085:26089   */\n      dup2\n        /* \"#utility.yul\":25959:26090   */\n      tag_293\n      jump\t// in\n    tag_551:\n        /* \"#utility.yul\":25951:26090   */\n      swap1\n      pop\n        /* \"#utility.yul\":25678:26097   */\n      swap2\n      swap1\n      pop\n      jump\t// out\n        /* \"#utility.yul\":26103:26282   */\n    tag_294:\n        /* \"#utility.yul\":26243:26274   */\n      0x45646974207265717565737420616c726561647920617070726f766564000000\n        /* \"#utility.yul\":26239:26240   */\n      0x00\n        /* \"#utility.yul\":26231:26237   */\n      dup3\n        /* \"#utility.yul\":26227:26241   */\n      add\n        /* \"#utility.yul\":26220:26275   */\n      mstore\n        /* \"#utility.yul\":26103:26282   */\n      pop\n      jump\t// out\n        /* \"#utility.yul\":26288:26654   */\n    tag_295:\n        /* \"#utility.yul\":26430:26433   */\n      0x00\n        /* \"#utility.yul\":26451:26518   */\n      tag_554\n        /* \"#utility.yul\":26515:26517   */\n      0x1d\n        /* \"#utility.yul\":26510:26513   */\n      dup4\n        /* \"#utility.yul\":26451:26518   */\n      tag_237\n      jump\t// in\n    tag_554:\n        /* \"#utility.yul\":26444:26518   */\n      swap2\n      pop\n        /* \"#utility.yul\":26527:26620   */\n      tag_555\n        /* \"#utility.yul\":26616:26619   */\n      dup3\n        /* \"#utility.yul\":26527:26620   */\n      tag_294\n      jump\t// in\n    tag_555:\n        /* \"#utility.yul\":26645:26647   */\n      0x20\n        /* \"#utility.yul\":26640:26643   */\n      dup3\n        /* \"#utility.yul\":26636:26648   */\n      add\n        /* \"#utility.yul\":26629:26648   */\n      swap1\n      pop\n        /* \"#utility.yul\":26288:26654   */\n      swap2\n      swap1\n      pop\n      jump\t// out\n        /* \"#utility.yul\":26660:27079   */\n    tag_159:\n        /* \"#utility.yul\":26826:26830   */\n      0x00\n        /* \"#utility.yul\":26864:26866   */\n      0x20\n        /* \"#utility.yul\":26853:26862   */\n      dup3\n        /* \"#utility.yul\":26849:26867   */\n      add\n        /* \"#utility.yul\":26841:26867   */\n      swap1\n      pop\n        /* \"#utility.yul\":26913:26922   */\n      dup2\n        /* \"#utility.yul\":26907:26911   */\n      dup2\n        /* \"#utility.yul\":26903:26923   */\n      sub\n        /* \"#utility.yul\":26899:26900   */\n      0x00\n        /* \"#utility.yul\":26888:26897   */\n      dup4\n        /* \"#utility.yul\":26884:26901   */\n      add\n        /* \"#utility.yul\":26877:26924   */\n      mstore\n        /* \"#utility.yul\":26941:27072   */\n      tag_557\n        /* \"#utility.yul\":27067:27071   */\n      dup2\n        /* \"#utility.yul\":26941:27072   */\n      tag_295\n      jump\t// in\n    tag_557:\n        /* \"#utility.yul\":26933:27072   */\n      swap1\n      pop\n        /* \"#utility.yul\":26660:27079   */\n      swap2\n      swap1\n      pop\n      jump\t// out\n        /* \"#utility.yul\":27085:27238   */\n    tag_296:\n        /* \"#utility.yul\":27138:27144   */\n      0x00\n        /* \"#utility.yul\":27172:27177   */\n      dup2\n        /* \"#utility.yul\":27166:27178   */\n      sload\n        /* \"#utility.yul\":27156:27178   */\n      swap1\n      pop\n        /* \"#utility.yul\":27198:27231   */\n      tag_559\n        /* \"#utility.yul\":27224:27230   */\n      dup2\n        /* \"#utility.yul\":27198:27231   */\n      tag_77\n      jump\t// in\n    tag_559:\n        /* \"#utility.yul\":27188:27231   */\n      swap1\n      pop\n        /* \"#utility.yul\":27085:27238   */\n      swap2\n      swap1\n      pop\n      jump\t// out\n        /* \"#utility.yul\":27244:27389   */\n    tag_297:\n        /* \"#utility.yul\":27297:27301   */\n      0x00\n        /* \"#utility.yul\":27320:27323   */\n      dup2\n        /* \"#utility.yul\":27312:27323   */\n      swap1\n      pop\n        /* \"#utility.yul\":27343:27346   */\n      dup2\n        /* \"#utility.yul\":27340:27341   */\n      0x00\n        /* \"#utility.yul\":27333:27347   */\n      mstore\n        /* \"#utility.yul\":27377:27381   */\n      0x20\n        /* \"#utility.yul\":27374:27375   */\n      0x00\n        /* \"#utility.yul\":27364:27382   */\n      keccak256\n        /* \"#utility.yul\":27356:27382   */\n      swap1\n      pop\n        /* \"#utility.yul\":27244:27389   */\n      swap2\n      swap1\n      pop\n      jump\t// out\n        /* \"#utility.yul\":27395:28858   */\n    tag_161:\n        /* \"#utility.yul\":27510:27513   */\n      dup2\n        /* \"#utility.yul\":27504:27508   */\n      dup2\n        /* \"#utility.yul\":27501:27514   */\n      sub\n        /* \"#utility.yul\":27498:27524   */\n      tag_562\n      jumpi\n        /* \"#utility.yul\":27517:27522   */\n      pop\n      pop\n      jump(tag_561)\n        /* \"#utility.yul\":27498:27524   */\n    tag_562:\n        /* \"#utility.yul\":27548:27586   */\n      tag_563\n        /* \"#utility.yul\":27582:27585   */\n      dup3\n        /* \"#utility.yul\":27548:27586   */\n      tag_296\n      jump\t// in\n    tag_563:\n        /* \"#utility.yul\":27651:27669   */\n      0xffffffffffffffff\n        /* \"#utility.yul\":27643:27649   */\n      dup2\n        /* \"#utility.yul\":27640:27670   */\n      gt\n        /* \"#utility.yul\":27637:27693   */\n      iszero\n      tag_564\n      jumpi\n        /* \"#utility.yul\":27673:27691   */\n      tag_565\n      tag_85\n      jump\t// in\n    tag_565:\n        /* \"#utility.yul\":27637:27693   */\n    tag_564:\n        /* \"#utility.yul\":27717:27755   */\n      tag_566\n        /* \"#utility.yul\":27749:27753   */\n      dup3\n        /* \"#utility.yul\":27743:27754   */\n      sload\n        /* \"#utility.yul\":27717:27755   */\n      tag_77\n      jump\t// in\n    tag_566:\n        /* \"#utility.yul\":27802:27869   */\n      tag_567\n        /* \"#utility.yul\":27862:27868   */\n      dup3\n        /* \"#utility.yul\":27854:27860   */\n      dup3\n        /* \"#utility.yul\":27848:27852   */\n      dup6\n        /* \"#utility.yul\":27802:27869   */\n      tag_288\n      jump\t// in\n    tag_567:\n        /* \"#utility.yul\":27896:27897   */\n      0x00\n        /* \"#utility.yul\":27925:27927   */\n      0x1f\n        /* \"#utility.yul\":27917:27923   */\n      dup4\n        /* \"#utility.yul\":27914:27928   */\n      gt\n        /* \"#utility.yul\":27942:27943   */\n      0x01\n        /* \"#utility.yul\":27937:28613   */\n      dup2\n      eq\n      tag_569\n      jumpi\n        /* \"#utility.yul\":28657:28658   */\n      0x00\n        /* \"#utility.yul\":28674:28680   */\n      dup5\n        /* \"#utility.yul\":28671:28748   */\n      iszero\n      tag_570\n      jumpi\n        /* \"#utility.yul\":28723:28732   */\n      dup3\n        /* \"#utility.yul\":28718:28721   */\n      dup8\n        /* \"#utility.yul\":28714:28733   */\n      add\n        /* \"#utility.yul\":28708:28734   */\n      sload\n        /* \"#utility.yul\":28699:28734   */\n      swap1\n      pop\n        /* \"#utility.yul\":28671:28748   */\n    tag_570:\n        /* \"#utility.yul\":28774:28841   */\n      tag_571\n        /* \"#utility.yul\":28834:28840   */\n      dup6\n        /* \"#utility.yul\":28827:28832   */\n      dup3\n        /* \"#utility.yul\":28774:28841   */\n      tag_291\n      jump\t// in\n    tag_571:\n        /* \"#utility.yul\":28768:28772   */\n      dup7\n        /* \"#utility.yul\":28761:28842   */\n      sstore\n        /* \"#utility.yul\":28630:28852   */\n      pop\n        /* \"#utility.yul\":27907:28852   */\n      jump(tag_568)\n        /* \"#utility.yul\":27937:28613   */\n    tag_569:\n        /* \"#utility.yul\":27989:27993   */\n      0x1f\n        /* \"#utility.yul\":27985:27994   */\n      not\n        /* \"#utility.yul\":27977:27983   */\n      dup5\n        /* \"#utility.yul\":27973:27995   */\n      and\n        /* \"#utility.yul\":28015:28055   */\n      tag_572\n        /* \"#utility.yul\":28051:28054   */\n      dup8\n        /* \"#utility.yul\":28015:28055   */\n      tag_297\n      jump\t// in\n    tag_572:\n        /* \"#utility.yul\":28008:28055   */\n      swap7\n      pop\n        /* \"#utility.yul\":28082:28119   */\n      tag_573\n        /* \"#utility.yul\":28114:28118   */\n      dup7\n        /* \"#utility.yul\":28082:28119   */\n      tag_277\n      jump\t// in\n    tag_573:\n        /* \"#utility.yul\":28141:28142   */\n      0x00\n        /* \"#utility.yul\":28155:28362   */\n    tag_574:\n        /* \"#utility.yul\":28169:28176   */\n      dup3\n        /* \"#utility.yul\":28166:28167   */\n      dup2\n        /* \"#utility.yul\":28163:28177   */\n      lt\n        /* \"#utility.yul\":28155:28362   */\n      iszero\n      tag_576\n      jumpi\n        /* \"#utility.yul\":28248:28257   */\n      dup5\n        /* \"#utility.yul\":28243:28246   */\n      dup10\n        /* \"#utility.yul\":28239:28258   */\n      add\n        /* \"#utility.yul\":28233:28259   */\n      sload\n        /* \"#utility.yul\":28225:28231   */\n      dup3\n        /* \"#utility.yul\":28218:28260   */\n      sstore\n        /* \"#utility.yul\":28299:28300   */\n      0x01\n        /* \"#utility.yul\":28291:28297   */\n      dup3\n        /* \"#utility.yul\":28287:28301   */\n      add\n        /* \"#utility.yul\":28277:28301   */\n      swap2\n      pop\n        /* \"#utility.yul\":28346:28347   */\n      0x01\n        /* \"#utility.yul\":28335:28344   */\n      dup6\n        /* \"#utility.yul\":28331:28348   */\n      add\n        /* \"#utility.yul\":28318:28348   */\n      swap5\n      pop\n        /* \"#utility.yul\":28192:28196   */\n      0x20\n        /* \"#utility.yul\":28189:28190   */\n      dup2\n        /* \"#utility.yul\":28185:28197   */\n      add\n        /* \"#utility.yul\":28180:28197   */\n      swap1\n      pop\n        /* \"#utility.yul\":28155:28362   */\n      jump(tag_574)\n    tag_576:\n        /* \"#utility.yul\":28390:28396   */\n      dup7\n        /* \"#utility.yul\":28381:28388   */\n      dup4\n        /* \"#utility.yul\":28378:28397   */\n      lt\n        /* \"#utility.yul\":28375:28554   */\n      iszero\n      tag_577\n      jumpi\n        /* \"#utility.yul\":28448:28457   */\n      dup5\n        /* \"#utility.yul\":28443:28446   */\n      dup10\n        /* \"#utility.yul\":28439:28458   */\n      add\n        /* \"#utility.yul\":28433:28459   */\n      sload\n        /* \"#utility.yul\":28491:28539   */\n      tag_578\n        /* \"#utility.yul\":28533:28537   */\n      0x1f\n        /* \"#utility.yul\":28525:28531   */\n      dup10\n        /* \"#utility.yul\":28521:28538   */\n      and\n        /* \"#utility.yul\":28510:28519   */\n      dup3\n        /* \"#utility.yul\":28491:28539   */\n      tag_290\n      jump\t// in\n    tag_578:\n        /* \"#utility.yul\":28483:28489   */\n      dup4\n        /* \"#utility.yul\":28476:28540   */\n      sstore\n        /* \"#utility.yul\":28398:28554   */\n      pop\n        /* \"#utility.yul\":28375:28554   */\n    tag_577:\n        /* \"#utility.yul\":28600:28601   */\n      0x01\n        /* \"#utility.yul\":28596:28597   */\n      0x02\n        /* \"#utility.yul\":28588:28594   */\n      dup9\n        /* \"#utility.yul\":28584:28598   */\n      mul\n        /* \"#utility.yul\":28580:28602   */\n      add\n        /* \"#utility.yul\":28574:28578   */\n      dup9\n        /* \"#utility.yul\":28567:28603   */\n      sstore\n        /* \"#utility.yul\":27944:28613   */\n      pop\n      pop\n      pop\n        /* \"#utility.yul\":27907:28852   */\n    tag_568:\n      pop\n        /* \"#utility.yul\":27488:28858   */\n      pop\n      pop\n      pop\n        /* \"#utility.yul\":27395:28858   */\n      pop\n      pop\n    tag_561:\n      jump\t// out\n        /* \"#utility.yul\":28888:29719   */\n    tag_298:\n        /* \"#utility.yul\":28973:28976   */\n      0x00\n        /* \"#utility.yul\":29010:29015   */\n      dup2\n        /* \"#utility.yul\":29004:29016   */\n      sload\n        /* \"#utility.yul\":29039:29075   */\n      tag_580\n        /* \"#utility.yul\":29065:29074   */\n      dup2\n        /* \"#utility.yul\":29039:29075   */\n      tag_77\n      jump\t// in\n    tag_580:\n        /* \"#utility.yul\":29091:29162   */\n      tag_581\n        /* \"#utility.yul\":29155:29161   */\n      dup2\n        /* \"#utility.yul\":29150:29153   */\n      dup7\n        /* \"#utility.yul\":29091:29162   */\n      tag_237\n      jump\t// in\n    tag_581:\n        /* \"#utility.yul\":29084:29162   */\n      swap5\n      pop\n        /* \"#utility.yul\":29193:29194   */\n      0x01\n        /* \"#utility.yul\":29182:29191   */\n      dup3\n        /* \"#utility.yul\":29178:29195   */\n      and\n        /* \"#utility.yul\":29209:29210   */\n      0x00\n        /* \"#utility.yul\":29204:29368   */\n      dup2\n      eq\n      tag_583\n      jumpi\n        /* \"#utility.yul\":29382:29383   */\n      0x01\n        /* \"#utility.yul\":29377:29713   */\n      dup2\n      eq\n      tag_584\n      jumpi\n        /* \"#utility.yul\":29171:29713   */\n      jump(tag_582)\n        /* \"#utility.yul\":29204:29368   */\n    tag_583:\n        /* \"#utility.yul\":29288:29292   */\n      0xff\n        /* \"#utility.yul\":29284:29293   */\n      not\n        /* \"#utility.yul\":29273:29282   */\n      dup4\n        /* \"#utility.yul\":29269:29294   */\n      and\n        /* \"#utility.yul\":29264:29267   */\n      dup7\n        /* \"#utility.yul\":29257:29295   */\n      mstore\n        /* \"#utility.yul\":29348:29354   */\n      dup2\n        /* \"#utility.yul\":29341:29355   */\n      iszero\n        /* \"#utility.yul\":29334:29356   */\n      iszero\n        /* \"#utility.yul\":29328:29332   */\n      0x20\n        /* \"#utility.yul\":29324:29357   */\n      mul\n        /* \"#utility.yul\":29319:29322   */\n      dup7\n        /* \"#utility.yul\":29315:29358   */\n      add\n        /* \"#utility.yul\":29308:29358   */\n      swap4\n      pop\n        /* \"#utility.yul\":29204:29368   */\n      jump(tag_582)\n        /* \"#utility.yul\":29377:29713   */\n    tag_584:\n        /* \"#utility.yul\":29444:29482   */\n      tag_585\n        /* \"#utility.yul\":29476:29481   */\n      dup6\n        /* \"#utility.yul\":29444:29482   */\n      tag_277\n      jump\t// in\n    tag_585:\n        /* \"#utility.yul\":29504:29505   */\n      0x00\n        /* \"#utility.yul\":29518:29672   */\n    tag_586:\n        /* \"#utility.yul\":29532:29538   */\n      dup4\n        /* \"#utility.yul\":29529:29530   */\n      dup2\n        /* \"#utility.yul\":29526:29539   */\n      lt\n        /* \"#utility.yul\":29518:29672   */\n      iszero\n      tag_588\n      jumpi\n        /* \"#utility.yul\":29606:29613   */\n      dup2\n        /* \"#utility.yul\":29600:29614   */\n      sload\n        /* \"#utility.yul\":29596:29597   */\n      dup2\n        /* \"#utility.yul\":29591:29594   */\n      dup10\n        /* \"#utility.yul\":29587:29598   */\n      add\n        /* \"#utility.yul\":29580:29615   */\n      mstore\n        /* \"#utility.yul\":29656:29657   */\n      0x01\n        /* \"#utility.yul\":29647:29654   */\n      dup3\n        /* \"#utility.yul\":29643:29658   */\n      add\n        /* \"#utility.yul\":29632:29658   */\n      swap2\n      pop\n        /* \"#utility.yul\":29554:29558   */\n      0x20\n        /* \"#utility.yul\":29551:29552   */\n      dup2\n        /* \"#utility.yul\":29547:29559   */\n      add\n        /* \"#utility.yul\":29542:29559   */\n      swap1\n      pop\n        /* \"#utility.yul\":29518:29672   */\n      jump(tag_586)\n    tag_588:\n        /* \"#utility.yul\":29701:29702   */\n      dup1\n        /* \"#utility.yul\":29696:29699   */\n      dup9\n        /* \"#utility.yul\":29692:29703   */\n      add\n        /* \"#utility.yul\":29685:29703   */\n      swap6\n      pop\n        /* \"#utility.yul\":29384:29713   */\n      pop\n      pop\n        /* \"#utility.yul\":29171:29713   */\n    tag_582:\n      pop\n        /* \"#utility.yul\":28977:29719   */\n      pop\n      pop\n        /* \"#utility.yul\":28888:29719   */\n      swap3\n      swap2\n      pop\n      pop\n      jump\t// out\n        /* \"#utility.yul\":29725:30032   */\n    tag_163:\n        /* \"#utility.yul\":29835:29839   */\n      0x00\n        /* \"#utility.yul\":29873:29875   */\n      0x20\n        /* \"#utility.yul\":29862:29871   */\n      dup3\n        /* \"#utility.yul\":29858:29876   */\n      add\n        /* \"#utility.yul\":29850:29876   */\n      swap1\n      pop\n        /* \"#utility.yul\":29922:29931   */\n      dup2\n        /* \"#utility.yul\":29916:29920   */\n      dup2\n        /* \"#utility.yul\":29912:29932   */\n      sub\n        /* \"#utility.yul\":29908:29909   */\n      0x00\n        /* \"#utility.yul\":29897:29906   */\n      dup4\n        /* \"#utility.yul\":29893:29910   */\n      add\n        /* \"#utility.yul\":29886:29933   */\n      mstore\n        /* \"#utility.yul\":29950:30025   */\n      tag_590\n        /* \"#utility.yul\":30020:30024   */\n      dup2\n        /* \"#utility.yul\":30011:30017   */\n      dup5\n        /* \"#utility.yul\":29950:30025   */\n      tag_298\n      jump\t// in\n    tag_590:\n        /* \"#utility.yul\":29942:30025   */\n      swap1\n      pop\n        /* \"#utility.yul\":29725:30032   */\n      swap3\n      swap2\n      pop\n      pop\n      jump\t// out\n        /* \"#utility.yul\":30038:30206   */\n    tag_299:\n        /* \"#utility.yul\":30178:30198   */\n      0x496e76616c6964206d6573736167652049440000000000000000000000000000\n        /* \"#utility.yul\":30174:30175   */\n      0x00\n        /* \"#utility.yul\":30166:30172   */\n      dup3\n        /* \"#utility.yul\":30162:30176   */\n      add\n        /* \"#utility.yul\":30155:30199   */\n      mstore\n        /* \"#utility.yul\":30038:30206   */\n      pop\n      jump\t// out\n        /* \"#utility.yul\":30212:30578   */\n    tag_300:\n        /* \"#utility.yul\":30354:30357   */\n      0x00\n        /* \"#utility.yul\":30375:30442   */\n      tag_593\n        /* \"#utility.yul\":30439:30441   */\n      0x12\n        /* \"#utility.yul\":30434:30437   */\n      dup4\n        /* \"#utility.yul\":30375:30442   */\n      tag_237\n      jump\t// in\n    tag_593:\n        /* \"#utility.yul\":30368:30442   */\n      swap2\n      pop\n        /* \"#utility.yul\":30451:30544   */\n      tag_594\n        /* \"#utility.yul\":30540:30543   */\n      dup3\n        /* \"#utility.yul\":30451:30544   */\n      tag_299\n      jump\t// in\n    tag_594:\n        /* \"#utility.yul\":30569:30571   */\n      0x20\n        /* \"#utility.yul\":30564:30567   */\n      dup3\n        /* \"#utility.yul\":30560:30572   */\n      add\n        /* \"#utility.yul\":30553:30572   */\n      swap1\n      pop\n        /* \"#utility.yul\":30212:30578   */\n      swap2\n      swap1\n      pop\n      jump\t// out\n        /* \"#utility.yul\":30584:31003   */\n    tag_169:\n        /* \"#utility.yul\":30750:30754   */\n      0x00\n        /* \"#utility.yul\":30788:30790   */\n      0x20\n        /* \"#utility.yul\":30777:30786   */\n      dup3\n        /* \"#utility.yul\":30773:30791   */\n      add\n        /* \"#utility.yul\":30765:30791   */\n      swap1\n      pop\n        /* \"#utility.yul\":30837:30846   */\n      dup2\n        /* \"#utility.yul\":30831:30835   */\n      dup2\n        /* \"#utility.yul\":30827:30847   */\n      sub\n        /* \"#utility.yul\":30823:30824   */\n      0x00\n        /* \"#utility.yul\":30812:30821   */\n      dup4\n        /* \"#utility.yul\":30808:30825   */\n      add\n        /* \"#utility.yul\":30801:30848   */\n      mstore\n        /* \"#utility.yul\":30865:30996   */\n      tag_596\n        /* \"#utility.yul\":30991:30995   */\n      dup2\n        /* \"#utility.yul\":30865:30996   */\n      tag_300\n      jump\t// in\n    tag_596:\n        /* \"#utility.yul\":30857:30996   */\n      swap1\n      pop\n        /* \"#utility.yul\":30584:31003   */\n      swap2\n      swap1\n      pop\n      jump\t// out\n        /* \"#utility.yul\":31009:31183   */\n    tag_301:\n        /* \"#utility.yul\":31149:31175   */\n      0x4d65737361676520686173206265656e2064656c657465640000000000000000\n        /* \"#utility.yul\":31145:31146   */\n      0x00\n        /* \"#utility.yul\":31137:31143   */\n      dup3\n        /* \"#utility.yul\":31133:31147   */\n      add\n        /* \"#utility.yul\":31126:31176   */\n      mstore\n        /* \"#utility.yul\":31009:31183   */\n      pop\n      jump\t// out\n        /* \"#utility.yul\":31189:31555   */\n    tag_302:\n        /* \"#utility.yul\":31331:31334   */\n      0x00\n        /* \"#utility.yul\":31352:31419   */\n      tag_599\n        /* \"#utility.yul\":31416:31418   */\n      0x18\n        /* \"#utility.yul\":31411:31414   */\n      dup4\n        /* \"#utility.yul\":31352:31419   */\n      tag_237\n      jump\t// in\n    tag_599:\n        /* \"#utility.yul\":31345:31419   */\n      swap2\n      pop\n        /* \"#utility.yul\":31428:31521   */\n      tag_600\n        /* \"#utility.yul\":31517:31520   */\n      dup3\n        /* \"#utility.yul\":31428:31521   */\n      tag_301\n      jump\t// in\n    tag_600:\n        /* \"#utility.yul\":31546:31548   */\n      0x20\n        /* \"#utility.yul\":31541:31544   */\n      dup3\n        /* \"#utility.yul\":31537:31549   */\n      add\n        /* \"#utility.yul\":31530:31549   */\n      swap1\n      pop\n        /* \"#utility.yul\":31189:31555   */\n      swap2\n      swap1\n      pop\n      jump\t// out\n        /* \"#utility.yul\":31561:31980   */\n    tag_172:\n        /* \"#utility.yul\":31727:31731   */\n      0x00\n        /* \"#utility.yul\":31765:31767   */\n      0x20\n        /* \"#utility.yul\":31754:31763   */\n      dup3\n        /* \"#utility.yul\":31750:31768   */\n      add\n        /* \"#utility.yul\":31742:31768   */\n      swap1\n      pop\n        /* \"#utility.yul\":31814:31823   */\n      dup2\n        /* \"#utility.yul\":31808:31812   */\n      dup2\n        /* \"#utility.yul\":31804:31824   */\n      sub\n        /* \"#utility.yul\":31800:31801   */\n      0x00\n        /* \"#utility.yul\":31789:31798   */\n      dup4\n        /* \"#utility.yul\":31785:31802   */\n      add\n        /* \"#utility.yul\":31778:31825   */\n      mstore\n        /* \"#utility.yul\":31842:31973   */\n      tag_602\n        /* \"#utility.yul\":31968:31972   */\n      dup2\n        /* \"#utility.yul\":31842:31973   */\n      tag_302\n      jump\t// in\n    tag_602:\n        /* \"#utility.yul\":31834:31973   */\n      swap1\n      pop\n        /* \"#utility.yul\":31561:31980   */\n      swap2\n      swap1\n      pop\n      jump\t// out\n        /* \"#utility.yul\":31986:32209   */\n    tag_303:\n        /* \"#utility.yul\":32126:32160   */\n      0x4f6e6c79206d65737361676520617574686f722063616e207265717565737420\n        /* \"#utility.yul\":32122:32123   */\n      0x00\n        /* \"#utility.yul\":32114:32120   */\n      dup3\n        /* \"#utility.yul\":32110:32124   */\n      add\n        /* \"#utility.yul\":32103:32161   */\n      mstore\n        /* \"#utility.yul\":32195:32201   */\n      0x6564697400000000000000000000000000000000000000000000000000000000\n        /* \"#utility.yul\":32190:32192   */\n      0x20\n        /* \"#utility.yul\":32182:32188   */\n      dup3\n        /* \"#utility.yul\":32178:32193   */\n      add\n        /* \"#utility.yul\":32171:32202   */\n      mstore\n        /* \"#utility.yul\":31986:32209   */\n      pop\n      jump\t// out\n        /* \"#utility.yul\":32215:32581   */\n    tag_304:\n        /* \"#utility.yul\":32357:32360   */\n      0x00\n        /* \"#utility.yul\":32378:32445   */\n      tag_605\n        /* \"#utility.yul\":32442:32444   */\n      0x24\n        /* \"#utility.yul\":32437:32440   */\n      dup4\n        /* \"#utility.yul\":32378:32445   */\n      tag_237\n      jump\t// in\n    tag_605:\n        /* \"#utility.yul\":32371:32445   */\n      swap2\n      pop\n        /* \"#utility.yul\":32454:32547   */\n      tag_606\n        /* \"#utility.yul\":32543:32546   */\n      dup3\n        /* \"#utility.yul\":32454:32547   */\n      tag_303\n      jump\t// in\n    tag_606:\n        /* \"#utility.yul\":32572:32574   */\n      0x40\n        /* \"#utility.yul\":32567:32570   */\n      dup3\n        /* \"#utility.yul\":32563:32575   */\n      add\n        /* \"#utility.yul\":32556:32575   */\n      swap1\n      pop\n        /* \"#utility.yul\":32215:32581   */\n      swap2\n      swap1\n      pop\n      jump\t// out\n        /* \"#utility.yul\":32587:33006   */\n    tag_189:\n        /* \"#utility.yul\":32753:32757   */\n      0x00\n        /* \"#utility.yul\":32791:32793   */\n      0x20\n        /* \"#utility.yul\":32780:32789   */\n      dup3\n        /* \"#utility.yul\":32776:32794   */\n      add\n        /* \"#utility.yul\":32768:32794   */\n      swap1\n      pop\n        /* \"#utility.yul\":32840:32849   */\n      dup2\n        /* \"#utility.yul\":32834:32838   */\n      dup2\n        /* \"#utility.yul\":32830:32850   */\n      sub\n        /* \"#utility.yul\":32826:32827   */\n      0x00\n        /* \"#utility.yul\":32815:32824   */\n      dup4\n        /* \"#utility.yul\":32811:32828   */\n      add\n        /* \"#utility.yul\":32804:32851   */\n      mstore\n        /* \"#utility.yul\":32868:32999   */\n      tag_608\n        /* \"#utility.yul\":32994:32998   */\n      dup2\n        /* \"#utility.yul\":32868:32999   */\n      tag_304\n      jump\t// in\n    tag_608:\n        /* \"#utility.yul\":32860:32999   */\n      swap1\n      pop\n        /* \"#utility.yul\":32587:33006   */\n      swap2\n      swap1\n      pop\n      jump\t// out\n        /* \"#utility.yul\":33012:33189   */\n    tag_305:\n        /* \"#utility.yul\":33152:33181   */\n      0x4e657720636f6e74656e742063616e6e6f7420626520656d7074790000000000\n        /* \"#utility.yul\":33148:33149   */\n      0x00\n        /* \"#utility.yul\":33140:33146   */\n      dup3\n        /* \"#utility.yul\":33136:33150   */\n      add\n        /* \"#utility.yul\":33129:33182   */\n      mstore\n        /* \"#utility.yul\":33012:33189   */\n      pop\n      jump\t// out\n        /* \"#utility.yul\":33195:33561   */\n    tag_306:\n        /* \"#utility.yul\":33337:33340   */\n      0x00\n        /* \"#utility.yul\":33358:33425   */\n      tag_611\n        /* \"#utility.yul\":33422:33424   */\n      0x1b\n        /* \"#utility.yul\":33417:33420   */\n      dup4\n        /* \"#utility.yul\":33358:33425   */\n      tag_237\n      jump\t// in\n    tag_611:\n        /* \"#utility.yul\":33351:33425   */\n      swap2\n      pop\n        /* \"#utility.yul\":33434:33527   */\n      tag_612\n        /* \"#utility.yul\":33523:33526   */\n      dup3\n        /* \"#utility.yul\":33434:33527   */\n      tag_305\n      jump\t// in\n    tag_612:\n        /* \"#utility.yul\":33552:33554   */\n      0x20\n        /* \"#utility.yul\":33547:33550   */\n      dup3\n        /* \"#utility.yul\":33543:33555   */\n      add\n        /* \"#utility.yul\":33536:33555   */\n      swap1\n      pop\n        /* \"#utility.yul\":33195:33561   */\n      swap2\n      swap1\n      pop\n      jump\t// out\n        /* \"#utility.yul\":33567:33986   */\n    tag_192:\n        /* \"#utility.yul\":33733:33737   */\n      0x00\n        /* \"#utility.yul\":33771:33773   */\n      0x20\n        /* \"#utility.yul\":33760:33769   */\n      dup3\n        /* \"#utility.yul\":33756:33774   */\n      add\n        /* \"#utility.yul\":33748:33774   */\n      swap1\n      pop\n        /* \"#utility.yul\":33820:33829   */\n      dup2\n        /* \"#utility.yul\":33814:33818   */\n      dup2\n        /* \"#utility.yul\":33810:33830   */\n      sub\n        /* \"#utility.yul\":33806:33807   */\n      0x00\n        /* \"#utility.yul\":33795:33804   */\n      dup4\n        /* \"#utility.yul\":33791:33808   */\n      add\n        /* \"#utility.yul\":33784:33831   */\n      mstore\n        /* \"#utility.yul\":33848:33979   */\n      tag_614\n        /* \"#utility.yul\":33974:33978   */\n      dup2\n        /* \"#utility.yul\":33848:33979   */\n      tag_306\n      jump\t// in\n    tag_614:\n        /* \"#utility.yul\":33840:33979   */\n      swap1\n      pop\n        /* \"#utility.yul\":33567:33986   */\n      swap2\n      swap1\n      pop\n      jump\t// out\n        /* \"#utility.yul\":33992:34165   */\n    tag_307:\n        /* \"#utility.yul\":34132:34157   */\n      0x4d65737361676520616c72656164792064656c65746564000000000000000000\n        /* \"#utility.yul\":34128:34129   */\n      0x00\n        /* \"#utility.yul\":34120:34126   */\n      dup3\n        /* \"#utility.yul\":34116:34130   */\n      add\n        /* \"#utility.yul\":34109:34158   */\n      mstore\n        /* \"#utility.yul\":33992:34165   */\n      pop\n      jump\t// out\n        /* \"#utility.yul\":34171:34537   */\n    tag_308:\n        /* \"#utility.yul\":34313:34316   */\n      0x00\n        /* \"#utility.yul\":34334:34401   */\n      tag_617\n        /* \"#utility.yul\":34398:34400   */\n      0x17\n        /* \"#utility.yul\":34393:34396   */\n      dup4\n        /* \"#utility.yul\":34334:34401   */\n      tag_237\n      jump\t// in\n    tag_617:\n        /* \"#utility.yul\":34327:34401   */\n      swap2\n      pop\n        /* \"#utility.yul\":34410:34503   */\n      tag_618\n        /* \"#utility.yul\":34499:34502   */\n      dup3\n        /* \"#utility.yul\":34410:34503   */\n      tag_307\n      jump\t// in\n    tag_618:\n        /* \"#utility.yul\":34528:34530   */\n      0x20\n        /* \"#utility.yul\":34523:34526   */\n      dup3\n        /* \"#utility.yul\":34519:34531   */\n      add\n        /* \"#utility.yul\":34512:34531   */\n      swap1\n      pop\n        /* \"#utility.yul\":34171:34537   */\n      swap2\n      swap1\n      pop\n      jump\t// out\n        /* \"#utility.yul\":34543:34962   */\n    tag_205:\n        /* \"#utility.yul\":34709:34713   */\n      0x00\n        /* \"#utility.yul\":34747:34749   */\n      0x20\n        /* \"#utility.yul\":34736:34745   */\n      dup3\n        /* \"#utility.yul\":34732:34750   */\n      add\n        /* \"#utility.yul\":34724:34750   */\n      swap1\n      pop\n        /* \"#utility.yul\":34796:34805   */\n      dup2\n        /* \"#utility.yul\":34790:34794   */\n      dup2\n        /* \"#utility.yul\":34786:34806   */\n      sub\n        /* \"#utility.yul\":34782:34783   */\n      0x00\n        /* \"#utility.yul\":34771:34780   */\n      dup4\n        /* \"#utility.yul\":34767:34784   */\n      add\n        /* \"#utility.yul\":34760:34807   */\n      mstore\n        /* \"#utility.yul\":34824:34955   */\n      tag_620\n        /* \"#utility.yul\":34950:34954   */\n      dup2\n        /* \"#utility.yul\":34824:34955   */\n      tag_308\n      jump\t// in\n    tag_620:\n        /* \"#utility.yul\":34816:34955   */\n      swap1\n      pop\n        /* \"#utility.yul\":34543:34962   */\n      swap2\n      swap1\n      pop\n      jump\t// out\n        /* \"#utility.yul\":34968:35149   */\n    tag_309:\n        /* \"#utility.yul\":35108:35141   */\n      0x5265656e7472616e637947756172643a207265656e7472616e742063616c6c00\n        /* \"#utility.yul\":35104:35105   */\n      0x00\n        /* \"#utility.yul\":35096:35102   */\n      dup3\n        /* \"#utility.yul\":35092:35106   */\n      add\n        /* \"#utility.yul\":35085:35142   */\n      mstore\n        /* \"#utility.yul\":34968:35149   */\n      pop\n      jump\t// out\n        /* \"#utility.yul\":35155:35521   */\n    tag_310:\n        /* \"#utility.yul\":35297:35300   */\n      0x00\n        /* \"#utility.yul\":35318:35385   */\n      tag_623\n        /* \"#utility.yul\":35382:35384   */\n      0x1f\n        /* \"#utility.yul\":35377:35380   */\n      dup4\n        /* \"#utility.yul\":35318:35385   */\n      tag_237\n      jump\t// in\n    tag_623:\n        /* \"#utility.yul\":35311:35385   */\n      swap2\n      pop\n        /* \"#utility.yul\":35394:35487   */\n      tag_624\n        /* \"#utility.yul\":35483:35486   */\n      dup3\n        /* \"#utility.yul\":35394:35487   */\n      tag_309\n      jump\t// in\n    tag_624:\n        /* \"#utility.yul\":35512:35514   */\n      0x20\n        /* \"#utility.yul\":35507:35510   */\n      dup3\n        /* \"#utility.yul\":35503:35515   */\n      add\n        /* \"#utility.yul\":35496:35515   */\n      swap1\n      pop\n        /* \"#utility.yul\":35155:35521   */\n      swap2\n      swap1\n      pop\n      jump\t// out\n        /* \"#utility.yul\":35527:35946   */\n    tag_215:\n        /* \"#utility.yul\":35693:35697   */\n      0x00\n        /* \"#utility.yul\":35731:35733   */\n      0x20\n        /* \"#utility.yul\":35720:35729   */\n      dup3\n        /* \"#utility.yul\":35716:35734   */\n      add\n        /* \"#utility.yul\":35708:35734   */\n      swap1\n      pop\n        /* \"#utility.yul\":35780:35789   */\n      dup2\n        /* \"#utility.yul\":35774:35778   */\n      dup2\n        /* \"#utility.yul\":35770:35790   */\n      sub\n        /* \"#utility.yul\":35766:35767   */\n      0x00\n        /* \"#utility.yul\":35755:35764   */\n      dup4\n        /* \"#utility.yul\":35751:35768   */\n      add\n        /* \"#utility.yul\":35744:35791   */\n      mstore\n        /* \"#utility.yul\":35808:35939   */\n      tag_626\n        /* \"#utility.yul\":35934:35938   */\n      dup2\n        /* \"#utility.yul\":35808:35939   */\n      tag_310\n      jump\t// in\n    tag_626:\n        /* \"#utility.yul\":35800:35939   */\n      swap1\n      pop\n        /* \"#utility.yul\":35527:35946   */\n      swap2\n      swap1\n      pop\n      jump\t// out\n\n    auxdata: 0xa26469706673582212204037ff5934068e0c2db23156858201c82a5b0f828843fe3de537feba449355f364736f6c63430008140033\n}\n",
				"bytecode": {
					"linkReferences": {},
					"object": "608060405234801562000010575f80fd5b50335f73ffffffffffffffffffffffffffffffffffffffff168173ffffffffffffffffffffffffffffffffffffffff160362000085575f6040517f1e4fbdf70000000000000000000000000000000000000000000000000000000081526004016200007c9190620001a8565b60405180910390fd5b6200009681620000a460201b60201c565b5060018081905550620001c3565b5f805f9054906101000a900473ffffffffffffffffffffffffffffffffffffffff169050815f806101000a81548173ffffffffffffffffffffffffffffffffffffffff021916908373ffffffffffffffffffffffffffffffffffffffff1602179055508173ffffffffffffffffffffffffffffffffffffffff168173ffffffffffffffffffffffffffffffffffffffff167f8be0079c531659141344cd1fd0a4f28419497f9722a3daafe3b4186f6b6457e060405160405180910390a35050565b5f73ffffffffffffffffffffffffffffffffffffffff82169050919050565b5f620001908262000165565b9050919050565b620001a28162000184565b82525050565b5f602082019050620001bd5f83018462000197565b92915050565b61257780620001d15f395ff3fe608060405234801561000f575f80fd5b50600436106100e8575f3560e01c806377175fac1161008a5780638da5cb5b116100645780638da5cb5b14610251578063a8c69fd81461026f578063b888690a1461028b578063f2fde38b146102a7576100e8565b806377175fac146101d257806383c3cca71461020557806386f79edb14610221576100e8565b806344a56dd9116100c657806344a56dd91461015c57806353f5e3801461017a5780636630f88f14610198578063715018a6146101c8576100e8565b80630d80fefd146100ec5780633bdae52f146101205780633dbcc8d11461013e575b5f80fd5b61010660048036038101906101019190611498565b6102c3565b6040516101179594939291906115b5565b60405180910390f35b6101286103a6565b604051610135919061160d565b60405180910390f35b6101466103ac565b604051610153919061160d565b60405180910390f35b6101646103b2565b60405161017191906117b6565b60405180910390f35b6101826105b2565b60405161018f9190611904565b60405180910390f35b6101b260048036038101906101ad9190611a50565b6107bc565b6040516101bf919061160d565b60405180910390f35b6101d0610966565b005b6101ec60048036038101906101e79190611498565b610979565b6040516101fc9493929190611a97565b60405180910390f35b61021f600480360381019061021a9190611498565b610a56565b005b61023b60048036038101906102369190611498565b610b9e565b6040516102489190611b54565b60405180910390f35b610259610d8c565b6040516102669190611b74565b60405180910390f35b61028960048036038101906102849190611b8d565b610db3565b005b6102a560048036038101906102a09190611498565b611094565b005b6102c160048036038101906102bc9190611c11565b6111a9565b005b6002602052805f5260405f205f91509050805f015490806001015f9054906101000a900473ffffffffffffffffffffffffffffffffffffffff169080600201805461030d90611c69565b80601f016020809104026020016040519081016040528092919081815260200182805461033990611c69565b80156103845780601f1061035b57610100808354040283529160200191610384565b820191905f5260205f20905b81548152906001019060200180831161036757829003601f168201915b505050505090806003015490806004015f9054906101000a900460ff16905085565b60055481565b60045481565b60605f60055467ffffffffffffffff8111156103d1576103d061192c565b5b60405190808252806020026020018201604052801561040a57816020015b6103f76113d4565b8152602001906001900390816103ef5790505b5090505f80600190505b60055481116105a65760035f8281526020019081526020015f206003015f9054906101000a900460ff166105935760035f8281526020019081526020015f206040518060800160405290815f8201548152602001600182015f9054906101000a900473ffffffffffffffffffffffffffffffffffffffff1673ffffffffffffffffffffffffffffffffffffffff1673ffffffffffffffffffffffffffffffffffffffff1681526020016002820180546104cc90611c69565b80601f01602080910402602001604051908101604052809291908181526020018280546104f890611c69565b80156105435780601f1061051a57610100808354040283529160200191610543565b820191905f5260205f20905b81548152906001019060200180831161052657829003601f168201915b50505050508152602001600382015f9054906101000a900460ff16151515158152505083838151811061057957610578611c99565b5b6020026020010181905250818061058f90611cf3565b9250505b808061059e90611cf3565b915050610414565b50808252819250505090565b60605f60045467ffffffffffffffff8111156105d1576105d061192c565b5b60405190808252806020026020018201604052801561060a57816020015b6105f7611411565b8152602001906001900390816105ef5790505b5090505f80600190505b60045481116107b05760025f8281526020019081526020015f206004015f9054906101000a900460ff1661079d5760025f8281526020019081526020015f206040518060a00160405290815f8201548152602001600182015f9054906101000a900473ffffffffffffffffffffffffffffffffffffffff1673ffffffffffffffffffffffffffffffffffffffff1673ffffffffffffffffffffffffffffffffffffffff1681526020016002820180546106cc90611c69565b80601f01602080910402602001604051908101604052809291908181526020018280546106f890611c69565b80156107435780601f1061071a57610100808354040283529160200191610743565b820191905f5260205f20905b81548152906001019060200180831161072657829003601f168201915b5050505050815260200160038201548152602001600482015f9054906101000a900460ff16151515158152505083838151811061078357610782611c99565b5b6020026020010181905250818061079990611cf3565b9250505b80806107a890611cf3565b915050610614565b50808252819250505090565b5f6107c561122d565b5f825111610808576040517f08c379a00000000000000000000000000000000000000000000000000000000081526004016107ff90611d84565b60405180910390fd5b60045f81548092919061081a90611cf3565b91905055506040518060a0016040528060045481526020013373ffffffffffffffffffffffffffffffffffffffff1681526020018381526020014281526020015f151581525060025f60045481526020019081526020015f205f820151815f01556020820151816001015f6101000a81548173ffffffffffffffffffffffffffffffffffffffff021916908373ffffffffffffffffffffffffffffffffffffffff16021790555060408201518160020190816108d69190611f3f565b50606082015181600301556080820151816004015f6101000a81548160ff0219169083151502179055509050503373ffffffffffffffffffffffffffffffffffffffff166004547f16effde6b8c5f78279aca5974057ff6b6fd8c9ab5e96994c7f1b62cbfcbbd78b8460405161094c919061200e565b60405180910390a3600454905061096161127c565b919050565b61096e611285565b6109775f61130c565b565b6003602052805f5260405f205f91509050805f015490806001015f9054906101000a900473ffffffffffffffffffffffffffffffffffffffff16908060020180546109c390611c69565b80601f01602080910402602001604051908101604052809291908181526020018280546109ef90611c69565b8015610a3a5780601f10610a1157610100808354040283529160200191610a3a565b820191905f5260205f20905b815481529060010190602001808311610a1d57829003601f168201915b505050505090806003015f9054906101000a900460ff16905084565b610a5e611285565b5f81118015610a6f57506005548111155b610aae576040517f08c379a0000000000000000000000000000000000000000000000000000000008152600401610aa590612078565b60405180910390fd5b5f60035f8381526020019081526020015f209050806003015f9054906101000a900460ff1615610b13576040517f08c379a0000000000000000000000000000000000000000000000000000000008152600401610b0a906120e0565b60405180910390fd5b5f60025f835f015481526020019081526020015f20905081600201816002019081610b3e9190612125565b506001826003015f6101000a81548160ff021916908315150217905550815f01547fc044182a0ac1fcdfa543f1c6ff27940f1a5b4221b8232e11b492d48953bc9c4383600201604051610b91919061228b565b60405180910390a2505050565b610ba6611411565b5f82118015610bb757506004548211155b610bf6576040517f08c379a0000000000000000000000000000000000000000000000000000000008152600401610bed906122f5565b60405180910390fd5b60025f8381526020019081526020015f206004015f9054906101000a900460ff1615610c57576040517f08c379a0000000000000000000000000000000000000000000000000000000008152600401610c4e9061235d565b60405180910390fd5b60025f8381526020019081526020015f206040518060a00160405290815f8201548152602001600182015f9054906101000a900473ffffffffffffffffffffffffffffffffffffffff1673ffffffffffffffffffffffffffffffffffffffff1673ffffffffffffffffffffffffffffffffffffffff168152602001600282018054610ce190611c69565b80601f0160208091040260200160405190810160405280929190818152602001828054610d0d90611c69565b8015610d585780601f10610d2f57610100808354040283529160200191610d58565b820191905f5260205f20905b815481529060010190602001808311610d3b57829003601f168201915b5050505050815260200160038201548152602001600482015f9054906101000a900460ff1615151515815250509050919050565b5f805f9054906101000a900473ffffffffffffffffffffffffffffffffffffffff16905090565b610dbb61122d565b5f82118015610dcc57506004548211155b610e0b576040517f08c379a0000000000000000000000000000000000000000000000000000000008152600401610e02906122f5565b60405180910390fd5b60025f8381526020019081526020015f206004015f9054906101000a900460ff1615610e6c576040517f08c379a0000000000000000000000000000000000000000000000000000000008152600401610e639061235d565b60405180910390fd5b3373ffffffffffffffffffffffffffffffffffffffff1660025f8481526020019081526020015f206001015f9054906101000a900473ffffffffffffffffffffffffffffffffffffffff1673ffffffffffffffffffffffffffffffffffffffff1614610f0d576040517f08c379a0000000000000000000000000000000000000000000000000000000008152600401610f04906123eb565b60405180910390fd5b5f815111610f50576040517f08c379a0000000000000000000000000000000000000000000000000000000008152600401610f4790612453565b60405180910390fd5b60055f815480929190610f6290611cf3565b919050555060405180608001604052808381526020013373ffffffffffffffffffffffffffffffffffffffff1681526020018281526020015f151581525060035f60055481526020019081526020015f205f820151815f01556020820151816001015f6101000a81548173ffffffffffffffffffffffffffffffffffffffff021916908373ffffffffffffffffffffffffffffffffffffffff16021790555060408201518160020190816110169190611f3f565b506060820151816003015f6101000a81548160ff0219169083151502179055509050503373ffffffffffffffffffffffffffffffffffffffff16827f65a5dfdcca99d0a97bd4a95e21c4af5e64327ba9493215cccbfd0b87ca2ba36283604051611080919061200e565b60405180910390a361109061127c565b5050565b61109c611285565b5f811180156110ad57506004548111155b6110ec576040517f08c379a00000000000000000000000000000000000000000000000000000000081526004016110e3906122f5565b60405180910390fd5b60025f8281526020019081526020015f206004015f9054906101000a900460ff161561114d576040517f08c379a0000000000000000000000000000000000000000000000000000000008152600401611144906124bb565b60405180910390fd5b600160025f8381526020019081526020015f206004015f6101000a81548160ff021916908315150217905550807f6279be045e4d4d5a0eba7b1f0e578322b6dd7c01e92f0991700a02180904654b60405160405180910390a250565b6111b1611285565b5f73ffffffffffffffffffffffffffffffffffffffff168173ffffffffffffffffffffffffffffffffffffffff1603611221575f6040517f1e4fbdf70000000000000000000000000000000000000000000000000000000081526004016112189190611b74565b60405180910390fd5b61122a8161130c565b50565b600260015403611272576040517f08c379a000000000000000000000000000000000000000000000000000000000815260040161126990612523565b60405180910390fd5b6002600181905550565b60018081905550565b61128d6113cd565b73ffffffffffffffffffffffffffffffffffffffff166112ab610d8c565b73ffffffffffffffffffffffffffffffffffffffff161461130a576112ce6113cd565b6040517f118cdaa70000000000000000000000000000000000000000000000000000000081526004016113019190611b74565b60405180910390fd5b565b5f805f9054906101000a900473ffffffffffffffffffffffffffffffffffffffff169050815f806101000a81548173ffffffffffffffffffffffffffffffffffffffff021916908373ffffffffffffffffffffffffffffffffffffffff1602179055508173ffffffffffffffffffffffffffffffffffffffff168173ffffffffffffffffffffffffffffffffffffffff167f8be0079c531659141344cd1fd0a4f28419497f9722a3daafe3b4186f6b6457e060405160405180910390a35050565b5f33905090565b60405180608001604052805f81526020015f73ffffffffffffffffffffffffffffffffffffffff168152602001606081526020015f151581525090565b6040518060a001604052805f81526020015f73ffffffffffffffffffffffffffffffffffffffff168152602001606081526020015f81526020015f151581525090565b5f604051905090565b5f80fd5b5f80fd5b5f819050919050565b61147781611465565b8114611481575f80fd5b50565b5f813590506114928161146e565b92915050565b5f602082840312156114ad576114ac61145d565b5b5f6114ba84828501611484565b91505092915050565b6114cc81611465565b82525050565b5f73ffffffffffffffffffffffffffffffffffffffff82169050919050565b5f6114fb826114d2565b9050919050565b61150b816114f1565b82525050565b5f81519050919050565b5f82825260208201905092915050565b5f5b8381101561154857808201518184015260208101905061152d565b5f8484015250505050565b5f601f19601f8301169050919050565b5f61156d82611511565b611577818561151b565b935061158781856020860161152b565b61159081611553565b840191505092915050565b5f8115159050919050565b6115af8161159b565b82525050565b5f60a0820190506115c85f8301886114c3565b6115d56020830187611502565b81810360408301526115e78186611563565b90506115f660608301856114c3565b61160360808301846115a6565b9695505050505050565b5f6020820190506116205f8301846114c3565b92915050565b5f81519050919050565b5f82825260208201905092915050565b5f819050602082019050919050565b61165881611465565b82525050565b611667816114f1565b82525050565b5f82825260208201905092915050565b5f61168782611511565b611691818561166d565b93506116a181856020860161152b565b6116aa81611553565b840191505092915050565b6116be8161159b565b82525050565b5f608083015f8301516116d95f86018261164f565b5060208301516116ec602086018261165e565b5060408301518482036040860152611704828261167d565b915050606083015161171960608601826116b5565b508091505092915050565b5f61172f83836116c4565b905092915050565b5f602082019050919050565b5f61174d82611626565b6117578185611630565b93508360208202850161176985611640565b805f5b858110156117a457848403895281516117858582611724565b945061179083611737565b925060208a0199505060018101905061176c565b50829750879550505050505092915050565b5f6020820190508181035f8301526117ce8184611743565b905092915050565b5f81519050919050565b5f82825260208201905092915050565b5f819050602082019050919050565b5f60a083015f8301516118145f86018261164f565b506020830151611827602086018261165e565b506040830151848203604086015261183f828261167d565b9150506060830151611854606086018261164f565b50608083015161186760808601826116b5565b508091505092915050565b5f61187d83836117ff565b905092915050565b5f602082019050919050565b5f61189b826117d6565b6118a581856117e0565b9350836020820285016118b7856117f0565b805f5b858110156118f257848403895281516118d38582611872565b94506118de83611885565b925060208a019950506001810190506118ba565b50829750879550505050505092915050565b5f6020820190508181035f83015261191c8184611891565b905092915050565b5f80fd5b5f80fd5b7f4e487b71000000000000000000000000000000000000000000000000000000005f52604160045260245ffd5b61196282611553565b810181811067ffffffffffffffff821117156119815761198061192c565b5b80604052505050565b5f611993611454565b905061199f8282611959565b919050565b5f67ffffffffffffffff8211156119be576119bd61192c565b5b6119c782611553565b9050602081019050919050565b828183375f83830152505050565b5f6119f46119ef846119a4565b61198a565b905082815260208101848484011115611a1057611a0f611928565b5b611a1b8482856119d4565b509392505050565b5f82601f830112611a3757611a36611924565b5b8135611a478482602086016119e2565b91505092915050565b5f60208284031215611a6557611a6461145d565b5b5f82013567ffffffffffffffff811115611a8257611a81611461565b5b611a8e84828501611a23565b91505092915050565b5f608082019050611aaa5f8301876114c3565b611ab76020830186611502565b8181036040830152611ac98185611563565b9050611ad860608301846115a6565b95945050505050565b5f60a083015f830151611af65f86018261164f565b506020830151611b09602086018261165e565b5060408301518482036040860152611b21828261167d565b9150506060830151611b36606086018261164f565b506080830151611b4960808601826116b5565b508091505092915050565b5f6020820190508181035f830152611b6c8184611ae1565b905092915050565b5f602082019050611b875f830184611502565b92915050565b5f8060408385031215611ba357611ba261145d565b5b5f611bb085828601611484565b925050602083013567ffffffffffffffff811115611bd157611bd0611461565b5b611bdd85828601611a23565b9150509250929050565b611bf0816114f1565b8114611bfa575f80fd5b50565b5f81359050611c0b81611be7565b92915050565b5f60208284031215611c2657611c2561145d565b5b5f611c3384828501611bfd565b91505092915050565b7f4e487b71000000000000000000000000000000000000000000000000000000005f52602260045260245ffd5b5f6002820490506001821680611c8057607f821691505b602082108103611c9357611c92611c3c565b5b50919050565b7f4e487b71000000000000000000000000000000000000000000000000000000005f52603260045260245ffd5b7f4e487b71000000000000000000000000000000000000000000000000000000005f52601160045260245ffd5b5f611cfd82611465565b91507fffffffffffffffffffffffffffffffffffffffffffffffffffffffffffffffff8203611d2f57611d2e611cc6565b5b600182019050919050565b7f4d6573736167652063616e6e6f7420626520656d7074790000000000000000005f82015250565b5f611d6e60178361151b565b9150611d7982611d3a565b602082019050919050565b5f6020820190508181035f830152611d9b81611d62565b9050919050565b5f819050815f5260205f209050919050565b5f6020601f8301049050919050565b5f82821b905092915050565b5f60088302611dfe7fffffffffffffffffffffffffffffffffffffffffffffffffffffffffffffffff82611dc3565b611e088683611dc3565b95508019841693508086168417925050509392505050565b5f819050919050565b5f611e43611e3e611e3984611465565b611e20565b611465565b9050919050565b5f819050919050565b611e5c83611e29565b611e70611e6882611e4a565b848454611dcf565b825550505050565b5f90565b611e84611e78565b611e8f818484611e53565b505050565b5b81811015611eb257611ea75f82611e7c565b600181019050611e95565b5050565b601f821115611ef757611ec881611da2565b611ed184611db4565b81016020851015611ee0578190505b611ef4611eec85611db4565b830182611e94565b50505b505050565b5f82821c905092915050565b5f611f175f1984600802611efc565b1980831691505092915050565b5f611f2f8383611f08565b9150826002028217905092915050565b611f4882611511565b67ffffffffffffffff811115611f6157611f6061192c565b5b611f6b8254611c69565b611f76828285611eb6565b5f60209050601f831160018114611fa7575f8415611f95578287015190505b611f9f8582611f24565b865550612006565b601f198416611fb586611da2565b5f5b82811015611fdc57848901518255600182019150602085019450602081019050611fb7565b86831015611ff95784890151611ff5601f891682611f08565b8355505b6001600288020188555050505b505050505050565b5f6020820190508181035f8301526120268184611563565b905092915050565b7f496e76616c6964206564697420726571756573742049440000000000000000005f82015250565b5f61206260178361151b565b915061206d8261202e565b602082019050919050565b5f6020820190508181035f83015261208f81612056565b9050919050565b7f45646974207265717565737420616c726561647920617070726f7665640000005f82015250565b5f6120ca601d8361151b565b91506120d582612096565b602082019050919050565b5f6020820190508181035f8301526120f7816120be565b9050919050565b5f8154905061210c81611c69565b9050919050565b5f819050815f5260205f209050919050565b818103612133575050612208565b61213c826120fe565b67ffffffffffffffff8111156121555761215461192c565b5b61215f8254611c69565b61216a828285611eb6565b5f601f831160018114612197575f8415612185578287015490505b61218f8582611f24565b865550612201565b601f1984166121a587612113565b96506121b086611da2565b5f5b828110156121d7578489015482556001820191506001850194506020810190506121b2565b868310156121f457848901546121f0601f891682611f08565b8355505b6001600288020188555050505b5050505050505b565b5f815461221681611c69565b612220818661151b565b9450600182165f811461223a576001811461225057612282565b60ff198316865281151560200286019350612282565b61225985611da2565b5f5b8381101561227a5781548189015260018201915060208101905061225b565b808801955050505b50505092915050565b5f6020820190508181035f8301526122a3818461220a565b905092915050565b7f496e76616c6964206d65737361676520494400000000000000000000000000005f82015250565b5f6122df60128361151b565b91506122ea826122ab565b602082019050919050565b5f6020820190508181035f83015261230c816122d3565b9050919050565b7f4d65737361676520686173206265656e2064656c6574656400000000000000005f82015250565b5f61234760188361151b565b915061235282612313565b602082019050919050565b5f6020820190508181035f8301526123748161233b565b9050919050565b7f4f6e6c79206d65737361676520617574686f722063616e2072657175657374205f8201527f6564697400000000000000000000000000000000000000000000000000000000602082015250565b5f6123d560248361151b565b91506123e08261237b565b604082019050919050565b5f6020820190508181035f830152612402816123c9565b9050919050565b7f4e657720636f6e74656e742063616e6e6f7420626520656d70747900000000005f82015250565b5f61243d601b8361151b565b915061244882612409565b602082019050919050565b5f6020820190508181035f83015261246a81612431565b9050919050565b7f4d65737361676520616c72656164792064656c657465640000000000000000005f82015250565b5f6124a560178361151b565b91506124b082612471565b602082019050919050565b5f6020820190508181035f8301526124d281612499565b9050919050565b7f5265656e7472616e637947756172643a207265656e7472616e742063616c6c005f82015250565b5f61250d601f8361151b565b9150612518826124d9565b602082019050919050565b5f6020820190508181035f83015261253a81612501565b905091905056fea26469706673582212204037ff5934068e0c2db23156858201c82a5b0f828843fe3de537feba449355f364736f6c63430008140033",
					"opcodes": "PUSH1 0x80 PUSH1 0x40 MSTORE CALLVALUE DUP1 ISZERO PUSH3 0x10 JUMPI PUSH0 DUP1 REVERT JUMPDEST POP CALLER PUSH0 PUSH20 0xFFFFFFFFFFFFFFFFFFFFFFFFFFFFFFFFFFFFFFFF AND DUP2 PUSH20 0xFFFFFFFFFFFFFFFFFFFFFFFFFFFFFFFFFFFFFFFF AND SUB PUSH3 0x85 JUMPI PUSH0 PUSH1 0x40 MLOAD PUSH32 0x1E4FBDF700000000000000000000000000000000000000000000000000000000 DUP2 MSTORE PUSH1 0x4 ADD PUSH3 0x7C SWAP2 SWAP1 PUSH3 0x1A8 JUMP JUMPDEST PUSH1 0x40 MLOAD DUP1 SWAP2 SUB SWAP1 REVERT JUMPDEST PUSH3 0x96 DUP2 PUSH3 0xA4 PUSH1 0x20 SHL PUSH1 0x20 SHR JUMP JUMPDEST POP PUSH1 0x1 DUP1 DUP2 SWAP1 SSTORE POP PUSH3 0x1C3 JUMP JUMPDEST PUSH0 DUP1 PUSH0 SWAP1 SLOAD SWAP1 PUSH2 0x100 EXP SWAP1 DIV PUSH20 0xFFFFFFFFFFFFFFFFFFFFFFFFFFFFFFFFFFFFFFFF AND SWAP1 POP DUP2 PUSH0 DUP1 PUSH2 0x100 EXP DUP2 SLOAD DUP2 PUSH20 0xFFFFFFFFFFFFFFFFFFFFFFFFFFFFFFFFFFFFFFFF MUL NOT AND SWAP1 DUP4 PUSH20 0xFFFFFFFFFFFFFFFFFFFFFFFFFFFFFFFFFFFFFFFF AND MUL OR SWAP1 SSTORE POP DUP2 PUSH20 0xFFFFFFFFFFFFFFFFFFFFFFFFFFFFFFFFFFFFFFFF AND DUP2 PUSH20 0xFFFFFFFFFFFFFFFFFFFFFFFFFFFFFFFFFFFFFFFF AND PUSH32 0x8BE0079C531659141344CD1FD0A4F28419497F9722A3DAAFE3B4186F6B6457E0 PUSH1 0x40 MLOAD PUSH1 0x40 MLOAD DUP1 SWAP2 SUB SWAP1 LOG3 POP POP JUMP JUMPDEST PUSH0 PUSH20 0xFFFFFFFFFFFFFFFFFFFFFFFFFFFFFFFFFFFFFFFF DUP3 AND SWAP1 POP SWAP2 SWAP1 POP JUMP JUMPDEST PUSH0 PUSH3 0x190 DUP3 PUSH3 0x165 JUMP JUMPDEST SWAP1 POP SWAP2 SWAP1 POP JUMP JUMPDEST PUSH3 0x1A2 DUP2 PUSH3 0x184 JUMP JUMPDEST DUP3 MSTORE POP POP JUMP JUMPDEST PUSH0 PUSH1 0x20 DUP3 ADD SWAP1 POP PUSH3 0x1BD PUSH0 DUP4 ADD DUP5 PUSH3 0x197 JUMP JUMPDEST SWAP3 SWAP2 POP POP JUMP JUMPDEST PUSH2 0x2577 DUP1 PUSH3 0x1D1 PUSH0 CODECOPY PUSH0 RETURN INVALID PUSH1 0x80 PUSH1 0x40 MSTORE CALLVALUE DUP1 ISZERO PUSH2 0xF JUMPI PUSH0 DUP1 REVERT JUMPDEST POP PUSH1 0x4 CALLDATASIZE LT PUSH2 0xE8 JUMPI PUSH0 CALLDATALOAD PUSH1 0xE0 SHR DUP1 PUSH4 0x77175FAC GT PUSH2 0x8A JUMPI DUP1 PUSH4 0x8DA5CB5B GT PUSH2 0x64 JUMPI DUP1 PUSH4 0x8DA5CB5B EQ PUSH2 0x251 JUMPI DUP1 PUSH4 0xA8C69FD8 EQ PUSH2 0x26F JUMPI DUP1 PUSH4 0xB888690A EQ PUSH2 0x28B JUMPI DUP1 PUSH4 0xF2FDE38B EQ PUSH2 0x2A7 JUMPI PUSH2 0xE8 JUMP JUMPDEST DUP1 PUSH4 0x77175FAC EQ PUSH2 0x1D2 JUMPI DUP1 PUSH4 0x83C3CCA7 EQ PUSH2 0x205 JUMPI DUP1 PUSH4 0x86F79EDB EQ PUSH2 0x221 JUMPI PUSH2 0xE8 JUMP JUMPDEST DUP1 PUSH4 0x44A56DD9 GT PUSH2 0xC6 JUMPI DUP1 PUSH4 0x44A56DD9 EQ PUSH2 0x15C JUMPI DUP1 PUSH4 0x53F5E380 EQ PUSH2 0x17A JUMPI DUP1 PUSH4 0x6630F88F EQ PUSH2 0x198 JUMPI DUP1 PUSH4 0x715018A6 EQ PUSH2 0x1C8 JUMPI PUSH2 0xE8 JUMP JUMPDEST DUP1 PUSH4 0xD80FEFD EQ PUSH2 0xEC JUMPI DUP1 PUSH4 0x3BDAE52F EQ PUSH2 0x120 JUMPI DUP1 PUSH4 0x3DBCC8D1 EQ PUSH2 0x13E JUMPI JUMPDEST PUSH0 DUP1 REVERT JUMPDEST PUSH2 0x106 PUSH1 0x4 DUP1 CALLDATASIZE SUB DUP2 ADD SWAP1 PUSH2 0x101 SWAP2 SWAP1 PUSH2 0x1498 JUMP JUMPDEST PUSH2 0x2C3 JUMP JUMPDEST PUSH1 0x40 MLOAD PUSH2 0x117 SWAP6 SWAP5 SWAP4 SWAP3 SWAP2 SWAP1 PUSH2 0x15B5 JUMP JUMPDEST PUSH1 0x40 MLOAD DUP1 SWAP2 SUB SWAP1 RETURN JUMPDEST PUSH2 0x128 PUSH2 0x3A6 JUMP JUMPDEST PUSH1 0x40 MLOAD PUSH2 0x135 SWAP2 SWAP1 PUSH2 0x160D JUMP JUMPDEST PUSH1 0x40 MLOAD DUP1 SWAP2 SUB SWAP1 RETURN JUMPDEST PUSH2 0x146 PUSH2 0x3AC JUMP JUMPDEST PUSH1 0x40 MLOAD PUSH2 0x153 SWAP2 SWAP1 PUSH2 0x160D JUMP JUMPDEST PUSH1 0x40 MLOAD DUP1 SWAP2 SUB SWAP1 RETURN JUMPDEST PUSH2 0x164 PUSH2 0x3B2 JUMP JUMPDEST PUSH1 0x40 MLOAD PUSH2 0x171 SWAP2 SWAP1 PUSH2 0x17B6 JUMP JUMPDEST PUSH1 0x40 MLOAD DUP1 SWAP2 SUB SWAP1 RETURN JUMPDEST PUSH2 0x182 PUSH2 0x5B2 JUMP JUMPDEST PUSH1 0x40 MLOAD PUSH2 0x18F SWAP2 SWAP1 PUSH2 0x1904 JUMP JUMPDEST PUSH1 0x40 MLOAD DUP1 SWAP2 SUB SWAP1 RETURN JUMPDEST PUSH2 0x1B2 PUSH1 0x4 DUP1 CALLDATASIZE SUB DUP2 ADD SWAP1 PUSH2 0x1AD SWAP2 SWAP1 PUSH2 0x1A50 JUMP JUMPDEST PUSH2 0x7BC JUMP JUMPDEST PUSH1 0x40 MLOAD PUSH2 0x1BF SWAP2 SWAP1 PUSH2 0x160D JUMP JUMPDEST PUSH1 0x40 MLOAD DUP1 SWAP2 SUB SWAP1 RETURN JUMPDEST PUSH2 0x1D0 PUSH2 0x966 JUMP JUMPDEST STOP JUMPDEST PUSH2 0x1EC PUSH1 0x4 DUP1 CALLDATASIZE SUB DUP2 ADD SWAP1 PUSH2 0x1E7 SWAP2 SWAP1 PUSH2 0x1498 JUMP JUMPDEST PUSH2 0x979 JUMP JUMPDEST PUSH1 0x40 MLOAD PUSH2 0x1FC SWAP5 SWAP4 SWAP3 SWAP2 SWAP1 PUSH2 0x1A97 JUMP JUMPDEST PUSH1 0x40 MLOAD DUP1 SWAP2 SUB SWAP1 RETURN JUMPDEST PUSH2 0x21F PUSH1 0x4 DUP1 CALLDATASIZE SUB DUP2 ADD SWAP1 PUSH2 0x21A SWAP2 SWAP1 PUSH2 0x1498 JUMP JUMPDEST PUSH2 0xA56 JUMP JUMPDEST STOP JUMPDEST PUSH2 0x23B PUSH1 0x4 DUP1 CALLDATASIZE SUB DUP2 ADD SWAP1 PUSH2 0x236 SWAP2 SWAP1 PUSH2 0x1498 JUMP JUMPDEST PUSH2 0xB9E JUMP JUMPDEST PUSH1 0x40 MLOAD PUSH2 0x248 SWAP2 SWAP1 PUSH2 0x1B54 JUMP JUMPDEST PUSH1 0x40 MLOAD DUP1 SWAP2 SUB SWAP1 RETURN JUMPDEST PUSH2 0x259 PUSH2 0xD8C JUMP JUMPDEST PUSH1 0x40 MLOAD PUSH2 0x266 SWAP2 SWAP1 PUSH2 0x1B74 JUMP JUMPDEST PUSH1 0x40 MLOAD DUP1 SWAP2 SUB SWAP1 RETURN JUMPDEST PUSH2 0x289 PUSH1 0x4 DUP1 CALLDATASIZE SUB DUP2 ADD SWAP1 PUSH2 0x284 SWAP2 SWAP1 PUSH2 0x1B8D JUMP JUMPDEST PUSH2 0xDB3 JUMP JUMPDEST STOP JUMPDEST PUSH2 0x2A5 PUSH1 0x4 DUP1 CALLDATASIZE SUB DUP2 ADD SWAP1 PUSH2 0x2A0 SWAP2 SWAP1 PUSH2 0x1498 JUMP JUMPDEST PUSH2 0x1094 JUMP JUMPDEST STOP JUMPDEST PUSH2 0x2C1 PUSH1 0x4 DUP1 CALLDATASIZE SUB DUP2 ADD SWAP1 PUSH2 0x2BC SWAP2 SWAP1 PUSH2 0x1C11 JUMP JUMPDEST PUSH2 0x11A9 JUMP JUMPDEST STOP JUMPDEST PUSH1 0x2 PUSH1 0x20 MSTORE DUP1 PUSH0 MSTORE PUSH1 0x40 PUSH0 KECCAK256 PUSH0 SWAP2 POP SWAP1 POP DUP1 PUSH0 ADD SLOAD SWAP1 DUP1 PUSH1 0x1 ADD PUSH0 SWAP1 SLOAD SWAP1 PUSH2 0x100 EXP SWAP1 DIV PUSH20 0xFFFFFFFFFFFFFFFFFFFFFFFFFFFFFFFFFFFFFFFF AND SWAP1 DUP1 PUSH1 0x2 ADD DUP1 SLOAD PUSH2 0x30D SWAP1 PUSH2 0x1C69 JUMP JUMPDEST DUP1 PUSH1 0x1F ADD PUSH1 0x20 DUP1 SWAP2 DIV MUL PUSH1 0x20 ADD PUSH1 0x40 MLOAD SWAP1 DUP2 ADD PUSH1 0x40 MSTORE DUP1 SWAP3 SWAP2 SWAP1 DUP2 DUP2 MSTORE PUSH1 0x20 ADD DUP3 DUP1 SLOAD PUSH2 0x339 SWAP1 PUSH2 0x1C69 JUMP JUMPDEST DUP1 ISZERO PUSH2 0x384 JUMPI DUP1 PUSH1 0x1F LT PUSH2 0x35B JUMPI PUSH2 0x100 DUP1 DUP4 SLOAD DIV MUL DUP4 MSTORE SWAP2 PUSH1 0x20 ADD SWAP2 PUSH2 0x384 JUMP JUMPDEST DUP3 ADD SWAP2 SWAP1 PUSH0 MSTORE PUSH1 0x20 PUSH0 KECCAK256 SWAP1 JUMPDEST DUP2 SLOAD DUP2 MSTORE SWAP1 PUSH1 0x1 ADD SWAP1 PUSH1 0x20 ADD DUP1 DUP4 GT PUSH2 0x367 JUMPI DUP3 SWAP1 SUB PUSH1 0x1F AND DUP3 ADD SWAP2 JUMPDEST POP POP POP POP POP SWAP1 DUP1 PUSH1 0x3 ADD SLOAD SWAP1 DUP1 PUSH1 0x4 ADD PUSH0 SWAP1 SLOAD SWAP1 PUSH2 0x100 EXP SWAP1 DIV PUSH1 0xFF AND SWAP1 POP DUP6 JUMP JUMPDEST PUSH1 0x5 SLOAD DUP2 JUMP JUMPDEST PUSH1 0x4 SLOAD DUP2 JUMP JUMPDEST PUSH1 0x60 PUSH0 PUSH1 0x5 SLOAD PUSH8 0xFFFFFFFFFFFFFFFF DUP2 GT ISZERO PUSH2 0x3D1 JUMPI PUSH2 0x3D0 PUSH2 0x192C JUMP JUMPDEST JUMPDEST PUSH1 0x40 MLOAD SWAP1 DUP1 DUP3 MSTORE DUP1 PUSH1 0x20 MUL PUSH1 0x20 ADD DUP3 ADD PUSH1 0x40 MSTORE DUP1 ISZERO PUSH2 0x40A JUMPI DUP2 PUSH1 0x20 ADD JUMPDEST PUSH2 0x3F7 PUSH2 0x13D4 JUMP JUMPDEST DUP2 MSTORE PUSH1 0x20 ADD SWAP1 PUSH1 0x1 SWAP1 SUB SWAP1 DUP2 PUSH2 0x3EF JUMPI SWAP1 POP JUMPDEST POP SWAP1 POP PUSH0 DUP1 PUSH1 0x1 SWAP1 POP JUMPDEST PUSH1 0x5 SLOAD DUP2 GT PUSH2 0x5A6 JUMPI PUSH1 0x3 PUSH0 DUP3 DUP2 MSTORE PUSH1 0x20 ADD SWAP1 DUP2 MSTORE PUSH1 0x20 ADD PUSH0 KECCAK256 PUSH1 0x3 ADD PUSH0 SWAP1 SLOAD SWAP1 PUSH2 0x100 EXP SWAP1 DIV PUSH1 0xFF AND PUSH2 0x593 JUMPI PUSH1 0x3 PUSH0 DUP3 DUP2 MSTORE PUSH1 0x20 ADD SWAP1 DUP2 MSTORE PUSH1 0x20 ADD PUSH0 KECCAK256 PUSH1 0x40 MLOAD DUP1 PUSH1 0x80 ADD PUSH1 0x40 MSTORE SWAP1 DUP2 PUSH0 DUP3 ADD SLOAD DUP2 MSTORE PUSH1 0x20 ADD PUSH1 0x1 DUP3 ADD PUSH0 SWAP1 SLOAD SWAP1 PUSH2 0x100 EXP SWAP1 DIV PUSH20 0xFFFFFFFFFFFFFFFFFFFFFFFFFFFFFFFFFFFFFFFF AND PUSH20 0xFFFFFFFFFFFFFFFFFFFFFFFFFFFFFFFFFFFFFFFF AND PUSH20 0xFFFFFFFFFFFFFFFFFFFFFFFFFFFFFFFFFFFFFFFF AND DUP2 MSTORE PUSH1 0x20 ADD PUSH1 0x2 DUP3 ADD DUP1 SLOAD PUSH2 0x4CC SWAP1 PUSH2 0x1C69 JUMP JUMPDEST DUP1 PUSH1 0x1F ADD PUSH1 0x20 DUP1 SWAP2 DIV MUL PUSH1 0x20 ADD PUSH1 0x40 MLOAD SWAP1 DUP2 ADD PUSH1 0x40 MSTORE DUP1 SWAP3 SWAP2 SWAP1 DUP2 DUP2 MSTORE PUSH1 0x20 ADD DUP3 DUP1 SLOAD PUSH2 0x4F8 SWAP1 PUSH2 0x1C69 JUMP JUMPDEST DUP1 ISZERO PUSH2 0x543 JUMPI DUP1 PUSH1 0x1F LT PUSH2 0x51A JUMPI PUSH2 0x100 DUP1 DUP4 SLOAD DIV MUL DUP4 MSTORE SWAP2 PUSH1 0x20 ADD SWAP2 PUSH2 0x543 JUMP JUMPDEST DUP3 ADD SWAP2 SWAP1 PUSH0 MSTORE PUSH1 0x20 PUSH0 KECCAK256 SWAP1 JUMPDEST DUP2 SLOAD DUP2 MSTORE SWAP1 PUSH1 0x1 ADD SWAP1 PUSH1 0x20 ADD DUP1 DUP4 GT PUSH2 0x526 JUMPI DUP3 SWAP1 SUB PUSH1 0x1F AND DUP3 ADD SWAP2 JUMPDEST POP POP POP POP POP DUP2 MSTORE PUSH1 0x20 ADD PUSH1 0x3 DUP3 ADD PUSH0 SWAP1 SLOAD SWAP1 PUSH2 0x100 EXP SWAP1 DIV PUSH1 0xFF AND ISZERO ISZERO ISZERO ISZERO DUP2 MSTORE POP POP DUP4 DUP4 DUP2 MLOAD DUP2 LT PUSH2 0x579 JUMPI PUSH2 0x578 PUSH2 0x1C99 JUMP JUMPDEST JUMPDEST PUSH1 0x20 MUL PUSH1 0x20 ADD ADD DUP2 SWAP1 MSTORE POP DUP2 DUP1 PUSH2 0x58F SWAP1 PUSH2 0x1CF3 JUMP JUMPDEST SWAP3 POP POP JUMPDEST DUP1 DUP1 PUSH2 0x59E SWAP1 PUSH2 0x1CF3 JUMP JUMPDEST SWAP2 POP POP PUSH2 0x414 JUMP JUMPDEST POP DUP1 DUP3 MSTORE DUP2 SWAP3 POP POP POP SWAP1 JUMP JUMPDEST PUSH1 0x60 PUSH0 PUSH1 0x4 SLOAD PUSH8 0xFFFFFFFFFFFFFFFF DUP2 GT ISZERO PUSH2 0x5D1 JUMPI PUSH2 0x5D0 PUSH2 0x192C JUMP JUMPDEST JUMPDEST PUSH1 0x40 MLOAD SWAP1 DUP1 DUP3 MSTORE DUP1 PUSH1 0x20 MUL PUSH1 0x20 ADD DUP3 ADD PUSH1 0x40 MSTORE DUP1 ISZERO PUSH2 0x60A JUMPI DUP2 PUSH1 0x20 ADD JUMPDEST PUSH2 0x5F7 PUSH2 0x1411 JUMP JUMPDEST DUP2 MSTORE PUSH1 0x20 ADD SWAP1 PUSH1 0x1 SWAP1 SUB SWAP1 DUP2 PUSH2 0x5EF JUMPI SWAP1 POP JUMPDEST POP SWAP1 POP PUSH0 DUP1 PUSH1 0x1 SWAP1 POP JUMPDEST PUSH1 0x4 SLOAD DUP2 GT PUSH2 0x7B0 JUMPI PUSH1 0x2 PUSH0 DUP3 DUP2 MSTORE PUSH1 0x20 ADD SWAP1 DUP2 MSTORE PUSH1 0x20 ADD PUSH0 KECCAK256 PUSH1 0x4 ADD PUSH0 SWAP1 SLOAD SWAP1 PUSH2 0x100 EXP SWAP1 DIV PUSH1 0xFF AND PUSH2 0x79D JUMPI PUSH1 0x2 PUSH0 DUP3 DUP2 MSTORE PUSH1 0x20 ADD SWAP1 DUP2 MSTORE PUSH1 0x20 ADD PUSH0 KECCAK256 PUSH1 0x40 MLOAD DUP1 PUSH1 0xA0 ADD PUSH1 0x40 MSTORE SWAP1 DUP2 PUSH0 DUP3 ADD SLOAD DUP2 MSTORE PUSH1 0x20 ADD PUSH1 0x1 DUP3 ADD PUSH0 SWAP1 SLOAD SWAP1 PUSH2 0x100 EXP SWAP1 DIV PUSH20 0xFFFFFFFFFFFFFFFFFFFFFFFFFFFFFFFFFFFFFFFF AND PUSH20 0xFFFFFFFFFFFFFFFFFFFFFFFFFFFFFFFFFFFFFFFF AND PUSH20 0xFFFFFFFFFFFFFFFFFFFFFFFFFFFFFFFFFFFFFFFF AND DUP2 MSTORE PUSH1 0x20 ADD PUSH1 0x2 DUP3 ADD DUP1 SLOAD PUSH2 0x6CC SWAP1 PUSH2 0x1C69 JUMP JUMPDEST DUP1 PUSH1 0x1F ADD PUSH1 0x20 DUP1 SWAP2 DIV MUL PUSH1 0x20 ADD PUSH1 0x40 MLOAD SWAP1 DUP2 ADD PUSH1 0x40 MSTORE DUP1 SWAP3 SWAP2 SWAP1 DUP2 DUP2 MSTORE PUSH1 0x20 ADD DUP3 DUP1 SLOAD PUSH2 0x6F8 SWAP1 PUSH2 0x1C69 JUMP JUMPDEST DUP1 ISZERO PUSH2 0x743 JUMPI DUP1 PUSH1 0x1F LT PUSH2 0x71A JUMPI PUSH2 0x100 DUP1 DUP4 SLOAD DIV MUL DUP4 MSTORE SWAP2 PUSH1 0x20 ADD SWAP2 PUSH2 0x743 JUMP JUMPDEST DUP3 ADD SWAP2 SWAP1 PUSH0 MSTORE PUSH1 0x20 PUSH0 KECCAK256 SWAP1 JUMPDEST DUP2 SLOAD DUP2 MSTORE SWAP1 PUSH1 0x1 ADD SWAP1 PUSH1 0x20 ADD DUP1 DUP4 GT PUSH2 0x726 JUMPI DUP3 SWAP1 SUB PUSH1 0x1F AND DUP3 ADD SWAP2 JUMPDEST POP POP POP POP POP DUP2 MSTORE PUSH1 0x20 ADD PUSH1 0x3 DUP3 ADD SLOAD DUP2 MSTORE PUSH1 0x20 ADD PUSH1 0x4 DUP3 ADD PUSH0 SWAP1 SLOAD SWAP1 PUSH2 0x100 EXP SWAP1 DIV PUSH1 0xFF AND ISZERO ISZERO ISZERO ISZERO DUP2 MSTORE POP POP DUP4 DUP4 DUP2 MLOAD DUP2 LT PUSH2 0x783 JUMPI PUSH2 0x782 PUSH2 0x1C99 JUMP JUMPDEST JUMPDEST PUSH1 0x20 MUL PUSH1 0x20 ADD ADD DUP2 SWAP1 MSTORE POP DUP2 DUP1 PUSH2 0x799 SWAP1 PUSH2 0x1CF3 JUMP JUMPDEST SWAP3 POP POP JUMPDEST DUP1 DUP1 PUSH2 0x7A8 SWAP1 PUSH2 0x1CF3 JUMP JUMPDEST SWAP2 POP POP PUSH2 0x614 JUMP JUMPDEST POP DUP1 DUP3 MSTORE DUP2 SWAP3 POP POP POP SWAP1 JUMP JUMPDEST PUSH0 PUSH2 0x7C5 PUSH2 0x122D JUMP JUMPDEST PUSH0 DUP3 MLOAD GT PUSH2 0x808 JUMPI PUSH1 0x40 MLOAD PUSH32 0x8C379A000000000000000000000000000000000000000000000000000000000 DUP2 MSTORE PUSH1 0x4 ADD PUSH2 0x7FF SWAP1 PUSH2 0x1D84 JUMP JUMPDEST PUSH1 0x40 MLOAD DUP1 SWAP2 SUB SWAP1 REVERT JUMPDEST PUSH1 0x4 PUSH0 DUP2 SLOAD DUP1 SWAP3 SWAP2 SWAP1 PUSH2 0x81A SWAP1 PUSH2 0x1CF3 JUMP JUMPDEST SWAP2 SWAP1 POP SSTORE POP PUSH1 0x40 MLOAD DUP1 PUSH1 0xA0 ADD PUSH1 0x40 MSTORE DUP1 PUSH1 0x4 SLOAD DUP2 MSTORE PUSH1 0x20 ADD CALLER PUSH20 0xFFFFFFFFFFFFFFFFFFFFFFFFFFFFFFFFFFFFFFFF AND DUP2 MSTORE PUSH1 0x20 ADD DUP4 DUP2 MSTORE PUSH1 0x20 ADD TIMESTAMP DUP2 MSTORE PUSH1 0x20 ADD PUSH0 ISZERO ISZERO DUP2 MSTORE POP PUSH1 0x2 PUSH0 PUSH1 0x4 SLOAD DUP2 MSTORE PUSH1 0x20 ADD SWAP1 DUP2 MSTORE PUSH1 0x20 ADD PUSH0 KECCAK256 PUSH0 DUP3 ADD MLOAD DUP2 PUSH0 ADD SSTORE PUSH1 0x20 DUP3 ADD MLOAD DUP2 PUSH1 0x1 ADD PUSH0 PUSH2 0x100 EXP DUP2 SLOAD DUP2 PUSH20 0xFFFFFFFFFFFFFFFFFFFFFFFFFFFFFFFFFFFFFFFF MUL NOT AND SWAP1 DUP4 PUSH20 0xFFFFFFFFFFFFFFFFFFFFFFFFFFFFFFFFFFFFFFFF AND MUL OR SWAP1 SSTORE POP PUSH1 0x40 DUP3 ADD MLOAD DUP2 PUSH1 0x2 ADD SWAP1 DUP2 PUSH2 0x8D6 SWAP2 SWAP1 PUSH2 0x1F3F JUMP JUMPDEST POP PUSH1 0x60 DUP3 ADD MLOAD DUP2 PUSH1 0x3 ADD SSTORE PUSH1 0x80 DUP3 ADD MLOAD DUP2 PUSH1 0x4 ADD PUSH0 PUSH2 0x100 EXP DUP2 SLOAD DUP2 PUSH1 0xFF MUL NOT AND SWAP1 DUP4 ISZERO ISZERO MUL OR SWAP1 SSTORE POP SWAP1 POP POP CALLER PUSH20 0xFFFFFFFFFFFFFFFFFFFFFFFFFFFFFFFFFFFFFFFF AND PUSH1 0x4 SLOAD PUSH32 0x16EFFDE6B8C5F78279ACA5974057FF6B6FD8C9AB5E96994C7F1B62CBFCBBD78B DUP5 PUSH1 0x40 MLOAD PUSH2 0x94C SWAP2 SWAP1 PUSH2 0x200E JUMP JUMPDEST PUSH1 0x40 MLOAD DUP1 SWAP2 SUB SWAP1 LOG3 PUSH1 0x4 SLOAD SWAP1 POP PUSH2 0x961 PUSH2 0x127C JUMP JUMPDEST SWAP2 SWAP1 POP JUMP JUMPDEST PUSH2 0x96E PUSH2 0x1285 JUMP JUMPDEST PUSH2 0x977 PUSH0 PUSH2 0x130C JUMP JUMPDEST JUMP JUMPDEST PUSH1 0x3 PUSH1 0x20 MSTORE DUP1 PUSH0 MSTORE PUSH1 0x40 PUSH0 KECCAK256 PUSH0 SWAP2 POP SWAP1 POP DUP1 PUSH0 ADD SLOAD SWAP1 DUP1 PUSH1 0x1 ADD PUSH0 SWAP1 SLOAD SWAP1 PUSH2 0x100 EXP SWAP1 DIV PUSH20 0xFFFFFFFFFFFFFFFFFFFFFFFFFFFFFFFFFFFFFFFF AND SWAP1 DUP1 PUSH1 0x2 ADD DUP1 SLOAD PUSH2 0x9C3 SWAP1 PUSH2 0x1C69 JUMP JUMPDEST DUP1 PUSH1 0x1F ADD PUSH1 0x20 DUP1 SWAP2 DIV MUL PUSH1 0x20 ADD PUSH1 0x40 MLOAD SWAP1 DUP2 ADD PUSH1 0x40 MSTORE DUP1 SWAP3 SWAP2 SWAP1 DUP2 DUP2 MSTORE PUSH1 0x20 ADD DUP3 DUP1 SLOAD PUSH2 0x9EF SWAP1 PUSH2 0x1C69 JUMP JUMPDEST DUP1 ISZERO PUSH2 0xA3A JUMPI DUP1 PUSH1 0x1F LT PUSH2 0xA11 JUMPI PUSH2 0x100 DUP1 DUP4 SLOAD DIV MUL DUP4 MSTORE SWAP2 PUSH1 0x20 ADD SWAP2 PUSH2 0xA3A JUMP JUMPDEST DUP3 ADD SWAP2 SWAP1 PUSH0 MSTORE PUSH1 0x20 PUSH0 KECCAK256 SWAP1 JUMPDEST DUP2 SLOAD DUP2 MSTORE SWAP1 PUSH1 0x1 ADD SWAP1 PUSH1 0x20 ADD DUP1 DUP4 GT PUSH2 0xA1D JUMPI DUP3 SWAP1 SUB PUSH1 0x1F AND DUP3 ADD SWAP2 JUMPDEST POP POP POP POP POP SWAP1 DUP1 PUSH1 0x3 ADD PUSH0 SWAP1 SLOAD SWAP1 PUSH2 0x100 EXP SWAP1 DIV PUSH1 0xFF AND SWAP1 POP DUP5 JUMP JUMPDEST PUSH2 0xA5E PUSH2 0x1285 JUMP JUMPDEST PUSH0 DUP2 GT DUP1 ISZERO PUSH2 0xA6F JUMPI POP PUSH1 0x5 SLOAD DUP2 GT ISZERO JUMPDEST PUSH2 0xAAE JUMPI PUSH1 0x40 MLOAD PUSH32 0x8C379A000000000000000000000000000000000000000000000000000000000 DUP2 MSTORE PUSH1 0x4 ADD PUSH2 0xAA5 SWAP1 PUSH2 0x2078 JUMP JUMPDEST PUSH1 0x40 MLOAD DUP1 SWAP2 SUB SWAP1 REVERT JUMPDEST PUSH0 PUSH1 0x3 PUSH0 DUP4 DUP2 MSTORE PUSH1 0x20 ADD SWAP1 DUP2 MSTORE PUSH1 0x20 ADD PUSH0 KECCAK256 SWAP1 POP DUP1 PUSH1 0x3 ADD PUSH0 SWAP1 SLOAD SWAP1 PUSH2 0x100 EXP SWAP1 DIV PUSH1 0xFF AND ISZERO PUSH2 0xB13 JUMPI PUSH1 0x40 MLOAD PUSH32 0x8C379A000000000000000000000000000000000000000000000000000000000 DUP2 MSTORE PUSH1 0x4 ADD PUSH2 0xB0A SWAP1 PUSH2 0x20E0 JUMP JUMPDEST PUSH1 0x40 MLOAD DUP1 SWAP2 SUB SWAP1 REVERT JUMPDEST PUSH0 PUSH1 0x2 PUSH0 DUP4 PUSH0 ADD SLOAD DUP2 MSTORE PUSH1 0x20 ADD SWAP1 DUP2 MSTORE PUSH1 0x20 ADD PUSH0 KECCAK256 SWAP1 POP DUP2 PUSH1 0x2 ADD DUP2 PUSH1 0x2 ADD SWAP1 DUP2 PUSH2 0xB3E SWAP2 SWAP1 PUSH2 0x2125 JUMP JUMPDEST POP PUSH1 0x1 DUP3 PUSH1 0x3 ADD PUSH0 PUSH2 0x100 EXP DUP2 SLOAD DUP2 PUSH1 0xFF MUL NOT AND SWAP1 DUP4 ISZERO ISZERO MUL OR SWAP1 SSTORE POP DUP2 PUSH0 ADD SLOAD PUSH32 0xC044182A0AC1FCDFA543F1C6FF27940F1A5B4221B8232E11B492D48953BC9C43 DUP4 PUSH1 0x2 ADD PUSH1 0x40 MLOAD PUSH2 0xB91 SWAP2 SWAP1 PUSH2 0x228B JUMP JUMPDEST PUSH1 0x40 MLOAD DUP1 SWAP2 SUB SWAP1 LOG2 POP POP POP JUMP JUMPDEST PUSH2 0xBA6 PUSH2 0x1411 JUMP JUMPDEST PUSH0 DUP3 GT DUP1 ISZERO PUSH2 0xBB7 JUMPI POP PUSH1 0x4 SLOAD DUP3 GT ISZERO JUMPDEST PUSH2 0xBF6 JUMPI PUSH1 0x40 MLOAD PUSH32 0x8C379A000000000000000000000000000000000000000000000000000000000 DUP2 MSTORE PUSH1 0x4 ADD PUSH2 0xBED SWAP1 PUSH2 0x22F5 JUMP JUMPDEST PUSH1 0x40 MLOAD DUP1 SWAP2 SUB SWAP1 REVERT JUMPDEST PUSH1 0x2 PUSH0 DUP4 DUP2 MSTORE PUSH1 0x20 ADD SWAP1 DUP2 MSTORE PUSH1 0x20 ADD PUSH0 KECCAK256 PUSH1 0x4 ADD PUSH0 SWAP1 SLOAD SWAP1 PUSH2 0x100 EXP SWAP1 DIV PUSH1 0xFF AND ISZERO PUSH2 0xC57 JUMPI PUSH1 0x40 MLOAD PUSH32 0x8C379A000000000000000000000000000000000000000000000000000000000 DUP2 MSTORE PUSH1 0x4 ADD PUSH2 0xC4E SWAP1 PUSH2 0x235D JUMP JUMPDEST PUSH1 0x40 MLOAD DUP1 SWAP2 SUB SWAP1 REVERT JUMPDEST PUSH1 0x2 PUSH0 DUP4 DUP2 MSTORE PUSH1 0x20 ADD SWAP1 DUP2 MSTORE PUSH1 0x20 ADD PUSH0 KECCAK256 PUSH1 0x40 MLOAD DUP1 PUSH1 0xA0 ADD PUSH1 0x40 MSTORE SWAP1 DUP2 PUSH0 DUP3 ADD SLOAD DUP2 MSTORE PUSH1 0x20 ADD PUSH1 0x1 DUP3 ADD PUSH0 SWAP1 SLOAD SWAP1 PUSH2 0x100 EXP SWAP1 DIV PUSH20 0xFFFFFFFFFFFFFFFFFFFFFFFFFFFFFFFFFFFFFFFF AND PUSH20 0xFFFFFFFFFFFFFFFFFFFFFFFFFFFFFFFFFFFFFFFF AND PUSH20 0xFFFFFFFFFFFFFFFFFFFFFFFFFFFFFFFFFFFFFFFF AND DUP2 MSTORE PUSH1 0x20 ADD PUSH1 0x2 DUP3 ADD DUP1 SLOAD PUSH2 0xCE1 SWAP1 PUSH2 0x1C69 JUMP JUMPDEST DUP1 PUSH1 0x1F ADD PUSH1 0x20 DUP1 SWAP2 DIV MUL PUSH1 0x20 ADD PUSH1 0x40 MLOAD SWAP1 DUP2 ADD PUSH1 0x40 MSTORE DUP1 SWAP3 SWAP2 SWAP1 DUP2 DUP2 MSTORE PUSH1 0x20 ADD DUP3 DUP1 SLOAD PUSH2 0xD0D SWAP1 PUSH2 0x1C69 JUMP JUMPDEST DUP1 ISZERO PUSH2 0xD58 JUMPI DUP1 PUSH1 0x1F LT PUSH2 0xD2F JUMPI PUSH2 0x100 DUP1 DUP4 SLOAD DIV MUL DUP4 MSTORE SWAP2 PUSH1 0x20 ADD SWAP2 PUSH2 0xD58 JUMP JUMPDEST DUP3 ADD SWAP2 SWAP1 PUSH0 MSTORE PUSH1 0x20 PUSH0 KECCAK256 SWAP1 JUMPDEST DUP2 SLOAD DUP2 MSTORE SWAP1 PUSH1 0x1 ADD SWAP1 PUSH1 0x20 ADD DUP1 DUP4 GT PUSH2 0xD3B JUMPI DUP3 SWAP1 SUB PUSH1 0x1F AND DUP3 ADD SWAP2 JUMPDEST POP POP POP POP POP DUP2 MSTORE PUSH1 0x20 ADD PUSH1 0x3 DUP3 ADD SLOAD DUP2 MSTORE PUSH1 0x20 ADD PUSH1 0x4 DUP3 ADD PUSH0 SWAP1 SLOAD SWAP1 PUSH2 0x100 EXP SWAP1 DIV PUSH1 0xFF AND ISZERO ISZERO ISZERO ISZERO DUP2 MSTORE POP POP SWAP1 POP SWAP2 SWAP1 POP JUMP JUMPDEST PUSH0 DUP1 PUSH0 SWAP1 SLOAD SWAP1 PUSH2 0x100 EXP SWAP1 DIV PUSH20 0xFFFFFFFFFFFFFFFFFFFFFFFFFFFFFFFFFFFFFFFF AND SWAP1 POP SWAP1 JUMP JUMPDEST PUSH2 0xDBB PUSH2 0x122D JUMP JUMPDEST PUSH0 DUP3 GT DUP1 ISZERO PUSH2 0xDCC JUMPI POP PUSH1 0x4 SLOAD DUP3 GT ISZERO JUMPDEST PUSH2 0xE0B JUMPI PUSH1 0x40 MLOAD PUSH32 0x8C379A000000000000000000000000000000000000000000000000000000000 DUP2 MSTORE PUSH1 0x4 ADD PUSH2 0xE02 SWAP1 PUSH2 0x22F5 JUMP JUMPDEST PUSH1 0x40 MLOAD DUP1 SWAP2 SUB SWAP1 REVERT JUMPDEST PUSH1 0x2 PUSH0 DUP4 DUP2 MSTORE PUSH1 0x20 ADD SWAP1 DUP2 MSTORE PUSH1 0x20 ADD PUSH0 KECCAK256 PUSH1 0x4 ADD PUSH0 SWAP1 SLOAD SWAP1 PUSH2 0x100 EXP SWAP1 DIV PUSH1 0xFF AND ISZERO PUSH2 0xE6C JUMPI PUSH1 0x40 MLOAD PUSH32 0x8C379A000000000000000000000000000000000000000000000000000000000 DUP2 MSTORE PUSH1 0x4 ADD PUSH2 0xE63 SWAP1 PUSH2 0x235D JUMP JUMPDEST PUSH1 0x40 MLOAD DUP1 SWAP2 SUB SWAP1 REVERT JUMPDEST CALLER PUSH20 0xFFFFFFFFFFFFFFFFFFFFFFFFFFFFFFFFFFFFFFFF AND PUSH1 0x2 PUSH0 DUP5 DUP2 MSTORE PUSH1 0x20 ADD SWAP1 DUP2 MSTORE PUSH1 0x20 ADD PUSH0 KECCAK256 PUSH1 0x1 ADD PUSH0 SWAP1 SLOAD SWAP1 PUSH2 0x100 EXP SWAP1 DIV PUSH20 0xFFFFFFFFFFFFFFFFFFFFFFFFFFFFFFFFFFFFFFFF AND PUSH20 0xFFFFFFFFFFFFFFFFFFFFFFFFFFFFFFFFFFFFFFFF AND EQ PUSH2 0xF0D JUMPI PUSH1 0x40 MLOAD PUSH32 0x8C379A000000000000000000000000000000000000000000000000000000000 DUP2 MSTORE PUSH1 0x4 ADD PUSH2 0xF04 SWAP1 PUSH2 0x23EB JUMP JUMPDEST PUSH1 0x40 MLOAD DUP1 SWAP2 SUB SWAP1 REVERT JUMPDEST PUSH0 DUP2 MLOAD GT PUSH2 0xF50 JUMPI PUSH1 0x40 MLOAD PUSH32 0x8C379A000000000000000000000000000000000000000000000000000000000 DUP2 MSTORE PUSH1 0x4 ADD PUSH2 0xF47 SWAP1 PUSH2 0x2453 JUMP JUMPDEST PUSH1 0x40 MLOAD DUP1 SWAP2 SUB SWAP1 REVERT JUMPDEST PUSH1 0x5 PUSH0 DUP2 SLOAD DUP1 SWAP3 SWAP2 SWAP1 PUSH2 0xF62 SWAP1 PUSH2 0x1CF3 JUMP JUMPDEST SWAP2 SWAP1 POP SSTORE POP PUSH1 0x40 MLOAD DUP1 PUSH1 0x80 ADD PUSH1 0x40 MSTORE DUP1 DUP4 DUP2 MSTORE PUSH1 0x20 ADD CALLER PUSH20 0xFFFFFFFFFFFFFFFFFFFFFFFFFFFFFFFFFFFFFFFF AND DUP2 MSTORE PUSH1 0x20 ADD DUP3 DUP2 MSTORE PUSH1 0x20 ADD PUSH0 ISZERO ISZERO DUP2 MSTORE POP PUSH1 0x3 PUSH0 PUSH1 0x5 SLOAD DUP2 MSTORE PUSH1 0x20 ADD SWAP1 DUP2 MSTORE PUSH1 0x20 ADD PUSH0 KECCAK256 PUSH0 DUP3 ADD MLOAD DUP2 PUSH0 ADD SSTORE PUSH1 0x20 DUP3 ADD MLOAD DUP2 PUSH1 0x1 ADD PUSH0 PUSH2 0x100 EXP DUP2 SLOAD DUP2 PUSH20 0xFFFFFFFFFFFFFFFFFFFFFFFFFFFFFFFFFFFFFFFF MUL NOT AND SWAP1 DUP4 PUSH20 0xFFFFFFFFFFFFFFFFFFFFFFFFFFFFFFFFFFFFFFFF AND MUL OR SWAP1 SSTORE POP PUSH1 0x40 DUP3 ADD MLOAD DUP2 PUSH1 0x2 ADD SWAP1 DUP2 PUSH2 0x1016 SWAP2 SWAP1 PUSH2 0x1F3F JUMP JUMPDEST POP PUSH1 0x60 DUP3 ADD MLOAD DUP2 PUSH1 0x3 ADD PUSH0 PUSH2 0x100 EXP DUP2 SLOAD DUP2 PUSH1 0xFF MUL NOT AND SWAP1 DUP4 ISZERO ISZERO MUL OR SWAP1 SSTORE POP SWAP1 POP POP CALLER PUSH20 0xFFFFFFFFFFFFFFFFFFFFFFFFFFFFFFFFFFFFFFFF AND DUP3 PUSH32 0x65A5DFDCCA99D0A97BD4A95E21C4AF5E64327BA9493215CCCBFD0B87CA2BA362 DUP4 PUSH1 0x40 MLOAD PUSH2 0x1080 SWAP2 SWAP1 PUSH2 0x200E JUMP JUMPDEST PUSH1 0x40 MLOAD DUP1 SWAP2 SUB SWAP1 LOG3 PUSH2 0x1090 PUSH2 0x127C JUMP JUMPDEST POP POP JUMP JUMPDEST PUSH2 0x109C PUSH2 0x1285 JUMP JUMPDEST PUSH0 DUP2 GT DUP1 ISZERO PUSH2 0x10AD JUMPI POP PUSH1 0x4 SLOAD DUP2 GT ISZERO JUMPDEST PUSH2 0x10EC JUMPI PUSH1 0x40 MLOAD PUSH32 0x8C379A000000000000000000000000000000000000000000000000000000000 DUP2 MSTORE PUSH1 0x4 ADD PUSH2 0x10E3 SWAP1 PUSH2 0x22F5 JUMP JUMPDEST PUSH1 0x40 MLOAD DUP1 SWAP2 SUB SWAP1 REVERT JUMPDEST PUSH1 0x2 PUSH0 DUP3 DUP2 MSTORE PUSH1 0x20 ADD SWAP1 DUP2 MSTORE PUSH1 0x20 ADD PUSH0 KECCAK256 PUSH1 0x4 ADD PUSH0 SWAP1 SLOAD SWAP1 PUSH2 0x100 EXP SWAP1 DIV PUSH1 0xFF AND ISZERO PUSH2 0x114D JUMPI PUSH1 0x40 MLOAD PUSH32 0x8C379A000000000000000000000000000000000000000000000000000000000 DUP2 MSTORE PUSH1 0x4 ADD PUSH2 0x1144 SWAP1 PUSH2 0x24BB JUMP JUMPDEST PUSH1 0x40 MLOAD DUP1 SWAP2 SUB SWAP1 REVERT JUMPDEST PUSH1 0x1 PUSH1 0x2 PUSH0 DUP4 DUP2 MSTORE PUSH1 0x20 ADD SWAP1 DUP2 MSTORE PUSH1 0x20 ADD PUSH0 KECCAK256 PUSH1 0x4 ADD PUSH0 PUSH2 0x100 EXP DUP2 SLOAD DUP2 PUSH1 0xFF MUL NOT AND SWAP1 DUP4 ISZERO ISZERO MUL OR SWAP1 SSTORE POP DUP1 PUSH32 0x6279BE045E4D4D5A0EBA7B1F0E578322B6DD7C01E92F0991700A02180904654B PUSH1 0x40 MLOAD PUSH1 0x40 MLOAD DUP1 SWAP2 SUB SWAP1 LOG2 POP JUMP JUMPDEST PUSH2 0x11B1 PUSH2 0x1285 JUMP JUMPDEST PUSH0 PUSH20 0xFFFFFFFFFFFFFFFFFFFFFFFFFFFFFFFFFFFFFFFF AND DUP2 PUSH20 0xFFFFFFFFFFFFFFFFFFFFFFFFFFFFFFFFFFFFFFFF AND SUB PUSH2 0x1221 JUMPI PUSH0 PUSH1 0x40 MLOAD PUSH32 0x1E4FBDF700000000000000000000000000000000000000000000000000000000 DUP2 MSTORE PUSH1 0x4 ADD PUSH2 0x1218 SWAP2 SWAP1 PUSH2 0x1B74 JUMP JUMPDEST PUSH1 0x40 MLOAD DUP1 SWAP2 SUB SWAP1 REVERT JUMPDEST PUSH2 0x122A DUP2 PUSH2 0x130C JUMP JUMPDEST POP JUMP JUMPDEST PUSH1 0x2 PUSH1 0x1 SLOAD SUB PUSH2 0x1272 JUMPI PUSH1 0x40 MLOAD PUSH32 0x8C379A000000000000000000000000000000000000000000000000000000000 DUP2 MSTORE PUSH1 0x4 ADD PUSH2 0x1269 SWAP1 PUSH2 0x2523 JUMP JUMPDEST PUSH1 0x40 MLOAD DUP1 SWAP2 SUB SWAP1 REVERT JUMPDEST PUSH1 0x2 PUSH1 0x1 DUP2 SWAP1 SSTORE POP JUMP JUMPDEST PUSH1 0x1 DUP1 DUP2 SWAP1 SSTORE POP JUMP JUMPDEST PUSH2 0x128D PUSH2 0x13CD JUMP JUMPDEST PUSH20 0xFFFFFFFFFFFFFFFFFFFFFFFFFFFFFFFFFFFFFFFF AND PUSH2 0x12AB PUSH2 0xD8C JUMP JUMPDEST PUSH20 0xFFFFFFFFFFFFFFFFFFFFFFFFFFFFFFFFFFFFFFFF AND EQ PUSH2 0x130A JUMPI PUSH2 0x12CE PUSH2 0x13CD JUMP JUMPDEST PUSH1 0x40 MLOAD PUSH32 0x118CDAA700000000000000000000000000000000000000000000000000000000 DUP2 MSTORE PUSH1 0x4 ADD PUSH2 0x1301 SWAP2 SWAP1 PUSH2 0x1B74 JUMP JUMPDEST PUSH1 0x40 MLOAD DUP1 SWAP2 SUB SWAP1 REVERT JUMPDEST JUMP JUMPDEST PUSH0 DUP1 PUSH0 SWAP1 SLOAD SWAP1 PUSH2 0x100 EXP SWAP1 DIV PUSH20 0xFFFFFFFFFFFFFFFFFFFFFFFFFFFFFFFFFFFFFFFF AND SWAP1 POP DUP2 PUSH0 DUP1 PUSH2 0x100 EXP DUP2 SLOAD DUP2 PUSH20 0xFFFFFFFFFFFFFFFFFFFFFFFFFFFFFFFFFFFFFFFF MUL NOT AND SWAP1 DUP4 PUSH20 0xFFFFFFFFFFFFFFFFFFFFFFFFFFFFFFFFFFFFFFFF AND MUL OR SWAP1 SSTORE POP DUP2 PUSH20 0xFFFFFFFFFFFFFFFFFFFFFFFFFFFFFFFFFFFFFFFF AND DUP2 PUSH20 0xFFFFFFFFFFFFFFFFFFFFFFFFFFFFFFFFFFFFFFFF AND PUSH32 0x8BE0079C531659141344CD1FD0A4F28419497F9722A3DAAFE3B4186F6B6457E0 PUSH1 0x40 MLOAD PUSH1 0x40 MLOAD DUP1 SWAP2 SUB SWAP1 LOG3 POP POP JUMP JUMPDEST PUSH0 CALLER SWAP1 POP SWAP1 JUMP JUMPDEST PUSH1 0x40 MLOAD DUP1 PUSH1 0x80 ADD PUSH1 0x40 MSTORE DUP1 PUSH0 DUP2 MSTORE PUSH1 0x20 ADD PUSH0 PUSH20 0xFFFFFFFFFFFFFFFFFFFFFFFFFFFFFFFFFFFFFFFF AND DUP2 MSTORE PUSH1 0x20 ADD PUSH1 0x60 DUP2 MSTORE PUSH1 0x20 ADD PUSH0 ISZERO ISZERO DUP2 MSTORE POP SWAP1 JUMP JUMPDEST PUSH1 0x40 MLOAD DUP1 PUSH1 0xA0 ADD PUSH1 0x40 MSTORE DUP1 PUSH0 DUP2 MSTORE PUSH1 0x20 ADD PUSH0 PUSH20 0xFFFFFFFFFFFFFFFFFFFFFFFFFFFFFFFFFFFFFFFF AND DUP2 MSTORE PUSH1 0x20 ADD PUSH1 0x60 DUP2 MSTORE PUSH1 0x20 ADD PUSH0 DUP2 MSTORE PUSH1 0x20 ADD PUSH0 ISZERO ISZERO DUP2 MSTORE POP SWAP1 JUMP JUMPDEST PUSH0 PUSH1 0x40 MLOAD SWAP1 POP SWAP1 JUMP JUMPDEST PUSH0 DUP1 REVERT JUMPDEST PUSH0 DUP1 REVERT JUMPDEST PUSH0 DUP2 SWAP1 POP SWAP2 SWAP1 POP JUMP JUMPDEST PUSH2 0x1477 DUP2 PUSH2 0x1465 JUMP JUMPDEST DUP2 EQ PUSH2 0x1481 JUMPI PUSH0 DUP1 REVERT JUMPDEST POP JUMP JUMPDEST PUSH0 DUP2 CALLDATALOAD SWAP1 POP PUSH2 0x1492 DUP2 PUSH2 0x146E JUMP JUMPDEST SWAP3 SWAP2 POP POP JUMP JUMPDEST PUSH0 PUSH1 0x20 DUP3 DUP5 SUB SLT ISZERO PUSH2 0x14AD JUMPI PUSH2 0x14AC PUSH2 0x145D JUMP JUMPDEST JUMPDEST PUSH0 PUSH2 0x14BA DUP5 DUP3 DUP6 ADD PUSH2 0x1484 JUMP JUMPDEST SWAP2 POP POP SWAP3 SWAP2 POP POP JUMP JUMPDEST PUSH2 0x14CC DUP2 PUSH2 0x1465 JUMP JUMPDEST DUP3 MSTORE POP POP JUMP JUMPDEST PUSH0 PUSH20 0xFFFFFFFFFFFFFFFFFFFFFFFFFFFFFFFFFFFFFFFF DUP3 AND SWAP1 POP SWAP2 SWAP1 POP JUMP JUMPDEST PUSH0 PUSH2 0x14FB DUP3 PUSH2 0x14D2 JUMP JUMPDEST SWAP1 POP SWAP2 SWAP1 POP JUMP JUMPDEST PUSH2 0x150B DUP2 PUSH2 0x14F1 JUMP JUMPDEST DUP3 MSTORE POP POP JUMP JUMPDEST PUSH0 DUP2 MLOAD SWAP1 POP SWAP2 SWAP1 POP JUMP JUMPDEST PUSH0 DUP3 DUP3 MSTORE PUSH1 0x20 DUP3 ADD SWAP1 POP SWAP3 SWAP2 POP POP JUMP JUMPDEST PUSH0 JUMPDEST DUP4 DUP2 LT ISZERO PUSH2 0x1548 JUMPI DUP1 DUP3 ADD MLOAD DUP2 DUP5 ADD MSTORE PUSH1 0x20 DUP2 ADD SWAP1 POP PUSH2 0x152D JUMP JUMPDEST PUSH0 DUP5 DUP5 ADD MSTORE POP POP POP POP JUMP JUMPDEST PUSH0 PUSH1 0x1F NOT PUSH1 0x1F DUP4 ADD AND SWAP1 POP SWAP2 SWAP1 POP JUMP JUMPDEST PUSH0 PUSH2 0x156D DUP3 PUSH2 0x1511 JUMP JUMPDEST PUSH2 0x1577 DUP2 DUP6 PUSH2 0x151B JUMP JUMPDEST SWAP4 POP PUSH2 0x1587 DUP2 DUP6 PUSH1 0x20 DUP7 ADD PUSH2 0x152B JUMP JUMPDEST PUSH2 0x1590 DUP2 PUSH2 0x1553 JUMP JUMPDEST DUP5 ADD SWAP2 POP POP SWAP3 SWAP2 POP POP JUMP JUMPDEST PUSH0 DUP2 ISZERO ISZERO SWAP1 POP SWAP2 SWAP1 POP JUMP JUMPDEST PUSH2 0x15AF DUP2 PUSH2 0x159B JUMP JUMPDEST DUP3 MSTORE POP POP JUMP JUMPDEST PUSH0 PUSH1 0xA0 DUP3 ADD SWAP1 POP PUSH2 0x15C8 PUSH0 DUP4 ADD DUP9 PUSH2 0x14C3 JUMP JUMPDEST PUSH2 0x15D5 PUSH1 0x20 DUP4 ADD DUP8 PUSH2 0x1502 JUMP JUMPDEST DUP2 DUP2 SUB PUSH1 0x40 DUP4 ADD MSTORE PUSH2 0x15E7 DUP2 DUP7 PUSH2 0x1563 JUMP JUMPDEST SWAP1 POP PUSH2 0x15F6 PUSH1 0x60 DUP4 ADD DUP6 PUSH2 0x14C3 JUMP JUMPDEST PUSH2 0x1603 PUSH1 0x80 DUP4 ADD DUP5 PUSH2 0x15A6 JUMP JUMPDEST SWAP7 SWAP6 POP POP POP POP POP POP JUMP JUMPDEST PUSH0 PUSH1 0x20 DUP3 ADD SWAP1 POP PUSH2 0x1620 PUSH0 DUP4 ADD DUP5 PUSH2 0x14C3 JUMP JUMPDEST SWAP3 SWAP2 POP POP JUMP JUMPDEST PUSH0 DUP2 MLOAD SWAP1 POP SWAP2 SWAP1 POP JUMP JUMPDEST PUSH0 DUP3 DUP3 MSTORE PUSH1 0x20 DUP3 ADD SWAP1 POP SWAP3 SWAP2 POP POP JUMP JUMPDEST PUSH0 DUP2 SWAP1 POP PUSH1 0x20 DUP3 ADD SWAP1 POP SWAP2 SWAP1 POP JUMP JUMPDEST PUSH2 0x1658 DUP2 PUSH2 0x1465 JUMP JUMPDEST DUP3 MSTORE POP POP JUMP JUMPDEST PUSH2 0x1667 DUP2 PUSH2 0x14F1 JUMP JUMPDEST DUP3 MSTORE POP POP JUMP JUMPDEST PUSH0 DUP3 DUP3 MSTORE PUSH1 0x20 DUP3 ADD SWAP1 POP SWAP3 SWAP2 POP POP JUMP JUMPDEST PUSH0 PUSH2 0x1687 DUP3 PUSH2 0x1511 JUMP JUMPDEST PUSH2 0x1691 DUP2 DUP6 PUSH2 0x166D JUMP JUMPDEST SWAP4 POP PUSH2 0x16A1 DUP2 DUP6 PUSH1 0x20 DUP7 ADD PUSH2 0x152B JUMP JUMPDEST PUSH2 0x16AA DUP2 PUSH2 0x1553 JUMP JUMPDEST DUP5 ADD SWAP2 POP POP SWAP3 SWAP2 POP POP JUMP JUMPDEST PUSH2 0x16BE DUP2 PUSH2 0x159B JUMP JUMPDEST DUP3 MSTORE POP POP JUMP JUMPDEST PUSH0 PUSH1 0x80 DUP4 ADD PUSH0 DUP4 ADD MLOAD PUSH2 0x16D9 PUSH0 DUP7 ADD DUP3 PUSH2 0x164F JUMP JUMPDEST POP PUSH1 0x20 DUP4 ADD MLOAD PUSH2 0x16EC PUSH1 0x20 DUP7 ADD DUP3 PUSH2 0x165E JUMP JUMPDEST POP PUSH1 0x40 DUP4 ADD MLOAD DUP5 DUP3 SUB PUSH1 0x40 DUP7 ADD MSTORE PUSH2 0x1704 DUP3 DUP3 PUSH2 0x167D JUMP JUMPDEST SWAP2 POP POP PUSH1 0x60 DUP4 ADD MLOAD PUSH2 0x1719 PUSH1 0x60 DUP7 ADD DUP3 PUSH2 0x16B5 JUMP JUMPDEST POP DUP1 SWAP2 POP POP SWAP3 SWAP2 POP POP JUMP JUMPDEST PUSH0 PUSH2 0x172F DUP4 DUP4 PUSH2 0x16C4 JUMP JUMPDEST SWAP1 POP SWAP3 SWAP2 POP POP JUMP JUMPDEST PUSH0 PUSH1 0x20 DUP3 ADD SWAP1 POP SWAP2 SWAP1 POP JUMP JUMPDEST PUSH0 PUSH2 0x174D DUP3 PUSH2 0x1626 JUMP JUMPDEST PUSH2 0x1757 DUP2 DUP6 PUSH2 0x1630 JUMP JUMPDEST SWAP4 POP DUP4 PUSH1 0x20 DUP3 MUL DUP6 ADD PUSH2 0x1769 DUP6 PUSH2 0x1640 JUMP JUMPDEST DUP1 PUSH0 JUMPDEST DUP6 DUP2 LT ISZERO PUSH2 0x17A4 JUMPI DUP5 DUP5 SUB DUP10 MSTORE DUP2 MLOAD PUSH2 0x1785 DUP6 DUP3 PUSH2 0x1724 JUMP JUMPDEST SWAP5 POP PUSH2 0x1790 DUP4 PUSH2 0x1737 JUMP JUMPDEST SWAP3 POP PUSH1 0x20 DUP11 ADD SWAP10 POP POP PUSH1 0x1 DUP2 ADD SWAP1 POP PUSH2 0x176C JUMP JUMPDEST POP DUP3 SWAP8 POP DUP8 SWAP6 POP POP POP POP POP POP SWAP3 SWAP2 POP POP JUMP JUMPDEST PUSH0 PUSH1 0x20 DUP3 ADD SWAP1 POP DUP2 DUP2 SUB PUSH0 DUP4 ADD MSTORE PUSH2 0x17CE DUP2 DUP5 PUSH2 0x1743 JUMP JUMPDEST SWAP1 POP SWAP3 SWAP2 POP POP JUMP JUMPDEST PUSH0 DUP2 MLOAD SWAP1 POP SWAP2 SWAP1 POP JUMP JUMPDEST PUSH0 DUP3 DUP3 MSTORE PUSH1 0x20 DUP3 ADD SWAP1 POP SWAP3 SWAP2 POP POP JUMP JUMPDEST PUSH0 DUP2 SWAP1 POP PUSH1 0x20 DUP3 ADD SWAP1 POP SWAP2 SWAP1 POP JUMP JUMPDEST PUSH0 PUSH1 0xA0 DUP4 ADD PUSH0 DUP4 ADD MLOAD PUSH2 0x1814 PUSH0 DUP7 ADD DUP3 PUSH2 0x164F JUMP JUMPDEST POP PUSH1 0x20 DUP4 ADD MLOAD PUSH2 0x1827 PUSH1 0x20 DUP7 ADD DUP3 PUSH2 0x165E JUMP JUMPDEST POP PUSH1 0x40 DUP4 ADD MLOAD DUP5 DUP3 SUB PUSH1 0x40 DUP7 ADD MSTORE PUSH2 0x183F DUP3 DUP3 PUSH2 0x167D JUMP JUMPDEST SWAP2 POP POP PUSH1 0x60 DUP4 ADD MLOAD PUSH2 0x1854 PUSH1 0x60 DUP7 ADD DUP3 PUSH2 0x164F JUMP JUMPDEST POP PUSH1 0x80 DUP4 ADD MLOAD PUSH2 0x1867 PUSH1 0x80 DUP7 ADD DUP3 PUSH2 0x16B5 JUMP JUMPDEST POP DUP1 SWAP2 POP POP SWAP3 SWAP2 POP POP JUMP JUMPDEST PUSH0 PUSH2 0x187D DUP4 DUP4 PUSH2 0x17FF JUMP JUMPDEST SWAP1 POP SWAP3 SWAP2 POP POP JUMP JUMPDEST PUSH0 PUSH1 0x20 DUP3 ADD SWAP1 POP SWAP2 SWAP1 POP JUMP JUMPDEST PUSH0 PUSH2 0x189B DUP3 PUSH2 0x17D6 JUMP JUMPDEST PUSH2 0x18A5 DUP2 DUP6 PUSH2 0x17E0 JUMP JUMPDEST SWAP4 POP DUP4 PUSH1 0x20 DUP3 MUL DUP6 ADD PUSH2 0x18B7 DUP6 PUSH2 0x17F0 JUMP JUMPDEST DUP1 PUSH0 JUMPDEST DUP6 DUP2 LT ISZERO PUSH2 0x18F2 JUMPI DUP5 DUP5 SUB DUP10 MSTORE DUP2 MLOAD PUSH2 0x18D3 DUP6 DUP3 PUSH2 0x1872 JUMP JUMPDEST SWAP5 POP PUSH2 0x18DE DUP4 PUSH2 0x1885 JUMP JUMPDEST SWAP3 POP PUSH1 0x20 DUP11 ADD SWAP10 POP POP PUSH1 0x1 DUP2 ADD SWAP1 POP PUSH2 0x18BA JUMP JUMPDEST POP DUP3 SWAP8 POP DUP8 SWAP6 POP POP POP POP POP POP SWAP3 SWAP2 POP POP JUMP JUMPDEST PUSH0 PUSH1 0x20 DUP3 ADD SWAP1 POP DUP2 DUP2 SUB PUSH0 DUP4 ADD MSTORE PUSH2 0x191C DUP2 DUP5 PUSH2 0x1891 JUMP JUMPDEST SWAP1 POP SWAP3 SWAP2 POP POP JUMP JUMPDEST PUSH0 DUP1 REVERT JUMPDEST PUSH0 DUP1 REVERT JUMPDEST PUSH32 0x4E487B7100000000000000000000000000000000000000000000000000000000 PUSH0 MSTORE PUSH1 0x41 PUSH1 0x4 MSTORE PUSH1 0x24 PUSH0 REVERT JUMPDEST PUSH2 0x1962 DUP3 PUSH2 0x1553 JUMP JUMPDEST DUP2 ADD DUP2 DUP2 LT PUSH8 0xFFFFFFFFFFFFFFFF DUP3 GT OR ISZERO PUSH2 0x1981 JUMPI PUSH2 0x1980 PUSH2 0x192C JUMP JUMPDEST JUMPDEST DUP1 PUSH1 0x40 MSTORE POP POP POP JUMP JUMPDEST PUSH0 PUSH2 0x1993 PUSH2 0x1454 JUMP JUMPDEST SWAP1 POP PUSH2 0x199F DUP3 DUP3 PUSH2 0x1959 JUMP JUMPDEST SWAP2 SWAP1 POP JUMP JUMPDEST PUSH0 PUSH8 0xFFFFFFFFFFFFFFFF DUP3 GT ISZERO PUSH2 0x19BE JUMPI PUSH2 0x19BD PUSH2 0x192C JUMP JUMPDEST JUMPDEST PUSH2 0x19C7 DUP3 PUSH2 0x1553 JUMP JUMPDEST SWAP1 POP PUSH1 0x20 DUP2 ADD SWAP1 POP SWAP2 SWAP1 POP JUMP JUMPDEST DUP3 DUP2 DUP4 CALLDATACOPY PUSH0 DUP4 DUP4 ADD MSTORE POP POP POP JUMP JUMPDEST PUSH0 PUSH2 0x19F4 PUSH2 0x19EF DUP5 PUSH2 0x19A4 JUMP JUMPDEST PUSH2 0x198A JUMP JUMPDEST SWAP1 POP DUP3 DUP2 MSTORE PUSH1 0x20 DUP2 ADD DUP5 DUP5 DUP5 ADD GT ISZERO PUSH2 0x1A10 JUMPI PUSH2 0x1A0F PUSH2 0x1928 JUMP JUMPDEST JUMPDEST PUSH2 0x1A1B DUP5 DUP3 DUP6 PUSH2 0x19D4 JUMP JUMPDEST POP SWAP4 SWAP3 POP POP POP JUMP JUMPDEST PUSH0 DUP3 PUSH1 0x1F DUP4 ADD SLT PUSH2 0x1A37 JUMPI PUSH2 0x1A36 PUSH2 0x1924 JUMP JUMPDEST JUMPDEST DUP2 CALLDATALOAD PUSH2 0x1A47 DUP5 DUP3 PUSH1 0x20 DUP7 ADD PUSH2 0x19E2 JUMP JUMPDEST SWAP2 POP POP SWAP3 SWAP2 POP POP JUMP JUMPDEST PUSH0 PUSH1 0x20 DUP3 DUP5 SUB SLT ISZERO PUSH2 0x1A65 JUMPI PUSH2 0x1A64 PUSH2 0x145D JUMP JUMPDEST JUMPDEST PUSH0 DUP3 ADD CALLDATALOAD PUSH8 0xFFFFFFFFFFFFFFFF DUP2 GT ISZERO PUSH2 0x1A82 JUMPI PUSH2 0x1A81 PUSH2 0x1461 JUMP JUMPDEST JUMPDEST PUSH2 0x1A8E DUP5 DUP3 DUP6 ADD PUSH2 0x1A23 JUMP JUMPDEST SWAP2 POP POP SWAP3 SWAP2 POP POP JUMP JUMPDEST PUSH0 PUSH1 0x80 DUP3 ADD SWAP1 POP PUSH2 0x1AAA PUSH0 DUP4 ADD DUP8 PUSH2 0x14C3 JUMP JUMPDEST PUSH2 0x1AB7 PUSH1 0x20 DUP4 ADD DUP7 PUSH2 0x1502 JUMP JUMPDEST DUP2 DUP2 SUB PUSH1 0x40 DUP4 ADD MSTORE PUSH2 0x1AC9 DUP2 DUP6 PUSH2 0x1563 JUMP JUMPDEST SWAP1 POP PUSH2 0x1AD8 PUSH1 0x60 DUP4 ADD DUP5 PUSH2 0x15A6 JUMP JUMPDEST SWAP6 SWAP5 POP POP POP POP POP JUMP JUMPDEST PUSH0 PUSH1 0xA0 DUP4 ADD PUSH0 DUP4 ADD MLOAD PUSH2 0x1AF6 PUSH0 DUP7 ADD DUP3 PUSH2 0x164F JUMP JUMPDEST POP PUSH1 0x20 DUP4 ADD MLOAD PUSH2 0x1B09 PUSH1 0x20 DUP7 ADD DUP3 PUSH2 0x165E JUMP JUMPDEST POP PUSH1 0x40 DUP4 ADD MLOAD DUP5 DUP3 SUB PUSH1 0x40 DUP7 ADD MSTORE PUSH2 0x1B21 DUP3 DUP3 PUSH2 0x167D JUMP JUMPDEST SWAP2 POP POP PUSH1 0x60 DUP4 ADD MLOAD PUSH2 0x1B36 PUSH1 0x60 DUP7 ADD DUP3 PUSH2 0x164F JUMP JUMPDEST POP PUSH1 0x80 DUP4 ADD MLOAD PUSH2 0x1B49 PUSH1 0x80 DUP7 ADD DUP3 PUSH2 0x16B5 JUMP JUMPDEST POP DUP1 SWAP2 POP POP SWAP3 SWAP2 POP POP JUMP JUMPDEST PUSH0 PUSH1 0x20 DUP3 ADD SWAP1 POP DUP2 DUP2 SUB PUSH0 DUP4 ADD MSTORE PUSH2 0x1B6C DUP2 DUP5 PUSH2 0x1AE1 JUMP JUMPDEST SWAP1 POP SWAP3 SWAP2 POP POP JUMP JUMPDEST PUSH0 PUSH1 0x20 DUP3 ADD SWAP1 POP PUSH2 0x1B87 PUSH0 DUP4 ADD DUP5 PUSH2 0x1502 JUMP JUMPDEST SWAP3 SWAP2 POP POP JUMP JUMPDEST PUSH0 DUP1 PUSH1 0x40 DUP4 DUP6 SUB SLT ISZERO PUSH2 0x1BA3 JUMPI PUSH2 0x1BA2 PUSH2 0x145D JUMP JUMPDEST JUMPDEST PUSH0 PUSH2 0x1BB0 DUP6 DUP3 DUP7 ADD PUSH2 0x1484 JUMP JUMPDEST SWAP3 POP POP PUSH1 0x20 DUP4 ADD CALLDATALOAD PUSH8 0xFFFFFFFFFFFFFFFF DUP2 GT ISZERO PUSH2 0x1BD1 JUMPI PUSH2 0x1BD0 PUSH2 0x1461 JUMP JUMPDEST JUMPDEST PUSH2 0x1BDD DUP6 DUP3 DUP7 ADD PUSH2 0x1A23 JUMP JUMPDEST SWAP2 POP POP SWAP3 POP SWAP3 SWAP1 POP JUMP JUMPDEST PUSH2 0x1BF0 DUP2 PUSH2 0x14F1 JUMP JUMPDEST DUP2 EQ PUSH2 0x1BFA JUMPI PUSH0 DUP1 REVERT JUMPDEST POP JUMP JUMPDEST PUSH0 DUP2 CALLDATALOAD SWAP1 POP PUSH2 0x1C0B DUP2 PUSH2 0x1BE7 JUMP JUMPDEST SWAP3 SWAP2 POP POP JUMP JUMPDEST PUSH0 PUSH1 0x20 DUP3 DUP5 SUB SLT ISZERO PUSH2 0x1C26 JUMPI PUSH2 0x1C25 PUSH2 0x145D JUMP JUMPDEST JUMPDEST PUSH0 PUSH2 0x1C33 DUP5 DUP3 DUP6 ADD PUSH2 0x1BFD JUMP JUMPDEST SWAP2 POP POP SWAP3 SWAP2 POP POP JUMP JUMPDEST PUSH32 0x4E487B7100000000000000000000000000000000000000000000000000000000 PUSH0 MSTORE PUSH1 0x22 PUSH1 0x4 MSTORE PUSH1 0x24 PUSH0 REVERT JUMPDEST PUSH0 PUSH1 0x2 DUP3 DIV SWAP1 POP PUSH1 0x1 DUP3 AND DUP1 PUSH2 0x1C80 JUMPI PUSH1 0x7F DUP3 AND SWAP2 POP JUMPDEST PUSH1 0x20 DUP3 LT DUP2 SUB PUSH2 0x1C93 JUMPI PUSH2 0x1C92 PUSH2 0x1C3C JUMP JUMPDEST JUMPDEST POP SWAP2 SWAP1 POP JUMP JUMPDEST PUSH32 0x4E487B7100000000000000000000000000000000000000000000000000000000 PUSH0 MSTORE PUSH1 0x32 PUSH1 0x4 MSTORE PUSH1 0x24 PUSH0 REVERT JUMPDEST PUSH32 0x4E487B7100000000000000000000000000000000000000000000000000000000 PUSH0 MSTORE PUSH1 0x11 PUSH1 0x4 MSTORE PUSH1 0x24 PUSH0 REVERT JUMPDEST PUSH0 PUSH2 0x1CFD DUP3 PUSH2 0x1465 JUMP JUMPDEST SWAP2 POP PUSH32 0xFFFFFFFFFFFFFFFFFFFFFFFFFFFFFFFFFFFFFFFFFFFFFFFFFFFFFFFFFFFFFFFF DUP3 SUB PUSH2 0x1D2F JUMPI PUSH2 0x1D2E PUSH2 0x1CC6 JUMP JUMPDEST JUMPDEST PUSH1 0x1 DUP3 ADD SWAP1 POP SWAP2 SWAP1 POP JUMP JUMPDEST PUSH32 0x4D6573736167652063616E6E6F7420626520656D707479000000000000000000 PUSH0 DUP3 ADD MSTORE POP JUMP JUMPDEST PUSH0 PUSH2 0x1D6E PUSH1 0x17 DUP4 PUSH2 0x151B JUMP JUMPDEST SWAP2 POP PUSH2 0x1D79 DUP3 PUSH2 0x1D3A JUMP JUMPDEST PUSH1 0x20 DUP3 ADD SWAP1 POP SWAP2 SWAP1 POP JUMP JUMPDEST PUSH0 PUSH1 0x20 DUP3 ADD SWAP1 POP DUP2 DUP2 SUB PUSH0 DUP4 ADD MSTORE PUSH2 0x1D9B DUP2 PUSH2 0x1D62 JUMP JUMPDEST SWAP1 POP SWAP2 SWAP1 POP JUMP JUMPDEST PUSH0 DUP2 SWAP1 POP DUP2 PUSH0 MSTORE PUSH1 0x20 PUSH0 KECCAK256 SWAP1 POP SWAP2 SWAP1 POP JUMP JUMPDEST PUSH0 PUSH1 0x20 PUSH1 0x1F DUP4 ADD DIV SWAP1 POP SWAP2 SWAP1 POP JUMP JUMPDEST PUSH0 DUP3 DUP3 SHL SWAP1 POP SWAP3 SWAP2 POP POP JUMP JUMPDEST PUSH0 PUSH1 0x8 DUP4 MUL PUSH2 0x1DFE PUSH32 0xFFFFFFFFFFFFFFFFFFFFFFFFFFFFFFFFFFFFFFFFFFFFFFFFFFFFFFFFFFFFFFFF DUP3 PUSH2 0x1DC3 JUMP JUMPDEST PUSH2 0x1E08 DUP7 DUP4 PUSH2 0x1DC3 JUMP JUMPDEST SWAP6 POP DUP1 NOT DUP5 AND SWAP4 POP DUP1 DUP7 AND DUP5 OR SWAP3 POP POP POP SWAP4 SWAP3 POP POP POP JUMP JUMPDEST PUSH0 DUP2 SWAP1 POP SWAP2 SWAP1 POP JUMP JUMPDEST PUSH0 PUSH2 0x1E43 PUSH2 0x1E3E PUSH2 0x1E39 DUP5 PUSH2 0x1465 JUMP JUMPDEST PUSH2 0x1E20 JUMP JUMPDEST PUSH2 0x1465 JUMP JUMPDEST SWAP1 POP SWAP2 SWAP1 POP JUMP JUMPDEST PUSH0 DUP2 SWAP1 POP SWAP2 SWAP1 POP JUMP JUMPDEST PUSH2 0x1E5C DUP4 PUSH2 0x1E29 JUMP JUMPDEST PUSH2 0x1E70 PUSH2 0x1E68 DUP3 PUSH2 0x1E4A JUMP JUMPDEST DUP5 DUP5 SLOAD PUSH2 0x1DCF JUMP JUMPDEST DUP3 SSTORE POP POP POP POP JUMP JUMPDEST PUSH0 SWAP1 JUMP JUMPDEST PUSH2 0x1E84 PUSH2 0x1E78 JUMP JUMPDEST PUSH2 0x1E8F DUP2 DUP5 DUP5 PUSH2 0x1E53 JUMP JUMPDEST POP POP POP JUMP JUMPDEST JUMPDEST DUP2 DUP2 LT ISZERO PUSH2 0x1EB2 JUMPI PUSH2 0x1EA7 PUSH0 DUP3 PUSH2 0x1E7C JUMP JUMPDEST PUSH1 0x1 DUP2 ADD SWAP1 POP PUSH2 0x1E95 JUMP JUMPDEST POP POP JUMP JUMPDEST PUSH1 0x1F DUP3 GT ISZERO PUSH2 0x1EF7 JUMPI PUSH2 0x1EC8 DUP2 PUSH2 0x1DA2 JUMP JUMPDEST PUSH2 0x1ED1 DUP5 PUSH2 0x1DB4 JUMP JUMPDEST DUP2 ADD PUSH1 0x20 DUP6 LT ISZERO PUSH2 0x1EE0 JUMPI DUP2 SWAP1 POP JUMPDEST PUSH2 0x1EF4 PUSH2 0x1EEC DUP6 PUSH2 0x1DB4 JUMP JUMPDEST DUP4 ADD DUP3 PUSH2 0x1E94 JUMP JUMPDEST POP POP JUMPDEST POP POP POP JUMP JUMPDEST PUSH0 DUP3 DUP3 SHR SWAP1 POP SWAP3 SWAP2 POP POP JUMP JUMPDEST PUSH0 PUSH2 0x1F17 PUSH0 NOT DUP5 PUSH1 0x8 MUL PUSH2 0x1EFC JUMP JUMPDEST NOT DUP1 DUP4 AND SWAP2 POP POP SWAP3 SWAP2 POP POP JUMP JUMPDEST PUSH0 PUSH2 0x1F2F DUP4 DUP4 PUSH2 0x1F08 JUMP JUMPDEST SWAP2 POP DUP3 PUSH1 0x2 MUL DUP3 OR SWAP1 POP SWAP3 SWAP2 POP POP JUMP JUMPDEST PUSH2 0x1F48 DUP3 PUSH2 0x1511 JUMP JUMPDEST PUSH8 0xFFFFFFFFFFFFFFFF DUP2 GT ISZERO PUSH2 0x1F61 JUMPI PUSH2 0x1F60 PUSH2 0x192C JUMP JUMPDEST JUMPDEST PUSH2 0x1F6B DUP3 SLOAD PUSH2 0x1C69 JUMP JUMPDEST PUSH2 0x1F76 DUP3 DUP3 DUP6 PUSH2 0x1EB6 JUMP JUMPDEST PUSH0 PUSH1 0x20 SWAP1 POP PUSH1 0x1F DUP4 GT PUSH1 0x1 DUP2 EQ PUSH2 0x1FA7 JUMPI PUSH0 DUP5 ISZERO PUSH2 0x1F95 JUMPI DUP3 DUP8 ADD MLOAD SWAP1 POP JUMPDEST PUSH2 0x1F9F DUP6 DUP3 PUSH2 0x1F24 JUMP JUMPDEST DUP7 SSTORE POP PUSH2 0x2006 JUMP JUMPDEST PUSH1 0x1F NOT DUP5 AND PUSH2 0x1FB5 DUP7 PUSH2 0x1DA2 JUMP JUMPDEST PUSH0 JUMPDEST DUP3 DUP2 LT ISZERO PUSH2 0x1FDC JUMPI DUP5 DUP10 ADD MLOAD DUP3 SSTORE PUSH1 0x1 DUP3 ADD SWAP2 POP PUSH1 0x20 DUP6 ADD SWAP5 POP PUSH1 0x20 DUP2 ADD SWAP1 POP PUSH2 0x1FB7 JUMP JUMPDEST DUP7 DUP4 LT ISZERO PUSH2 0x1FF9 JUMPI DUP5 DUP10 ADD MLOAD PUSH2 0x1FF5 PUSH1 0x1F DUP10 AND DUP3 PUSH2 0x1F08 JUMP JUMPDEST DUP4 SSTORE POP JUMPDEST PUSH1 0x1 PUSH1 0x2 DUP9 MUL ADD DUP9 SSTORE POP POP POP JUMPDEST POP POP POP POP POP POP JUMP JUMPDEST PUSH0 PUSH1 0x20 DUP3 ADD SWAP1 POP DUP2 DUP2 SUB PUSH0 DUP4 ADD MSTORE PUSH2 0x2026 DUP2 DUP5 PUSH2 0x1563 JUMP JUMPDEST SWAP1 POP SWAP3 SWAP2 POP POP JUMP JUMPDEST PUSH32 0x496E76616C696420656469742072657175657374204944000000000000000000 PUSH0 DUP3 ADD MSTORE POP JUMP JUMPDEST PUSH0 PUSH2 0x2062 PUSH1 0x17 DUP4 PUSH2 0x151B JUMP JUMPDEST SWAP2 POP PUSH2 0x206D DUP3 PUSH2 0x202E JUMP JUMPDEST PUSH1 0x20 DUP3 ADD SWAP1 POP SWAP2 SWAP1 POP JUMP JUMPDEST PUSH0 PUSH1 0x20 DUP3 ADD SWAP1 POP DUP2 DUP2 SUB PUSH0 DUP4 ADD MSTORE PUSH2 0x208F DUP2 PUSH2 0x2056 JUMP JUMPDEST SWAP1 POP SWAP2 SWAP1 POP JUMP JUMPDEST PUSH32 0x45646974207265717565737420616C726561647920617070726F766564000000 PUSH0 DUP3 ADD MSTORE POP JUMP JUMPDEST PUSH0 PUSH2 0x20CA PUSH1 0x1D DUP4 PUSH2 0x151B JUMP JUMPDEST SWAP2 POP PUSH2 0x20D5 DUP3 PUSH2 0x2096 JUMP JUMPDEST PUSH1 0x20 DUP3 ADD SWAP1 POP SWAP2 SWAP1 POP JUMP JUMPDEST PUSH0 PUSH1 0x20 DUP3 ADD SWAP1 POP DUP2 DUP2 SUB PUSH0 DUP4 ADD MSTORE PUSH2 0x20F7 DUP2 PUSH2 0x20BE JUMP JUMPDEST SWAP1 POP SWAP2 SWAP1 POP JUMP JUMPDEST PUSH0 DUP2 SLOAD SWAP1 POP PUSH2 0x210C DUP2 PUSH2 0x1C69 JUMP JUMPDEST SWAP1 POP SWAP2 SWAP1 POP JUMP JUMPDEST PUSH0 DUP2 SWAP1 POP DUP2 PUSH0 MSTORE PUSH1 0x20 PUSH0 KECCAK256 SWAP1 POP SWAP2 SWAP1 POP JUMP JUMPDEST DUP2 DUP2 SUB PUSH2 0x2133 JUMPI POP POP PUSH2 0x2208 JUMP JUMPDEST PUSH2 0x213C DUP3 PUSH2 0x20FE JUMP JUMPDEST PUSH8 0xFFFFFFFFFFFFFFFF DUP2 GT ISZERO PUSH2 0x2155 JUMPI PUSH2 0x2154 PUSH2 0x192C JUMP JUMPDEST JUMPDEST PUSH2 0x215F DUP3 SLOAD PUSH2 0x1C69 JUMP JUMPDEST PUSH2 0x216A DUP3 DUP3 DUP6 PUSH2 0x1EB6 JUMP JUMPDEST PUSH0 PUSH1 0x1F DUP4 GT PUSH1 0x1 DUP2 EQ PUSH2 0x2197 JUMPI PUSH0 DUP5 ISZERO PUSH2 0x2185 JUMPI DUP3 DUP8 ADD SLOAD SWAP1 POP JUMPDEST PUSH2 0x218F DUP6 DUP3 PUSH2 0x1F24 JUMP JUMPDEST DUP7 SSTORE POP PUSH2 0x2201 JUMP JUMPDEST PUSH1 0x1F NOT DUP5 AND PUSH2 0x21A5 DUP8 PUSH2 0x2113 JUMP JUMPDEST SWAP7 POP PUSH2 0x21B0 DUP7 PUSH2 0x1DA2 JUMP JUMPDEST PUSH0 JUMPDEST DUP3 DUP2 LT ISZERO PUSH2 0x21D7 JUMPI DUP5 DUP10 ADD SLOAD DUP3 SSTORE PUSH1 0x1 DUP3 ADD SWAP2 POP PUSH1 0x1 DUP6 ADD SWAP5 POP PUSH1 0x20 DUP2 ADD SWAP1 POP PUSH2 0x21B2 JUMP JUMPDEST DUP7 DUP4 LT ISZERO PUSH2 0x21F4 JUMPI DUP5 DUP10 ADD SLOAD PUSH2 0x21F0 PUSH1 0x1F DUP10 AND DUP3 PUSH2 0x1F08 JUMP JUMPDEST DUP4 SSTORE POP JUMPDEST PUSH1 0x1 PUSH1 0x2 DUP9 MUL ADD DUP9 SSTORE POP POP POP JUMPDEST POP POP POP POP POP POP JUMPDEST JUMP JUMPDEST PUSH0 DUP2 SLOAD PUSH2 0x2216 DUP2 PUSH2 0x1C69 JUMP JUMPDEST PUSH2 0x2220 DUP2 DUP7 PUSH2 0x151B JUMP JUMPDEST SWAP5 POP PUSH1 0x1 DUP3 AND PUSH0 DUP2 EQ PUSH2 0x223A JUMPI PUSH1 0x1 DUP2 EQ PUSH2 0x2250 JUMPI PUSH2 0x2282 JUMP JUMPDEST PUSH1 0xFF NOT DUP4 AND DUP7 MSTORE DUP2 ISZERO ISZERO PUSH1 0x20 MUL DUP7 ADD SWAP4 POP PUSH2 0x2282 JUMP JUMPDEST PUSH2 0x2259 DUP6 PUSH2 0x1DA2 JUMP JUMPDEST PUSH0 JUMPDEST DUP4 DUP2 LT ISZERO PUSH2 0x227A JUMPI DUP2 SLOAD DUP2 DUP10 ADD MSTORE PUSH1 0x1 DUP3 ADD SWAP2 POP PUSH1 0x20 DUP2 ADD SWAP1 POP PUSH2 0x225B JUMP JUMPDEST DUP1 DUP9 ADD SWAP6 POP POP POP JUMPDEST POP POP POP SWAP3 SWAP2 POP POP JUMP JUMPDEST PUSH0 PUSH1 0x20 DUP3 ADD SWAP1 POP DUP2 DUP2 SUB PUSH0 DUP4 ADD MSTORE PUSH2 0x22A3 DUP2 DUP5 PUSH2 0x220A JUMP JUMPDEST SWAP1 POP SWAP3 SWAP2 POP POP JUMP JUMPDEST PUSH32 0x496E76616C6964206D6573736167652049440000000000000000000000000000 PUSH0 DUP3 ADD MSTORE POP JUMP JUMPDEST PUSH0 PUSH2 0x22DF PUSH1 0x12 DUP4 PUSH2 0x151B JUMP JUMPDEST SWAP2 POP PUSH2 0x22EA DUP3 PUSH2 0x22AB JUMP JUMPDEST PUSH1 0x20 DUP3 ADD SWAP1 POP SWAP2 SWAP1 POP JUMP JUMPDEST PUSH0 PUSH1 0x20 DUP3 ADD SWAP1 POP DUP2 DUP2 SUB PUSH0 DUP4 ADD MSTORE PUSH2 0x230C DUP2 PUSH2 0x22D3 JUMP JUMPDEST SWAP1 POP SWAP2 SWAP1 POP JUMP JUMPDEST PUSH32 0x4D65737361676520686173206265656E2064656C657465640000000000000000 PUSH0 DUP3 ADD MSTORE POP JUMP JUMPDEST PUSH0 PUSH2 0x2347 PUSH1 0x18 DUP4 PUSH2 0x151B JUMP JUMPDEST SWAP2 POP PUSH2 0x2352 DUP3 PUSH2 0x2313 JUMP JUMPDEST PUSH1 0x20 DUP3 ADD SWAP1 POP SWAP2 SWAP1 POP JUMP JUMPDEST PUSH0 PUSH1 0x20 DUP3 ADD SWAP1 POP DUP2 DUP2 SUB PUSH0 DUP4 ADD MSTORE PUSH2 0x2374 DUP2 PUSH2 0x233B JUMP JUMPDEST SWAP1 POP SWAP2 SWAP1 POP JUMP JUMPDEST PUSH32 0x4F6E6C79206D65737361676520617574686F722063616E207265717565737420 PUSH0 DUP3 ADD MSTORE PUSH32 0x6564697400000000000000000000000000000000000000000000000000000000 PUSH1 0x20 DUP3 ADD MSTORE POP JUMP JUMPDEST PUSH0 PUSH2 0x23D5 PUSH1 0x24 DUP4 PUSH2 0x151B JUMP JUMPDEST SWAP2 POP PUSH2 0x23E0 DUP3 PUSH2 0x237B JUMP JUMPDEST PUSH1 0x40 DUP3 ADD SWAP1 POP SWAP2 SWAP1 POP JUMP JUMPDEST PUSH0 PUSH1 0x20 DUP3 ADD SWAP1 POP DUP2 DUP2 SUB PUSH0 DUP4 ADD MSTORE PUSH2 0x2402 DUP2 PUSH2 0x23C9 JUMP JUMPDEST SWAP1 POP SWAP2 SWAP1 POP JUMP JUMPDEST PUSH32 0x4E657720636F6E74656E742063616E6E6F7420626520656D7074790000000000 PUSH0 DUP3 ADD MSTORE POP JUMP JUMPDEST PUSH0 PUSH2 0x243D PUSH1 0x1B DUP4 PUSH2 0x151B JUMP JUMPDEST SWAP2 POP PUSH2 0x2448 DUP3 PUSH2 0x2409 JUMP JUMPDEST PUSH1 0x20 DUP3 ADD SWAP1 POP SWAP2 SWAP1 POP JUMP JUMPDEST PUSH0 PUSH1 0x20 DUP3 ADD SWAP1 POP DUP2 DUP2 SUB PUSH0 DUP4 ADD MSTORE PUSH2 0x246A DUP2 PUSH2 0x2431 JUMP JUMPDEST SWAP1 POP SWAP2 SWAP1 POP JUMP JUMPDEST PUSH32 0x4D65737361676520616C72656164792064656C65746564000000000000000000 PUSH0 DUP3 ADD MSTORE POP JUMP JUMPDEST PUSH0 PUSH2 0x24A5 PUSH1 0x17 DUP4 PUSH2 0x151B JUMP JUMPDEST SWAP2 POP PUSH2 0x24B0 DUP3 PUSH2 0x2471 JUMP JUMPDEST PUSH1 0x20 DUP3 ADD SWAP1 POP SWAP2 SWAP1 POP JUMP JUMPDEST PUSH0 PUSH1 0x20 DUP3 ADD SWAP1 POP DUP2 DUP2 SUB PUSH0 DUP4 ADD MSTORE PUSH2 0x24D2 DUP2 PUSH2 0x2499 JUMP JUMPDEST SWAP1 POP SWAP2 SWAP1 POP JUMP JUMPDEST PUSH32 0x5265656E7472616E637947756172643A207265656E7472616E742063616C6C00 PUSH0 DUP3 ADD MSTORE POP JUMP JUMPDEST PUSH0 PUSH2 0x250D PUSH1 0x1F DUP4 PUSH2 0x151B JUMP JUMPDEST SWAP2 POP PUSH2 0x2518 DUP3 PUSH2 0x24D9 JUMP JUMPDEST PUSH1 0x20 DUP3 ADD SWAP1 POP SWAP2 SWAP1 POP JUMP JUMPDEST PUSH0 PUSH1 0x20 DUP3 ADD SWAP1 POP DUP2 DUP2 SUB PUSH0 DUP4 ADD MSTORE PUSH2 0x253A DUP2 PUSH2 0x2501 JUMP JUMPDEST SWAP1 POP SWAP2 SWAP1 POP JUMP INVALID LOG2 PUSH5 0x6970667358 0x22 SLT KECCAK256 BLOCKHASH CALLDATACOPY SELFDESTRUCT MSIZE CALLVALUE MOD DUP15 0xC 0x2D 0xB2 BALANCE JUMP DUP6 DUP3 ADD 0xC8 0x2A JUMPDEST 0xF DUP3 DUP9 NUMBER INVALID RETURNDATASIZE 0xE5 CALLDATACOPY INVALID 0xBA PREVRANDAO SWAP4 SSTORE RETURN PUSH5 0x736F6C6343 STOP ADDMOD EQ STOP CALLER "
				},
				"gasEstimates": {
					"creation": {
						"codeDepositCost": "1918200",
						"executionCost": "infinite",
						"totalCost": "infinite"
					},
					"external": {
						"approveMessageEdit(uint256)": "infinite",
						"deleteMessage(uint256)": "infinite",
						"editRequestCount()": "2471",
						"editRequests(uint256)": "infinite",
						"getAllMessages()": "infinite",
						"getMessage(uint256)": "infinite",
						"getPendingEditRequests()": "infinite",
						"messageCount()": "2493",
						"messages(uint256)": "infinite",
						"owner()": "2537",
						"postMessage(string)": "infinite",
						"renounceOwnership()": "infinite",
						"requestMessageEdit(uint256,string)": "infinite",
						"transferOwnership(address)": "infinite"
					}
				},
				"methodIdentifiers": {
					"approveMessageEdit(uint256)": "83c3cca7",
					"deleteMessage(uint256)": "b888690a",
					"editRequestCount()": "3bdae52f",
					"editRequests(uint256)": "77175fac",
					"getAllMessages()": "53f5e380",
					"getMessage(uint256)": "86f79edb",
					"getPendingEditRequests()": "44a56dd9",
					"messageCount()": "3dbcc8d1",
					"messages(uint256)": "0d80fefd",
					"owner()": "8da5cb5b",
					"postMessage(string)": "6630f88f",
					"renounceOwnership()": "715018a6",
					"requestMessageEdit(uint256,string)": "a8c69fd8",
					"transferOwnership(address)": "f2fde38b"
				}
			},
			"storageLayout": {
				"storage": [
					{
						"astId": 8,
						"contract": "MessageBoard.sol:ChainTalk",
						"label": "_owner",
						"offset": 0,
						"slot": "0",
						"type": "t_address"
					},
					{
						"astId": 158,
						"contract": "MessageBoard.sol:ChainTalk",
						"label": "_status",
						"offset": 0,
						"slot": "1",
						"type": "t_uint256"
					},
					{
						"astId": 276,
						"contract": "MessageBoard.sol:ChainTalk",
						"label": "messages",
						"offset": 0,
						"slot": "2",
						"type": "t_mapping(t_uint256,t_struct(Message)262_storage)"
					},
					{
						"astId": 281,
						"contract": "MessageBoard.sol:ChainTalk",
						"label": "editRequests",
						"offset": 0,
						"slot": "3",
						"type": "t_mapping(t_uint256,t_struct(EditRequest)271_storage)"
					},
					{
						"astId": 283,
						"contract": "MessageBoard.sol:ChainTalk",
						"label": "messageCount",
						"offset": 0,
						"slot": "4",
						"type": "t_uint256"
					},
					{
						"astId": 285,
						"contract": "MessageBoard.sol:ChainTalk",
						"label": "editRequestCount",
						"offset": 0,
						"slot": "5",
						"type": "t_uint256"
					}
				],
				"types": {
					"t_address": {
						"encoding": "inplace",
						"label": "address",
						"numberOfBytes": "20"
					},
					"t_bool": {
						"encoding": "inplace",
						"label": "bool",
						"numberOfBytes": "1"
					},
					"t_mapping(t_uint256,t_struct(EditRequest)271_storage)": {
						"encoding": "mapping",
						"key": "t_uint256",
						"label": "mapping(uint256 => struct ChainTalk.EditRequest)",
						"numberOfBytes": "32",
						"value": "t_struct(EditRequest)271_storage"
					},
					"t_mapping(t_uint256,t_struct(Message)262_storage)": {
						"encoding": "mapping",
						"key": "t_uint256",
						"label": "mapping(uint256 => struct ChainTalk.Message)",
						"numberOfBytes": "32",
						"value": "t_struct(Message)262_storage"
					},
					"t_string_storage": {
						"encoding": "bytes",
						"label": "string",
						"numberOfBytes": "32"
					},
					"t_struct(EditRequest)271_storage": {
						"encoding": "inplace",
						"label": "struct ChainTalk.EditRequest",
						"members": [
							{
								"astId": 264,
								"contract": "MessageBoard.sol:ChainTalk",
								"label": "messageId",
								"offset": 0,
								"slot": "0",
								"type": "t_uint256"
							},
							{
								"astId": 266,
								"contract": "MessageBoard.sol:ChainTalk",
								"label": "requester",
								"offset": 0,
								"slot": "1",
								"type": "t_address"
							},
							{
								"astId": 268,
								"contract": "MessageBoard.sol:ChainTalk",
								"label": "newContent",
								"offset": 0,
								"slot": "2",
								"type": "t_string_storage"
							},
							{
								"astId": 270,
								"contract": "MessageBoard.sol:ChainTalk",
								"label": "isApproved",
								"offset": 0,
								"slot": "3",
								"type": "t_bool"
							}
						],
						"numberOfBytes": "128"
					},
					"t_struct(Message)262_storage": {
						"encoding": "inplace",
						"label": "struct ChainTalk.Message",
						"members": [
							{
								"astId": 253,
								"contract": "MessageBoard.sol:ChainTalk",
								"label": "id",
								"offset": 0,
								"slot": "0",
								"type": "t_uint256"
							},
							{
								"astId": 255,
								"contract": "MessageBoard.sol:ChainTalk",
								"label": "author",
								"offset": 0,
								"slot": "1",
								"type": "t_address"
							},
							{
								"astId": 257,
								"contract": "MessageBoard.sol:ChainTalk",
								"label": "content",
								"offset": 0,
								"slot": "2",
								"type": "t_string_storage"
							},
							{
								"astId": 259,
								"contract": "MessageBoard.sol:ChainTalk",
								"label": "timestamp",
								"offset": 0,
								"slot": "3",
								"type": "t_uint256"
							},
							{
								"astId": 261,
								"contract": "MessageBoard.sol:ChainTalk",
								"label": "isDeleted",
								"offset": 0,
								"slot": "4",
								"type": "t_bool"
							}
						],
						"numberOfBytes": "160"
					},
					"t_uint256": {
						"encoding": "inplace",
						"label": "uint256",
						"numberOfBytes": "32"
					}
				}
			},
			"userdoc": {
				"kind": "user",
				"methods": {},
				"version": 1
			}
		}
	}
}