{
	"data": {
		"bytecode": {
			"linkReferences": {},
			"object": "608060405234801562000010575f80fd5b50335f73ffffffffffffffffffffffffffffffffffffffff168173ffffffffffffffffffffffffffffffffffffffff160362000085575f6040517f1e4fbdf70000000000000000000000000000000000000000000000000000000081526004016200007c9190620001a8565b60405180910390fd5b6200009681620000a460201b60201c565b5060018081905550620001c3565b5f805f9054906101000a900473ffffffffffffffffffffffffffffffffffffffff169050815f806101000a81548173ffffffffffffffffffffffffffffffffffffffff021916908373ffffffffffffffffffffffffffffffffffffffff1602179055508173ffffffffffffffffffffffffffffffffffffffff168173ffffffffffffffffffffffffffffffffffffffff167f8be0079c531659141344cd1fd0a4f28419497f9722a3daafe3b4186f6b6457e060405160405180910390a35050565b5f73ffffffffffffffffffffffffffffffffffffffff82169050919050565b5f620001908262000165565b9050919050565b620001a28162000184565b82525050565b5f602082019050620001bd5f83018462000197565b92915050565b61257780620001d15f395ff3fe608060405234801561000f575f80fd5b50600436106100e8575f3560e01c806377175fac1161008a5780638da5cb5b116100645780638da5cb5b14610251578063a8c69fd81461026f578063b888690a1461028b578063f2fde38b146102a7576100e8565b806377175fac146101d257806383c3cca71461020557806386f79edb14610221576100e8565b806344a56dd9116100c657806344a56dd91461015c57806353f5e3801461017a5780636630f88f14610198578063715018a6146101c8576100e8565b80630d80fefd146100ec5780633bdae52f146101205780633dbcc8d11461013e575b5f80fd5b61010660048036038101906101019190611498565b6102c3565b6040516101179594939291906115b5565b60405180910390f35b6101286103a6565b604051610135919061160d565b60405180910390f35b6101466103ac565b604051610153919061160d565b60405180910390f35b6101646103b2565b60405161017191906117b6565b60405180910390f35b6101826105b2565b60405161018f9190611904565b60405180910390f35b6101b260048036038101906101ad9190611a50565b6107bc565b6040516101bf919061160d565b60405180910390f35b6101d0610966565b005b6101ec60048036038101906101e79190611498565b610979565b6040516101fc9493929190611a97565b60405180910390f35b61021f600480360381019061021a9190611498565b610a56565b005b61023b60048036038101906102369190611498565b610b9e565b6040516102489190611b54565b60405180910390f35b610259610d8c565b6040516102669190611b74565b60405180910390f35b61028960048036038101906102849190611b8d565b610db3565b005b6102a560048036038101906102a09190611498565b611094565b005b6102c160048036038101906102bc9190611c11565b6111a9565b005b6002602052805f5260405f205f91509050805f015490806001015f9054906101000a900473ffffffffffffffffffffffffffffffffffffffff169080600201805461030d90611c69565b80601f016020809104026020016040519081016040528092919081815260200182805461033990611c69565b80156103845780601f1061035b57610100808354040283529160200191610384565b820191905f5260205f20905b81548152906001019060200180831161036757829003601f168201915b505050505090806003015490806004015f9054906101000a900460ff16905085565b60055481565b60045481565b60605f60055467ffffffffffffffff8111156103d1576103d061192c565b5b60405190808252806020026020018201604052801561040a57816020015b6103f76113d4565b8152602001906001900390816103ef5790505b5090505f80600190505b60055481116105a65760035f8281526020019081526020015f206003015f9054906101000a900460ff166105935760035f8281526020019081526020015f206040518060800160405290815f8201548152602001600182015f9054906101000a900473ffffffffffffffffffffffffffffffffffffffff1673ffffffffffffffffffffffffffffffffffffffff1673ffffffffffffffffffffffffffffffffffffffff1681526020016002820180546104cc90611c69565b80601f01602080910402602001604051908101604052809291908181526020018280546104f890611c69565b80156105435780601f1061051a57610100808354040283529160200191610543565b820191905f5260205f20905b81548152906001019060200180831161052657829003601f168201915b50505050508152602001600382015f9054906101000a900460ff16151515158152505083838151811061057957610578611c99565b5b6020026020010181905250818061058f90611cf3565b9250505b808061059e90611cf3565b915050610414565b50808252819250505090565b60605f60045467ffffffffffffffff8111156105d1576105d061192c565b5b60405190808252806020026020018201604052801561060a57816020015b6105f7611411565b8152602001906001900390816105ef5790505b5090505f80600190505b60045481116107b05760025f8281526020019081526020015f206004015f9054906101000a900460ff1661079d5760025f8281526020019081526020015f206040518060a00160405290815f8201548152602001600182015f9054906101000a900473ffffffffffffffffffffffffffffffffffffffff1673ffffffffffffffffffffffffffffffffffffffff1673ffffffffffffffffffffffffffffffffffffffff1681526020016002820180546106cc90611c69565b80601f01602080910402602001604051908101604052809291908181526020018280546106f890611c69565b80156107435780601f1061071a57610100808354040283529160200191610743565b820191905f5260205f20905b81548152906001019060200180831161072657829003601f168201915b5050505050815260200160038201548152602001600482015f9054906101000a900460ff16151515158152505083838151811061078357610782611c99565b5b6020026020010181905250818061079990611cf3565b9250505b80806107a890611cf3565b915050610614565b50808252819250505090565b5f6107c561122d565b5f825111610808576040517f08c379a00000000000000000000000000000000000000000000000000000000081526004016107ff90611d84565b60405180910390fd5b60045f81548092919061081a90611cf3565b91905055506040518060a0016040528060045481526020013373ffffffffffffffffffffffffffffffffffffffff1681526020018381526020014281526020015f151581525060025f60045481526020019081526020015f205f820151815f01556020820151816001015f6101000a81548173ffffffffffffffffffffffffffffffffffffffff021916908373ffffffffffffffffffffffffffffffffffffffff16021790555060408201518160020190816108d69190611f3f565b50606082015181600301556080820151816004015f6101000a81548160ff0219169083151502179055509050503373ffffffffffffffffffffffffffffffffffffffff166004547f16effde6b8c5f78279aca5974057ff6b6fd8c9ab5e96994c7f1b62cbfcbbd78b8460405161094c919061200e565b60405180910390a3600454905061096161127c565b919050565b61096e611285565b6109775f61130c565b565b6003602052805f5260405f205f91509050805f015490806001015f9054906101000a900473ffffffffffffffffffffffffffffffffffffffff16908060020180546109c390611c69565b80601f01602080910402602001604051908101604052809291908181526020018280546109ef90611c69565b8015610a3a5780601f10610a1157610100808354040283529160200191610a3a565b820191905f5260205f20905b815481529060010190602001808311610a1d57829003601f168201915b505050505090806003015f9054906101000a900460ff16905084565b610a5e611285565b5f81118015610a6f57506005548111155b610aae576040517f08c379a0000000000000000000000000000000000000000000000000000000008152600401610aa590612078565b60405180910390fd5b5f60035f8381526020019081526020015f209050806003015f9054906101000a900460ff1615610b13576040517f08c379a0000000000000000000000000000000000000000000000000000000008152600401610b0a906120e0565b60405180910390fd5b5f60025f835f015481526020019081526020015f20905081600201816002019081610b3e9190612125565b506001826003015f6101000a81548160ff021916908315150217905550815f01547fc044182a0ac1fcdfa543f1c6ff27940f1a5b4221b8232e11b492d48953bc9c4383600201604051610b91919061228b565b60405180910390a2505050565b610ba6611411565b5f82118015610bb757506004548211155b610bf6576040517f08c379a0000000000000000000000000000000000000000000000000000000008152600401610bed906122f5565b60405180910390fd5b60025f8381526020019081526020015f206004015f9054906101000a900460ff1615610c57576040517f08c379a0000000000000000000000000000000000000000000000000000000008152600401610c4e9061235d565b60405180910390fd5b60025f8381526020019081526020015f206040518060a00160405290815f8201548152602001600182015f9054906101000a900473ffffffffffffffffffffffffffffffffffffffff1673ffffffffffffffffffffffffffffffffffffffff1673ffffffffffffffffffffffffffffffffffffffff168152602001600282018054610ce190611c69565b80601f0160208091040260200160405190810160405280929190818152602001828054610d0d90611c69565b8015610d585780601f10610d2f57610100808354040283529160200191610d58565b820191905f5260205f20905b815481529060010190602001808311610d3b57829003601f168201915b5050505050815260200160038201548152602001600482015f9054906101000a900460ff1615151515815250509050919050565b5f805f9054906101000a900473ffffffffffffffffffffffffffffffffffffffff16905090565b610dbb61122d565b5f82118015610dcc57506004548211155b610e0b576040517f08c379a0000000000000000000000000000000000000000000000000000000008152600401610e02906122f5565b60405180910390fd5b60025f8381526020019081526020015f206004015f9054906101000a900460ff1615610e6c576040517f08c379a0000000000000000000000000000000000000000000000000000000008152600401610e639061235d565b60405180910390fd5b3373ffffffffffffffffffffffffffffffffffffffff1660025f8481526020019081526020015f206001015f9054906101000a900473ffffffffffffffffffffffffffffffffffffffff1673ffffffffffffffffffffffffffffffffffffffff1614610f0d576040517f08c379a0000000000000000000000000000000000000000000000000000000008152600401610f04906123eb565b60405180910390fd5b5f815111610f50576040517f08c379a0000000000000000000000000000000000000000000000000000000008152600401610f4790612453565b60405180910390fd5b60055f815480929190610f6290611cf3565b919050555060405180608001604052808381526020013373ffffffffffffffffffffffffffffffffffffffff1681526020018281526020015f151581525060035f60055481526020019081526020015f205f820151815f01556020820151816001015f6101000a81548173ffffffffffffffffffffffffffffffffffffffff021916908373ffffffffffffffffffffffffffffffffffffffff16021790555060408201518160020190816110169190611f3f565b506060820151816003015f6101000a81548160ff0219169083151502179055509050503373ffffffffffffffffffffffffffffffffffffffff16827f65a5dfdcca99d0a97bd4a95e21c4af5e64327ba9493215cccbfd0b87ca2ba36283604051611080919061200e565b60405180910390a361109061127c565b5050565b61109c611285565b5f811180156110ad57506004548111155b6110ec576040517f08c379a00000000000000000000000000000000000000000000000000000000081526004016110e3906122f5565b60405180910390fd5b60025f8281526020019081526020015f206004015f9054906101000a900460ff161561114d576040517f08c379a0000000000000000000000000000000000000000000000000000000008152600401611144906124bb565b60405180910390fd5b600160025f8381526020019081526020015f206004015f6101000a81548160ff021916908315150217905550807f6279be045e4d4d5a0eba7b1f0e578322b6dd7c01e92f0991700a02180904654b60405160405180910390a250565b6111b1611285565b5f73ffffffffffffffffffffffffffffffffffffffff168173ffffffffffffffffffffffffffffffffffffffff1603611221575f6040517f1e4fbdf70000000000000000000000000000000000000000000000000000000081526004016112189190611b74565b60405180910390fd5b61122a8161130c565b50565b600260015403611272576040517f08c379a000000000000000000000000000000000000000000000000000000000815260040161126990612523565b60405180910390fd5b6002600181905550565b60018081905550565b61128d6113cd565b73ffffffffffffffffffffffffffffffffffffffff166112ab610d8c565b73ffffffffffffffffffffffffffffffffffffffff161461130a576112ce6113cd565b6040517f118cdaa70000000000000000000000000000000000000000000000000000000081526004016113019190611b74565b60405180910390fd5b565b5f805f9054906101000a900473ffffffffffffffffffffffffffffffffffffffff169050815f806101000a81548173ffffffffffffffffffffffffffffffffffffffff021916908373ffffffffffffffffffffffffffffffffffffffff1602179055508173ffffffffffffffffffffffffffffffffffffffff168173ffffffffffffffffffffffffffffffffffffffff167f8be0079c531659141344cd1fd0a4f28419497f9722a3daafe3b4186f6b6457e060405160405180910390a35050565b5f33905090565b60405180608001604052805f81526020015f73ffffffffffffffffffffffffffffffffffffffff168152602001606081526020015f151581525090565b6040518060a001604052805f81526020015f73ffffffffffffffffffffffffffffffffffffffff168152602001606081526020015f81526020015f151581525090565b5f604051905090565b5f80fd5b5f80fd5b5f819050919050565b61147781611465565b8114611481575f80fd5b50565b5f813590506114928161146e565b92915050565b5f602082840312156114ad576114ac61145d565b5b5f6114ba84828501611484565b91505092915050565b6114cc81611465565b82525050565b5f73ffffffffffffffffffffffffffffffffffffffff82169050919050565b5f6114fb826114d2565b9050919050565b61150b816114f1565b82525050565b5f81519050919050565b5f82825260208201905092915050565b5f5b8381101561154857808201518184015260208101905061152d565b5f8484015250505050565b5f601f19601f8301169050919050565b5f61156d82611511565b611577818561151b565b935061158781856020860161152b565b61159081611553565b840191505092915050565b5f8115159050919050565b6115af8161159b565b82525050565b5f60a0820190506115c85f8301886114c3565b6115d56020830187611502565b81810360408301526115e78186611563565b90506115f660608301856114c3565b61160360808301846115a6565b9695505050505050565b5f6020820190506116205f8301846114c3565b92915050565b5f81519050919050565b5f82825260208201905092915050565b5f819050602082019050919050565b61165881611465565b82525050565b611667816114f1565b82525050565b5f82825260208201905092915050565b5f61168782611511565b611691818561166d565b93506116a181856020860161152b565b6116aa81611553565b840191505092915050565b6116be8161159b565b82525050565b5f608083015f8301516116d95f86018261164f565b5060208301516116ec602086018261165e565b5060408301518482036040860152611704828261167d565b915050606083015161171960608601826116b5565b508091505092915050565b5f61172f83836116c4565b905092915050565b5f602082019050919050565b5f61174d82611626565b6117578185611630565b93508360208202850161176985611640565b805f5b858110156117a457848403895281516117858582611724565b945061179083611737565b925060208a0199505060018101905061176c565b50829750879550505050505092915050565b5f6020820190508181035f8301526117ce8184611743565b905092915050565b5f81519050919050565b5f82825260208201905092915050565b5f819050602082019050919050565b5f60a083015f8301516118145f86018261164f565b506020830151611827602086018261165e565b506040830151848203604086015261183f828261167d565b9150506060830151611854606086018261164f565b50608083015161186760808601826116b5565b508091505092915050565b5f61187d83836117ff565b905092915050565b5f602082019050919050565b5f61189b826117d6565b6118a581856117e0565b9350836020820285016118b7856117f0565b805f5b858110156118f257848403895281516118d38582611872565b94506118de83611885565b925060208a019950506001810190506118ba565b50829750879550505050505092915050565b5f6020820190508181035f83015261191c8184611891565b905092915050565b5f80fd5b5f80fd5b7f4e487b71000000000000000000000000000000000000000000000000000000005f52604160045260245ffd5b61196282611553565b810181811067ffffffffffffffff821117156119815761198061192c565b5b80604052505050565b5f611993611454565b905061199f8282611959565b919050565b5f67ffffffffffffffff8211156119be576119bd61192c565b5b6119c782611553565b9050602081019050919050565b828183375f83830152505050565b5f6119f46119ef846119a4565b61198a565b905082815260208101848484011115611a1057611a0f611928565b5b611a1b8482856119d4565b509392505050565b5f82601f830112611a3757611a36611924565b5b8135611a478482602086016119e2565b91505092915050565b5f60208284031215611a6557611a6461145d565b5b5f82013567ffffffffffffffff811115611a8257611a81611461565b5b611a8e84828501611a23565b91505092915050565b5f608082019050611aaa5f8301876114c3565b611ab76020830186611502565b8181036040830152611ac98185611563565b9050611ad860608301846115a6565b95945050505050565b5f60a083015f830151611af65f86018261164f565b506020830151611b09602086018261165e565b5060408301518482036040860152611b21828261167d565b9150506060830151611b36606086018261164f565b506080830151611b4960808601826116b5565b508091505092915050565b5f6020820190508181035f830152611b6c8184611ae1565b905092915050565b5f602082019050611b875f830184611502565b92915050565b5f8060408385031215611ba357611ba261145d565b5b5f611bb085828601611484565b925050602083013567ffffffffffffffff811115611bd157611bd0611461565b5b611bdd85828601611a23565b9150509250929050565b611bf0816114f1565b8114611bfa575f80fd5b50565b5f81359050611c0b81611be7565b92915050565b5f60208284031215611c2657611c2561145d565b5b5f611c3384828501611bfd565b91505092915050565b7f4e487b71000000000000000000000000000000000000000000000000000000005f52602260045260245ffd5b5f6002820490506001821680611c8057607f821691505b602082108103611c9357611c92611c3c565b5b50919050565b7f4e487b71000000000000000000000000000000000000000000000000000000005f52603260045260245ffd5b7f4e487b71000000000000000000000000000000000000000000000000000000005f52601160045260245ffd5b5f611cfd82611465565b91507fffffffffffffffffffffffffffffffffffffffffffffffffffffffffffffffff8203611d2f57611d2e611cc6565b5b600182019050919050565b7f4d6573736167652063616e6e6f7420626520656d7074790000000000000000005f82015250565b5f611d6e60178361151b565b9150611d7982611d3a565b602082019050919050565b5f6020820190508181035f830152611d9b81611d62565b9050919050565b5f819050815f5260205f209050919050565b5f6020601f8301049050919050565b5f82821b905092915050565b5f60088302611dfe7fffffffffffffffffffffffffffffffffffffffffffffffffffffffffffffffff82611dc3565b611e088683611dc3565b95508019841693508086168417925050509392505050565b5f819050919050565b5f611e43611e3e611e3984611465565b611e20565b611465565b9050919050565b5f819050919050565b611e5c83611e29565b611e70611e6882611e4a565b848454611dcf565b825550505050565b5f90565b611e84611e78565b611e8f818484611e53565b505050565b5b81811015611eb257611ea75f82611e7c565b600181019050611e95565b5050565b601f821115611ef757611ec881611da2565b611ed184611db4565b81016020851015611ee0578190505b611ef4611eec85611db4565b830182611e94565b50505b505050565b5f82821c905092915050565b5f611f175f1984600802611efc565b1980831691505092915050565b5f611f2f8383611f08565b9150826002028217905092915050565b611f4882611511565b67ffffffffffffffff811115611f6157611f6061192c565b5b611f6b8254611c69565b611f76828285611eb6565b5f60209050601f831160018114611fa7575f8415611f95578287015190505b611f9f8582611f24565b865550612006565b601f198416611fb586611da2565b5f5b82811015611fdc57848901518255600182019150602085019450602081019050611fb7565b86831015611ff95784890151611ff5601f891682611f08565b8355505b6001600288020188555050505b505050505050565b5f6020820190508181035f8301526120268184611563565b905092915050565b7f496e76616c6964206564697420726571756573742049440000000000000000005f82015250565b5f61206260178361151b565b915061206d8261202e565b602082019050919050565b5f6020820190508181035f83015261208f81612056565b9050919050565b7f45646974207265717565737420616c726561647920617070726f7665640000005f82015250565b5f6120ca601d8361151b565b91506120d582612096565b602082019050919050565b5f6020820190508181035f8301526120f7816120be565b9050919050565b5f8154905061210c81611c69565b9050919050565b5f819050815f5260205f209050919050565b818103612133575050612208565b61213c826120fe565b67ffffffffffffffff8111156121555761215461192c565b5b61215f8254611c69565b61216a828285611eb6565b5f601f831160018114612197575f8415612185578287015490505b61218f8582611f24565b865550612201565b601f1984166121a587612113565b96506121b086611da2565b5f5b828110156121d7578489015482556001820191506001850194506020810190506121b2565b868310156121f457848901546121f0601f891682611f08565b8355505b6001600288020188555050505b5050505050505b565b5f815461221681611c69565b612220818661151b565b9450600182165f811461223a576001811461225057612282565b60ff198316865281151560200286019350612282565b61225985611da2565b5f5b8381101561227a5781548189015260018201915060208101905061225b565b808801955050505b50505092915050565b5f6020820190508181035f8301526122a3818461220a565b905092915050565b7f496e76616c6964206d65737361676520494400000000000000000000000000005f82015250565b5f6122df60128361151b565b91506122ea826122ab565b602082019050919050565b5f6020820190508181035f83015261230c816122d3565b9050919050565b7f4d65737361676520686173206265656e2064656c6574656400000000000000005f82015250565b5f61234760188361151b565b915061235282612313565b602082019050919050565b5f6020820190508181035f8301526123748161233b565b9050919050565b7f4f6e6c79206d65737361676520617574686f722063616e2072657175657374205f8201527f6564697400000000000000000000000000000000000000000000000000000000602082015250565b5f6123d560248361151b565b91506123e08261237b565b604082019050919050565b5f6020820190508181035f830152612402816123c9565b9050919050565b7f4e657720636f6e74656e742063616e6e6f7420626520656d70747900000000005f82015250565b5f61243d601b8361151b565b915061244882612409565b602082019050919050565b5f6020820190508181035f83015261246a81612431565b9050919050565b7f4d65737361676520616c72656164792064656c657465640000000000000000005f82015250565b5f6124a560178361151b565b91506124b082612471565b602082019050919050565b5f6020820190508181035f8301526124d281612499565b9050919050565b7f5265656e7472616e637947756172643a207265656e7472616e742063616c6c005f82015250565b5f61250d601f8361151b565b9150612518826124d9565b602082019050919050565b5f6020820190508181035f83015261253a81612501565b905091905056fea2646970667358221220efe13861c91c93b4d0eb3333423be4aa9da1bd3d58801ffb290afb673b5f2a2e64736f6c63430008140033",
			"opcodes": "PUSH1 0x80 PUSH1 0x40 MSTORE CALLVALUE DUP1 ISZERO PUSH3 0x10 JUMPI PUSH0 DUP1 REVERT JUMPDEST POP CALLER PUSH0 PUSH20 0xFFFFFFFFFFFFFFFFFFFFFFFFFFFFFFFFFFFFFFFF AND DUP2 PUSH20 0xFFFFFFFFFFFFFFFFFFFFFFFFFFFFFFFFFFFFFFFF AND SUB PUSH3 0x85 JUMPI PUSH0 PUSH1 0x40 MLOAD PUSH32 0x1E4FBDF700000000000000000000000000000000000000000000000000000000 DUP2 MSTORE PUSH1 0x4 ADD PUSH3 0x7C SWAP2 SWAP1 PUSH3 0x1A8 JUMP JUMPDEST PUSH1 0x40 MLOAD DUP1 SWAP2 SUB SWAP1 REVERT JUMPDEST PUSH3 0x96 DUP2 PUSH3 0xA4 PUSH1 0x20 SHL PUSH1 0x20 SHR JUMP JUMPDEST POP PUSH1 0x1 DUP1 DUP2 SWAP1 SSTORE POP PUSH3 0x1C3 JUMP JUMPDEST PUSH0 DUP1 PUSH0 SWAP1 SLOAD SWAP1 PUSH2 0x100 EXP SWAP1 DIV PUSH20 0xFFFFFFFFFFFFFFFFFFFFFFFFFFFFFFFFFFFFFFFF AND SWAP1 POP DUP2 PUSH0 DUP1 PUSH2 0x100 EXP DUP2 SLOAD DUP2 PUSH20 0xFFFFFFFFFFFFFFFFFFFFFFFFFFFFFFFFFFFFFFFF MUL NOT AND SWAP1 DUP4 PUSH20 0xFFFFFFFFFFFFFFFFFFFFFFFFFFFFFFFFFFFFFFFF AND MUL OR SWAP1 SSTORE POP DUP2 PUSH20 0xFFFFFFFFFFFFFFFFFFFFFFFFFFFFFFFFFFFFFFFF AND DUP2 PUSH20 0xFFFFFFFFFFFFFFFFFFFFFFFFFFFFFFFFFFFFFFFF AND PUSH32 0x8BE0079C531659141344CD1FD0A4F28419497F9722A3DAAFE3B4186F6B6457E0 PUSH1 0x40 MLOAD PUSH1 0x40 MLOAD DUP1 SWAP2 SUB SWAP1 LOG3 POP POP JUMP JUMPDEST PUSH0 PUSH20 0xFFFFFFFFFFFFFFFFFFFFFFFFFFFFFFFFFFFFFFFF DUP3 AND SWAP1 POP SWAP2 SWAP1 POP JUMP JUMPDEST PUSH0 PUSH3 0x190 DUP3 PUSH3 0x165 JUMP JUMPDEST SWAP1 POP SWAP2 SWAP1 POP JUMP JUMPDEST PUSH3 0x1A2 DUP2 PUSH3 0x184 JUMP JUMPDEST DUP3 MSTORE POP POP JUMP JUMPDEST PUSH0 PUSH1 0x20 DUP3 ADD SWAP1 POP PUSH3 0x1BD PUSH0 DUP4 ADD DUP5 PUSH3 0x197 JUMP JUMPDEST SWAP3 SWAP2 POP POP JUMP JUMPDEST PUSH2 0x2577 DUP1 PUSH3 0x1D1 PUSH0 CODECOPY PUSH0 RETURN INVALID PUSH1 0x80 PUSH1 0x40 MSTORE CALLVALUE DUP1 ISZERO PUSH2 0xF JUMPI PUSH0 DUP1 REVERT JUMPDEST POP PUSH1 0x4 CALLDATASIZE LT PUSH2 0xE8 JUMPI PUSH0 CALLDATALOAD PUSH1 0xE0 SHR DUP1 PUSH4 0x77175FAC GT PUSH2 0x8A JUMPI DUP1 PUSH4 0x8DA5CB5B GT PUSH2 0x64 JUMPI DUP1 PUSH4 0x8DA5CB5B EQ PUSH2 0x251 JUMPI DUP1 PUSH4 0xA8C69FD8 EQ PUSH2 0x26F JUMPI DUP1 PUSH4 0xB888690A EQ PUSH2 0x28B JUMPI DUP1 PUSH4 0xF2FDE38B EQ PUSH2 0x2A7 JUMPI PUSH2 0xE8 JUMP JUMPDEST DUP1 PUSH4 0x77175FAC EQ PUSH2 0x1D2 JUMPI DUP1 PUSH4 0x83C3CCA7 EQ PUSH2 0x205 JUMPI DUP1 PUSH4 0x86F79EDB EQ PUSH2 0x221 JUMPI PUSH2 0xE8 JUMP JUMPDEST DUP1 PUSH4 0x44A56DD9 GT PUSH2 0xC6 JUMPI DUP1 PUSH4 0x44A56DD9 EQ PUSH2 0x15C JUMPI DUP1 PUSH4 0x53F5E380 EQ PUSH2 0x17A JUMPI DUP1 PUSH4 0x6630F88F EQ PUSH2 0x198 JUMPI DUP1 PUSH4 0x715018A6 EQ PUSH2 0x1C8 JUMPI PUSH2 0xE8 JUMP JUMPDEST DUP1 PUSH4 0xD80FEFD EQ PUSH2 0xEC JUMPI DUP1 PUSH4 0x3BDAE52F EQ PUSH2 0x120 JUMPI DUP1 PUSH4 0x3DBCC8D1 EQ PUSH2 0x13E JUMPI JUMPDEST PUSH0 DUP1 REVERT JUMPDEST PUSH2 0x106 PUSH1 0x4 DUP1 CALLDATASIZE SUB DUP2 ADD SWAP1 PUSH2 0x101 SWAP2 SWAP1 PUSH2 0x1498 JUMP JUMPDEST PUSH2 0x2C3 JUMP JUMPDEST PUSH1 0x40 MLOAD PUSH2 0x117 SWAP6 SWAP5 SWAP4 SWAP3 SWAP2 SWAP1 PUSH2 0x15B5 JUMP JUMPDEST PUSH1 0x40 MLOAD DUP1 SWAP2 SUB SWAP1 RETURN JUMPDEST PUSH2 0x128 PUSH2 0x3A6 JUMP JUMPDEST PUSH1 0x40 MLOAD PUSH2 0x135 SWAP2 SWAP1 PUSH2 0x160D JUMP JUMPDEST PUSH1 0x40 MLOAD DUP1 SWAP2 SUB SWAP1 RETURN JUMPDEST PUSH2 0x146 PUSH2 0x3AC JUMP JUMPDEST PUSH1 0x40 MLOAD PUSH2 0x153 SWAP2 SWAP1 PUSH2 0x160D JUMP JUMPDEST PUSH1 0x40 MLOAD DUP1 SWAP2 SUB SWAP1 RETURN JUMPDEST PUSH2 0x164 PUSH2 0x3B2 JUMP JUMPDEST PUSH1 0x40 MLOAD PUSH2 0x171 SWAP2 SWAP1 PUSH2 0x17B6 JUMP JUMPDEST PUSH1 0x40 MLOAD DUP1 SWAP2 SUB SWAP1 RETURN JUMPDEST PUSH2 0x182 PUSH2 0x5B2 JUMP JUMPDEST PUSH1 0x40 MLOAD PUSH2 0x18F SWAP2 SWAP1 PUSH2 0x1904 JUMP JUMPDEST PUSH1 0x40 MLOAD DUP1 SWAP2 SUB SWAP1 RETURN JUMPDEST PUSH2 0x1B2 PUSH1 0x4 DUP1 CALLDATASIZE SUB DUP2 ADD SWAP1 PUSH2 0x1AD SWAP2 SWAP1 PUSH2 0x1A50 JUMP JUMPDEST PUSH2 0x7BC JUMP JUMPDEST PUSH1 0x40 MLOAD PUSH2 0x1BF SWAP2 SWAP1 PUSH2 0x160D JUMP JUMPDEST PUSH1 0x40 MLOAD DUP1 SWAP2 SUB SWAP1 RETURN JUMPDEST PUSH2 0x1D0 PUSH2 0x966 JUMP JUMPDEST STOP JUMPDEST PUSH2 0x1EC PUSH1 0x4 DUP1 CALLDATASIZE SUB DUP2 ADD SWAP1 PUSH2 0x1E7 SWAP2 SWAP1 PUSH2 0x1498 JUMP JUMPDEST PUSH2 0x979 JUMP JUMPDEST PUSH1 0x40 MLOAD PUSH2 0x1FC SWAP5 SWAP4 SWAP3 SWAP2 SWAP1 PUSH2 0x1A97 JUMP JUMPDEST PUSH1 0x40 MLOAD DUP1 SWAP2 SUB SWAP1 RETURN JUMPDEST PUSH2 0x21F PUSH1 0x4 DUP1 CALLDATASIZE SUB DUP2 ADD SWAP1 PUSH2 0x21A SWAP2 SWAP1 PUSH2 0x1498 JUMP JUMPDEST PUSH2 0xA56 JUMP JUMPDEST STOP JUMPDEST PUSH2 0x23B PUSH1 0x4 DUP1 CALLDATASIZE SUB DUP2 ADD SWAP1 PUSH2 0x236 SWAP2 SWAP1 PUSH2 0x1498 JUMP JUMPDEST PUSH2 0xB9E JUMP JUMPDEST PUSH1 0x40 MLOAD PUSH2 0x248 SWAP2 SWAP1 PUSH2 0x1B54 JUMP JUMPDEST PUSH1 0x40 MLOAD DUP1 SWAP2 SUB SWAP1 RETURN JUMPDEST PUSH2 0x259 PUSH2 0xD8C JUMP JUMPDEST PUSH1 0x40 MLOAD PUSH2 0x266 SWAP2 SWAP1 PUSH2 0x1B74 JUMP JUMPDEST PUSH1 0x40 MLOAD DUP1 SWAP2 SUB SWAP1 RETURN JUMPDEST PUSH2 0x289 PUSH1 0x4 DUP1 CALLDATASIZE SUB DUP2 ADD SWAP1 PUSH2 0x284 SWAP2 SWAP1 PUSH2 0x1B8D JUMP JUMPDEST PUSH2 0xDB3 JUMP JUMPDEST STOP JUMPDEST PUSH2 0x2A5 PUSH1 0x4 DUP1 CALLDATASIZE SUB DUP2 ADD SWAP1 PUSH2 0x2A0 SWAP2 SWAP1 PUSH2 0x1498 JUMP JUMPDEST PUSH2 0x1094 JUMP JUMPDEST STOP JUMPDEST PUSH2 0x2C1 PUSH1 0x4 DUP1 CALLDATASIZE SUB DUP2 ADD SWAP1 PUSH2 0x2BC SWAP2 SWAP1 PUSH2 0x1C11 JUMP JUMPDEST PUSH2 0x11A9 JUMP JUMPDEST STOP JUMPDEST PUSH1 0x2 PUSH1 0x20 MSTORE DUP1 PUSH0 MSTORE PUSH1 0x40 PUSH0 KECCAK256 PUSH0 SWAP2 POP SWAP1 POP DUP1 PUSH0 ADD SLOAD SWAP1 DUP1 PUSH1 0x1 ADD PUSH0 SWAP1 SLOAD SWAP1 PUSH2 0x100 EXP SWAP1 DIV PUSH20 0xFFFFFFFFFFFFFFFFFFFFFFFFFFFFFFFFFFFFFFFF AND SWAP1 DUP1 PUSH1 0x2 ADD DUP1 SLOAD PUSH2 0x30D SWAP1 PUSH2 0x1C69 JUMP JUMPDEST DUP1 PUSH1 0x1F ADD PUSH1 0x20 DUP1 SWAP2 DIV MUL PUSH1 0x20 ADD PUSH1 0x40 MLOAD SWAP1 DUP2 ADD PUSH1 0x40 MSTORE DUP1 SWAP3 SWAP2 SWAP1 DUP2 DUP2 MSTORE PUSH1 0x20 ADD DUP3 DUP1 SLOAD PUSH2 0x339 SWAP1 PUSH2 0x1C69 JUMP JUMPDEST DUP1 ISZERO PUSH2 0x384 JUMPI DUP1 PUSH1 0x1F LT PUSH2 0x35B JUMPI PUSH2 0x100 DUP1 DUP4 SLOAD DIV MUL DUP4 MSTORE SWAP2 PUSH1 0x20 ADD SWAP2 PUSH2 0x384 JUMP JUMPDEST DUP3 ADD SWAP2 SWAP1 PUSH0 MSTORE PUSH1 0x20 PUSH0 KECCAK256 SWAP1 JUMPDEST DUP2 SLOAD DUP2 MSTORE SWAP1 PUSH1 0x1 ADD SWAP1 PUSH1 0x20 ADD DUP1 DUP4 GT PUSH2 0x367 JUMPI DUP3 SWAP1 SUB PUSH1 0x1F AND DUP3 ADD SWAP2 JUMPDEST POP POP POP POP POP SWAP1 DUP1 PUSH1 0x3 ADD SLOAD SWAP1 DUP1 PUSH1 0x4 ADD PUSH0 SWAP1 SLOAD SWAP1 PUSH2 0x100 EXP SWAP1 DIV PUSH1 0xFF AND SWAP1 POP DUP6 JUMP JUMPDEST PUSH1 0x5 SLOAD DUP2 JUMP JUMPDEST PUSH1 0x4 SLOAD DUP2 JUMP JUMPDEST PUSH1 0x60 PUSH0 PUSH1 0x5 SLOAD PUSH8 0xFFFFFFFFFFFFFFFF DUP2 GT ISZERO PUSH2 0x3D1 JUMPI PUSH2 0x3D0 PUSH2 0x192C JUMP JUMPDEST JUMPDEST PUSH1 0x40 MLOAD SWAP1 DUP1 DUP3 MSTORE DUP1 PUSH1 0x20 MUL PUSH1 0x20 ADD DUP3 ADD PUSH1 0x40 MSTORE DUP1 ISZERO PUSH2 0x40A JUMPI DUP2 PUSH1 0x20 ADD JUMPDEST PUSH2 0x3F7 PUSH2 0x13D4 JUMP JUMPDEST DUP2 MSTORE PUSH1 0x20 ADD SWAP1 PUSH1 0x1 SWAP1 SUB SWAP1 DUP2 PUSH2 0x3EF JUMPI SWAP1 POP JUMPDEST POP SWAP1 POP PUSH0 DUP1 PUSH1 0x1 SWAP1 POP JUMPDEST PUSH1 0x5 SLOAD DUP2 GT PUSH2 0x5A6 JUMPI PUSH1 0x3 PUSH0 DUP3 DUP2 MSTORE PUSH1 0x20 ADD SWAP1 DUP2 MSTORE PUSH1 0x20 ADD PUSH0 KECCAK256 PUSH1 0x3 ADD PUSH0 SWAP1 SLOAD SWAP1 PUSH2 0x100 EXP SWAP1 DIV PUSH1 0xFF AND PUSH2 0x593 JUMPI PUSH1 0x3 PUSH0 DUP3 DUP2 MSTORE PUSH1 0x20 ADD SWAP1 DUP2 MSTORE PUSH1 0x20 ADD PUSH0 KECCAK256 PUSH1 0x40 MLOAD DUP1 PUSH1 0x80 ADD PUSH1 0x40 MSTORE SWAP1 DUP2 PUSH0 DUP3 ADD SLOAD DUP2 MSTORE PUSH1 0x20 ADD PUSH1 0x1 DUP3 ADD PUSH0 SWAP1 SLOAD SWAP1 PUSH2 0x100 EXP SWAP1 DIV PUSH20 0xFFFFFFFFFFFFFFFFFFFFFFFFFFFFFFFFFFFFFFFF AND PUSH20 0xFFFFFFFFFFFFFFFFFFFFFFFFFFFFFFFFFFFFFFFF AND PUSH20 0xFFFFFFFFFFFFFFFFFFFFFFFFFFFFFFFFFFFFFFFF AND DUP2 MSTORE PUSH1 0x20 ADD PUSH1 0x2 DUP3 ADD DUP1 SLOAD PUSH2 0x4CC SWAP1 PUSH2 0x1C69 JUMP JUMPDEST DUP1 PUSH1 0x1F ADD PUSH1 0x20 DUP1 SWAP2 DIV MUL PUSH1 0x20 ADD PUSH1 0x40 MLOAD SWAP1 DUP2 ADD PUSH1 0x40 MSTORE DUP1 SWAP3 SWAP2 SWAP1 DUP2 DUP2 MSTORE PUSH1 0x20 ADD DUP3 DUP1 SLOAD PUSH2 0x4F8 SWAP1 PUSH2 0x1C69 JUMP JUMPDEST DUP1 ISZERO PUSH2 0x543 JUMPI DUP1 PUSH1 0x1F LT PUSH2 0x51A JUMPI PUSH2 0x100 DUP1 DUP4 SLOAD DIV MUL DUP4 MSTORE SWAP2 PUSH1 0x20 ADD SWAP2 PUSH2 0x543 JUMP JUMPDEST DUP3 ADD SWAP2 SWAP1 PUSH0 MSTORE PUSH1 0x20 PUSH0 KECCAK256 SWAP1 JUMPDEST DUP2 SLOAD DUP2 MSTORE SWAP1 PUSH1 0x1 ADD SWAP1 PUSH1 0x20 ADD DUP1 DUP4 GT PUSH2 0x526 JUMPI DUP3 SWAP1 SUB PUSH1 0x1F AND DUP3 ADD SWAP2 JUMPDEST POP POP POP POP POP DUP2 MSTORE PUSH1 0x20 ADD PUSH1 0x3 DUP3 ADD PUSH0 SWAP1 SLOAD SWAP1 PUSH2 0x100 EXP SWAP1 DIV PUSH1 0xFF AND ISZERO ISZERO ISZERO ISZERO DUP2 MSTORE POP POP DUP4 DUP4 DUP2 MLOAD DUP2 LT PUSH2 0x579 JUMPI PUSH2 0x578 PUSH2 0x1C99 JUMP JUMPDEST JUMPDEST PUSH1 0x20 MUL PUSH1 0x20 ADD ADD DUP2 SWAP1 MSTORE POP DUP2 DUP1 PUSH2 0x58F SWAP1 PUSH2 0x1CF3 JUMP JUMPDEST SWAP3 POP POP JUMPDEST DUP1 DUP1 PUSH2 0x59E SWAP1 PUSH2 0x1CF3 JUMP JUMPDEST SWAP2 POP POP PUSH2 0x414 JUMP JUMPDEST POP DUP1 DUP3 MSTORE DUP2 SWAP3 POP POP POP SWAP1 JUMP JUMPDEST PUSH1 0x60 PUSH0 PUSH1 0x4 SLOAD PUSH8 0xFFFFFFFFFFFFFFFF DUP2 GT ISZERO PUSH2 0x5D1 JUMPI PUSH2 0x5D0 PUSH2 0x192C JUMP JUMPDEST JUMPDEST PUSH1 0x40 MLOAD SWAP1 DUP1 DUP3 MSTORE DUP1 PUSH1 0x20 MUL PUSH1 0x20 ADD DUP3 ADD PUSH1 0x40 MSTORE DUP1 ISZERO PUSH2 0x60A JUMPI DUP2 PUSH1 0x20 ADD JUMPDEST PUSH2 0x5F7 PUSH2 0x1411 JUMP JUMPDEST DUP2 MSTORE PUSH1 0x20 ADD SWAP1 PUSH1 0x1 SWAP1 SUB SWAP1 DUP2 PUSH2 0x5EF JUMPI SWAP1 POP JUMPDEST POP SWAP1 POP PUSH0 DUP1 PUSH1 0x1 SWAP1 POP JUMPDEST PUSH1 0x4 SLOAD DUP2 GT PUSH2 0x7B0 JUMPI PUSH1 0x2 PUSH0 DUP3 DUP2 MSTORE PUSH1 0x20 ADD SWAP1 DUP2 MSTORE PUSH1 0x20 ADD PUSH0 KECCAK256 PUSH1 0x4 ADD PUSH0 SWAP1 SLOAD SWAP1 PUSH2 0x100 EXP SWAP1 DIV PUSH1 0xFF AND PUSH2 0x79D JUMPI PUSH1 0x2 PUSH0 DUP3 DUP2 MSTORE PUSH1 0x20 ADD SWAP1 DUP2 MSTORE PUSH1 0x20 ADD PUSH0 KECCAK256 PUSH1 0x40 MLOAD DUP1 PUSH1 0xA0 ADD PUSH1 0x40 MSTORE SWAP1 DUP2 PUSH0 DUP3 ADD SLOAD DUP2 MSTORE PUSH1 0x20 ADD PUSH1 0x1 DUP3 ADD PUSH0 SWAP1 SLOAD SWAP1 PUSH2 0x100 EXP SWAP1 DIV PUSH20 0xFFFFFFFFFFFFFFFFFFFFFFFFFFFFFFFFFFFFFFFF AND PUSH20 0xFFFFFFFFFFFFFFFFFFFFFFFFFFFFFFFFFFFFFFFF AND PUSH20 0xFFFFFFFFFFFFFFFFFFFFFFFFFFFFFFFFFFFFFFFF AND DUP2 MSTORE PUSH1 0x20 ADD PUSH1 0x2 DUP3 ADD DUP1 SLOAD PUSH2 0x6CC SWAP1 PUSH2 0x1C69 JUMP JUMPDEST DUP1 PUSH1 0x1F ADD PUSH1 0x20 DUP1 SWAP2 DIV MUL PUSH1 0x20 ADD PUSH1 0x40 MLOAD SWAP1 DUP2 ADD PUSH1 0x40 MSTORE DUP1 SWAP3 SWAP2 SWAP1 DUP2 DUP2 MSTORE PUSH1 0x20 ADD DUP3 DUP1 SLOAD PUSH2 0x6F8 SWAP1 PUSH2 0x1C69 JUMP JUMPDEST DUP1 ISZERO PUSH2 0x743 JUMPI DUP1 PUSH1 0x1F LT PUSH2 0x71A JUMPI PUSH2 0x100 DUP1 DUP4 SLOAD DIV MUL DUP4 MSTORE SWAP2 PUSH1 0x20 ADD SWAP2 PUSH2 0x743 JUMP JUMPDEST DUP3 ADD SWAP2 SWAP1 PUSH0 MSTORE PUSH1 0x20 PUSH0 KECCAK256 SWAP1 JUMPDEST DUP2 SLOAD DUP2 MSTORE SWAP1 PUSH1 0x1 ADD SWAP1 PUSH1 0x20 ADD DUP1 DUP4 GT PUSH2 0x726 JUMPI DUP3 SWAP1 SUB PUSH1 0x1F AND DUP3 ADD SWAP2 JUMPDEST POP POP POP POP POP DUP2 MSTORE PUSH1 0x20 ADD PUSH1 0x3 DUP3 ADD SLOAD DUP2 MSTORE PUSH1 0x20 ADD PUSH1 0x4 DUP3 ADD PUSH0 SWAP1 SLOAD SWAP1 PUSH2 0x100 EXP SWAP1 DIV PUSH1 0xFF AND ISZERO ISZERO ISZERO ISZERO DUP2 MSTORE POP POP DUP4 DUP4 DUP2 MLOAD DUP2 LT PUSH2 0x783 JUMPI PUSH2 0x782 PUSH2 0x1C99 JUMP JUMPDEST JUMPDEST PUSH1 0x20 MUL PUSH1 0x20 ADD ADD DUP2 SWAP1 MSTORE POP DUP2 DUP1 PUSH2 0x799 SWAP1 PUSH2 0x1CF3 JUMP JUMPDEST SWAP3 POP POP JUMPDEST DUP1 DUP1 PUSH2 0x7A8 SWAP1 PUSH2 0x1CF3 JUMP JUMPDEST SWAP2 POP POP PUSH2 0x614 JUMP JUMPDEST POP DUP1 DUP3 MSTORE DUP2 SWAP3 POP POP POP SWAP1 JUMP JUMPDEST PUSH0 PUSH2 0x7C5 PUSH2 0x122D JUMP JUMPDEST PUSH0 DUP3 MLOAD GT PUSH2 0x808 JUMPI PUSH1 0x40 MLOAD PUSH32 0x8C379A000000000000000000000000000000000000000000000000000000000 DUP2 MSTORE PUSH1 0x4 ADD PUSH2 0x7FF SWAP1 PUSH2 0x1D84 JUMP JUMPDEST PUSH1 0x40 MLOAD DUP1 SWAP2 SUB SWAP1 REVERT JUMPDEST PUSH1 0x4 PUSH0 DUP2 SLOAD DUP1 SWAP3 SWAP2 SWAP1 PUSH2 0x81A SWAP1 PUSH2 0x1CF3 JUMP JUMPDEST SWAP2 SWAP1 POP SSTORE POP PUSH1 0x40 MLOAD DUP1 PUSH1 0xA0 ADD PUSH1 0x40 MSTORE DUP1 PUSH1 0x4 SLOAD DUP2 MSTORE PUSH1 0x20 ADD CALLER PUSH20 0xFFFFFFFFFFFFFFFFFFFFFFFFFFFFFFFFFFFFFFFF AND DUP2 MSTORE PUSH1 0x20 ADD DUP4 DUP2 MSTORE PUSH1 0x20 ADD TIMESTAMP DUP2 MSTORE PUSH1 0x20 ADD PUSH0 ISZERO ISZERO DUP2 MSTORE POP PUSH1 0x2 PUSH0 PUSH1 0x4 SLOAD DUP2 MSTORE PUSH1 0x20 ADD SWAP1 DUP2 MSTORE PUSH1 0x20 ADD PUSH0 KECCAK256 PUSH0 DUP3 ADD MLOAD DUP2 PUSH0 ADD SSTORE PUSH1 0x20 DUP3 ADD MLOAD DUP2 PUSH1 0x1 ADD PUSH0 PUSH2 0x100 EXP DUP2 SLOAD DUP2 PUSH20 0xFFFFFFFFFFFFFFFFFFFFFFFFFFFFFFFFFFFFFFFF MUL NOT AND SWAP1 DUP4 PUSH20 0xFFFFFFFFFFFFFFFFFFFFFFFFFFFFFFFFFFFFFFFF AND MUL OR SWAP1 SSTORE POP PUSH1 0x40 DUP3 ADD MLOAD DUP2 PUSH1 0x2 ADD SWAP1 DUP2 PUSH2 0x8D6 SWAP2 SWAP1 PUSH2 0x1F3F JUMP JUMPDEST POP PUSH1 0x60 DUP3 ADD MLOAD DUP2 PUSH1 0x3 ADD SSTORE PUSH1 0x80 DUP3 ADD MLOAD DUP2 PUSH1 0x4 ADD PUSH0 PUSH2 0x100 EXP DUP2 SLOAD DUP2 PUSH1 0xFF MUL NOT AND SWAP1 DUP4 ISZERO ISZERO MUL OR SWAP1 SSTORE POP SWAP1 POP POP CALLER PUSH20 0xFFFFFFFFFFFFFFFFFFFFFFFFFFFFFFFFFFFFFFFF AND PUSH1 0x4 SLOAD PUSH32 0x16EFFDE6B8C5F78279ACA5974057FF6B6FD8C9AB5E96994C7F1B62CBFCBBD78B DUP5 PUSH1 0x40 MLOAD PUSH2 0x94C SWAP2 SWAP1 PUSH2 0x200E JUMP JUMPDEST PUSH1 0x40 MLOAD DUP1 SWAP2 SUB SWAP1 LOG3 PUSH1 0x4 SLOAD SWAP1 POP PUSH2 0x961 PUSH2 0x127C JUMP JUMPDEST SWAP2 SWAP1 POP JUMP JUMPDEST PUSH2 0x96E PUSH2 0x1285 JUMP JUMPDEST PUSH2 0x977 PUSH0 PUSH2 0x130C JUMP JUMPDEST JUMP JUMPDEST PUSH1 0x3 PUSH1 0x20 MSTORE DUP1 PUSH0 MSTORE PUSH1 0x40 PUSH0 KECCAK256 PUSH0 SWAP2 POP SWAP1 POP DUP1 PUSH0 ADD SLOAD SWAP1 DUP1 PUSH1 0x1 ADD PUSH0 SWAP1 SLOAD SWAP1 PUSH2 0x100 EXP SWAP1 DIV PUSH20 0xFFFFFFFFFFFFFFFFFFFFFFFFFFFFFFFFFFFFFFFF AND SWAP1 DUP1 PUSH1 0x2 ADD DUP1 SLOAD PUSH2 0x9C3 SWAP1 PUSH2 0x1C69 JUMP JUMPDEST DUP1 PUSH1 0x1F ADD PUSH1 0x20 DUP1 SWAP2 DIV MUL PUSH1 0x20 ADD PUSH1 0x40 MLOAD SWAP1 DUP2 ADD PUSH1 0x40 MSTORE DUP1 SWAP3 SWAP2 SWAP1 DUP2 DUP2 MSTORE PUSH1 0x20 ADD DUP3 DUP1 SLOAD PUSH2 0x9EF SWAP1 PUSH2 0x1C69 JUMP JUMPDEST DUP1 ISZERO PUSH2 0xA3A JUMPI DUP1 PUSH1 0x1F LT PUSH2 0xA11 JUMPI PUSH2 0x100 DUP1 DUP4 SLOAD DIV MUL DUP4 MSTORE SWAP2 PUSH1 0x20 ADD SWAP2 PUSH2 0xA3A JUMP JUMPDEST DUP3 ADD SWAP2 SWAP1 PUSH0 MSTORE PUSH1 0x20 PUSH0 KECCAK256 SWAP1 JUMPDEST DUP2 SLOAD DUP2 MSTORE SWAP1 PUSH1 0x1 ADD SWAP1 PUSH1 0x20 ADD DUP1 DUP4 GT PUSH2 0xA1D JUMPI DUP3 SWAP1 SUB PUSH1 0x1F AND DUP3 ADD SWAP2 JUMPDEST POP POP POP POP POP SWAP1 DUP1 PUSH1 0x3 ADD PUSH0 SWAP1 SLOAD SWAP1 PUSH2 0x100 EXP SWAP1 DIV PUSH1 0xFF AND SWAP1 POP DUP5 JUMP JUMPDEST PUSH2 0xA5E PUSH2 0x1285 JUMP JUMPDEST PUSH0 DUP2 GT DUP1 ISZERO PUSH2 0xA6F JUMPI POP PUSH1 0x5 SLOAD DUP2 GT ISZERO JUMPDEST PUSH2 0xAAE JUMPI PUSH1 0x40 MLOAD PUSH32 0x8C379A000000000000000000000000000000000000000000000000000000000 DUP2 MSTORE PUSH1 0x4 ADD PUSH2 0xAA5 SWAP1 PUSH2 0x2078 JUMP JUMPDEST PUSH1 0x40 MLOAD DUP1 SWAP2 SUB SWAP1 REVERT JUMPDEST PUSH0 PUSH1 0x3 PUSH0 DUP4 DUP2 MSTORE PUSH1 0x20 ADD SWAP1 DUP2 MSTORE PUSH1 0x20 ADD PUSH0 KECCAK256 SWAP1 POP DUP1 PUSH1 0x3 ADD PUSH0 SWAP1 SLOAD SWAP1 PUSH2 0x100 EXP SWAP1 DIV PUSH1 0xFF AND ISZERO PUSH2 0xB13 JUMPI PUSH1 0x40 MLOAD PUSH32 0x8C379A000000000000000000000000000000000000000000000000000000000 DUP2 MSTORE PUSH1 0x4 ADD PUSH2 0xB0A SWAP1 PUSH2 0x20E0 JUMP JUMPDEST PUSH1 0x40 MLOAD DUP1 SWAP2 SUB SWAP1 REVERT JUMPDEST PUSH0 PUSH1 0x2 PUSH0 DUP4 PUSH0 ADD SLOAD DUP2 MSTORE PUSH1 0x20 ADD SWAP1 DUP2 MSTORE PUSH1 0x20 ADD PUSH0 KECCAK256 SWAP1 POP DUP2 PUSH1 0x2 ADD DUP2 PUSH1 0x2 ADD SWAP1 DUP2 PUSH2 0xB3E SWAP2 SWAP1 PUSH2 0x2125 JUMP JUMPDEST POP PUSH1 0x1 DUP3 PUSH1 0x3 ADD PUSH0 PUSH2 0x100 EXP DUP2 SLOAD DUP2 PUSH1 0xFF MUL NOT AND SWAP1 DUP4 ISZERO ISZERO MUL OR SWAP1 SSTORE POP DUP2 PUSH0 ADD SLOAD PUSH32 0xC044182A0AC1FCDFA543F1C6FF27940F1A5B4221B8232E11B492D48953BC9C43 DUP4 PUSH1 0x2 ADD PUSH1 0x40 MLOAD PUSH2 0xB91 SWAP2 SWAP1 PUSH2 0x228B JUMP JUMPDEST PUSH1 0x40 MLOAD DUP1 SWAP2 SUB SWAP1 LOG2 POP POP POP JUMP JUMPDEST PUSH2 0xBA6 PUSH2 0x1411 JUMP JUMPDEST PUSH0 DUP3 GT DUP1 ISZERO PUSH2 0xBB7 JUMPI POP PUSH1 0x4 SLOAD DUP3 GT ISZERO JUMPDEST PUSH2 0xBF6 JUMPI PUSH1 0x40 MLOAD PUSH32 0x8C379A000000000000000000000000000000000000000000000000000000000 DUP2 MSTORE PUSH1 0x4 ADD PUSH2 0xBED SWAP1 PUSH2 0x22F5 JUMP JUMPDEST PUSH1 0x40 MLOAD DUP1 SWAP2 SUB SWAP1 REVERT JUMPDEST PUSH1 0x2 PUSH0 DUP4 DUP2 MSTORE PUSH1 0x20 ADD SWAP1 DUP2 MSTORE PUSH1 0x20 ADD PUSH0 KECCAK256 PUSH1 0x4 ADD PUSH0 SWAP1 SLOAD SWAP1 PUSH2 0x100 EXP SWAP1 DIV PUSH1 0xFF AND ISZERO PUSH2 0xC57 JUMPI PUSH1 0x40 MLOAD PUSH32 0x8C379A000000000000000000000000000000000000000000000000000000000 DUP2 MSTORE PUSH1 0x4 ADD PUSH2 0xC4E SWAP1 PUSH2 0x235D JUMP JUMPDEST PUSH1 0x40 MLOAD DUP1 SWAP2 SUB SWAP1 REVERT JUMPDEST PUSH1 0x2 PUSH0 DUP4 DUP2 MSTORE PUSH1 0x20 ADD SWAP1 DUP2 MSTORE PUSH1 0x20 ADD PUSH0 KECCAK256 PUSH1 0x40 MLOAD DUP1 PUSH1 0xA0 ADD PUSH1 0x40 MSTORE SWAP1 DUP2 PUSH0 DUP3 ADD SLOAD DUP2 MSTORE PUSH1 0x20 ADD PUSH1 0x1 DUP3 ADD PUSH0 SWAP1 SLOAD SWAP1 PUSH2 0x100 EXP SWAP1 DIV PUSH20 0xFFFFFFFFFFFFFFFFFFFFFFFFFFFFFFFFFFFFFFFF AND PUSH20 0xFFFFFFFFFFFFFFFFFFFFFFFFFFFFFFFFFFFFFFFF AND PUSH20 0xFFFFFFFFFFFFFFFFFFFFFFFFFFFFFFFFFFFFFFFF AND DUP2 MSTORE PUSH1 0x20 ADD PUSH1 0x2 DUP3 ADD DUP1 SLOAD PUSH2 0xCE1 SWAP1 PUSH2 0x1C69 JUMP JUMPDEST DUP1 PUSH1 0x1F ADD PUSH1 0x20 DUP1 SWAP2 DIV MUL PUSH1 0x20 ADD PUSH1 0x40 MLOAD SWAP1 DUP2 ADD PUSH1 0x40 MSTORE DUP1 SWAP3 SWAP2 SWAP1 DUP2 DUP2 MSTORE PUSH1 0x20 ADD DUP3 DUP1 SLOAD PUSH2 0xD0D SWAP1 PUSH2 0x1C69 JUMP JUMPDEST DUP1 ISZERO PUSH2 0xD58 JUMPI DUP1 PUSH1 0x1F LT PUSH2 0xD2F JUMPI PUSH2 0x100 DUP1 DUP4 SLOAD DIV MUL DUP4 MSTORE SWAP2 PUSH1 0x20 ADD SWAP2 PUSH2 0xD58 JUMP JUMPDEST DUP3 ADD SWAP2 SWAP1 PUSH0 MSTORE PUSH1 0x20 PUSH0 KECCAK256 SWAP1 JUMPDEST DUP2 SLOAD DUP2 MSTORE SWAP1 PUSH1 0x1 ADD SWAP1 PUSH1 0x20 ADD DUP1 DUP4 GT PUSH2 0xD3B JUMPI DUP3 SWAP1 SUB PUSH1 0x1F AND DUP3 ADD SWAP2 JUMPDEST POP POP POP POP POP DUP2 MSTORE PUSH1 0x20 ADD PUSH1 0x3 DUP3 ADD SLOAD DUP2 MSTORE PUSH1 0x20 ADD PUSH1 0x4 DUP3 ADD PUSH0 SWAP1 SLOAD SWAP1 PUSH2 0x100 EXP SWAP1 DIV PUSH1 0xFF AND ISZERO ISZERO ISZERO ISZERO DUP2 MSTORE POP POP SWAP1 POP SWAP2 SWAP1 POP JUMP JUMPDEST PUSH0 DUP1 PUSH0 SWAP1 SLOAD SWAP1 PUSH2 0x100 EXP SWAP1 DIV PUSH20 0xFFFFFFFFFFFFFFFFFFFFFFFFFFFFFFFFFFFFFFFF AND SWAP1 POP SWAP1 JUMP JUMPDEST PUSH2 0xDBB PUSH2 0x122D JUMP JUMPDEST PUSH0 DUP3 GT DUP1 ISZERO PUSH2 0xDCC JUMPI POP PUSH1 0x4 SLOAD DUP3 GT ISZERO JUMPDEST PUSH2 0xE0B JUMPI PUSH1 0x40 MLOAD PUSH32 0x8C379A000000000000000000000000000000000000000000000000000000000 DUP2 MSTORE PUSH1 0x4 ADD PUSH2 0xE02 SWAP1 PUSH2 0x22F5 JUMP JUMPDEST PUSH1 0x40 MLOAD DUP1 SWAP2 SUB SWAP1 REVERT JUMPDEST PUSH1 0x2 PUSH0 DUP4 DUP2 MSTORE PUSH1 0x20 ADD SWAP1 DUP2 MSTORE PUSH1 0x20 ADD PUSH0 KECCAK256 PUSH1 0x4 ADD PUSH0 SWAP1 SLOAD SWAP1 PUSH2 0x100 EXP SWAP1 DIV PUSH1 0xFF AND ISZERO PUSH2 0xE6C JUMPI PUSH1 0x40 MLOAD PUSH32 0x8C379A000000000000000000000000000000000000000000000000000000000 DUP2 MSTORE PUSH1 0x4 ADD PUSH2 0xE63 SWAP1 PUSH2 0x235D JUMP JUMPDEST PUSH1 0x40 MLOAD DUP1 SWAP2 SUB SWAP1 REVERT JUMPDEST CALLER PUSH20 0xFFFFFFFFFFFFFFFFFFFFFFFFFFFFFFFFFFFFFFFF AND PUSH1 0x2 PUSH0 DUP5 DUP2 MSTORE PUSH1 0x20 ADD SWAP1 DUP2 MSTORE PUSH1 0x20 ADD PUSH0 KECCAK256 PUSH1 0x1 ADD PUSH0 SWAP1 SLOAD SWAP1 PUSH2 0x100 EXP SWAP1 DIV PUSH20 0xFFFFFFFFFFFFFFFFFFFFFFFFFFFFFFFFFFFFFFFF AND PUSH20 0xFFFFFFFFFFFFFFFFFFFFFFFFFFFFFFFFFFFFFFFF AND EQ PUSH2 0xF0D JUMPI PUSH1 0x40 MLOAD PUSH32 0x8C379A000000000000000000000000000000000000000000000000000000000 DUP2 MSTORE PUSH1 0x4 ADD PUSH2 0xF04 SWAP1 PUSH2 0x23EB JUMP JUMPDEST PUSH1 0x40 MLOAD DUP1 SWAP2 SUB SWAP1 REVERT JUMPDEST PUSH0 DUP2 MLOAD GT PUSH2 0xF50 JUMPI PUSH1 0x40 MLOAD PUSH32 0x8C379A000000000000000000000000000000000000000000000000000000000 DUP2 MSTORE PUSH1 0x4 ADD PUSH2 0xF47 SWAP1 PUSH2 0x2453 JUMP JUMPDEST PUSH1 0x40 MLOAD DUP1 SWAP2 SUB SWAP1 REVERT JUMPDEST PUSH1 0x5 PUSH0 DUP2 SLOAD DUP1 SWAP3 SWAP2 SWAP1 PUSH2 0xF62 SWAP1 PUSH2 0x1CF3 JUMP JUMPDEST SWAP2 SWAP1 POP SSTORE POP PUSH1 0x40 MLOAD DUP1 PUSH1 0x80 ADD PUSH1 0x40 MSTORE DUP1 DUP4 DUP2 MSTORE PUSH1 0x20 ADD CALLER PUSH20 0xFFFFFFFFFFFFFFFFFFFFFFFFFFFFFFFFFFFFFFFF AND DUP2 MSTORE PUSH1 0x20 ADD DUP3 DUP2 MSTORE PUSH1 0x20 ADD PUSH0 ISZERO ISZERO DUP2 MSTORE POP PUSH1 0x3 PUSH0 PUSH1 0x5 SLOAD DUP2 MSTORE PUSH1 0x20 ADD SWAP1 DUP2 MSTORE PUSH1 0x20 ADD PUSH0 KECCAK256 PUSH0 DUP3 ADD MLOAD DUP2 PUSH0 ADD SSTORE PUSH1 0x20 DUP3 ADD MLOAD DUP2 PUSH1 0x1 ADD PUSH0 PUSH2 0x100 EXP DUP2 SLOAD DUP2 PUSH20 0xFFFFFFFFFFFFFFFFFFFFFFFFFFFFFFFFFFFFFFFF MUL NOT AND SWAP1 DUP4 PUSH20 0xFFFFFFFFFFFFFFFFFFFFFFFFFFFFFFFFFFFFFFFF AND MUL OR SWAP1 SSTORE POP PUSH1 0x40 DUP3 ADD MLOAD DUP2 PUSH1 0x2 ADD SWAP1 DUP2 PUSH2 0x1016 SWAP2 SWAP1 PUSH2 0x1F3F JUMP JUMPDEST POP PUSH1 0x60 DUP3 ADD MLOAD DUP2 PUSH1 0x3 ADD PUSH0 PUSH2 0x100 EXP DUP2 SLOAD DUP2 PUSH1 0xFF MUL NOT AND SWAP1 DUP4 ISZERO ISZERO MUL OR SWAP1 SSTORE POP SWAP1 POP POP CALLER PUSH20 0xFFFFFFFFFFFFFFFFFFFFFFFFFFFFFFFFFFFFFFFF AND DUP3 PUSH32 0x65A5DFDCCA99D0A97BD4A95E21C4AF5E64327BA9493215CCCBFD0B87CA2BA362 DUP4 PUSH1 0x40 MLOAD PUSH2 0x1080 SWAP2 SWAP1 PUSH2 0x200E JUMP JUMPDEST PUSH1 0x40 MLOAD DUP1 SWAP2 SUB SWAP1 LOG3 PUSH2 0x1090 PUSH2 0x127C JUMP JUMPDEST POP POP JUMP JUMPDEST PUSH2 0x109C PUSH2 0x1285 JUMP JUMPDEST PUSH0 DUP2 GT DUP1 ISZERO PUSH2 0x10AD JUMPI POP PUSH1 0x4 SLOAD DUP2 GT ISZERO JUMPDEST PUSH2 0x10EC JUMPI PUSH1 0x40 MLOAD PUSH32 0x8C379A000000000000000000000000000000000000000000000000000000000 DUP2 MSTORE PUSH1 0x4 ADD PUSH2 0x10E3 SWAP1 PUSH2 0x22F5 JUMP JUMPDEST PUSH1 0x40 MLOAD DUP1 SWAP2 SUB SWAP1 REVERT JUMPDEST PUSH1 0x2 PUSH0 DUP3 DUP2 MSTORE PUSH1 0x20 ADD SWAP1 DUP2 MSTORE PUSH1 0x20 ADD PUSH0 KECCAK256 PUSH1 0x4 ADD PUSH0 SWAP1 SLOAD SWAP1 PUSH2 0x100 EXP SWAP1 DIV PUSH1 0xFF AND ISZERO PUSH2 0x114D JUMPI PUSH1 0x40 MLOAD PUSH32 0x8C379A000000000000000000000000000000000000000000000000000000000 DUP2 MSTORE PUSH1 0x4 ADD PUSH2 0x1144 SWAP1 PUSH2 0x24BB JUMP JUMPDEST PUSH1 0x40 MLOAD DUP1 SWAP2 SUB SWAP1 REVERT JUMPDEST PUSH1 0x1 PUSH1 0x2 PUSH0 DUP4 DUP2 MSTORE PUSH1 0x20 ADD SWAP1 DUP2 MSTORE PUSH1 0x20 ADD PUSH0 KECCAK256 PUSH1 0x4 ADD PUSH0 PUSH2 0x100 EXP DUP2 SLOAD DUP2 PUSH1 0xFF MUL NOT AND SWAP1 DUP4 ISZERO ISZERO MUL OR SWAP1 SSTORE POP DUP1 PUSH32 0x6279BE045E4D4D5A0EBA7B1F0E578322B6DD7C01E92F0991700A02180904654B PUSH1 0x40 MLOAD PUSH1 0x40 MLOAD DUP1 SWAP2 SUB SWAP1 LOG2 POP JUMP JUMPDEST PUSH2 0x11B1 PUSH2 0x1285 JUMP JUMPDEST PUSH0 PUSH20 0xFFFFFFFFFFFFFFFFFFFFFFFFFFFFFFFFFFFFFFFF AND DUP2 PUSH20 0xFFFFFFFFFFFFFFFFFFFFFFFFFFFFFFFFFFFFFFFF AND SUB PUSH2 0x1221 JUMPI PUSH0 PUSH1 0x40 MLOAD PUSH32 0x1E4FBDF700000000000000000000000000000000000000000000000000000000 DUP2 MSTORE PUSH1 0x4 ADD PUSH2 0x1218 SWAP2 SWAP1 PUSH2 0x1B74 JUMP JUMPDEST PUSH1 0x40 MLOAD DUP1 SWAP2 SUB SWAP1 REVERT JUMPDEST PUSH2 0x122A DUP2 PUSH2 0x130C JUMP JUMPDEST POP JUMP JUMPDEST PUSH1 0x2 PUSH1 0x1 SLOAD SUB PUSH2 0x1272 JUMPI PUSH1 0x40 MLOAD PUSH32 0x8C379A000000000000000000000000000000000000000000000000000000000 DUP2 MSTORE PUSH1 0x4 ADD PUSH2 0x1269 SWAP1 PUSH2 0x2523 JUMP JUMPDEST PUSH1 0x40 MLOAD DUP1 SWAP2 SUB SWAP1 REVERT JUMPDEST PUSH1 0x2 PUSH1 0x1 DUP2 SWAP1 SSTORE POP JUMP JUMPDEST PUSH1 0x1 DUP1 DUP2 SWAP1 SSTORE POP JUMP JUMPDEST PUSH2 0x128D PUSH2 0x13CD JUMP JUMPDEST PUSH20 0xFFFFFFFFFFFFFFFFFFFFFFFFFFFFFFFFFFFFFFFF AND PUSH2 0x12AB PUSH2 0xD8C JUMP JUMPDEST PUSH20 0xFFFFFFFFFFFFFFFFFFFFFFFFFFFFFFFFFFFFFFFF AND EQ PUSH2 0x130A JUMPI PUSH2 0x12CE PUSH2 0x13CD JUMP JUMPDEST PUSH1 0x40 MLOAD PUSH32 0x118CDAA700000000000000000000000000000000000000000000000000000000 DUP2 MSTORE PUSH1 0x4 ADD PUSH2 0x1301 SWAP2 SWAP1 PUSH2 0x1B74 JUMP JUMPDEST PUSH1 0x40 MLOAD DUP1 SWAP2 SUB SWAP1 REVERT JUMPDEST JUMP JUMPDEST PUSH0 DUP1 PUSH0 SWAP1 SLOAD SWAP1 PUSH2 0x100 EXP SWAP1 DIV PUSH20 0xFFFFFFFFFFFFFFFFFFFFFFFFFFFFFFFFFFFFFFFF AND SWAP1 POP DUP2 PUSH0 DUP1 PUSH2 0x100 EXP DUP2 SLOAD DUP2 PUSH20 0xFFFFFFFFFFFFFFFFFFFFFFFFFFFFFFFFFFFFFFFF MUL NOT AND SWAP1 DUP4 PUSH20 0xFFFFFFFFFFFFFFFFFFFFFFFFFFFFFFFFFFFFFFFF AND MUL OR SWAP1 SSTORE POP DUP2 PUSH20 0xFFFFFFFFFFFFFFFFFFFFFFFFFFFFFFFFFFFFFFFF AND DUP2 PUSH20 0xFFFFFFFFFFFFFFFFFFFFFFFFFFFFFFFFFFFFFFFF AND PUSH32 0x8BE0079C531659141344CD1FD0A4F28419497F9722A3DAAFE3B4186F6B6457E0 PUSH1 0x40 MLOAD PUSH1 0x40 MLOAD DUP1 SWAP2 SUB SWAP1 LOG3 POP POP JUMP JUMPDEST PUSH0 CALLER SWAP1 POP SWAP1 JUMP JUMPDEST PUSH1 0x40 MLOAD DUP1 PUSH1 0x80 ADD PUSH1 0x40 MSTORE DUP1 PUSH0 DUP2 MSTORE PUSH1 0x20 ADD PUSH0 PUSH20 0xFFFFFFFFFFFFFFFFFFFFFFFFFFFFFFFFFFFFFFFF AND DUP2 MSTORE PUSH1 0x20 ADD PUSH1 0x60 DUP2 MSTORE PUSH1 0x20 ADD PUSH0 ISZERO ISZERO DUP2 MSTORE POP SWAP1 JUMP JUMPDEST PUSH1 0x40 MLOAD DUP1 PUSH1 0xA0 ADD PUSH1 0x40 MSTORE DUP1 PUSH0 DUP2 MSTORE PUSH1 0x20 ADD PUSH0 PUSH20 0xFFFFFFFFFFFFFFFFFFFFFFFFFFFFFFFFFFFFFFFF AND DUP2 MSTORE PUSH1 0x20 ADD PUSH1 0x60 DUP2 MSTORE PUSH1 0x20 ADD PUSH0 DUP2 MSTORE PUSH1 0x20 ADD PUSH0 ISZERO ISZERO DUP2 MSTORE POP SWAP1 JUMP JUMPDEST PUSH0 PUSH1 0x40 MLOAD SWAP1 POP SWAP1 JUMP JUMPDEST PUSH0 DUP1 REVERT JUMPDEST PUSH0 DUP1 REVERT JUMPDEST PUSH0 DUP2 SWAP1 POP SWAP2 SWAP1 POP JUMP JUMPDEST PUSH2 0x1477 DUP2 PUSH2 0x1465 JUMP JUMPDEST DUP2 EQ PUSH2 0x1481 JUMPI PUSH0 DUP1 REVERT JUMPDEST POP JUMP JUMPDEST PUSH0 DUP2 CALLDATALOAD SWAP1 POP PUSH2 0x1492 DUP2 PUSH2 0x146E JUMP JUMPDEST SWAP3 SWAP2 POP POP JUMP JUMPDEST PUSH0 PUSH1 0x20 DUP3 DUP5 SUB SLT ISZERO PUSH2 0x14AD JUMPI PUSH2 0x14AC PUSH2 0x145D JUMP JUMPDEST JUMPDEST PUSH0 PUSH2 0x14BA DUP5 DUP3 DUP6 ADD PUSH2 0x1484 JUMP JUMPDEST SWAP2 POP POP SWAP3 SWAP2 POP POP JUMP JUMPDEST PUSH2 0x14CC DUP2 PUSH2 0x1465 JUMP JUMPDEST DUP3 MSTORE POP POP JUMP JUMPDEST PUSH0 PUSH20 0xFFFFFFFFFFFFFFFFFFFFFFFFFFFFFFFFFFFFFFFF DUP3 AND SWAP1 POP SWAP2 SWAP1 POP JUMP JUMPDEST PUSH0 PUSH2 0x14FB DUP3 PUSH2 0x14D2 JUMP JUMPDEST SWAP1 POP SWAP2 SWAP1 POP JUMP JUMPDEST PUSH2 0x150B DUP2 PUSH2 0x14F1 JUMP JUMPDEST DUP3 MSTORE POP POP JUMP JUMPDEST PUSH0 DUP2 MLOAD SWAP1 POP SWAP2 SWAP1 POP JUMP JUMPDEST PUSH0 DUP3 DUP3 MSTORE PUSH1 0x20 DUP3 ADD SWAP1 POP SWAP3 SWAP2 POP POP JUMP JUMPDEST PUSH0 JUMPDEST DUP4 DUP2 LT ISZERO PUSH2 0x1548 JUMPI DUP1 DUP3 ADD MLOAD DUP2 DUP5 ADD MSTORE PUSH1 0x20 DUP2 ADD SWAP1 POP PUSH2 0x152D JUMP JUMPDEST PUSH0 DUP5 DUP5 ADD MSTORE POP POP POP POP JUMP JUMPDEST PUSH0 PUSH1 0x1F NOT PUSH1 0x1F DUP4 ADD AND SWAP1 POP SWAP2 SWAP1 POP JUMP JUMPDEST PUSH0 PUSH2 0x156D DUP3 PUSH2 0x1511 JUMP JUMPDEST PUSH2 0x1577 DUP2 DUP6 PUSH2 0x151B JUMP JUMPDEST SWAP4 POP PUSH2 0x1587 DUP2 DUP6 PUSH1 0x20 DUP7 ADD PUSH2 0x152B JUMP JUMPDEST PUSH2 0x1590 DUP2 PUSH2 0x1553 JUMP JUMPDEST DUP5 ADD SWAP2 POP POP SWAP3 SWAP2 POP POP JUMP JUMPDEST PUSH0 DUP2 ISZERO ISZERO SWAP1 POP SWAP2 SWAP1 POP JUMP JUMPDEST PUSH2 0x15AF DUP2 PUSH2 0x159B JUMP JUMPDEST DUP3 MSTORE POP POP JUMP JUMPDEST PUSH0 PUSH1 0xA0 DUP3 ADD SWAP1 POP PUSH2 0x15C8 PUSH0 DUP4 ADD DUP9 PUSH2 0x14C3 JUMP JUMPDEST PUSH2 0x15D5 PUSH1 0x20 DUP4 ADD DUP8 PUSH2 0x1502 JUMP JUMPDEST DUP2 DUP2 SUB PUSH1 0x40 DUP4 ADD MSTORE PUSH2 0x15E7 DUP2 DUP7 PUSH2 0x1563 JUMP JUMPDEST SWAP1 POP PUSH2 0x15F6 PUSH1 0x60 DUP4 ADD DUP6 PUSH2 0x14C3 JUMP JUMPDEST PUSH2 0x1603 PUSH1 0x80 DUP4 ADD DUP5 PUSH2 0x15A6 JUMP JUMPDEST SWAP7 SWAP6 POP POP POP POP POP POP JUMP JUMPDEST PUSH0 PUSH1 0x20 DUP3 ADD SWAP1 POP PUSH2 0x1620 PUSH0 DUP4 ADD DUP5 PUSH2 0x14C3 JUMP JUMPDEST SWAP3 SWAP2 POP POP JUMP JUMPDEST PUSH0 DUP2 MLOAD SWAP1 POP SWAP2 SWAP1 POP JUMP JUMPDEST PUSH0 DUP3 DUP3 MSTORE PUSH1 0x20 DUP3 ADD SWAP1 POP SWAP3 SWAP2 POP POP JUMP JUMPDEST PUSH0 DUP2 SWAP1 POP PUSH1 0x20 DUP3 ADD SWAP1 POP SWAP2 SWAP1 POP JUMP JUMPDEST PUSH2 0x1658 DUP2 PUSH2 0x1465 JUMP JUMPDEST DUP3 MSTORE POP POP JUMP JUMPDEST PUSH2 0x1667 DUP2 PUSH2 0x14F1 JUMP JUMPDEST DUP3 MSTORE POP POP JUMP JUMPDEST PUSH0 DUP3 DUP3 MSTORE PUSH1 0x20 DUP3 ADD SWAP1 POP SWAP3 SWAP2 POP POP JUMP JUMPDEST PUSH0 PUSH2 0x1687 DUP3 PUSH2 0x1511 JUMP JUMPDEST PUSH2 0x1691 DUP2 DUP6 PUSH2 0x166D JUMP JUMPDEST SWAP4 POP PUSH2 0x16A1 DUP2 DUP6 PUSH1 0x20 DUP7 ADD PUSH2 0x152B JUMP JUMPDEST PUSH2 0x16AA DUP2 PUSH2 0x1553 JUMP JUMPDEST DUP5 ADD SWAP2 POP POP SWAP3 SWAP2 POP POP JUMP JUMPDEST PUSH2 0x16BE DUP2 PUSH2 0x159B JUMP JUMPDEST DUP3 MSTORE POP POP JUMP JUMPDEST PUSH0 PUSH1 0x80 DUP4 ADD PUSH0 DUP4 ADD MLOAD PUSH2 0x16D9 PUSH0 DUP7 ADD DUP3 PUSH2 0x164F JUMP JUMPDEST POP PUSH1 0x20 DUP4 ADD MLOAD PUSH2 0x16EC PUSH1 0x20 DUP7 ADD DUP3 PUSH2 0x165E JUMP JUMPDEST POP PUSH1 0x40 DUP4 ADD MLOAD DUP5 DUP3 SUB PUSH1 0x40 DUP7 ADD MSTORE PUSH2 0x1704 DUP3 DUP3 PUSH2 0x167D JUMP JUMPDEST SWAP2 POP POP PUSH1 0x60 DUP4 ADD MLOAD PUSH2 0x1719 PUSH1 0x60 DUP7 ADD DUP3 PUSH2 0x16B5 JUMP JUMPDEST POP DUP1 SWAP2 POP POP SWAP3 SWAP2 POP POP JUMP JUMPDEST PUSH0 PUSH2 0x172F DUP4 DUP4 PUSH2 0x16C4 JUMP JUMPDEST SWAP1 POP SWAP3 SWAP2 POP POP JUMP JUMPDEST PUSH0 PUSH1 0x20 DUP3 ADD SWAP1 POP SWAP2 SWAP1 POP JUMP JUMPDEST PUSH0 PUSH2 0x174D DUP3 PUSH2 0x1626 JUMP JUMPDEST PUSH2 0x1757 DUP2 DUP6 PUSH2 0x1630 JUMP JUMPDEST SWAP4 POP DUP4 PUSH1 0x20 DUP3 MUL DUP6 ADD PUSH2 0x1769 DUP6 PUSH2 0x1640 JUMP JUMPDEST DUP1 PUSH0 JUMPDEST DUP6 DUP2 LT ISZERO PUSH2 0x17A4 JUMPI DUP5 DUP5 SUB DUP10 MSTORE DUP2 MLOAD PUSH2 0x1785 DUP6 DUP3 PUSH2 0x1724 JUMP JUMPDEST SWAP5 POP PUSH2 0x1790 DUP4 PUSH2 0x1737 JUMP JUMPDEST SWAP3 POP PUSH1 0x20 DUP11 ADD SWAP10 POP POP PUSH1 0x1 DUP2 ADD SWAP1 POP PUSH2 0x176C JUMP JUMPDEST POP DUP3 SWAP8 POP DUP8 SWAP6 POP POP POP POP POP POP SWAP3 SWAP2 POP POP JUMP JUMPDEST PUSH0 PUSH1 0x20 DUP3 ADD SWAP1 POP DUP2 DUP2 SUB PUSH0 DUP4 ADD MSTORE PUSH2 0x17CE DUP2 DUP5 PUSH2 0x1743 JUMP JUMPDEST SWAP1 POP SWAP3 SWAP2 POP POP JUMP JUMPDEST PUSH0 DUP2 MLOAD SWAP1 POP SWAP2 SWAP1 POP JUMP JUMPDEST PUSH0 DUP3 DUP3 MSTORE PUSH1 0x20 DUP3 ADD SWAP1 POP SWAP3 SWAP2 POP POP JUMP JUMPDEST PUSH0 DUP2 SWAP1 POP PUSH1 0x20 DUP3 ADD SWAP1 POP SWAP2 SWAP1 POP JUMP JUMPDEST PUSH0 PUSH1 0xA0 DUP4 ADD PUSH0 DUP4 ADD MLOAD PUSH2 0x1814 PUSH0 DUP7 ADD DUP3 PUSH2 0x164F JUMP JUMPDEST POP PUSH1 0x20 DUP4 ADD MLOAD PUSH2 0x1827 PUSH1 0x20 DUP7 ADD DUP3 PUSH2 0x165E JUMP JUMPDEST POP PUSH1 0x40 DUP4 ADD MLOAD DUP5 DUP3 SUB PUSH1 0x40 DUP7 ADD MSTORE PUSH2 0x183F DUP3 DUP3 PUSH2 0x167D JUMP JUMPDEST SWAP2 POP POP PUSH1 0x60 DUP4 ADD MLOAD PUSH2 0x1854 PUSH1 0x60 DUP7 ADD DUP3 PUSH2 0x164F JUMP JUMPDEST POP PUSH1 0x80 DUP4 ADD MLOAD PUSH2 0x1867 PUSH1 0x80 DUP7 ADD DUP3 PUSH2 0x16B5 JUMP JUMPDEST POP DUP1 SWAP2 POP POP SWAP3 SWAP2 POP POP JUMP JUMPDEST PUSH0 PUSH2 0x187D DUP4 DUP4 PUSH2 0x17FF JUMP JUMPDEST SWAP1 POP SWAP3 SWAP2 POP POP JUMP JUMPDEST PUSH0 PUSH1 0x20 DUP3 ADD SWAP1 POP SWAP2 SWAP1 POP JUMP JUMPDEST PUSH0 PUSH2 0x189B DUP3 PUSH2 0x17D6 JUMP JUMPDEST PUSH2 0x18A5 DUP2 DUP6 PUSH2 0x17E0 JUMP JUMPDEST SWAP4 POP DUP4 PUSH1 0x20 DUP3 MUL DUP6 ADD PUSH2 0x18B7 DUP6 PUSH2 0x17F0 JUMP JUMPDEST DUP1 PUSH0 JUMPDEST DUP6 DUP2 LT ISZERO PUSH2 0x18F2 JUMPI DUP5 DUP5 SUB DUP10 MSTORE DUP2 MLOAD PUSH2 0x18D3 DUP6 DUP3 PUSH2 0x1872 JUMP JUMPDEST SWAP5 POP PUSH2 0x18DE DUP4 PUSH2 0x1885 JUMP JUMPDEST SWAP3 POP PUSH1 0x20 DUP11 ADD SWAP10 POP POP PUSH1 0x1 DUP2 ADD SWAP1 POP PUSH2 0x18BA JUMP JUMPDEST POP DUP3 SWAP8 POP DUP8 SWAP6 POP POP POP POP POP POP SWAP3 SWAP2 POP POP JUMP JUMPDEST PUSH0 PUSH1 0x20 DUP3 ADD SWAP1 POP DUP2 DUP2 SUB PUSH0 DUP4 ADD MSTORE PUSH2 0x191C DUP2 DUP5 PUSH2 0x1891 JUMP JUMPDEST SWAP1 POP SWAP3 SWAP2 POP POP JUMP JUMPDEST PUSH0 DUP1 REVERT JUMPDEST PUSH0 DUP1 REVERT JUMPDEST PUSH32 0x4E487B7100000000000000000000000000000000000000000000000000000000 PUSH0 MSTORE PUSH1 0x41 PUSH1 0x4 MSTORE PUSH1 0x24 PUSH0 REVERT JUMPDEST PUSH2 0x1962 DUP3 PUSH2 0x1553 JUMP JUMPDEST DUP2 ADD DUP2 DUP2 LT PUSH8 0xFFFFFFFFFFFFFFFF DUP3 GT OR ISZERO PUSH2 0x1981 JUMPI PUSH2 0x1980 PUSH2 0x192C JUMP JUMPDEST JUMPDEST DUP1 PUSH1 0x40 MSTORE POP POP POP JUMP JUMPDEST PUSH0 PUSH2 0x1993 PUSH2 0x1454 JUMP JUMPDEST SWAP1 POP PUSH2 0x199F DUP3 DUP3 PUSH2 0x1959 JUMP JUMPDEST SWAP2 SWAP1 POP JUMP JUMPDEST PUSH0 PUSH8 0xFFFFFFFFFFFFFFFF DUP3 GT ISZERO PUSH2 0x19BE JUMPI PUSH2 0x19BD PUSH2 0x192C JUMP JUMPDEST JUMPDEST PUSH2 0x19C7 DUP3 PUSH2 0x1553 JUMP JUMPDEST SWAP1 POP PUSH1 0x20 DUP2 ADD SWAP1 POP SWAP2 SWAP1 POP JUMP JUMPDEST DUP3 DUP2 DUP4 CALLDATACOPY PUSH0 DUP4 DUP4 ADD MSTORE POP POP POP JUMP JUMPDEST PUSH0 PUSH2 0x19F4 PUSH2 0x19EF DUP5 PUSH2 0x19A4 JUMP JUMPDEST PUSH2 0x198A JUMP JUMPDEST SWAP1 POP DUP3 DUP2 MSTORE PUSH1 0x20 DUP2 ADD DUP5 DUP5 DUP5 ADD GT ISZERO PUSH2 0x1A10 JUMPI PUSH2 0x1A0F PUSH2 0x1928 JUMP JUMPDEST JUMPDEST PUSH2 0x1A1B DUP5 DUP3 DUP6 PUSH2 0x19D4 JUMP JUMPDEST POP SWAP4 SWAP3 POP POP POP JUMP JUMPDEST PUSH0 DUP3 PUSH1 0x1F DUP4 ADD SLT PUSH2 0x1A37 JUMPI PUSH2 0x1A36 PUSH2 0x1924 JUMP JUMPDEST JUMPDEST DUP2 CALLDATALOAD PUSH2 0x1A47 DUP5 DUP3 PUSH1 0x20 DUP7 ADD PUSH2 0x19E2 JUMP JUMPDEST SWAP2 POP POP SWAP3 SWAP2 POP POP JUMP JUMPDEST PUSH0 PUSH1 0x20 DUP3 DUP5 SUB SLT ISZERO PUSH2 0x1A65 JUMPI PUSH2 0x1A64 PUSH2 0x145D JUMP JUMPDEST JUMPDEST PUSH0 DUP3 ADD CALLDATALOAD PUSH8 0xFFFFFFFFFFFFFFFF DUP2 GT ISZERO PUSH2 0x1A82 JUMPI PUSH2 0x1A81 PUSH2 0x1461 JUMP JUMPDEST JUMPDEST PUSH2 0x1A8E DUP5 DUP3 DUP6 ADD PUSH2 0x1A23 JUMP JUMPDEST SWAP2 POP POP SWAP3 SWAP2 POP POP JUMP JUMPDEST PUSH0 PUSH1 0x80 DUP3 ADD SWAP1 POP PUSH2 0x1AAA PUSH0 DUP4 ADD DUP8 PUSH2 0x14C3 JUMP JUMPDEST PUSH2 0x1AB7 PUSH1 0x20 DUP4 ADD DUP7 PUSH2 0x1502 JUMP JUMPDEST DUP2 DUP2 SUB PUSH1 0x40 DUP4 ADD MSTORE PUSH2 0x1AC9 DUP2 DUP6 PUSH2 0x1563 JUMP JUMPDEST SWAP1 POP PUSH2 0x1AD8 PUSH1 0x60 DUP4 ADD DUP5 PUSH2 0x15A6 JUMP JUMPDEST SWAP6 SWAP5 POP POP POP POP POP JUMP JUMPDEST PUSH0 PUSH1 0xA0 DUP4 ADD PUSH0 DUP4 ADD MLOAD PUSH2 0x1AF6 PUSH0 DUP7 ADD DUP3 PUSH2 0x164F JUMP JUMPDEST POP PUSH1 0x20 DUP4 ADD MLOAD PUSH2 0x1B09 PUSH1 0x20 DUP7 ADD DUP3 PUSH2 0x165E JUMP JUMPDEST POP PUSH1 0x40 DUP4 ADD MLOAD DUP5 DUP3 SUB PUSH1 0x40 DUP7 ADD MSTORE PUSH2 0x1B21 DUP3 DUP3 PUSH2 0x167D JUMP JUMPDEST SWAP2 POP POP PUSH1 0x60 DUP4 ADD MLOAD PUSH2 0x1B36 PUSH1 0x60 DUP7 ADD DUP3 PUSH2 0x164F JUMP JUMPDEST POP PUSH1 0x80 DUP4 ADD MLOAD PUSH2 0x1B49 PUSH1 0x80 DUP7 ADD DUP3 PUSH2 0x16B5 JUMP JUMPDEST POP DUP1 SWAP2 POP POP SWAP3 SWAP2 POP POP JUMP JUMPDEST PUSH0 PUSH1 0x20 DUP3 ADD SWAP1 POP DUP2 DUP2 SUB PUSH0 DUP4 ADD MSTORE PUSH2 0x1B6C DUP2 DUP5 PUSH2 0x1AE1 JUMP JUMPDEST SWAP1 POP SWAP3 SWAP2 POP POP JUMP JUMPDEST PUSH0 PUSH1 0x20 DUP3 ADD SWAP1 POP PUSH2 0x1B87 PUSH0 DUP4 ADD DUP5 PUSH2 0x1502 JUMP JUMPDEST SWAP3 SWAP2 POP POP JUMP JUMPDEST PUSH0 DUP1 PUSH1 0x40 DUP4 DUP6 SUB SLT ISZERO PUSH2 0x1BA3 JUMPI PUSH2 0x1BA2 PUSH2 0x145D JUMP JUMPDEST JUMPDEST PUSH0 PUSH2 0x1BB0 DUP6 DUP3 DUP7 ADD PUSH2 0x1484 JUMP JUMPDEST SWAP3 POP POP PUSH1 0x20 DUP4 ADD CALLDATALOAD PUSH8 0xFFFFFFFFFFFFFFFF DUP2 GT ISZERO PUSH2 0x1BD1 JUMPI PUSH2 0x1BD0 PUSH2 0x1461 JUMP JUMPDEST JUMPDEST PUSH2 0x1BDD DUP6 DUP3 DUP7 ADD PUSH2 0x1A23 JUMP JUMPDEST SWAP2 POP POP SWAP3 POP SWAP3 SWAP1 POP JUMP JUMPDEST PUSH2 0x1BF0 DUP2 PUSH2 0x14F1 JUMP JUMPDEST DUP2 EQ PUSH2 0x1BFA JUMPI PUSH0 DUP1 REVERT JUMPDEST POP JUMP JUMPDEST PUSH0 DUP2 CALLDATALOAD SWAP1 POP PUSH2 0x1C0B DUP2 PUSH2 0x1BE7 JUMP JUMPDEST SWAP3 SWAP2 POP POP JUMP JUMPDEST PUSH0 PUSH1 0x20 DUP3 DUP5 SUB SLT ISZERO PUSH2 0x1C26 JUMPI PUSH2 0x1C25 PUSH2 0x145D JUMP JUMPDEST JUMPDEST PUSH0 PUSH2 0x1C33 DUP5 DUP3 DUP6 ADD PUSH2 0x1BFD JUMP JUMPDEST SWAP2 POP POP SWAP3 SWAP2 POP POP JUMP JUMPDEST PUSH32 0x4E487B7100000000000000000000000000000000000000000000000000000000 PUSH0 MSTORE PUSH1 0x22 PUSH1 0x4 MSTORE PUSH1 0x24 PUSH0 REVERT JUMPDEST PUSH0 PUSH1 0x2 DUP3 DIV SWAP1 POP PUSH1 0x1 DUP3 AND DUP1 PUSH2 0x1C80 JUMPI PUSH1 0x7F DUP3 AND SWAP2 POP JUMPDEST PUSH1 0x20 DUP3 LT DUP2 SUB PUSH2 0x1C93 JUMPI PUSH2 0x1C92 PUSH2 0x1C3C JUMP JUMPDEST JUMPDEST POP SWAP2 SWAP1 POP JUMP JUMPDEST PUSH32 0x4E487B7100000000000000000000000000000000000000000000000000000000 PUSH0 MSTORE PUSH1 0x32 PUSH1 0x4 MSTORE PUSH1 0x24 PUSH0 REVERT JUMPDEST PUSH32 0x4E487B7100000000000000000000000000000000000000000000000000000000 PUSH0 MSTORE PUSH1 0x11 PUSH1 0x4 MSTORE PUSH1 0x24 PUSH0 REVERT JUMPDEST PUSH0 PUSH2 0x1CFD DUP3 PUSH2 0x1465 JUMP JUMPDEST SWAP2 POP PUSH32 0xFFFFFFFFFFFFFFFFFFFFFFFFFFFFFFFFFFFFFFFFFFFFFFFFFFFFFFFFFFFFFFFF DUP3 SUB PUSH2 0x1D2F JUMPI PUSH2 0x1D2E PUSH2 0x1CC6 JUMP JUMPDEST JUMPDEST PUSH1 0x1 DUP3 ADD SWAP1 POP SWAP2 SWAP1 POP JUMP JUMPDEST PUSH32 0x4D6573736167652063616E6E6F7420626520656D707479000000000000000000 PUSH0 DUP3 ADD MSTORE POP JUMP JUMPDEST PUSH0 PUSH2 0x1D6E PUSH1 0x17 DUP4 PUSH2 0x151B JUMP JUMPDEST SWAP2 POP PUSH2 0x1D79 DUP3 PUSH2 0x1D3A JUMP JUMPDEST PUSH1 0x20 DUP3 ADD SWAP1 POP SWAP2 SWAP1 POP JUMP JUMPDEST PUSH0 PUSH1 0x20 DUP3 ADD SWAP1 POP DUP2 DUP2 SUB PUSH0 DUP4 ADD MSTORE PUSH2 0x1D9B DUP2 PUSH2 0x1D62 JUMP JUMPDEST SWAP1 POP SWAP2 SWAP1 POP JUMP JUMPDEST PUSH0 DUP2 SWAP1 POP DUP2 PUSH0 MSTORE PUSH1 0x20 PUSH0 KECCAK256 SWAP1 POP SWAP2 SWAP1 POP JUMP JUMPDEST PUSH0 PUSH1 0x20 PUSH1 0x1F DUP4 ADD DIV SWAP1 POP SWAP2 SWAP1 POP JUMP JUMPDEST PUSH0 DUP3 DUP3 SHL SWAP1 POP SWAP3 SWAP2 POP POP JUMP JUMPDEST PUSH0 PUSH1 0x8 DUP4 MUL PUSH2 0x1DFE PUSH32 0xFFFFFFFFFFFFFFFFFFFFFFFFFFFFFFFFFFFFFFFFFFFFFFFFFFFFFFFFFFFFFFFF DUP3 PUSH2 0x1DC3 JUMP JUMPDEST PUSH2 0x1E08 DUP7 DUP4 PUSH2 0x1DC3 JUMP JUMPDEST SWAP6 POP DUP1 NOT DUP5 AND SWAP4 POP DUP1 DUP7 AND DUP5 OR SWAP3 POP POP POP SWAP4 SWAP3 POP POP POP JUMP JUMPDEST PUSH0 DUP2 SWAP1 POP SWAP2 SWAP1 POP JUMP JUMPDEST PUSH0 PUSH2 0x1E43 PUSH2 0x1E3E PUSH2 0x1E39 DUP5 PUSH2 0x1465 JUMP JUMPDEST PUSH2 0x1E20 JUMP JUMPDEST PUSH2 0x1465 JUMP JUMPDEST SWAP1 POP SWAP2 SWAP1 POP JUMP JUMPDEST PUSH0 DUP2 SWAP1 POP SWAP2 SWAP1 POP JUMP JUMPDEST PUSH2 0x1E5C DUP4 PUSH2 0x1E29 JUMP JUMPDEST PUSH2 0x1E70 PUSH2 0x1E68 DUP3 PUSH2 0x1E4A JUMP JUMPDEST DUP5 DUP5 SLOAD PUSH2 0x1DCF JUMP JUMPDEST DUP3 SSTORE POP POP POP POP JUMP JUMPDEST PUSH0 SWAP1 JUMP JUMPDEST PUSH2 0x1E84 PUSH2 0x1E78 JUMP JUMPDEST PUSH2 0x1E8F DUP2 DUP5 DUP5 PUSH2 0x1E53 JUMP JUMPDEST POP POP POP JUMP JUMPDEST JUMPDEST DUP2 DUP2 LT ISZERO PUSH2 0x1EB2 JUMPI PUSH2 0x1EA7 PUSH0 DUP3 PUSH2 0x1E7C JUMP JUMPDEST PUSH1 0x1 DUP2 ADD SWAP1 POP PUSH2 0x1E95 JUMP JUMPDEST POP POP JUMP JUMPDEST PUSH1 0x1F DUP3 GT ISZERO PUSH2 0x1EF7 JUMPI PUSH2 0x1EC8 DUP2 PUSH2 0x1DA2 JUMP JUMPDEST PUSH2 0x1ED1 DUP5 PUSH2 0x1DB4 JUMP JUMPDEST DUP2 ADD PUSH1 0x20 DUP6 LT ISZERO PUSH2 0x1EE0 JUMPI DUP2 SWAP1 POP JUMPDEST PUSH2 0x1EF4 PUSH2 0x1EEC DUP6 PUSH2 0x1DB4 JUMP JUMPDEST DUP4 ADD DUP3 PUSH2 0x1E94 JUMP JUMPDEST POP POP JUMPDEST POP POP POP JUMP JUMPDEST PUSH0 DUP3 DUP3 SHR SWAP1 POP SWAP3 SWAP2 POP POP JUMP JUMPDEST PUSH0 PUSH2 0x1F17 PUSH0 NOT DUP5 PUSH1 0x8 MUL PUSH2 0x1EFC JUMP JUMPDEST NOT DUP1 DUP4 AND SWAP2 POP POP SWAP3 SWAP2 POP POP JUMP JUMPDEST PUSH0 PUSH2 0x1F2F DUP4 DUP4 PUSH2 0x1F08 JUMP JUMPDEST SWAP2 POP DUP3 PUSH1 0x2 MUL DUP3 OR SWAP1 POP SWAP3 SWAP2 POP POP JUMP JUMPDEST PUSH2 0x1F48 DUP3 PUSH2 0x1511 JUMP JUMPDEST PUSH8 0xFFFFFFFFFFFFFFFF DUP2 GT ISZERO PUSH2 0x1F61 JUMPI PUSH2 0x1F60 PUSH2 0x192C JUMP JUMPDEST JUMPDEST PUSH2 0x1F6B DUP3 SLOAD PUSH2 0x1C69 JUMP JUMPDEST PUSH2 0x1F76 DUP3 DUP3 DUP6 PUSH2 0x1EB6 JUMP JUMPDEST PUSH0 PUSH1 0x20 SWAP1 POP PUSH1 0x1F DUP4 GT PUSH1 0x1 DUP2 EQ PUSH2 0x1FA7 JUMPI PUSH0 DUP5 ISZERO PUSH2 0x1F95 JUMPI DUP3 DUP8 ADD MLOAD SWAP1 POP JUMPDEST PUSH2 0x1F9F DUP6 DUP3 PUSH2 0x1F24 JUMP JUMPDEST DUP7 SSTORE POP PUSH2 0x2006 JUMP JUMPDEST PUSH1 0x1F NOT DUP5 AND PUSH2 0x1FB5 DUP7 PUSH2 0x1DA2 JUMP JUMPDEST PUSH0 JUMPDEST DUP3 DUP2 LT ISZERO PUSH2 0x1FDC JUMPI DUP5 DUP10 ADD MLOAD DUP3 SSTORE PUSH1 0x1 DUP3 ADD SWAP2 POP PUSH1 0x20 DUP6 ADD SWAP5 POP PUSH1 0x20 DUP2 ADD SWAP1 POP PUSH2 0x1FB7 JUMP JUMPDEST DUP7 DUP4 LT ISZERO PUSH2 0x1FF9 JUMPI DUP5 DUP10 ADD MLOAD PUSH2 0x1FF5 PUSH1 0x1F DUP10 AND DUP3 PUSH2 0x1F08 JUMP JUMPDEST DUP4 SSTORE POP JUMPDEST PUSH1 0x1 PUSH1 0x2 DUP9 MUL ADD DUP9 SSTORE POP POP POP JUMPDEST POP POP POP POP POP POP JUMP JUMPDEST PUSH0 PUSH1 0x20 DUP3 ADD SWAP1 POP DUP2 DUP2 SUB PUSH0 DUP4 ADD MSTORE PUSH2 0x2026 DUP2 DUP5 PUSH2 0x1563 JUMP JUMPDEST SWAP1 POP SWAP3 SWAP2 POP POP JUMP JUMPDEST PUSH32 0x496E76616C696420656469742072657175657374204944000000000000000000 PUSH0 DUP3 ADD MSTORE POP JUMP JUMPDEST PUSH0 PUSH2 0x2062 PUSH1 0x17 DUP4 PUSH2 0x151B JUMP JUMPDEST SWAP2 POP PUSH2 0x206D DUP3 PUSH2 0x202E JUMP JUMPDEST PUSH1 0x20 DUP3 ADD SWAP1 POP SWAP2 SWAP1 POP JUMP JUMPDEST PUSH0 PUSH1 0x20 DUP3 ADD SWAP1 POP DUP2 DUP2 SUB PUSH0 DUP4 ADD MSTORE PUSH2 0x208F DUP2 PUSH2 0x2056 JUMP JUMPDEST SWAP1 POP SWAP2 SWAP1 POP JUMP JUMPDEST PUSH32 0x45646974207265717565737420616C726561647920617070726F766564000000 PUSH0 DUP3 ADD MSTORE POP JUMP JUMPDEST PUSH0 PUSH2 0x20CA PUSH1 0x1D DUP4 PUSH2 0x151B JUMP JUMPDEST SWAP2 POP PUSH2 0x20D5 DUP3 PUSH2 0x2096 JUMP JUMPDEST PUSH1 0x20 DUP3 ADD SWAP1 POP SWAP2 SWAP1 POP JUMP JUMPDEST PUSH0 PUSH1 0x20 DUP3 ADD SWAP1 POP DUP2 DUP2 SUB PUSH0 DUP4 ADD MSTORE PUSH2 0x20F7 DUP2 PUSH2 0x20BE JUMP JUMPDEST SWAP1 POP SWAP2 SWAP1 POP JUMP JUMPDEST PUSH0 DUP2 SLOAD SWAP1 POP PUSH2 0x210C DUP2 PUSH2 0x1C69 JUMP JUMPDEST SWAP1 POP SWAP2 SWAP1 POP JUMP JUMPDEST PUSH0 DUP2 SWAP1 POP DUP2 PUSH0 MSTORE PUSH1 0x20 PUSH0 KECCAK256 SWAP1 POP SWAP2 SWAP1 POP JUMP JUMPDEST DUP2 DUP2 SUB PUSH2 0x2133 JUMPI POP POP PUSH2 0x2208 JUMP JUMPDEST PUSH2 0x213C DUP3 PUSH2 0x20FE JUMP JUMPDEST PUSH8 0xFFFFFFFFFFFFFFFF DUP2 GT ISZERO PUSH2 0x2155 JUMPI PUSH2 0x2154 PUSH2 0x192C JUMP JUMPDEST JUMPDEST PUSH2 0x215F DUP3 SLOAD PUSH2 0x1C69 JUMP JUMPDEST PUSH2 0x216A DUP3 DUP3 DUP6 PUSH2 0x1EB6 JUMP JUMPDEST PUSH0 PUSH1 0x1F DUP4 GT PUSH1 0x1 DUP2 EQ PUSH2 0x2197 JUMPI PUSH0 DUP5 ISZERO PUSH2 0x2185 JUMPI DUP3 DUP8 ADD SLOAD SWAP1 POP JUMPDEST PUSH2 0x218F DUP6 DUP3 PUSH2 0x1F24 JUMP JUMPDEST DUP7 SSTORE POP PUSH2 0x2201 JUMP JUMPDEST PUSH1 0x1F NOT DUP5 AND PUSH2 0x21A5 DUP8 PUSH2 0x2113 JUMP JUMPDEST SWAP7 POP PUSH2 0x21B0 DUP7 PUSH2 0x1DA2 JUMP JUMPDEST PUSH0 JUMPDEST DUP3 DUP2 LT ISZERO PUSH2 0x21D7 JUMPI DUP5 DUP10 ADD SLOAD DUP3 SSTORE PUSH1 0x1 DUP3 ADD SWAP2 POP PUSH1 0x1 DUP6 ADD SWAP5 POP PUSH1 0x20 DUP2 ADD SWAP1 POP PUSH2 0x21B2 JUMP JUMPDEST DUP7 DUP4 LT ISZERO PUSH2 0x21F4 JUMPI DUP5 DUP10 ADD SLOAD PUSH2 0x21F0 PUSH1 0x1F DUP10 AND DUP3 PUSH2 0x1F08 JUMP JUMPDEST DUP4 SSTORE POP JUMPDEST PUSH1 0x1 PUSH1 0x2 DUP9 MUL ADD DUP9 SSTORE POP POP POP JUMPDEST POP POP POP POP POP POP JUMPDEST JUMP JUMPDEST PUSH0 DUP2 SLOAD PUSH2 0x2216 DUP2 PUSH2 0x1C69 JUMP JUMPDEST PUSH2 0x2220 DUP2 DUP7 PUSH2 0x151B JUMP JUMPDEST SWAP5 POP PUSH1 0x1 DUP3 AND PUSH0 DUP2 EQ PUSH2 0x223A JUMPI PUSH1 0x1 DUP2 EQ PUSH2 0x2250 JUMPI PUSH2 0x2282 JUMP JUMPDEST PUSH1 0xFF NOT DUP4 AND DUP7 MSTORE DUP2 ISZERO ISZERO PUSH1 0x20 MUL DUP7 ADD SWAP4 POP PUSH2 0x2282 JUMP JUMPDEST PUSH2 0x2259 DUP6 PUSH2 0x1DA2 JUMP JUMPDEST PUSH0 JUMPDEST DUP4 DUP2 LT ISZERO PUSH2 0x227A JUMPI DUP2 SLOAD DUP2 DUP10 ADD MSTORE PUSH1 0x1 DUP3 ADD SWAP2 POP PUSH1 0x20 DUP2 ADD SWAP1 POP PUSH2 0x225B JUMP JUMPDEST DUP1 DUP9 ADD SWAP6 POP POP POP JUMPDEST POP POP POP SWAP3 SWAP2 POP POP JUMP JUMPDEST PUSH0 PUSH1 0x20 DUP3 ADD SWAP1 POP DUP2 DUP2 SUB PUSH0 DUP4 ADD MSTORE PUSH2 0x22A3 DUP2 DUP5 PUSH2 0x220A JUMP JUMPDEST SWAP1 POP SWAP3 SWAP2 POP POP JUMP JUMPDEST PUSH32 0x496E76616C6964206D6573736167652049440000000000000000000000000000 PUSH0 DUP3 ADD MSTORE POP JUMP JUMPDEST PUSH0 PUSH2 0x22DF PUSH1 0x12 DUP4 PUSH2 0x151B JUMP JUMPDEST SWAP2 POP PUSH2 0x22EA DUP3 PUSH2 0x22AB JUMP JUMPDEST PUSH1 0x20 DUP3 ADD SWAP1 POP SWAP2 SWAP1 POP JUMP JUMPDEST PUSH0 PUSH1 0x20 DUP3 ADD SWAP1 POP DUP2 DUP2 SUB PUSH0 DUP4 ADD MSTORE PUSH2 0x230C DUP2 PUSH2 0x22D3 JUMP JUMPDEST SWAP1 POP SWAP2 SWAP1 POP JUMP JUMPDEST PUSH32 0x4D65737361676520686173206265656E2064656C657465640000000000000000 PUSH0 DUP3 ADD MSTORE POP JUMP JUMPDEST PUSH0 PUSH2 0x2347 PUSH1 0x18 DUP4 PUSH2 0x151B JUMP JUMPDEST SWAP2 POP PUSH2 0x2352 DUP3 PUSH2 0x2313 JUMP JUMPDEST PUSH1 0x20 DUP3 ADD SWAP1 POP SWAP2 SWAP1 POP JUMP JUMPDEST PUSH0 PUSH1 0x20 DUP3 ADD SWAP1 POP DUP2 DUP2 SUB PUSH0 DUP4 ADD MSTORE PUSH2 0x2374 DUP2 PUSH2 0x233B JUMP JUMPDEST SWAP1 POP SWAP2 SWAP1 POP JUMP JUMPDEST PUSH32 0x4F6E6C79206D65737361676520617574686F722063616E207265717565737420 PUSH0 DUP3 ADD MSTORE PUSH32 0x6564697400000000000000000000000000000000000000000000000000000000 PUSH1 0x20 DUP3 ADD MSTORE POP JUMP JUMPDEST PUSH0 PUSH2 0x23D5 PUSH1 0x24 DUP4 PUSH2 0x151B JUMP JUMPDEST SWAP2 POP PUSH2 0x23E0 DUP3 PUSH2 0x237B JUMP JUMPDEST PUSH1 0x40 DUP3 ADD SWAP1 POP SWAP2 SWAP1 POP JUMP JUMPDEST PUSH0 PUSH1 0x20 DUP3 ADD SWAP1 POP DUP2 DUP2 SUB PUSH0 DUP4 ADD MSTORE PUSH2 0x2402 DUP2 PUSH2 0x23C9 JUMP JUMPDEST SWAP1 POP SWAP2 SWAP1 POP JUMP JUMPDEST PUSH32 0x4E657720636F6E74656E742063616E6E6F7420626520656D7074790000000000 PUSH0 DUP3 ADD MSTORE POP JUMP JUMPDEST PUSH0 PUSH2 0x243D PUSH1 0x1B DUP4 PUSH2 0x151B JUMP JUMPDEST SWAP2 POP PUSH2 0x2448 DUP3 PUSH2 0x2409 JUMP JUMPDEST PUSH1 0x20 DUP3 ADD SWAP1 POP SWAP2 SWAP1 POP JUMP JUMPDEST PUSH0 PUSH1 0x20 DUP3 ADD SWAP1 POP DUP2 DUP2 SUB PUSH0 DUP4 ADD MSTORE PUSH2 0x246A DUP2 PUSH2 0x2431 JUMP JUMPDEST SWAP1 POP SWAP2 SWAP1 POP JUMP JUMPDEST PUSH32 0x4D65737361676520616C72656164792064656C65746564000000000000000000 PUSH0 DUP3 ADD MSTORE POP JUMP JUMPDEST PUSH0 PUSH2 0x24A5 PUSH1 0x17 DUP4 PUSH2 0x151B JUMP JUMPDEST SWAP2 POP PUSH2 0x24B0 DUP3 PUSH2 0x2471 JUMP JUMPDEST PUSH1 0x20 DUP3 ADD SWAP1 POP SWAP2 SWAP1 POP JUMP JUMPDEST PUSH0 PUSH1 0x20 DUP3 ADD SWAP1 POP DUP2 DUP2 SUB PUSH0 DUP4 ADD MSTORE PUSH2 0x24D2 DUP2 PUSH2 0x2499 JUMP JUMPDEST SWAP1 POP SWAP2 SWAP1 POP JUMP JUMPDEST PUSH32 0x5265656E7472616E637947756172643A207265656E7472616E742063616C6C00 PUSH0 DUP3 ADD MSTORE POP JUMP JUMPDEST PUSH0 PUSH2 0x250D PUSH1 0x1F DUP4 PUSH2 0x151B JUMP JUMPDEST SWAP2 POP PUSH2 0x2518 DUP3 PUSH2 0x24D9 JUMP JUMPDEST PUSH1 0x20 DUP3 ADD SWAP1 POP SWAP2 SWAP1 POP JUMP JUMPDEST PUSH0 PUSH1 0x20 DUP3 ADD SWAP1 POP DUP2 DUP2 SUB PUSH0 DUP4 ADD MSTORE PUSH2 0x253A DUP2 PUSH2 0x2501 JUMP JUMPDEST SWAP1 POP SWAP2 SWAP1 POP JUMP INVALID LOG2 PUSH5 0x6970667358 0x22 SLT KECCAK256 0xEF 0xE1 CODESIZE PUSH2 0xC91C SWAP4 0xB4 0xD0 0xEB CALLER CALLER TIMESTAMP EXTCODESIZE 0xE4 0xAA SWAP14 LOG1 0xBD RETURNDATASIZE PC DUP1 0x1F 0xFB 0x29 EXP 0xFB PUSH8 0x3B5F2A2E64736F6C PUSH4 0x43000814 STOP CALLER "
		},
		"gasEstimates": {
			"creation": {
				"codeDepositCost": "1918200",
				"executionCost": "infinite",
				"totalCost": "infinite"
			},
			"external": {
				"approveMessageEdit(uint256)": "infinite",
				"deleteMessage(uint256)": "infinite",
				"editRequestCount()": "2471",
				"editRequests(uint256)": "infinite",
				"getAllMessages()": "infinite",
				"getMessage(uint256)": "infinite",
				"getPendingEditRequests()": "infinite",
				"messageCount()": "2493",
				"messages(uint256)": "infinite",
				"owner()": "2537",
				"postMessage(string)": "infinite",
				"renounceOwnership()": "infinite",
				"requestMessageEdit(uint256,string)": "infinite",
				"transferOwnership(address)": "infinite"
			}
		},
		"methodIdentifiers": {
			"approveMessageEdit(uint256)": "83c3cca7",
			"deleteMessage(uint256)": "b888690a",
			"editRequestCount()": "3bdae52f",
			"editRequests(uint256)": "77175fac",
			"getAllMessages()": "53f5e380",
			"getMessage(uint256)": "86f79edb",
			"getPendingEditRequests()": "44a56dd9",
			"messageCount()": "3dbcc8d1",
			"messages(uint256)": "0d80fefd",
			"owner()": "8da5cb5b",
			"postMessage(string)": "6630f88f",
			"renounceOwnership()": "715018a6",
			"requestMessageEdit(uint256,string)": "a8c69fd8",
			"transferOwnership(address)": "f2fde38b"
		}
	},
	"abi": [
		{
			"inputs": [],
			"stateMutability": "nonpayable",
			"type": "constructor"
		},
		{
			"inputs": [
				{
					"internalType": "address",
					"name": "owner",
					"type": "address"
				}
			],
			"name": "OwnableInvalidOwner",
			"type": "error"
		},
		{
			"inputs": [
				{
					"internalType": "address",
					"name": "account",
					"type": "address"
				}
			],
			"name": "OwnableUnauthorizedAccount",
			"type": "error"
		},
		{
			"anonymous": false,
			"inputs": [
				{
					"indexed": true,
					"internalType": "uint256",
					"name": "messageId",
					"type": "uint256"
				},
				{
					"indexed": false,
					"internalType": "string",
					"name": "newContent",
					"type": "string"
				}
			],
			"name": "EditApproved",
			"type": "event"
		},
		{
			"anonymous": false,
			"inputs": [
				{
					"indexed": true,
					"internalType": "uint256",
					"name": "messageId",
					"type": "uint256"
				},
				{
					"indexed": true,
					"internalType": "address",
					"name": "requester",
					"type": "address"
				},
				{
					"indexed": false,
					"internalType": "string",
					"name": "newContent",
					"type": "string"
				}
			],
			"name": "EditRequested",
			"type": "event"
		},
		{
			"anonymous": false,
			"inputs": [
				{
					"indexed": true,
					"internalType": "uint256",
					"name": "messageId",
					"type": "uint256"
				}
			],
			"name": "MessageDeleted",
			"type": "event"
		},
		{
			"anonymous": false,
			"inputs": [
				{
					"indexed": true,
					"internalType": "uint256",
					"name": "messageId",
					"type": "uint256"
				},
				{
					"indexed": true,
					"internalType": "address",
					"name": "author",
					"type": "address"
				},
				{
					"indexed": false,
					"internalType": "string",
					"name": "content",
					"type": "string"
				}
			],
			"name": "MessagePosted",
			"type": "event"
		},
		{
			"anonymous": false,
			"inputs": [
				{
					"indexed": true,
					"internalType": "address",
					"name": "previousOwner",
					"type": "address"
				},
				{
					"indexed": true,
					"internalType": "address",
					"name": "newOwner",
					"type": "address"
				}
			],
			"name": "OwnershipTransferred",
			"type": "event"
		},
		{
			"inputs": [
				{
					"internalType": "uint256",
					"name": "_editRequestId",
					"type": "uint256"
				}
			],
			"name": "approveMessageEdit",
			"outputs": [],
			"stateMutability": "nonpayable",
			"type": "function"
		},
		{
			"inputs": [
				{
					"internalType": "uint256",
					"name": "_messageId",
					"type": "uint256"
				}
			],
			"name": "deleteMessage",
			"outputs": [],
			"stateMutability": "nonpayable",
			"type": "function"
		},
		{
			"inputs": [],
			"name": "editRequestCount",
			"outputs": [
				{
					"internalType": "uint256",
					"name": "",
					"type": "uint256"
				}
			],
			"stateMutability": "view",
			"type": "function"
		},
		{
			"inputs": [
				{
					"internalType": "uint256",
					"name": "",
					"type": "uint256"
				}
			],
			"name": "editRequests",
			"outputs": [
				{
					"internalType": "uint256",
					"name": "messageId",
					"type": "uint256"
				},
				{
					"internalType": "address",
					"name": "requester",
					"type": "address"
				},
				{
					"internalType": "string",
					"name": "newContent",
					"type": "string"
				},
				{
					"internalType": "bool",
					"name": "isApproved",
					"type": "bool"
				}
			],
			"stateMutability": "view",
			"type": "function"
		},
		{
			"inputs": [],
			"name": "getAllMessages",
			"outputs": [
				{
					"components": [
						{
							"internalType": "uint256",
							"name": "id",
							"type": "uint256"
						},
						{
							"internalType": "address",
							"name": "author",
							"type": "address"
						},
						{
							"internalType": "string",
							"name": "content",
							"type": "string"
						},
						{
							"internalType": "uint256",
							"name": "timestamp",
							"type": "uint256"
						},
						{
							"internalType": "bool",
							"name": "isDeleted",
							"type": "bool"
						}
					],
					"internalType": "struct DecentralizedMessageBoard.Message[]",
					"name": "",
					"type": "tuple[]"
				}
			],
			"stateMutability": "view",
			"type": "function"
		},
		{
			"inputs": [
				{
					"internalType": "uint256",
					"name": "_messageId",
					"type": "uint256"
				}
			],
			"name": "getMessage",
			"outputs": [
				{
					"components": [
						{
							"internalType": "uint256",
							"name": "id",
							"type": "uint256"
						},
						{
							"internalType": "address",
							"name": "author",
							"type": "address"
						},
						{
							"internalType": "string",
							"name": "content",
							"type": "string"
						},
						{
							"internalType": "uint256",
							"name": "timestamp",
							"type": "uint256"
						},
						{
							"internalType": "bool",
							"name": "isDeleted",
							"type": "bool"
						}
					],
					"internalType": "struct DecentralizedMessageBoard.Message",
					"name": "",
					"type": "tuple"
				}
			],
			"stateMutability": "view",
			"type": "function"
		},
		{
			"inputs": [],
			"name": "getPendingEditRequests",
			"outputs": [
				{
					"components": [
						{
							"internalType": "uint256",
							"name": "messageId",
							"type": "uint256"
						},
						{
							"internalType": "address",
							"name": "requester",
							"type": "address"
						},
						{
							"internalType": "string",
							"name": "newContent",
							"type": "string"
						},
						{
							"internalType": "bool",
							"name": "isApproved",
							"type": "bool"
						}
					],
					"internalType": "struct DecentralizedMessageBoard.EditRequest[]",
					"name": "",
					"type": "tuple[]"
				}
			],
			"stateMutability": "view",
			"type": "function"
		},
		{
			"inputs": [],
			"name": "messageCount",
			"outputs": [
				{
					"internalType": "uint256",
					"name": "",
					"type": "uint256"
				}
			],
			"stateMutability": "view",
			"type": "function"
		},
		{
			"inputs": [
				{
					"internalType": "uint256",
					"name": "",
					"type": "uint256"
				}
			],
			"name": "messages",
			"outputs": [
				{
					"internalType": "uint256",
					"name": "id",
					"type": "uint256"
				},
				{
					"internalType": "address",
					"name": "author",
					"type": "address"
				},
				{
					"internalType": "string",
					"name": "content",
					"type": "string"
				},
				{
					"internalType": "uint256",
					"name": "timestamp",
					"type": "uint256"
				},
				{
					"internalType": "bool",
					"name": "isDeleted",
					"type": "bool"
				}
			],
			"stateMutability": "view",
			"type": "function"
		},
		{
			"inputs": [],
			"name": "owner",
			"outputs": [
				{
					"internalType": "address",
					"name": "",
					"type": "address"
				}
			],
			"stateMutability": "view",
			"type": "function"
		},
		{
			"inputs": [
				{
					"internalType": "string",
					"name": "_content",
					"type": "string"
				}
			],
			"name": "postMessage",
			"outputs": [
				{
					"internalType": "uint256",
					"name": "",
					"type": "uint256"
				}
			],
			"stateMutability": "nonpayable",
			"type": "function"
		},
		{
			"inputs": [],
			"name": "renounceOwnership",
			"outputs": [],
			"stateMutability": "nonpayable",
			"type": "function"
		},
		{
			"inputs": [
				{
					"internalType": "uint256",
					"name": "_messageId",
					"type": "uint256"
				},
				{
					"internalType": "string",
					"name": "_newContent",
					"type": "string"
				}
			],
			"name": "requestMessageEdit",
			"outputs": [],
			"stateMutability": "nonpayable",
			"type": "function"
		},
		{
			"inputs": [
				{
					"internalType": "address",
					"name": "newOwner",
					"type": "address"
				}
			],
			"name": "transferOwnership",
			"outputs": [],
			"stateMutability": "nonpayable",
			"type": "function"
		}
	]
}